{
	"data": {
		"bytecode": {
			"linkReferences": {},
			"object": "608060405234801561001057600080fd5b50614178806100206000396000f3fe6080604052600436106100865760003560e01c806379131a191161005957806379131a1914610131578063a5f8cdbb14610174578063aad5632a14610190578063f9beec0d146101bb578063fd1035a6146101f857610086565b806325cc976d1461008b5780634717dea9146100b457806357c93c0e146100f15780636cbc2ded1461011a575b600080fd5b34801561009757600080fd5b506100b260048036038101906100ad919061334c565b610235565b005b3480156100c057600080fd5b506100db60048036038101906100d6919061331f565b6109fe565b6040516100e89190613901565b60405180910390f35b3480156100fd57600080fd5b50610118600480360381019061011391906133b9565b610b02565b005b34801561012657600080fd5b5061012f610c79565b005b34801561013d57600080fd5b506101586004803603810190610153919061331f565b611307565b60405161016b9796959493929190613937565b60405180910390f35b61018e6004803603810190610189919061331f565b611363565b005b34801561019c57600080fd5b506101a56119e6565b6040516101b2919061391c565b60405180910390f35b3480156101c757600080fd5b506101e260048036038101906101dd919061338c565b611bad565b6040516101ef91906139a6565b60405180910390f35b34801561020457600080fd5b5061021f600480360381019061021a919061331f565b611c25565b60405161022c919061375f565b60405180910390f35b60008060008473ffffffffffffffffffffffffffffffffffffffff1673ffffffffffffffffffffffffffffffffffffffff1681526020019081526020016000209050600061028282611d83565b90506001600381111561029857610297613dd7565b5b8160038111156102ab576102aa613dd7565b5b14806102db5750600260038111156102c6576102c5613dd7565b5b8160038111156102d9576102d8613dd7565b5b145b61031a576040517f08c379a000000000000000000000000000000000000000000000000000000000815260040161031190613801565b60405180910390fd5b600032905060008360030160008373ffffffffffffffffffffffffffffffffffffffff1673ffffffffffffffffffffffffffffffffffffffff1681526020019081526020016000209050600115158160030160009054906101000a900460ff161515146103bc576040517f08c379a00000000000000000000000000000000000000000000000000000000081526004016103b3906137a1565b60405180910390fd5b600073ffffffffffffffffffffffffffffffffffffffff1684600801600087600b8111156103ed576103ec613dd7565b5b60ff1660ff16815260200190815260200160002060009054906101000a900473ffffffffffffffffffffffffffffffffffffffff1673ffffffffffffffffffffffffffffffffffffffff1614610478576040517f08c379a000000000000000000000000000000000000000000000000000000000815260040161046f90613781565b60405180910390fd5b6003600b81111561048c5761048b613dd7565b5b85600b81111561049f5761049e613dd7565b5b14806104cf57506004600b8111156104ba576104b9613dd7565b5b85600b8111156104cd576104cc613dd7565b5b145b806104fe57506005600b8111156104e9576104e8613dd7565b5b85600b8111156104fc576104fb613dd7565b5b145b1561073b578173ffffffffffffffffffffffffffffffffffffffff168460080160006003600b81111561053457610533613dd7565b5b60ff1660ff16815260200190815260200160002060009054906101000a900473ffffffffffffffffffffffffffffffffffffffff1673ffffffffffffffffffffffffffffffffffffffff1614156105c0576040517f08c379a00000000000000000000000000000000000000000000000000000000081526004016105b7906138a1565b60405180910390fd5b8173ffffffffffffffffffffffffffffffffffffffff168460080160006004600b8111156105f1576105f0613dd7565b5b60ff1660ff16815260200190815260200160002060009054906101000a900473ffffffffffffffffffffffffffffffffffffffff1673ffffffffffffffffffffffffffffffffffffffff16141561067d576040517f08c379a0000000000000000000000000000000000000000000000000000000008152600401610674906138a1565b60405180910390fd5b8173ffffffffffffffffffffffffffffffffffffffff168460080160006005600b8111156106ae576106ad613dd7565b5b60ff1660ff16815260200190815260200160002060009054906101000a900473ffffffffffffffffffffffffffffffffffffffff1673ffffffffffffffffffffffffffffffffffffffff16141561073a576040517f08c379a0000000000000000000000000000000000000000000000000000000008152600401610731906138a1565b60405180910390fd5b5b6000846005015490506000610838876000808b73ffffffffffffffffffffffffffffffffffffffff1673ffffffffffffffffffffffffffffffffffffffff16815260200190815260200160002060030160008773ffffffffffffffffffffffffffffffffffffffff1673ffffffffffffffffffffffffffffffffffffffff1681526020019081526020016000206040518060400160405290816000820160038060200260405190810160405280929190826003801561080f576020028201915b8154815260200190600101908083116107fb575b505050505081526020016003820160009054906101000a900460ff161515151581525050611e19565b905060006006600b8111156108505761084f613dd7565b5b88600b81111561086357610862613dd7565b5b14156108b657600083198316905060005b60048110156108a957600082141561088b576108a9565b610894826123db565b915080806108a190613c9c565b915050610874565b50600081119150506108bf565b60008383161490505b60001515811515141561094c57600115158760020160009054906101000a900460ff161515141561090c5760008460030160006101000a81548160ff021916908315150217905550610947565b6040517f08c379a000000000000000000000000000000000000000000000000000000000815260040161093e90613841565b60405180910390fd5b6109f3565b848760080160008a600b81111561096657610965613dd7565b5b60ff1660ff16815260200190815260200160002060006101000a81548173ffffffffffffffffffffffffffffffffffffffff021916908373ffffffffffffffffffffffffffffffffffffffff16021790555086600901600081819054906101000a900460ff16809291906109d990613c72565b91906101000a81548160ff021916908360ff160217905550505b505050505050505050565b610a06613134565b60008060008473ffffffffffffffffffffffffffffffffffffffff1673ffffffffffffffffffffffffffffffffffffffff168152602001908152602001600020905060003290508160030160008273ffffffffffffffffffffffffffffffffffffffff1673ffffffffffffffffffffffffffffffffffffffff16815260200190815260200160002060405180604001604052908160008201600380602002604051908101604052809291908260038015610ad5576020028201915b815481526020019060010190808311610ac1575b505050505081526020016003820160009054906101000a900460ff16151515158152505092505050919050565b6064821015610b46576040517f08c379a0000000000000000000000000000000000000000000000000000000008152600401610b3d906137c1565b60405180910390fd5b600032905060008060008373ffffffffffffffffffffffffffffffffffffffff1673ffffffffffffffffffffffffffffffffffffffff16815260200190815260200160002090506000610b9882611d83565b9050600380811115610bad57610bac613dd7565b5b816003811115610bc057610bbf613dd7565b5b1480610bd15750610bd0826123f3565b5b610c10576040517f08c379a0000000000000000000000000000000000000000000000000000000008152600401610c07906138c1565b60405180910390fd5b848260010181905550838260020160006101000a81548160ff0219169083151502179055506b03ffffffffffffffffffffff8260050181905550600c8260090160006101000a81548160ff021916908360ff160217905550605a82600601819055505050505050565b600032905060008060008373ffffffffffffffffffffffffffffffffffffffff1673ffffffffffffffffffffffffffffffffffffffff16815260200190815260200160002090506000610ccb82611d83565b905060026003811115610ce157610ce0613dd7565b5b816003811115610cf457610cf3613dd7565b5b14610d34576040517f08c379a0000000000000000000000000000000000000000000000000000000008152600401610d2b90613881565b60405180910390fd5b600082600701549050610d45613156565b60005b600b80811115610d5b57610d5a613dd7565b5b60ff168160ff161161100f5760008160ff16600b811115610d7f57610d7e613dd7565b5b905060008660080160008460ff1660ff16815260200190815260200160002060009054906101000a900473ffffffffffffffffffffffffffffffffffffffff16905060008760080160008560ff1660ff16815260200190815260200160002060006101000a81548173ffffffffffffffffffffffffffffffffffffffff021916908373ffffffffffffffffffffffffffffffffffffffff160217905550600073ffffffffffffffffffffffffffffffffffffffff168173ffffffffffffffffffffffffffffffffffffffff1614610ffa576000610e5b83611bad565b9050600060648260ff168a60070154610e749190613af6565b610e7e9190613ac5565b90508087610e8c9190613b8b565b965060005b600c811015610ff657600073ffffffffffffffffffffffffffffffffffffffff168782600c8110610ec557610ec4613e06565b5b60200201516000015173ffffffffffffffffffffffffffffffffffffffff161415610f5f57838782600c8110610efe57610efd613e06565b5b60200201516000019073ffffffffffffffffffffffffffffffffffffffff16908173ffffffffffffffffffffffffffffffffffffffff1681525050818782600c8110610f4d57610f4c613e06565b5b60200201516020018181525050610ff6565b8373ffffffffffffffffffffffffffffffffffffffff168782600c8110610f8957610f88613e06565b5b60200201516000015173ffffffffffffffffffffffffffffffffffffffff161415610fe357818782600c8110610fc257610fc1613e06565b5b6020020151602001818151610fd79190613a38565b91508181525050610ff6565b8080610fee90613c9c565b915050610e91565b5050505b5050808061100790613ce5565b915050610d48565b5060005b600c81101561110157600073ffffffffffffffffffffffffffffffffffffffff168282600c811061104757611046613e06565b5b60200201516000015173ffffffffffffffffffffffffffffffffffffffff16141561107157611101565b8181600c811061108457611083613e06565b5b60200201516000015173ffffffffffffffffffffffffffffffffffffffff166108fc8383600c81106110b9576110b8613e06565b5b6020020151602001519081150290604051600060405180830381858888f193505050501580156110ed573d6000803e3d6000fd5b5080806110f990613c9c565b915050611013565b5060006064600360ff16866007015461111a9190613af6565b6111249190613ac5565b905080836111329190613b8b565b92508573ffffffffffffffffffffffffffffffffffffffff166108fc829081150290604051600060405180830381858888f1935050505015801561117a573d6000803e3d6000fd5b50735c2e9bae4fe4e7710a2f1f83c521db632f66f24273ffffffffffffffffffffffffffffffffffffffff166108fc849081150290604051600060405180830381858888f193505050501580156111d5573d6000803e3d6000fd5b5060005b856004018054905081101561129e576000866004018281548110611200576111ff613e06565b5b9060005260206000200160009054906101000a900473ffffffffffffffffffffffffffffffffffffffff16905060008760030160008373ffffffffffffffffffffffffffffffffffffffff1673ffffffffffffffffffffffffffffffffffffffff16815260200190815260200160002060030160006101000a81548160ff02191690831515021790555050808061129690613c9c565b9150506111d9565b508460040160006112af9190613184565b6000856001018190555060008560050181905550600085600601819055506000856007018190555060008560090160006101000a81548160ff021916908360ff16021790555060008560000181905550505050505050565b60006020528060005260406000206000915090508060000154908060010154908060020160009054906101000a900460ff16908060050154908060060154908060070154908060090160009054906101000a900460ff16905087565b60008060008373ffffffffffffffffffffffffffffffffffffffff1673ffffffffffffffffffffffffffffffffffffffff168152602001908152602001600020905060006113b082611d83565b9050600060038111156113c6576113c5613dd7565b5b8160038111156113d9576113d8613dd7565b5b14611419576040517f08c379a000000000000000000000000000000000000000000000000000000000815260040161141090613821565b60405180910390fd5b8160010154341461145f576040517f08c379a0000000000000000000000000000000000000000000000000000000008152600401611456906138e1565b60405180910390fd5b600032905060008360030160008373ffffffffffffffffffffffffffffffffffffffff1673ffffffffffffffffffffffffffffffffffffffff1681526020019081526020016000209050600015158160030160009054906101000a900460ff16151514611501576040517f08c379a00000000000000000000000000000000000000000000000000000000081526004016114f8906137e1565b60405180910390fd5b83600401829080600181540180825580915050600190039060005260206000200160009091909190916101000a81548173ffffffffffffffffffffffffffffffffffffffff021916908373ffffffffffffffffffffffffffffffffffffffff1602179055503484600701600082825461157a9190613a38565b9250508190555060006115938560040180549050612406565b905061159d6131a5565b6115a56131a5565b6115ad6131a5565b6115b68461243d565b80955081945050506115c78461243d565b80955081935050506115d88461243d565b80955081925050506115e86131c7565b6115f06131ea565b60005b60058110156117ec57828682600581106116105761160f613e06565b5b602002015160ff166009811061162957611628613e06565b5b60200201805180919061163b90613ce5565b60ff1660ff16815250508285826005811061165957611658613e06565b5b602002015160ff166009811061167257611671613e06565b5b60200201805180919061168490613ce5565b60ff1660ff1681525050828482600581106116a2576116a1613e06565b5b602002015160ff16600981106116bb576116ba613e06565b5b6020020180518091906116cd90613ce5565b60ff1660ff16815250506001828783600581106116ed576116ec613e06565b5b602002015160ff166009811061170657611705613e06565b5b602002015160006003811061171e5761171d613e06565b5b60200201901515908115158152505060018286836005811061174357611742613e06565b5b602002015160ff166009811061175c5761175b613e06565b5b602002015160016003811061177457611773613e06565b5b60200201901515908115158152505060018285836005811061179957611798613e06565b5b602002015160ff16600981106117b2576117b1613e06565b5b60200201516002600381106117ca576117c9613e06565b5b60200201901515908115158152505080806117e490613c9c565b9150506115f3565b5060005b600981101561183857600383826009811061180e5761180d613e06565b5b602002015160ff16111561182557611824613d4a565b5b808061183090613c9c565b9150506117f0565b50611841613218565b60005b60098160ff1610156119ba576118758882868460ff166009811061186b5761186a613e06565b5b602002015161259b565b809950819350505060006118a683868460ff166009811061189957611898613e06565b5b602002015160ff16612a0c565b90506000805b868460ff16600981106118c2576118c1613e06565b5b602002015160ff168260ff161080156118de575060038160ff16105b156119a45760011515868560ff16600981106118fd576118fc613e06565b5b60200201518260ff166003811061191757611916613e06565b5b602002015115151415611991576001838360ff166003811061193c5761193b613e06565b5b602002015161194b9190613bbf565b60ff166001901b8c6000018260ff166003811061196b5761196a613e06565b5b01600082825461197b9190613a38565b92505081905550818061198d90613ce5565b9250505b808061199c90613ce5565b9150506118ac565b50505080806119b290613ce5565b915050611844565b5060018860030160006101000a81548160ff021916908315150217905550505050505050505050505050565b60008032905060008060008373ffffffffffffffffffffffffffffffffffffffff1673ffffffffffffffffffffffffffffffffffffffff16815260200190815260200160002090506000611a3982611d83565b905060006003811115611a4f57611a4e613dd7565b5b816003811115611a6257611a61613dd7565b5b1480611a92575060016003811115611a7d57611a7c613dd7565b5b816003811115611a9057611a8f613dd7565b5b145b611ad1576040517f08c379a0000000000000000000000000000000000000000000000000000000008152600401611ac890613861565b60405180910390fd5b60008260050154905060008360060154611aea83612406565b611af49190613d19565b90506000805b605a811015611b9e576000816001901b85161115611b8b5782821415611b7c576000816001901b199050866006016000815480929190611b3990613c48565b91905055508085168760050181905550600087600501541415611b60574287600001819055505b600182611b6d9190613a38565b98505050505050505050611baa565b8180611b8790613c9c565b9250505b8080611b9690613c9c565b915050611afa565b50600096505050505050505b90565b60006003600b811115611bc357611bc2613dd7565b5b82600b811115611bd657611bd5613dd7565b5b1415611be557601e9050611c20565b6004600b811115611bf957611bf8613dd7565b5b82600b811115611c0c57611c0b613dd7565b5b1415611c1b57600f9050611c20565b600590505b919050565b606060008060008473ffffffffffffffffffffffffffffffffffffffff1673ffffffffffffffffffffffffffffffffffffffff16815260200190815260200160002090506000600c67ffffffffffffffff811115611c8657611c85613e35565b5b604051908082528060200260200182016040528015611cb45781602001602082028036833780820191505090505b50905060005b600b80811115611ccd57611ccc613dd7565b5b60ff168160ff1611611d78578260080160008260ff1660ff16815260200190815260200160002060009054906101000a900473ffffffffffffffffffffffffffffffffffffffff16828260ff1681518110611d2b57611d2a613e06565b5b602002602001019073ffffffffffffffffffffffffffffffffffffffff16908173ffffffffffffffffffffffffffffffffffffffff16815250508080611d7090613ce5565b915050611cba565b508092505050919050565b60008082600101541415611d9a5760039050611e14565b605a82600601541415611db05760009050611e14565b60008260090160009054906101000a900460ff1660ff161415611dd65760029050611e14565b600082600601541115611dec5760019050611e14565b620151808260000154611dff9190613a38565b421115611e0f5760029050611e14565b600190505b919050565b600080600b811115611e2e57611e2d613dd7565b5b83600b811115611e4157611e40613dd7565b5b1415611e6b578160000151600060038110611e5f57611e5e613e06565b5b602002015190506123d5565b6001600b811115611e7f57611e7e613dd7565b5b83600b811115611e9257611e91613dd7565b5b1415611ebc578160000151600160038110611eb057611eaf613e06565b5b602002015190506123d5565b6002600b811115611ed057611ecf613dd7565b5b83600b811115611ee357611ee2613dd7565b5b1415611f0d578160000151600260038110611f0157611f00613e06565b5b602002015190506123d5565b6003600b811115611f2157611f20613dd7565b5b83600b811115611f3457611f33613dd7565b5b1480611f6457506004600b811115611f4f57611f4e613dd7565b5b83600b811115611f6257611f61613dd7565b5b145b80611f9357506005600b811115611f7e57611f7d613dd7565b5b83600b811115611f9157611f90613dd7565b5b145b15611ff8578160000151600260038110611fb057611faf613e06565b5b60200201518260000151600160038110611fcd57611fcc613e06565b5b60200201518360000151600060038110611fea57611fe9613e06565b5b6020020151171790506123d5565b6008600b81111561200c5761200b613dd7565b5b83600b81111561201f5761201e613dd7565b5b141561206d576000826000015160016003811061203f5761203e613e06565b5b6020020151905061204f816123db565b905061205a816123db565b9050612065816130b5565b9150506123d5565b6007600b81111561208157612080613dd7565b5b83600b81111561209457612093613dd7565b5b14156121505760006120c183600001516000600381106120b7576120b6613e06565b5b60200201516130b5565b905060006120ea84600001516002600381106120e0576120df613e06565b5b60200201516130b5565b90506000612113856000015160006003811061210957612108613e06565b5b60200201516130cf565b9050600061213c866000015160026003811061213257612131613e06565b5b60200201516130cf565b9050828183861717179450505050506123d5565b6009600b81111561216457612163613dd7565b5b83600b81111561217757612176613dd7565b5b14156121ef576000826000015160026003811061219757612196613e06565b5b602002015183600001516001600381106121b4576121b3613e06565b5b602002015184600001516000600381106121d1576121d0613e06565b5b6020020151171790506000631fffffff9050808216925050506123d5565b600a600b81111561220357612202613dd7565b5b83600b81111561221657612215613dd7565b5b1415612292576000826000015160026003811061223657612235613e06565b5b6020020151836000015160016003811061225357612252613e06565b5b602002015184600001516000600381106122705761226f613e06565b5b60200201511717905060006707ffffffe00000009050808216925050506123d5565b600b808111156122a5576122a4613dd7565b5b83600b8111156122b8576122b7613dd7565b5b141561233857600082600001516002600381106122d8576122d7613e06565b5b602002015183600001516001600381106122f5576122f4613e06565b5b6020020151846000015160006003811061231257612311613e06565b5b60200201511717905060006b03fffffff8000000000000009050808216925050506123d5565b6006600b81111561234c5761234b613dd7565b5b83600b81111561235f5761235e613dd7565b5b14156123c557816000015160026003811061237d5761237c613e06565b5b6020020151826000015160016003811061239a57612399613e06565b5b602002015183600001516000600381106123b7576123b6613e06565b5b6020020151171790506123d5565b6b03ffffffffffffffffffffff90505b92915050565b60006001826123ea9190613b8b565b82169050919050565b6000808260040180549050149050919050565b600044428360405160200161241d93929190613722565b6040516020818303038152906040528051906020012060001c9050919050565b6124456131a5565b600080604051806101200160405280600060ff168152602001600160ff168152602001600260ff168152602001600360ff168152602001600460ff168152602001600560ff168152602001600660ff168152602001600760ff168152602001600860ff1681525090506124b66131a5565b60005b600581101561258d576124cb86612406565b955060008160096124dc9190613b8b565b876124e79190613d19565b90508381600981106124fc576124fb613e06565b5b602002015183836005811061251457612513613e06565b5b602002019060ff16908160ff16815250508382600160096125359190613b8b565b61253f9190613b8b565b600981106125505761254f613e06565b5b602002015184826009811061256857612567613e06565b5b602002019060ff16908160ff168152505050808061258590613c9c565b9150506124b9565b508085935093505050915091565b6125a3613218565b60006125ad613218565b60008560ff161415612718576000604051806101200160405280600160ff168152602001600260ff168152602001600360ff168152602001600460ff168152602001600560ff168152602001600660ff168152602001600760ff168152602001600860ff168152602001600960ff16815250905060005b8560ff168110156127115761263888612406565b975060008160096126499190613b8b565b896126549190613d19565b905082816009811061266957612668613e06565b5b6020020151600a8961267b9190613b50565b6126859190613a8e565b84836003811061269857612697613e06565b5b602002019060ff16908160ff16815250508282600160096126b99190613b8b565b6126c39190613b8b565b600981106126d4576126d3613e06565b5b60200201518382600981106126ec576126eb613e06565b5b602002019060ff16908160ff168152505050808061270990613c9c565b915050612624565b50506129fd565b60088560ff161415612897576000604051806101600160405280600060ff168152602001600160ff168152602001600260ff168152602001600360ff168152602001600460ff168152602001600560ff168152602001600660ff168152602001600760ff168152602001600860ff168152602001600960ff168152602001600a60ff16815250905060005b8560ff16811015612890576127b788612406565b9750600081600b6127c89190613b8b565b896127d39190613d19565b90508281600b81106127e8576127e7613e06565b5b6020020151600a896127fa9190613b50565b6128049190613a8e565b84836003811061281757612816613e06565b5b602002019060ff16908160ff168152505082826001600b6128389190613b8b565b6128429190613b8b565b600b811061285357612852613e06565b5b60200201518382600b811061286b5761286a613e06565b5b602002019060ff16908160ff168152505050808061288890613c9c565b9150506127a3565b50506129fc565b6000604051806101400160405280600060ff168152602001600160ff168152602001600260ff168152602001600360ff168152602001600460ff168152602001600560ff168152602001600660ff168152602001600760ff168152602001600860ff168152602001600960ff16815250905060005b8560ff168110156129f95761292088612406565b9750600081600a6129319190613b8b565b8961293c9190613d19565b90508281600a811061295157612950613e06565b5b6020020151600a896129639190613b50565b61296d9190613a8e565b8483600381106129805761297f613e06565b5b602002019060ff16908160ff168152505082826001600a6129a19190613b8b565b6129ab9190613b8b565b600a81106129bc576129bb613e06565b5b60200201518382600a81106129d4576129d3613e06565b5b602002019060ff16908160ff16815250505080806129f190613c9c565b91505061290c565b50505b5b80869250925050935093915050565b612a14613218565b6003821415612fde57612a25613218565b83600160038110612a3957612a38613e06565b5b602002015160ff1684600060038110612a5557612a54613e06565b5b602002015160ff161115612d1e5783600260038110612a7757612a76613e06565b5b602002015160ff1684600060038110612a9357612a92613e06565b5b602002015160ff161115612c5e5783600260038110612ab557612ab4613e06565b5b602002015160ff1684600160038110612ad157612ad0613e06565b5b602002015160ff161115612b9e5783600260038110612af357612af2613e06565b5b602002015181600060038110612b0c57612b0b613e06565b5b602002019060ff16908160ff168152505083600160038110612b3157612b30613e06565b5b602002015181600160038110612b4a57612b49613e06565b5b602002019060ff16908160ff168152505083600060038110612b6f57612b6e613e06565b5b602002015181600260038110612b8857612b87613e06565b5b602002019060ff16908160ff1681525050612c59565b83600160038110612bb257612bb1613e06565b5b602002015181600060038110612bcb57612bca613e06565b5b602002019060ff16908160ff168152505083600260038110612bf057612bef613e06565b5b602002015181600160038110612c0957612c08613e06565b5b602002019060ff16908160ff168152505083600060038110612c2e57612c2d613e06565b5b602002015181600260038110612c4757612c46613e06565b5b602002019060ff16908160ff16815250505b612d19565b83600160038110612c7257612c71613e06565b5b602002015181600060038110612c8b57612c8a613e06565b5b602002019060ff16908160ff168152505083600060038110612cb057612caf613e06565b5b602002015181600160038110612cc957612cc8613e06565b5b602002019060ff16908160ff168152505083600260038110612cee57612ced613e06565b5b602002015181600260038110612d0757612d06613e06565b5b602002019060ff16908160ff16815250505b612fd5565b83600260038110612d3257612d31613e06565b5b602002015160ff1684600060038110612d4e57612d4d613e06565b5b602002015160ff161115612e1b5783600260038110612d7057612d6f613e06565b5b602002015181600060038110612d8957612d88613e06565b5b602002019060ff16908160ff168152505083600060038110612dae57612dad613e06565b5b602002015181600160038110612dc757612dc6613e06565b5b602002019060ff16908160ff168152505083600160038110612dec57612deb613e06565b5b602002015181600260038110612e0557612e04613e06565b5b602002019060ff16908160ff1681525050612fd4565b83600260038110612e2f57612e2e613e06565b5b602002015160ff1684600160038110612e4b57612e4a613e06565b5b602002015160ff161115612f185783600060038110612e6d57612e6c613e06565b5b602002015181600060038110612e8657612e85613e06565b5b602002019060ff16908160ff168152505083600260038110612eab57612eaa613e06565b5b602002015181600160038110612ec457612ec3613e06565b5b602002019060ff16908160ff168152505083600160038110612ee957612ee8613e06565b5b602002015181600260038110612f0257612f01613e06565b5b602002019060ff16908160ff1681525050612fd3565b83600060038110612f2c57612f2b613e06565b5b602002015181600060038110612f4557612f44613e06565b5b602002019060ff16908160ff168152505083600160038110612f6a57612f69613e06565b5b602002015181600160038110612f8357612f82613e06565b5b602002019060ff16908160ff168152505083600260038110612fa857612fa7613e06565b5b602002015181600260038110612fc157612fc0613e06565b5b602002019060ff16908160ff16815250505b5b5b809150506130af565b600282148015613023575082600160038110612ffd57612ffc613e06565b5b602002015160ff168360006003811061301957613018613e06565b5b602002015160ff16115b156130ab5760008360016003811061303e5761303d613e06565b5b602002015190508360006003811061305957613058613e06565b5b60200201518460016003811061307257613071613e06565b5b602002019060ff16908160ff1681525050808460006003811061309857613097613e06565b5b602002019060ff16908160ff1681525050505b8290505b92915050565b60006001826130c49190613b8b565b821682189050919050565b6000600182901c82179150600282901c82179150600482901c82179150600882901c82179150601082901c82179150602082901c82179150604082901c82179150608082901c821791506001826131269190613a38565b9150600182901c9050919050565b604051806040016040528061314761323a565b81526020016000151581525090565b604051806101800160405280600c905b61316e61325c565b8152602001906001900390816131665790505090565b50805460008255906000526020600020908101906131a2919061328c565b50565b6040518060a00160405280600590602082028036833780820191505090505090565b604051806101200160405280600990602082028036833780820191505090505090565b6040518061012001604052806009905b6132026132a9565b8152602001906001900390816131fa5790505090565b6040518060600160405280600390602082028036833780820191505090505090565b6040518060600160405280600390602082028036833780820191505090505090565b6040518060400160405280600073ffffffffffffffffffffffffffffffffffffffff168152602001600081525090565b5b808211156132a557600081600090555060010161328d565b5090565b6040518060600160405280600390602082028036833780820191505090505090565b6000813590506132da816140ed565b92915050565b6000813590506132ef81614104565b92915050565b6000813590506133048161411b565b92915050565b6000813590506133198161412b565b92915050565b60006020828403121561333557613334613e64565b5b6000613343848285016132cb565b91505092915050565b6000806040838503121561336357613362613e64565b5b6000613371858286016132cb565b9250506020613382858286016132f5565b9150509250929050565b6000602082840312156133a2576133a1613e64565b5b60006133b0848285016132f5565b91505092915050565b600080604083850312156133d0576133cf613e64565b5b60006133de8582860161330a565b92505060206133ef858286016132e0565b9150509250929050565b60006134058383613429565b60208301905092915050565b600061341d83836136de565b60208301905092915050565b61343281613bf3565b82525050565b6000613443826139db565b61344d8185613a0b565b9350613458836139c1565b8060005b8381101561348957815161347088826133f9565b975061347b836139f1565b92505060018101905061345c565b5085935050505092915050565b61349f816139e6565b6134a98184613a1c565b92506134b4826139d1565b8060005b838110156134e55781516134cc8782613411565b96506134d7836139fe565b9250506001810190506134b8565b505050505050565b6134f681613c05565b82525050565b61350581613c05565b82525050565b6000613518601583613a27565b915061352382613e69565b602082019050919050565b600061353b601383613a27565b915061354682613e92565b602082019050919050565b600061355e602083613a27565b915061356982613ebb565b602082019050919050565b6000613581601883613a27565b915061358c82613ee4565b602082019050919050565b60006135a4601283613a27565b91506135af82613f0d565b602082019050919050565b60006135c7600e83613a27565b91506135d282613f36565b602082019050919050565b60006135ea600683613a27565b91506135f582613f5f565b602082019050919050565b600061360d602a83613a27565b915061361882613f88565b604082019050919050565b6000613630601883613a27565b915061363b82613fd7565b602082019050919050565b6000613653602183613a27565b915061365e82614000565b604082019050919050565b6000613676603783613a27565b91506136818261404f565b604082019050919050565b6000613699602283613a27565b91506136a48261409e565b604082019050919050565b6080820160008201516136c56000850182613496565b5060208201516136d860608501826134ed565b50505050565b6136e781613c31565b82525050565b6136f681613c31565b82525050565b61370d61370882613c31565b613d0f565b82525050565b61371c81613c3b565b82525050565b600061372e82866136fc565b60208201915061373e82856136fc565b60208201915061374e82846136fc565b602082019150819050949350505050565b600060208201905081810360008301526137798184613438565b905092915050565b6000602082019050818103600083015261379a8161350b565b9050919050565b600060208201905081810360008301526137ba8161352e565b9050919050565b600060208201905081810360008301526137da81613551565b9050919050565b600060208201905081810360008301526137fa81613574565b9050919050565b6000602082019050818103600083015261381a81613597565b9050919050565b6000602082019050818103600083015261383a816135ba565b9050919050565b6000602082019050818103600083015261385a816135dd565b9050919050565b6000602082019050818103600083015261387a81613600565b9050919050565b6000602082019050818103600083015261389a81613623565b9050919050565b600060208201905081810360008301526138ba81613646565b9050919050565b600060208201905081810360008301526138da81613669565b9050919050565b600060208201905081810360008301526138fa8161368c565b9050919050565b600060808201905061391660008301846136af565b92915050565b600060208201905061393160008301846136ed565b92915050565b600060e08201905061394c600083018a6136ed565b61395960208301896136ed565b61396660408301886134fc565b61397360608301876136ed565b61398060808301866136ed565b61398d60a08301856136ed565b61399a60c0830184613713565b98975050505050505050565b60006020820190506139bb6000830184613713565b92915050565b6000819050602082019050919050565b6000819050919050565b600081519050919050565b600060039050919050565b6000602082019050919050565b6000602082019050919050565b600082825260208201905092915050565b600081905092915050565b600082825260208201905092915050565b6000613a4382613c31565b9150613a4e83613c31565b9250827fffffffffffffffffffffffffffffffffffffffffffffffffffffffffffffffff03821115613a8357613a82613d79565b5b828201905092915050565b6000613a9982613c3b565b9150613aa483613c3b565b92508260ff03821115613aba57613ab9613d79565b5b828201905092915050565b6000613ad082613c31565b9150613adb83613c31565b925082613aeb57613aea613da8565b5b828204905092915050565b6000613b0182613c31565b9150613b0c83613c31565b9250817fffffffffffffffffffffffffffffffffffffffffffffffffffffffffffffffff0483118215151615613b4557613b44613d79565b5b828202905092915050565b6000613b5b82613c3b565b9150613b6683613c3b565b92508160ff0483118215151615613b8057613b7f613d79565b5b828202905092915050565b6000613b9682613c31565b9150613ba183613c31565b925082821015613bb457613bb3613d79565b5b828203905092915050565b6000613bca82613c3b565b9150613bd583613c3b565b925082821015613be857613be7613d79565b5b828203905092915050565b6000613bfe82613c11565b9050919050565b60008115159050919050565b600073ffffffffffffffffffffffffffffffffffffffff82169050919050565b6000819050919050565b600060ff82169050919050565b6000613c5382613c31565b91506000821415613c6757613c66613d79565b5b600182039050919050565b6000613c7d82613c3b565b91506000821415613c9157613c90613d79565b5b600182039050919050565b6000613ca782613c31565b91507fffffffffffffffffffffffffffffffffffffffffffffffffffffffffffffffff821415613cda57613cd9613d79565b5b600182019050919050565b6000613cf082613c3b565b915060ff821415613d0457613d03613d79565b5b600182019050919050565b6000819050919050565b6000613d2482613c31565b9150613d2f83613c31565b925082613d3f57613d3e613da8565b5b828206905092915050565b7f4e487b7100000000000000000000000000000000000000000000000000000000600052600160045260246000fd5b7f4e487b7100000000000000000000000000000000000000000000000000000000600052601160045260246000fd5b7f4e487b7100000000000000000000000000000000000000000000000000000000600052601260045260246000fd5b7f4e487b7100000000000000000000000000000000000000000000000000000000600052602160045260246000fd5b7f4e487b7100000000000000000000000000000000000000000000000000000000600052603260045260246000fd5b7f4e487b7100000000000000000000000000000000000000000000000000000000600052604160045260246000fd5b600080fd5b7f5072697a6520616c726561647920636c61696d65640000000000000000000000600082015250565b7f4e6f207469636b65742070757263686173656400000000000000000000000000600082015250565b7f5469636b657420636f7374206d757374206265206174206c6561737420313030600082015250565b7f5469636b657420616c7265616479207075726368617365640000000000000000600082015250565b7f4e6f207072697a657320746f20636c61696d0000000000000000000000000000600082015250565b7f47616d65206e6f74207265616479000000000000000000000000000000000000600082015250565b7f426f676965210000000000000000000000000000000000000000000000000000600082015250565b7f47616d65206e6f742079657420617661696c61626c6520746f2067656e65726160008201527f7465206e756d6265727300000000000000000000000000000000000000000000602082015250565b7f47616d65206861736e27742066696e6973686564207965740000000000000000600082015250565b7f596f752063616e206f6e6c7920636c61696d206f6e652066756c6c20686f757360008201527f6500000000000000000000000000000000000000000000000000000000000000602082015250565b7f506c6561736520656e64207468652070726576696f75732067616d652062656660008201527f6f726520686f7374696e6720616e6f74686572206f6e65000000000000000000602082015250565b7f496e636f72726563742066756e64732073656e7420746f20627579207469636b60008201527f6574000000000000000000000000000000000000000000000000000000000000602082015250565b6140f681613bf3565b811461410157600080fd5b50565b61410d81613c05565b811461411857600080fd5b50565b600c811061412857600080fd5b50565b61413481613c31565b811461413f57600080fd5b5056fea26469706673582212205875c9bd1fa0ef204d8fdb146eb36fdb3f6dee5564267ab3ae7e01f6d59eb35464736f6c63430008070033",
			"opcodes": "PUSH1 0x80 PUSH1 0x40 MSTORE CALLVALUE DUP1 ISZERO PUSH2 0x10 JUMPI PUSH1 0x0 DUP1 REVERT JUMPDEST POP PUSH2 0x4178 DUP1 PUSH2 0x20 PUSH1 0x0 CODECOPY PUSH1 0x0 RETURN INVALID PUSH1 0x80 PUSH1 0x40 MSTORE PUSH1 0x4 CALLDATASIZE LT PUSH2 0x86 JUMPI PUSH1 0x0 CALLDATALOAD PUSH1 0xE0 SHR DUP1 PUSH4 0x79131A19 GT PUSH2 0x59 JUMPI DUP1 PUSH4 0x79131A19 EQ PUSH2 0x131 JUMPI DUP1 PUSH4 0xA5F8CDBB EQ PUSH2 0x174 JUMPI DUP1 PUSH4 0xAAD5632A EQ PUSH2 0x190 JUMPI DUP1 PUSH4 0xF9BEEC0D EQ PUSH2 0x1BB JUMPI DUP1 PUSH4 0xFD1035A6 EQ PUSH2 0x1F8 JUMPI PUSH2 0x86 JUMP JUMPDEST DUP1 PUSH4 0x25CC976D EQ PUSH2 0x8B JUMPI DUP1 PUSH4 0x4717DEA9 EQ PUSH2 0xB4 JUMPI DUP1 PUSH4 0x57C93C0E EQ PUSH2 0xF1 JUMPI DUP1 PUSH4 0x6CBC2DED EQ PUSH2 0x11A JUMPI JUMPDEST PUSH1 0x0 DUP1 REVERT JUMPDEST CALLVALUE DUP1 ISZERO PUSH2 0x97 JUMPI PUSH1 0x0 DUP1 REVERT JUMPDEST POP PUSH2 0xB2 PUSH1 0x4 DUP1 CALLDATASIZE SUB DUP2 ADD SWAP1 PUSH2 0xAD SWAP2 SWAP1 PUSH2 0x334C JUMP JUMPDEST PUSH2 0x235 JUMP JUMPDEST STOP JUMPDEST CALLVALUE DUP1 ISZERO PUSH2 0xC0 JUMPI PUSH1 0x0 DUP1 REVERT JUMPDEST POP PUSH2 0xDB PUSH1 0x4 DUP1 CALLDATASIZE SUB DUP2 ADD SWAP1 PUSH2 0xD6 SWAP2 SWAP1 PUSH2 0x331F JUMP JUMPDEST PUSH2 0x9FE JUMP JUMPDEST PUSH1 0x40 MLOAD PUSH2 0xE8 SWAP2 SWAP1 PUSH2 0x3901 JUMP JUMPDEST PUSH1 0x40 MLOAD DUP1 SWAP2 SUB SWAP1 RETURN JUMPDEST CALLVALUE DUP1 ISZERO PUSH2 0xFD JUMPI PUSH1 0x0 DUP1 REVERT JUMPDEST POP PUSH2 0x118 PUSH1 0x4 DUP1 CALLDATASIZE SUB DUP2 ADD SWAP1 PUSH2 0x113 SWAP2 SWAP1 PUSH2 0x33B9 JUMP JUMPDEST PUSH2 0xB02 JUMP JUMPDEST STOP JUMPDEST CALLVALUE DUP1 ISZERO PUSH2 0x126 JUMPI PUSH1 0x0 DUP1 REVERT JUMPDEST POP PUSH2 0x12F PUSH2 0xC79 JUMP JUMPDEST STOP JUMPDEST CALLVALUE DUP1 ISZERO PUSH2 0x13D JUMPI PUSH1 0x0 DUP1 REVERT JUMPDEST POP PUSH2 0x158 PUSH1 0x4 DUP1 CALLDATASIZE SUB DUP2 ADD SWAP1 PUSH2 0x153 SWAP2 SWAP1 PUSH2 0x331F JUMP JUMPDEST PUSH2 0x1307 JUMP JUMPDEST PUSH1 0x40 MLOAD PUSH2 0x16B SWAP8 SWAP7 SWAP6 SWAP5 SWAP4 SWAP3 SWAP2 SWAP1 PUSH2 0x3937 JUMP JUMPDEST PUSH1 0x40 MLOAD DUP1 SWAP2 SUB SWAP1 RETURN JUMPDEST PUSH2 0x18E PUSH1 0x4 DUP1 CALLDATASIZE SUB DUP2 ADD SWAP1 PUSH2 0x189 SWAP2 SWAP1 PUSH2 0x331F JUMP JUMPDEST PUSH2 0x1363 JUMP JUMPDEST STOP JUMPDEST CALLVALUE DUP1 ISZERO PUSH2 0x19C JUMPI PUSH1 0x0 DUP1 REVERT JUMPDEST POP PUSH2 0x1A5 PUSH2 0x19E6 JUMP JUMPDEST PUSH1 0x40 MLOAD PUSH2 0x1B2 SWAP2 SWAP1 PUSH2 0x391C JUMP JUMPDEST PUSH1 0x40 MLOAD DUP1 SWAP2 SUB SWAP1 RETURN JUMPDEST CALLVALUE DUP1 ISZERO PUSH2 0x1C7 JUMPI PUSH1 0x0 DUP1 REVERT JUMPDEST POP PUSH2 0x1E2 PUSH1 0x4 DUP1 CALLDATASIZE SUB DUP2 ADD SWAP1 PUSH2 0x1DD SWAP2 SWAP1 PUSH2 0x338C JUMP JUMPDEST PUSH2 0x1BAD JUMP JUMPDEST PUSH1 0x40 MLOAD PUSH2 0x1EF SWAP2 SWAP1 PUSH2 0x39A6 JUMP JUMPDEST PUSH1 0x40 MLOAD DUP1 SWAP2 SUB SWAP1 RETURN JUMPDEST CALLVALUE DUP1 ISZERO PUSH2 0x204 JUMPI PUSH1 0x0 DUP1 REVERT JUMPDEST POP PUSH2 0x21F PUSH1 0x4 DUP1 CALLDATASIZE SUB DUP2 ADD SWAP1 PUSH2 0x21A SWAP2 SWAP1 PUSH2 0x331F JUMP JUMPDEST PUSH2 0x1C25 JUMP JUMPDEST PUSH1 0x40 MLOAD PUSH2 0x22C SWAP2 SWAP1 PUSH2 0x375F JUMP JUMPDEST PUSH1 0x40 MLOAD DUP1 SWAP2 SUB SWAP1 RETURN JUMPDEST PUSH1 0x0 DUP1 PUSH1 0x0 DUP5 PUSH20 0xFFFFFFFFFFFFFFFFFFFFFFFFFFFFFFFFFFFFFFFF AND PUSH20 0xFFFFFFFFFFFFFFFFFFFFFFFFFFFFFFFFFFFFFFFF AND DUP2 MSTORE PUSH1 0x20 ADD SWAP1 DUP2 MSTORE PUSH1 0x20 ADD PUSH1 0x0 KECCAK256 SWAP1 POP PUSH1 0x0 PUSH2 0x282 DUP3 PUSH2 0x1D83 JUMP JUMPDEST SWAP1 POP PUSH1 0x1 PUSH1 0x3 DUP2 GT ISZERO PUSH2 0x298 JUMPI PUSH2 0x297 PUSH2 0x3DD7 JUMP JUMPDEST JUMPDEST DUP2 PUSH1 0x3 DUP2 GT ISZERO PUSH2 0x2AB JUMPI PUSH2 0x2AA PUSH2 0x3DD7 JUMP JUMPDEST JUMPDEST EQ DUP1 PUSH2 0x2DB JUMPI POP PUSH1 0x2 PUSH1 0x3 DUP2 GT ISZERO PUSH2 0x2C6 JUMPI PUSH2 0x2C5 PUSH2 0x3DD7 JUMP JUMPDEST JUMPDEST DUP2 PUSH1 0x3 DUP2 GT ISZERO PUSH2 0x2D9 JUMPI PUSH2 0x2D8 PUSH2 0x3DD7 JUMP JUMPDEST JUMPDEST EQ JUMPDEST PUSH2 0x31A JUMPI PUSH1 0x40 MLOAD PUSH32 0x8C379A000000000000000000000000000000000000000000000000000000000 DUP2 MSTORE PUSH1 0x4 ADD PUSH2 0x311 SWAP1 PUSH2 0x3801 JUMP JUMPDEST PUSH1 0x40 MLOAD DUP1 SWAP2 SUB SWAP1 REVERT JUMPDEST PUSH1 0x0 ORIGIN SWAP1 POP PUSH1 0x0 DUP4 PUSH1 0x3 ADD PUSH1 0x0 DUP4 PUSH20 0xFFFFFFFFFFFFFFFFFFFFFFFFFFFFFFFFFFFFFFFF AND PUSH20 0xFFFFFFFFFFFFFFFFFFFFFFFFFFFFFFFFFFFFFFFF AND DUP2 MSTORE PUSH1 0x20 ADD SWAP1 DUP2 MSTORE PUSH1 0x20 ADD PUSH1 0x0 KECCAK256 SWAP1 POP PUSH1 0x1 ISZERO ISZERO DUP2 PUSH1 0x3 ADD PUSH1 0x0 SWAP1 SLOAD SWAP1 PUSH2 0x100 EXP SWAP1 DIV PUSH1 0xFF AND ISZERO ISZERO EQ PUSH2 0x3BC JUMPI PUSH1 0x40 MLOAD PUSH32 0x8C379A000000000000000000000000000000000000000000000000000000000 DUP2 MSTORE PUSH1 0x4 ADD PUSH2 0x3B3 SWAP1 PUSH2 0x37A1 JUMP JUMPDEST PUSH1 0x40 MLOAD DUP1 SWAP2 SUB SWAP1 REVERT JUMPDEST PUSH1 0x0 PUSH20 0xFFFFFFFFFFFFFFFFFFFFFFFFFFFFFFFFFFFFFFFF AND DUP5 PUSH1 0x8 ADD PUSH1 0x0 DUP8 PUSH1 0xB DUP2 GT ISZERO PUSH2 0x3ED JUMPI PUSH2 0x3EC PUSH2 0x3DD7 JUMP JUMPDEST JUMPDEST PUSH1 0xFF AND PUSH1 0xFF AND DUP2 MSTORE PUSH1 0x20 ADD SWAP1 DUP2 MSTORE PUSH1 0x20 ADD PUSH1 0x0 KECCAK256 PUSH1 0x0 SWAP1 SLOAD SWAP1 PUSH2 0x100 EXP SWAP1 DIV PUSH20 0xFFFFFFFFFFFFFFFFFFFFFFFFFFFFFFFFFFFFFFFF AND PUSH20 0xFFFFFFFFFFFFFFFFFFFFFFFFFFFFFFFFFFFFFFFF AND EQ PUSH2 0x478 JUMPI PUSH1 0x40 MLOAD PUSH32 0x8C379A000000000000000000000000000000000000000000000000000000000 DUP2 MSTORE PUSH1 0x4 ADD PUSH2 0x46F SWAP1 PUSH2 0x3781 JUMP JUMPDEST PUSH1 0x40 MLOAD DUP1 SWAP2 SUB SWAP1 REVERT JUMPDEST PUSH1 0x3 PUSH1 0xB DUP2 GT ISZERO PUSH2 0x48C JUMPI PUSH2 0x48B PUSH2 0x3DD7 JUMP JUMPDEST JUMPDEST DUP6 PUSH1 0xB DUP2 GT ISZERO PUSH2 0x49F JUMPI PUSH2 0x49E PUSH2 0x3DD7 JUMP JUMPDEST JUMPDEST EQ DUP1 PUSH2 0x4CF JUMPI POP PUSH1 0x4 PUSH1 0xB DUP2 GT ISZERO PUSH2 0x4BA JUMPI PUSH2 0x4B9 PUSH2 0x3DD7 JUMP JUMPDEST JUMPDEST DUP6 PUSH1 0xB DUP2 GT ISZERO PUSH2 0x4CD JUMPI PUSH2 0x4CC PUSH2 0x3DD7 JUMP JUMPDEST JUMPDEST EQ JUMPDEST DUP1 PUSH2 0x4FE JUMPI POP PUSH1 0x5 PUSH1 0xB DUP2 GT ISZERO PUSH2 0x4E9 JUMPI PUSH2 0x4E8 PUSH2 0x3DD7 JUMP JUMPDEST JUMPDEST DUP6 PUSH1 0xB DUP2 GT ISZERO PUSH2 0x4FC JUMPI PUSH2 0x4FB PUSH2 0x3DD7 JUMP JUMPDEST JUMPDEST EQ JUMPDEST ISZERO PUSH2 0x73B JUMPI DUP2 PUSH20 0xFFFFFFFFFFFFFFFFFFFFFFFFFFFFFFFFFFFFFFFF AND DUP5 PUSH1 0x8 ADD PUSH1 0x0 PUSH1 0x3 PUSH1 0xB DUP2 GT ISZERO PUSH2 0x534 JUMPI PUSH2 0x533 PUSH2 0x3DD7 JUMP JUMPDEST JUMPDEST PUSH1 0xFF AND PUSH1 0xFF AND DUP2 MSTORE PUSH1 0x20 ADD SWAP1 DUP2 MSTORE PUSH1 0x20 ADD PUSH1 0x0 KECCAK256 PUSH1 0x0 SWAP1 SLOAD SWAP1 PUSH2 0x100 EXP SWAP1 DIV PUSH20 0xFFFFFFFFFFFFFFFFFFFFFFFFFFFFFFFFFFFFFFFF AND PUSH20 0xFFFFFFFFFFFFFFFFFFFFFFFFFFFFFFFFFFFFFFFF AND EQ ISZERO PUSH2 0x5C0 JUMPI PUSH1 0x40 MLOAD PUSH32 0x8C379A000000000000000000000000000000000000000000000000000000000 DUP2 MSTORE PUSH1 0x4 ADD PUSH2 0x5B7 SWAP1 PUSH2 0x38A1 JUMP JUMPDEST PUSH1 0x40 MLOAD DUP1 SWAP2 SUB SWAP1 REVERT JUMPDEST DUP2 PUSH20 0xFFFFFFFFFFFFFFFFFFFFFFFFFFFFFFFFFFFFFFFF AND DUP5 PUSH1 0x8 ADD PUSH1 0x0 PUSH1 0x4 PUSH1 0xB DUP2 GT ISZERO PUSH2 0x5F1 JUMPI PUSH2 0x5F0 PUSH2 0x3DD7 JUMP JUMPDEST JUMPDEST PUSH1 0xFF AND PUSH1 0xFF AND DUP2 MSTORE PUSH1 0x20 ADD SWAP1 DUP2 MSTORE PUSH1 0x20 ADD PUSH1 0x0 KECCAK256 PUSH1 0x0 SWAP1 SLOAD SWAP1 PUSH2 0x100 EXP SWAP1 DIV PUSH20 0xFFFFFFFFFFFFFFFFFFFFFFFFFFFFFFFFFFFFFFFF AND PUSH20 0xFFFFFFFFFFFFFFFFFFFFFFFFFFFFFFFFFFFFFFFF AND EQ ISZERO PUSH2 0x67D JUMPI PUSH1 0x40 MLOAD PUSH32 0x8C379A000000000000000000000000000000000000000000000000000000000 DUP2 MSTORE PUSH1 0x4 ADD PUSH2 0x674 SWAP1 PUSH2 0x38A1 JUMP JUMPDEST PUSH1 0x40 MLOAD DUP1 SWAP2 SUB SWAP1 REVERT JUMPDEST DUP2 PUSH20 0xFFFFFFFFFFFFFFFFFFFFFFFFFFFFFFFFFFFFFFFF AND DUP5 PUSH1 0x8 ADD PUSH1 0x0 PUSH1 0x5 PUSH1 0xB DUP2 GT ISZERO PUSH2 0x6AE JUMPI PUSH2 0x6AD PUSH2 0x3DD7 JUMP JUMPDEST JUMPDEST PUSH1 0xFF AND PUSH1 0xFF AND DUP2 MSTORE PUSH1 0x20 ADD SWAP1 DUP2 MSTORE PUSH1 0x20 ADD PUSH1 0x0 KECCAK256 PUSH1 0x0 SWAP1 SLOAD SWAP1 PUSH2 0x100 EXP SWAP1 DIV PUSH20 0xFFFFFFFFFFFFFFFFFFFFFFFFFFFFFFFFFFFFFFFF AND PUSH20 0xFFFFFFFFFFFFFFFFFFFFFFFFFFFFFFFFFFFFFFFF AND EQ ISZERO PUSH2 0x73A JUMPI PUSH1 0x40 MLOAD PUSH32 0x8C379A000000000000000000000000000000000000000000000000000000000 DUP2 MSTORE PUSH1 0x4 ADD PUSH2 0x731 SWAP1 PUSH2 0x38A1 JUMP JUMPDEST PUSH1 0x40 MLOAD DUP1 SWAP2 SUB SWAP1 REVERT JUMPDEST JUMPDEST PUSH1 0x0 DUP5 PUSH1 0x5 ADD SLOAD SWAP1 POP PUSH1 0x0 PUSH2 0x838 DUP8 PUSH1 0x0 DUP1 DUP12 PUSH20 0xFFFFFFFFFFFFFFFFFFFFFFFFFFFFFFFFFFFFFFFF AND PUSH20 0xFFFFFFFFFFFFFFFFFFFFFFFFFFFFFFFFFFFFFFFF AND DUP2 MSTORE PUSH1 0x20 ADD SWAP1 DUP2 MSTORE PUSH1 0x20 ADD PUSH1 0x0 KECCAK256 PUSH1 0x3 ADD PUSH1 0x0 DUP8 PUSH20 0xFFFFFFFFFFFFFFFFFFFFFFFFFFFFFFFFFFFFFFFF AND PUSH20 0xFFFFFFFFFFFFFFFFFFFFFFFFFFFFFFFFFFFFFFFF AND DUP2 MSTORE PUSH1 0x20 ADD SWAP1 DUP2 MSTORE PUSH1 0x20 ADD PUSH1 0x0 KECCAK256 PUSH1 0x40 MLOAD DUP1 PUSH1 0x40 ADD PUSH1 0x40 MSTORE SWAP1 DUP2 PUSH1 0x0 DUP3 ADD PUSH1 0x3 DUP1 PUSH1 0x20 MUL PUSH1 0x40 MLOAD SWAP1 DUP2 ADD PUSH1 0x40 MSTORE DUP1 SWAP3 SWAP2 SWAP1 DUP3 PUSH1 0x3 DUP1 ISZERO PUSH2 0x80F JUMPI PUSH1 0x20 MUL DUP3 ADD SWAP2 JUMPDEST DUP2 SLOAD DUP2 MSTORE PUSH1 0x20 ADD SWAP1 PUSH1 0x1 ADD SWAP1 DUP1 DUP4 GT PUSH2 0x7FB JUMPI JUMPDEST POP POP POP POP POP DUP2 MSTORE PUSH1 0x20 ADD PUSH1 0x3 DUP3 ADD PUSH1 0x0 SWAP1 SLOAD SWAP1 PUSH2 0x100 EXP SWAP1 DIV PUSH1 0xFF AND ISZERO ISZERO ISZERO ISZERO DUP2 MSTORE POP POP PUSH2 0x1E19 JUMP JUMPDEST SWAP1 POP PUSH1 0x0 PUSH1 0x6 PUSH1 0xB DUP2 GT ISZERO PUSH2 0x850 JUMPI PUSH2 0x84F PUSH2 0x3DD7 JUMP JUMPDEST JUMPDEST DUP9 PUSH1 0xB DUP2 GT ISZERO PUSH2 0x863 JUMPI PUSH2 0x862 PUSH2 0x3DD7 JUMP JUMPDEST JUMPDEST EQ ISZERO PUSH2 0x8B6 JUMPI PUSH1 0x0 DUP4 NOT DUP4 AND SWAP1 POP PUSH1 0x0 JUMPDEST PUSH1 0x4 DUP2 LT ISZERO PUSH2 0x8A9 JUMPI PUSH1 0x0 DUP3 EQ ISZERO PUSH2 0x88B JUMPI PUSH2 0x8A9 JUMP JUMPDEST PUSH2 0x894 DUP3 PUSH2 0x23DB JUMP JUMPDEST SWAP2 POP DUP1 DUP1 PUSH2 0x8A1 SWAP1 PUSH2 0x3C9C JUMP JUMPDEST SWAP2 POP POP PUSH2 0x874 JUMP JUMPDEST POP PUSH1 0x0 DUP2 GT SWAP2 POP POP PUSH2 0x8BF JUMP JUMPDEST PUSH1 0x0 DUP4 DUP4 AND EQ SWAP1 POP JUMPDEST PUSH1 0x0 ISZERO ISZERO DUP2 ISZERO ISZERO EQ ISZERO PUSH2 0x94C JUMPI PUSH1 0x1 ISZERO ISZERO DUP8 PUSH1 0x2 ADD PUSH1 0x0 SWAP1 SLOAD SWAP1 PUSH2 0x100 EXP SWAP1 DIV PUSH1 0xFF AND ISZERO ISZERO EQ ISZERO PUSH2 0x90C JUMPI PUSH1 0x0 DUP5 PUSH1 0x3 ADD PUSH1 0x0 PUSH2 0x100 EXP DUP2 SLOAD DUP2 PUSH1 0xFF MUL NOT AND SWAP1 DUP4 ISZERO ISZERO MUL OR SWAP1 SSTORE POP PUSH2 0x947 JUMP JUMPDEST PUSH1 0x40 MLOAD PUSH32 0x8C379A000000000000000000000000000000000000000000000000000000000 DUP2 MSTORE PUSH1 0x4 ADD PUSH2 0x93E SWAP1 PUSH2 0x3841 JUMP JUMPDEST PUSH1 0x40 MLOAD DUP1 SWAP2 SUB SWAP1 REVERT JUMPDEST PUSH2 0x9F3 JUMP JUMPDEST DUP5 DUP8 PUSH1 0x8 ADD PUSH1 0x0 DUP11 PUSH1 0xB DUP2 GT ISZERO PUSH2 0x966 JUMPI PUSH2 0x965 PUSH2 0x3DD7 JUMP JUMPDEST JUMPDEST PUSH1 0xFF AND PUSH1 0xFF AND DUP2 MSTORE PUSH1 0x20 ADD SWAP1 DUP2 MSTORE PUSH1 0x20 ADD PUSH1 0x0 KECCAK256 PUSH1 0x0 PUSH2 0x100 EXP DUP2 SLOAD DUP2 PUSH20 0xFFFFFFFFFFFFFFFFFFFFFFFFFFFFFFFFFFFFFFFF MUL NOT AND SWAP1 DUP4 PUSH20 0xFFFFFFFFFFFFFFFFFFFFFFFFFFFFFFFFFFFFFFFF AND MUL OR SWAP1 SSTORE POP DUP7 PUSH1 0x9 ADD PUSH1 0x0 DUP2 DUP2 SWAP1 SLOAD SWAP1 PUSH2 0x100 EXP SWAP1 DIV PUSH1 0xFF AND DUP1 SWAP3 SWAP2 SWAP1 PUSH2 0x9D9 SWAP1 PUSH2 0x3C72 JUMP JUMPDEST SWAP2 SWAP1 PUSH2 0x100 EXP DUP2 SLOAD DUP2 PUSH1 0xFF MUL NOT AND SWAP1 DUP4 PUSH1 0xFF AND MUL OR SWAP1 SSTORE POP POP JUMPDEST POP POP POP POP POP POP POP POP POP JUMP JUMPDEST PUSH2 0xA06 PUSH2 0x3134 JUMP JUMPDEST PUSH1 0x0 DUP1 PUSH1 0x0 DUP5 PUSH20 0xFFFFFFFFFFFFFFFFFFFFFFFFFFFFFFFFFFFFFFFF AND PUSH20 0xFFFFFFFFFFFFFFFFFFFFFFFFFFFFFFFFFFFFFFFF AND DUP2 MSTORE PUSH1 0x20 ADD SWAP1 DUP2 MSTORE PUSH1 0x20 ADD PUSH1 0x0 KECCAK256 SWAP1 POP PUSH1 0x0 ORIGIN SWAP1 POP DUP2 PUSH1 0x3 ADD PUSH1 0x0 DUP3 PUSH20 0xFFFFFFFFFFFFFFFFFFFFFFFFFFFFFFFFFFFFFFFF AND PUSH20 0xFFFFFFFFFFFFFFFFFFFFFFFFFFFFFFFFFFFFFFFF AND DUP2 MSTORE PUSH1 0x20 ADD SWAP1 DUP2 MSTORE PUSH1 0x20 ADD PUSH1 0x0 KECCAK256 PUSH1 0x40 MLOAD DUP1 PUSH1 0x40 ADD PUSH1 0x40 MSTORE SWAP1 DUP2 PUSH1 0x0 DUP3 ADD PUSH1 0x3 DUP1 PUSH1 0x20 MUL PUSH1 0x40 MLOAD SWAP1 DUP2 ADD PUSH1 0x40 MSTORE DUP1 SWAP3 SWAP2 SWAP1 DUP3 PUSH1 0x3 DUP1 ISZERO PUSH2 0xAD5 JUMPI PUSH1 0x20 MUL DUP3 ADD SWAP2 JUMPDEST DUP2 SLOAD DUP2 MSTORE PUSH1 0x20 ADD SWAP1 PUSH1 0x1 ADD SWAP1 DUP1 DUP4 GT PUSH2 0xAC1 JUMPI JUMPDEST POP POP POP POP POP DUP2 MSTORE PUSH1 0x20 ADD PUSH1 0x3 DUP3 ADD PUSH1 0x0 SWAP1 SLOAD SWAP1 PUSH2 0x100 EXP SWAP1 DIV PUSH1 0xFF AND ISZERO ISZERO ISZERO ISZERO DUP2 MSTORE POP POP SWAP3 POP POP POP SWAP2 SWAP1 POP JUMP JUMPDEST PUSH1 0x64 DUP3 LT ISZERO PUSH2 0xB46 JUMPI PUSH1 0x40 MLOAD PUSH32 0x8C379A000000000000000000000000000000000000000000000000000000000 DUP2 MSTORE PUSH1 0x4 ADD PUSH2 0xB3D SWAP1 PUSH2 0x37C1 JUMP JUMPDEST PUSH1 0x40 MLOAD DUP1 SWAP2 SUB SWAP1 REVERT JUMPDEST PUSH1 0x0 ORIGIN SWAP1 POP PUSH1 0x0 DUP1 PUSH1 0x0 DUP4 PUSH20 0xFFFFFFFFFFFFFFFFFFFFFFFFFFFFFFFFFFFFFFFF AND PUSH20 0xFFFFFFFFFFFFFFFFFFFFFFFFFFFFFFFFFFFFFFFF AND DUP2 MSTORE PUSH1 0x20 ADD SWAP1 DUP2 MSTORE PUSH1 0x20 ADD PUSH1 0x0 KECCAK256 SWAP1 POP PUSH1 0x0 PUSH2 0xB98 DUP3 PUSH2 0x1D83 JUMP JUMPDEST SWAP1 POP PUSH1 0x3 DUP1 DUP2 GT ISZERO PUSH2 0xBAD JUMPI PUSH2 0xBAC PUSH2 0x3DD7 JUMP JUMPDEST JUMPDEST DUP2 PUSH1 0x3 DUP2 GT ISZERO PUSH2 0xBC0 JUMPI PUSH2 0xBBF PUSH2 0x3DD7 JUMP JUMPDEST JUMPDEST EQ DUP1 PUSH2 0xBD1 JUMPI POP PUSH2 0xBD0 DUP3 PUSH2 0x23F3 JUMP JUMPDEST JUMPDEST PUSH2 0xC10 JUMPI PUSH1 0x40 MLOAD PUSH32 0x8C379A000000000000000000000000000000000000000000000000000000000 DUP2 MSTORE PUSH1 0x4 ADD PUSH2 0xC07 SWAP1 PUSH2 0x38C1 JUMP JUMPDEST PUSH1 0x40 MLOAD DUP1 SWAP2 SUB SWAP1 REVERT JUMPDEST DUP5 DUP3 PUSH1 0x1 ADD DUP2 SWAP1 SSTORE POP DUP4 DUP3 PUSH1 0x2 ADD PUSH1 0x0 PUSH2 0x100 EXP DUP2 SLOAD DUP2 PUSH1 0xFF MUL NOT AND SWAP1 DUP4 ISZERO ISZERO MUL OR SWAP1 SSTORE POP PUSH12 0x3FFFFFFFFFFFFFFFFFFFFFF DUP3 PUSH1 0x5 ADD DUP2 SWAP1 SSTORE POP PUSH1 0xC DUP3 PUSH1 0x9 ADD PUSH1 0x0 PUSH2 0x100 EXP DUP2 SLOAD DUP2 PUSH1 0xFF MUL NOT AND SWAP1 DUP4 PUSH1 0xFF AND MUL OR SWAP1 SSTORE POP PUSH1 0x5A DUP3 PUSH1 0x6 ADD DUP2 SWAP1 SSTORE POP POP POP POP POP POP JUMP JUMPDEST PUSH1 0x0 ORIGIN SWAP1 POP PUSH1 0x0 DUP1 PUSH1 0x0 DUP4 PUSH20 0xFFFFFFFFFFFFFFFFFFFFFFFFFFFFFFFFFFFFFFFF AND PUSH20 0xFFFFFFFFFFFFFFFFFFFFFFFFFFFFFFFFFFFFFFFF AND DUP2 MSTORE PUSH1 0x20 ADD SWAP1 DUP2 MSTORE PUSH1 0x20 ADD PUSH1 0x0 KECCAK256 SWAP1 POP PUSH1 0x0 PUSH2 0xCCB DUP3 PUSH2 0x1D83 JUMP JUMPDEST SWAP1 POP PUSH1 0x2 PUSH1 0x3 DUP2 GT ISZERO PUSH2 0xCE1 JUMPI PUSH2 0xCE0 PUSH2 0x3DD7 JUMP JUMPDEST JUMPDEST DUP2 PUSH1 0x3 DUP2 GT ISZERO PUSH2 0xCF4 JUMPI PUSH2 0xCF3 PUSH2 0x3DD7 JUMP JUMPDEST JUMPDEST EQ PUSH2 0xD34 JUMPI PUSH1 0x40 MLOAD PUSH32 0x8C379A000000000000000000000000000000000000000000000000000000000 DUP2 MSTORE PUSH1 0x4 ADD PUSH2 0xD2B SWAP1 PUSH2 0x3881 JUMP JUMPDEST PUSH1 0x40 MLOAD DUP1 SWAP2 SUB SWAP1 REVERT JUMPDEST PUSH1 0x0 DUP3 PUSH1 0x7 ADD SLOAD SWAP1 POP PUSH2 0xD45 PUSH2 0x3156 JUMP JUMPDEST PUSH1 0x0 JUMPDEST PUSH1 0xB DUP1 DUP2 GT ISZERO PUSH2 0xD5B JUMPI PUSH2 0xD5A PUSH2 0x3DD7 JUMP JUMPDEST JUMPDEST PUSH1 0xFF AND DUP2 PUSH1 0xFF AND GT PUSH2 0x100F JUMPI PUSH1 0x0 DUP2 PUSH1 0xFF AND PUSH1 0xB DUP2 GT ISZERO PUSH2 0xD7F JUMPI PUSH2 0xD7E PUSH2 0x3DD7 JUMP JUMPDEST JUMPDEST SWAP1 POP PUSH1 0x0 DUP7 PUSH1 0x8 ADD PUSH1 0x0 DUP5 PUSH1 0xFF AND PUSH1 0xFF AND DUP2 MSTORE PUSH1 0x20 ADD SWAP1 DUP2 MSTORE PUSH1 0x20 ADD PUSH1 0x0 KECCAK256 PUSH1 0x0 SWAP1 SLOAD SWAP1 PUSH2 0x100 EXP SWAP1 DIV PUSH20 0xFFFFFFFFFFFFFFFFFFFFFFFFFFFFFFFFFFFFFFFF AND SWAP1 POP PUSH1 0x0 DUP8 PUSH1 0x8 ADD PUSH1 0x0 DUP6 PUSH1 0xFF AND PUSH1 0xFF AND DUP2 MSTORE PUSH1 0x20 ADD SWAP1 DUP2 MSTORE PUSH1 0x20 ADD PUSH1 0x0 KECCAK256 PUSH1 0x0 PUSH2 0x100 EXP DUP2 SLOAD DUP2 PUSH20 0xFFFFFFFFFFFFFFFFFFFFFFFFFFFFFFFFFFFFFFFF MUL NOT AND SWAP1 DUP4 PUSH20 0xFFFFFFFFFFFFFFFFFFFFFFFFFFFFFFFFFFFFFFFF AND MUL OR SWAP1 SSTORE POP PUSH1 0x0 PUSH20 0xFFFFFFFFFFFFFFFFFFFFFFFFFFFFFFFFFFFFFFFF AND DUP2 PUSH20 0xFFFFFFFFFFFFFFFFFFFFFFFFFFFFFFFFFFFFFFFF AND EQ PUSH2 0xFFA JUMPI PUSH1 0x0 PUSH2 0xE5B DUP4 PUSH2 0x1BAD JUMP JUMPDEST SWAP1 POP PUSH1 0x0 PUSH1 0x64 DUP3 PUSH1 0xFF AND DUP11 PUSH1 0x7 ADD SLOAD PUSH2 0xE74 SWAP2 SWAP1 PUSH2 0x3AF6 JUMP JUMPDEST PUSH2 0xE7E SWAP2 SWAP1 PUSH2 0x3AC5 JUMP JUMPDEST SWAP1 POP DUP1 DUP8 PUSH2 0xE8C SWAP2 SWAP1 PUSH2 0x3B8B JUMP JUMPDEST SWAP7 POP PUSH1 0x0 JUMPDEST PUSH1 0xC DUP2 LT ISZERO PUSH2 0xFF6 JUMPI PUSH1 0x0 PUSH20 0xFFFFFFFFFFFFFFFFFFFFFFFFFFFFFFFFFFFFFFFF AND DUP8 DUP3 PUSH1 0xC DUP2 LT PUSH2 0xEC5 JUMPI PUSH2 0xEC4 PUSH2 0x3E06 JUMP JUMPDEST JUMPDEST PUSH1 0x20 MUL ADD MLOAD PUSH1 0x0 ADD MLOAD PUSH20 0xFFFFFFFFFFFFFFFFFFFFFFFFFFFFFFFFFFFFFFFF AND EQ ISZERO PUSH2 0xF5F JUMPI DUP4 DUP8 DUP3 PUSH1 0xC DUP2 LT PUSH2 0xEFE JUMPI PUSH2 0xEFD PUSH2 0x3E06 JUMP JUMPDEST JUMPDEST PUSH1 0x20 MUL ADD MLOAD PUSH1 0x0 ADD SWAP1 PUSH20 0xFFFFFFFFFFFFFFFFFFFFFFFFFFFFFFFFFFFFFFFF AND SWAP1 DUP2 PUSH20 0xFFFFFFFFFFFFFFFFFFFFFFFFFFFFFFFFFFFFFFFF AND DUP2 MSTORE POP POP DUP2 DUP8 DUP3 PUSH1 0xC DUP2 LT PUSH2 0xF4D JUMPI PUSH2 0xF4C PUSH2 0x3E06 JUMP JUMPDEST JUMPDEST PUSH1 0x20 MUL ADD MLOAD PUSH1 0x20 ADD DUP2 DUP2 MSTORE POP POP PUSH2 0xFF6 JUMP JUMPDEST DUP4 PUSH20 0xFFFFFFFFFFFFFFFFFFFFFFFFFFFFFFFFFFFFFFFF AND DUP8 DUP3 PUSH1 0xC DUP2 LT PUSH2 0xF89 JUMPI PUSH2 0xF88 PUSH2 0x3E06 JUMP JUMPDEST JUMPDEST PUSH1 0x20 MUL ADD MLOAD PUSH1 0x0 ADD MLOAD PUSH20 0xFFFFFFFFFFFFFFFFFFFFFFFFFFFFFFFFFFFFFFFF AND EQ ISZERO PUSH2 0xFE3 JUMPI DUP2 DUP8 DUP3 PUSH1 0xC DUP2 LT PUSH2 0xFC2 JUMPI PUSH2 0xFC1 PUSH2 0x3E06 JUMP JUMPDEST JUMPDEST PUSH1 0x20 MUL ADD MLOAD PUSH1 0x20 ADD DUP2 DUP2 MLOAD PUSH2 0xFD7 SWAP2 SWAP1 PUSH2 0x3A38 JUMP JUMPDEST SWAP2 POP DUP2 DUP2 MSTORE POP POP PUSH2 0xFF6 JUMP JUMPDEST DUP1 DUP1 PUSH2 0xFEE SWAP1 PUSH2 0x3C9C JUMP JUMPDEST SWAP2 POP POP PUSH2 0xE91 JUMP JUMPDEST POP POP POP JUMPDEST POP POP DUP1 DUP1 PUSH2 0x1007 SWAP1 PUSH2 0x3CE5 JUMP JUMPDEST SWAP2 POP POP PUSH2 0xD48 JUMP JUMPDEST POP PUSH1 0x0 JUMPDEST PUSH1 0xC DUP2 LT ISZERO PUSH2 0x1101 JUMPI PUSH1 0x0 PUSH20 0xFFFFFFFFFFFFFFFFFFFFFFFFFFFFFFFFFFFFFFFF AND DUP3 DUP3 PUSH1 0xC DUP2 LT PUSH2 0x1047 JUMPI PUSH2 0x1046 PUSH2 0x3E06 JUMP JUMPDEST JUMPDEST PUSH1 0x20 MUL ADD MLOAD PUSH1 0x0 ADD MLOAD PUSH20 0xFFFFFFFFFFFFFFFFFFFFFFFFFFFFFFFFFFFFFFFF AND EQ ISZERO PUSH2 0x1071 JUMPI PUSH2 0x1101 JUMP JUMPDEST DUP2 DUP2 PUSH1 0xC DUP2 LT PUSH2 0x1084 JUMPI PUSH2 0x1083 PUSH2 0x3E06 JUMP JUMPDEST JUMPDEST PUSH1 0x20 MUL ADD MLOAD PUSH1 0x0 ADD MLOAD PUSH20 0xFFFFFFFFFFFFFFFFFFFFFFFFFFFFFFFFFFFFFFFF AND PUSH2 0x8FC DUP4 DUP4 PUSH1 0xC DUP2 LT PUSH2 0x10B9 JUMPI PUSH2 0x10B8 PUSH2 0x3E06 JUMP JUMPDEST JUMPDEST PUSH1 0x20 MUL ADD MLOAD PUSH1 0x20 ADD MLOAD SWAP1 DUP2 ISZERO MUL SWAP1 PUSH1 0x40 MLOAD PUSH1 0x0 PUSH1 0x40 MLOAD DUP1 DUP4 SUB DUP2 DUP6 DUP9 DUP9 CALL SWAP4 POP POP POP POP ISZERO DUP1 ISZERO PUSH2 0x10ED JUMPI RETURNDATASIZE PUSH1 0x0 DUP1 RETURNDATACOPY RETURNDATASIZE PUSH1 0x0 REVERT JUMPDEST POP DUP1 DUP1 PUSH2 0x10F9 SWAP1 PUSH2 0x3C9C JUMP JUMPDEST SWAP2 POP POP PUSH2 0x1013 JUMP JUMPDEST POP PUSH1 0x0 PUSH1 0x64 PUSH1 0x3 PUSH1 0xFF AND DUP7 PUSH1 0x7 ADD SLOAD PUSH2 0x111A SWAP2 SWAP1 PUSH2 0x3AF6 JUMP JUMPDEST PUSH2 0x1124 SWAP2 SWAP1 PUSH2 0x3AC5 JUMP JUMPDEST SWAP1 POP DUP1 DUP4 PUSH2 0x1132 SWAP2 SWAP1 PUSH2 0x3B8B JUMP JUMPDEST SWAP3 POP DUP6 PUSH20 0xFFFFFFFFFFFFFFFFFFFFFFFFFFFFFFFFFFFFFFFF AND PUSH2 0x8FC DUP3 SWAP1 DUP2 ISZERO MUL SWAP1 PUSH1 0x40 MLOAD PUSH1 0x0 PUSH1 0x40 MLOAD DUP1 DUP4 SUB DUP2 DUP6 DUP9 DUP9 CALL SWAP4 POP POP POP POP ISZERO DUP1 ISZERO PUSH2 0x117A JUMPI RETURNDATASIZE PUSH1 0x0 DUP1 RETURNDATACOPY RETURNDATASIZE PUSH1 0x0 REVERT JUMPDEST POP PUSH20 0x5C2E9BAE4FE4E7710A2F1F83C521DB632F66F242 PUSH20 0xFFFFFFFFFFFFFFFFFFFFFFFFFFFFFFFFFFFFFFFF AND PUSH2 0x8FC DUP5 SWAP1 DUP2 ISZERO MUL SWAP1 PUSH1 0x40 MLOAD PUSH1 0x0 PUSH1 0x40 MLOAD DUP1 DUP4 SUB DUP2 DUP6 DUP9 DUP9 CALL SWAP4 POP POP POP POP ISZERO DUP1 ISZERO PUSH2 0x11D5 JUMPI RETURNDATASIZE PUSH1 0x0 DUP1 RETURNDATACOPY RETURNDATASIZE PUSH1 0x0 REVERT JUMPDEST POP PUSH1 0x0 JUMPDEST DUP6 PUSH1 0x4 ADD DUP1 SLOAD SWAP1 POP DUP2 LT ISZERO PUSH2 0x129E JUMPI PUSH1 0x0 DUP7 PUSH1 0x4 ADD DUP3 DUP2 SLOAD DUP2 LT PUSH2 0x1200 JUMPI PUSH2 0x11FF PUSH2 0x3E06 JUMP JUMPDEST JUMPDEST SWAP1 PUSH1 0x0 MSTORE PUSH1 0x20 PUSH1 0x0 KECCAK256 ADD PUSH1 0x0 SWAP1 SLOAD SWAP1 PUSH2 0x100 EXP SWAP1 DIV PUSH20 0xFFFFFFFFFFFFFFFFFFFFFFFFFFFFFFFFFFFFFFFF AND SWAP1 POP PUSH1 0x0 DUP8 PUSH1 0x3 ADD PUSH1 0x0 DUP4 PUSH20 0xFFFFFFFFFFFFFFFFFFFFFFFFFFFFFFFFFFFFFFFF AND PUSH20 0xFFFFFFFFFFFFFFFFFFFFFFFFFFFFFFFFFFFFFFFF AND DUP2 MSTORE PUSH1 0x20 ADD SWAP1 DUP2 MSTORE PUSH1 0x20 ADD PUSH1 0x0 KECCAK256 PUSH1 0x3 ADD PUSH1 0x0 PUSH2 0x100 EXP DUP2 SLOAD DUP2 PUSH1 0xFF MUL NOT AND SWAP1 DUP4 ISZERO ISZERO MUL OR SWAP1 SSTORE POP POP DUP1 DUP1 PUSH2 0x1296 SWAP1 PUSH2 0x3C9C JUMP JUMPDEST SWAP2 POP POP PUSH2 0x11D9 JUMP JUMPDEST POP DUP5 PUSH1 0x4 ADD PUSH1 0x0 PUSH2 0x12AF SWAP2 SWAP1 PUSH2 0x3184 JUMP JUMPDEST PUSH1 0x0 DUP6 PUSH1 0x1 ADD DUP2 SWAP1 SSTORE POP PUSH1 0x0 DUP6 PUSH1 0x5 ADD DUP2 SWAP1 SSTORE POP PUSH1 0x0 DUP6 PUSH1 0x6 ADD DUP2 SWAP1 SSTORE POP PUSH1 0x0 DUP6 PUSH1 0x7 ADD DUP2 SWAP1 SSTORE POP PUSH1 0x0 DUP6 PUSH1 0x9 ADD PUSH1 0x0 PUSH2 0x100 EXP DUP2 SLOAD DUP2 PUSH1 0xFF MUL NOT AND SWAP1 DUP4 PUSH1 0xFF AND MUL OR SWAP1 SSTORE POP PUSH1 0x0 DUP6 PUSH1 0x0 ADD DUP2 SWAP1 SSTORE POP POP POP POP POP POP POP JUMP JUMPDEST PUSH1 0x0 PUSH1 0x20 MSTORE DUP1 PUSH1 0x0 MSTORE PUSH1 0x40 PUSH1 0x0 KECCAK256 PUSH1 0x0 SWAP2 POP SWAP1 POP DUP1 PUSH1 0x0 ADD SLOAD SWAP1 DUP1 PUSH1 0x1 ADD SLOAD SWAP1 DUP1 PUSH1 0x2 ADD PUSH1 0x0 SWAP1 SLOAD SWAP1 PUSH2 0x100 EXP SWAP1 DIV PUSH1 0xFF AND SWAP1 DUP1 PUSH1 0x5 ADD SLOAD SWAP1 DUP1 PUSH1 0x6 ADD SLOAD SWAP1 DUP1 PUSH1 0x7 ADD SLOAD SWAP1 DUP1 PUSH1 0x9 ADD PUSH1 0x0 SWAP1 SLOAD SWAP1 PUSH2 0x100 EXP SWAP1 DIV PUSH1 0xFF AND SWAP1 POP DUP8 JUMP JUMPDEST PUSH1 0x0 DUP1 PUSH1 0x0 DUP4 PUSH20 0xFFFFFFFFFFFFFFFFFFFFFFFFFFFFFFFFFFFFFFFF AND PUSH20 0xFFFFFFFFFFFFFFFFFFFFFFFFFFFFFFFFFFFFFFFF AND DUP2 MSTORE PUSH1 0x20 ADD SWAP1 DUP2 MSTORE PUSH1 0x20 ADD PUSH1 0x0 KECCAK256 SWAP1 POP PUSH1 0x0 PUSH2 0x13B0 DUP3 PUSH2 0x1D83 JUMP JUMPDEST SWAP1 POP PUSH1 0x0 PUSH1 0x3 DUP2 GT ISZERO PUSH2 0x13C6 JUMPI PUSH2 0x13C5 PUSH2 0x3DD7 JUMP JUMPDEST JUMPDEST DUP2 PUSH1 0x3 DUP2 GT ISZERO PUSH2 0x13D9 JUMPI PUSH2 0x13D8 PUSH2 0x3DD7 JUMP JUMPDEST JUMPDEST EQ PUSH2 0x1419 JUMPI PUSH1 0x40 MLOAD PUSH32 0x8C379A000000000000000000000000000000000000000000000000000000000 DUP2 MSTORE PUSH1 0x4 ADD PUSH2 0x1410 SWAP1 PUSH2 0x3821 JUMP JUMPDEST PUSH1 0x40 MLOAD DUP1 SWAP2 SUB SWAP1 REVERT JUMPDEST DUP2 PUSH1 0x1 ADD SLOAD CALLVALUE EQ PUSH2 0x145F JUMPI PUSH1 0x40 MLOAD PUSH32 0x8C379A000000000000000000000000000000000000000000000000000000000 DUP2 MSTORE PUSH1 0x4 ADD PUSH2 0x1456 SWAP1 PUSH2 0x38E1 JUMP JUMPDEST PUSH1 0x40 MLOAD DUP1 SWAP2 SUB SWAP1 REVERT JUMPDEST PUSH1 0x0 ORIGIN SWAP1 POP PUSH1 0x0 DUP4 PUSH1 0x3 ADD PUSH1 0x0 DUP4 PUSH20 0xFFFFFFFFFFFFFFFFFFFFFFFFFFFFFFFFFFFFFFFF AND PUSH20 0xFFFFFFFFFFFFFFFFFFFFFFFFFFFFFFFFFFFFFFFF AND DUP2 MSTORE PUSH1 0x20 ADD SWAP1 DUP2 MSTORE PUSH1 0x20 ADD PUSH1 0x0 KECCAK256 SWAP1 POP PUSH1 0x0 ISZERO ISZERO DUP2 PUSH1 0x3 ADD PUSH1 0x0 SWAP1 SLOAD SWAP1 PUSH2 0x100 EXP SWAP1 DIV PUSH1 0xFF AND ISZERO ISZERO EQ PUSH2 0x1501 JUMPI PUSH1 0x40 MLOAD PUSH32 0x8C379A000000000000000000000000000000000000000000000000000000000 DUP2 MSTORE PUSH1 0x4 ADD PUSH2 0x14F8 SWAP1 PUSH2 0x37E1 JUMP JUMPDEST PUSH1 0x40 MLOAD DUP1 SWAP2 SUB SWAP1 REVERT JUMPDEST DUP4 PUSH1 0x4 ADD DUP3 SWAP1 DUP1 PUSH1 0x1 DUP2 SLOAD ADD DUP1 DUP3 SSTORE DUP1 SWAP2 POP POP PUSH1 0x1 SWAP1 SUB SWAP1 PUSH1 0x0 MSTORE PUSH1 0x20 PUSH1 0x0 KECCAK256 ADD PUSH1 0x0 SWAP1 SWAP2 SWAP1 SWAP2 SWAP1 SWAP2 PUSH2 0x100 EXP DUP2 SLOAD DUP2 PUSH20 0xFFFFFFFFFFFFFFFFFFFFFFFFFFFFFFFFFFFFFFFF MUL NOT AND SWAP1 DUP4 PUSH20 0xFFFFFFFFFFFFFFFFFFFFFFFFFFFFFFFFFFFFFFFF AND MUL OR SWAP1 SSTORE POP CALLVALUE DUP5 PUSH1 0x7 ADD PUSH1 0x0 DUP3 DUP3 SLOAD PUSH2 0x157A SWAP2 SWAP1 PUSH2 0x3A38 JUMP JUMPDEST SWAP3 POP POP DUP2 SWAP1 SSTORE POP PUSH1 0x0 PUSH2 0x1593 DUP6 PUSH1 0x4 ADD DUP1 SLOAD SWAP1 POP PUSH2 0x2406 JUMP JUMPDEST SWAP1 POP PUSH2 0x159D PUSH2 0x31A5 JUMP JUMPDEST PUSH2 0x15A5 PUSH2 0x31A5 JUMP JUMPDEST PUSH2 0x15AD PUSH2 0x31A5 JUMP JUMPDEST PUSH2 0x15B6 DUP5 PUSH2 0x243D JUMP JUMPDEST DUP1 SWAP6 POP DUP2 SWAP5 POP POP POP PUSH2 0x15C7 DUP5 PUSH2 0x243D JUMP JUMPDEST DUP1 SWAP6 POP DUP2 SWAP4 POP POP POP PUSH2 0x15D8 DUP5 PUSH2 0x243D JUMP JUMPDEST DUP1 SWAP6 POP DUP2 SWAP3 POP POP POP PUSH2 0x15E8 PUSH2 0x31C7 JUMP JUMPDEST PUSH2 0x15F0 PUSH2 0x31EA JUMP JUMPDEST PUSH1 0x0 JUMPDEST PUSH1 0x5 DUP2 LT ISZERO PUSH2 0x17EC JUMPI DUP3 DUP7 DUP3 PUSH1 0x5 DUP2 LT PUSH2 0x1610 JUMPI PUSH2 0x160F PUSH2 0x3E06 JUMP JUMPDEST JUMPDEST PUSH1 0x20 MUL ADD MLOAD PUSH1 0xFF AND PUSH1 0x9 DUP2 LT PUSH2 0x1629 JUMPI PUSH2 0x1628 PUSH2 0x3E06 JUMP JUMPDEST JUMPDEST PUSH1 0x20 MUL ADD DUP1 MLOAD DUP1 SWAP2 SWAP1 PUSH2 0x163B SWAP1 PUSH2 0x3CE5 JUMP JUMPDEST PUSH1 0xFF AND PUSH1 0xFF AND DUP2 MSTORE POP POP DUP3 DUP6 DUP3 PUSH1 0x5 DUP2 LT PUSH2 0x1659 JUMPI PUSH2 0x1658 PUSH2 0x3E06 JUMP JUMPDEST JUMPDEST PUSH1 0x20 MUL ADD MLOAD PUSH1 0xFF AND PUSH1 0x9 DUP2 LT PUSH2 0x1672 JUMPI PUSH2 0x1671 PUSH2 0x3E06 JUMP JUMPDEST JUMPDEST PUSH1 0x20 MUL ADD DUP1 MLOAD DUP1 SWAP2 SWAP1 PUSH2 0x1684 SWAP1 PUSH2 0x3CE5 JUMP JUMPDEST PUSH1 0xFF AND PUSH1 0xFF AND DUP2 MSTORE POP POP DUP3 DUP5 DUP3 PUSH1 0x5 DUP2 LT PUSH2 0x16A2 JUMPI PUSH2 0x16A1 PUSH2 0x3E06 JUMP JUMPDEST JUMPDEST PUSH1 0x20 MUL ADD MLOAD PUSH1 0xFF AND PUSH1 0x9 DUP2 LT PUSH2 0x16BB JUMPI PUSH2 0x16BA PUSH2 0x3E06 JUMP JUMPDEST JUMPDEST PUSH1 0x20 MUL ADD DUP1 MLOAD DUP1 SWAP2 SWAP1 PUSH2 0x16CD SWAP1 PUSH2 0x3CE5 JUMP JUMPDEST PUSH1 0xFF AND PUSH1 0xFF AND DUP2 MSTORE POP POP PUSH1 0x1 DUP3 DUP8 DUP4 PUSH1 0x5 DUP2 LT PUSH2 0x16ED JUMPI PUSH2 0x16EC PUSH2 0x3E06 JUMP JUMPDEST JUMPDEST PUSH1 0x20 MUL ADD MLOAD PUSH1 0xFF AND PUSH1 0x9 DUP2 LT PUSH2 0x1706 JUMPI PUSH2 0x1705 PUSH2 0x3E06 JUMP JUMPDEST JUMPDEST PUSH1 0x20 MUL ADD MLOAD PUSH1 0x0 PUSH1 0x3 DUP2 LT PUSH2 0x171E JUMPI PUSH2 0x171D PUSH2 0x3E06 JUMP JUMPDEST JUMPDEST PUSH1 0x20 MUL ADD SWAP1 ISZERO ISZERO SWAP1 DUP2 ISZERO ISZERO DUP2 MSTORE POP POP PUSH1 0x1 DUP3 DUP7 DUP4 PUSH1 0x5 DUP2 LT PUSH2 0x1743 JUMPI PUSH2 0x1742 PUSH2 0x3E06 JUMP JUMPDEST JUMPDEST PUSH1 0x20 MUL ADD MLOAD PUSH1 0xFF AND PUSH1 0x9 DUP2 LT PUSH2 0x175C JUMPI PUSH2 0x175B PUSH2 0x3E06 JUMP JUMPDEST JUMPDEST PUSH1 0x20 MUL ADD MLOAD PUSH1 0x1 PUSH1 0x3 DUP2 LT PUSH2 0x1774 JUMPI PUSH2 0x1773 PUSH2 0x3E06 JUMP JUMPDEST JUMPDEST PUSH1 0x20 MUL ADD SWAP1 ISZERO ISZERO SWAP1 DUP2 ISZERO ISZERO DUP2 MSTORE POP POP PUSH1 0x1 DUP3 DUP6 DUP4 PUSH1 0x5 DUP2 LT PUSH2 0x1799 JUMPI PUSH2 0x1798 PUSH2 0x3E06 JUMP JUMPDEST JUMPDEST PUSH1 0x20 MUL ADD MLOAD PUSH1 0xFF AND PUSH1 0x9 DUP2 LT PUSH2 0x17B2 JUMPI PUSH2 0x17B1 PUSH2 0x3E06 JUMP JUMPDEST JUMPDEST PUSH1 0x20 MUL ADD MLOAD PUSH1 0x2 PUSH1 0x3 DUP2 LT PUSH2 0x17CA JUMPI PUSH2 0x17C9 PUSH2 0x3E06 JUMP JUMPDEST JUMPDEST PUSH1 0x20 MUL ADD SWAP1 ISZERO ISZERO SWAP1 DUP2 ISZERO ISZERO DUP2 MSTORE POP POP DUP1 DUP1 PUSH2 0x17E4 SWAP1 PUSH2 0x3C9C JUMP JUMPDEST SWAP2 POP POP PUSH2 0x15F3 JUMP JUMPDEST POP PUSH1 0x0 JUMPDEST PUSH1 0x9 DUP2 LT ISZERO PUSH2 0x1838 JUMPI PUSH1 0x3 DUP4 DUP3 PUSH1 0x9 DUP2 LT PUSH2 0x180E JUMPI PUSH2 0x180D PUSH2 0x3E06 JUMP JUMPDEST JUMPDEST PUSH1 0x20 MUL ADD MLOAD PUSH1 0xFF AND GT ISZERO PUSH2 0x1825 JUMPI PUSH2 0x1824 PUSH2 0x3D4A JUMP JUMPDEST JUMPDEST DUP1 DUP1 PUSH2 0x1830 SWAP1 PUSH2 0x3C9C JUMP JUMPDEST SWAP2 POP POP PUSH2 0x17F0 JUMP JUMPDEST POP PUSH2 0x1841 PUSH2 0x3218 JUMP JUMPDEST PUSH1 0x0 JUMPDEST PUSH1 0x9 DUP2 PUSH1 0xFF AND LT ISZERO PUSH2 0x19BA JUMPI PUSH2 0x1875 DUP9 DUP3 DUP7 DUP5 PUSH1 0xFF AND PUSH1 0x9 DUP2 LT PUSH2 0x186B JUMPI PUSH2 0x186A PUSH2 0x3E06 JUMP JUMPDEST JUMPDEST PUSH1 0x20 MUL ADD MLOAD PUSH2 0x259B JUMP JUMPDEST DUP1 SWAP10 POP DUP2 SWAP4 POP POP POP PUSH1 0x0 PUSH2 0x18A6 DUP4 DUP7 DUP5 PUSH1 0xFF AND PUSH1 0x9 DUP2 LT PUSH2 0x1899 JUMPI PUSH2 0x1898 PUSH2 0x3E06 JUMP JUMPDEST JUMPDEST PUSH1 0x20 MUL ADD MLOAD PUSH1 0xFF AND PUSH2 0x2A0C JUMP JUMPDEST SWAP1 POP PUSH1 0x0 DUP1 JUMPDEST DUP7 DUP5 PUSH1 0xFF AND PUSH1 0x9 DUP2 LT PUSH2 0x18C2 JUMPI PUSH2 0x18C1 PUSH2 0x3E06 JUMP JUMPDEST JUMPDEST PUSH1 0x20 MUL ADD MLOAD PUSH1 0xFF AND DUP3 PUSH1 0xFF AND LT DUP1 ISZERO PUSH2 0x18DE JUMPI POP PUSH1 0x3 DUP2 PUSH1 0xFF AND LT JUMPDEST ISZERO PUSH2 0x19A4 JUMPI PUSH1 0x1 ISZERO ISZERO DUP7 DUP6 PUSH1 0xFF AND PUSH1 0x9 DUP2 LT PUSH2 0x18FD JUMPI PUSH2 0x18FC PUSH2 0x3E06 JUMP JUMPDEST JUMPDEST PUSH1 0x20 MUL ADD MLOAD DUP3 PUSH1 0xFF AND PUSH1 0x3 DUP2 LT PUSH2 0x1917 JUMPI PUSH2 0x1916 PUSH2 0x3E06 JUMP JUMPDEST JUMPDEST PUSH1 0x20 MUL ADD MLOAD ISZERO ISZERO EQ ISZERO PUSH2 0x1991 JUMPI PUSH1 0x1 DUP4 DUP4 PUSH1 0xFF AND PUSH1 0x3 DUP2 LT PUSH2 0x193C JUMPI PUSH2 0x193B PUSH2 0x3E06 JUMP JUMPDEST JUMPDEST PUSH1 0x20 MUL ADD MLOAD PUSH2 0x194B SWAP2 SWAP1 PUSH2 0x3BBF JUMP JUMPDEST PUSH1 0xFF AND PUSH1 0x1 SWAP1 SHL DUP13 PUSH1 0x0 ADD DUP3 PUSH1 0xFF AND PUSH1 0x3 DUP2 LT PUSH2 0x196B JUMPI PUSH2 0x196A PUSH2 0x3E06 JUMP JUMPDEST JUMPDEST ADD PUSH1 0x0 DUP3 DUP3 SLOAD PUSH2 0x197B SWAP2 SWAP1 PUSH2 0x3A38 JUMP JUMPDEST SWAP3 POP POP DUP2 SWAP1 SSTORE POP DUP2 DUP1 PUSH2 0x198D SWAP1 PUSH2 0x3CE5 JUMP JUMPDEST SWAP3 POP POP JUMPDEST DUP1 DUP1 PUSH2 0x199C SWAP1 PUSH2 0x3CE5 JUMP JUMPDEST SWAP2 POP POP PUSH2 0x18AC JUMP JUMPDEST POP POP POP DUP1 DUP1 PUSH2 0x19B2 SWAP1 PUSH2 0x3CE5 JUMP JUMPDEST SWAP2 POP POP PUSH2 0x1844 JUMP JUMPDEST POP PUSH1 0x1 DUP9 PUSH1 0x3 ADD PUSH1 0x0 PUSH2 0x100 EXP DUP2 SLOAD DUP2 PUSH1 0xFF MUL NOT AND SWAP1 DUP4 ISZERO ISZERO MUL OR SWAP1 SSTORE POP POP POP POP POP POP POP POP POP POP POP POP POP JUMP JUMPDEST PUSH1 0x0 DUP1 ORIGIN SWAP1 POP PUSH1 0x0 DUP1 PUSH1 0x0 DUP4 PUSH20 0xFFFFFFFFFFFFFFFFFFFFFFFFFFFFFFFFFFFFFFFF AND PUSH20 0xFFFFFFFFFFFFFFFFFFFFFFFFFFFFFFFFFFFFFFFF AND DUP2 MSTORE PUSH1 0x20 ADD SWAP1 DUP2 MSTORE PUSH1 0x20 ADD PUSH1 0x0 KECCAK256 SWAP1 POP PUSH1 0x0 PUSH2 0x1A39 DUP3 PUSH2 0x1D83 JUMP JUMPDEST SWAP1 POP PUSH1 0x0 PUSH1 0x3 DUP2 GT ISZERO PUSH2 0x1A4F JUMPI PUSH2 0x1A4E PUSH2 0x3DD7 JUMP JUMPDEST JUMPDEST DUP2 PUSH1 0x3 DUP2 GT ISZERO PUSH2 0x1A62 JUMPI PUSH2 0x1A61 PUSH2 0x3DD7 JUMP JUMPDEST JUMPDEST EQ DUP1 PUSH2 0x1A92 JUMPI POP PUSH1 0x1 PUSH1 0x3 DUP2 GT ISZERO PUSH2 0x1A7D JUMPI PUSH2 0x1A7C PUSH2 0x3DD7 JUMP JUMPDEST JUMPDEST DUP2 PUSH1 0x3 DUP2 GT ISZERO PUSH2 0x1A90 JUMPI PUSH2 0x1A8F PUSH2 0x3DD7 JUMP JUMPDEST JUMPDEST EQ JUMPDEST PUSH2 0x1AD1 JUMPI PUSH1 0x40 MLOAD PUSH32 0x8C379A000000000000000000000000000000000000000000000000000000000 DUP2 MSTORE PUSH1 0x4 ADD PUSH2 0x1AC8 SWAP1 PUSH2 0x3861 JUMP JUMPDEST PUSH1 0x40 MLOAD DUP1 SWAP2 SUB SWAP1 REVERT JUMPDEST PUSH1 0x0 DUP3 PUSH1 0x5 ADD SLOAD SWAP1 POP PUSH1 0x0 DUP4 PUSH1 0x6 ADD SLOAD PUSH2 0x1AEA DUP4 PUSH2 0x2406 JUMP JUMPDEST PUSH2 0x1AF4 SWAP2 SWAP1 PUSH2 0x3D19 JUMP JUMPDEST SWAP1 POP PUSH1 0x0 DUP1 JUMPDEST PUSH1 0x5A DUP2 LT ISZERO PUSH2 0x1B9E JUMPI PUSH1 0x0 DUP2 PUSH1 0x1 SWAP1 SHL DUP6 AND GT ISZERO PUSH2 0x1B8B JUMPI DUP3 DUP3 EQ ISZERO PUSH2 0x1B7C JUMPI PUSH1 0x0 DUP2 PUSH1 0x1 SWAP1 SHL NOT SWAP1 POP DUP7 PUSH1 0x6 ADD PUSH1 0x0 DUP2 SLOAD DUP1 SWAP3 SWAP2 SWAP1 PUSH2 0x1B39 SWAP1 PUSH2 0x3C48 JUMP JUMPDEST SWAP2 SWAP1 POP SSTORE POP DUP1 DUP6 AND DUP8 PUSH1 0x5 ADD DUP2 SWAP1 SSTORE POP PUSH1 0x0 DUP8 PUSH1 0x5 ADD SLOAD EQ ISZERO PUSH2 0x1B60 JUMPI TIMESTAMP DUP8 PUSH1 0x0 ADD DUP2 SWAP1 SSTORE POP JUMPDEST PUSH1 0x1 DUP3 PUSH2 0x1B6D SWAP2 SWAP1 PUSH2 0x3A38 JUMP JUMPDEST SWAP9 POP POP POP POP POP POP POP POP POP PUSH2 0x1BAA JUMP JUMPDEST DUP2 DUP1 PUSH2 0x1B87 SWAP1 PUSH2 0x3C9C JUMP JUMPDEST SWAP3 POP POP JUMPDEST DUP1 DUP1 PUSH2 0x1B96 SWAP1 PUSH2 0x3C9C JUMP JUMPDEST SWAP2 POP POP PUSH2 0x1AFA JUMP JUMPDEST POP PUSH1 0x0 SWAP7 POP POP POP POP POP POP POP JUMPDEST SWAP1 JUMP JUMPDEST PUSH1 0x0 PUSH1 0x3 PUSH1 0xB DUP2 GT ISZERO PUSH2 0x1BC3 JUMPI PUSH2 0x1BC2 PUSH2 0x3DD7 JUMP JUMPDEST JUMPDEST DUP3 PUSH1 0xB DUP2 GT ISZERO PUSH2 0x1BD6 JUMPI PUSH2 0x1BD5 PUSH2 0x3DD7 JUMP JUMPDEST JUMPDEST EQ ISZERO PUSH2 0x1BE5 JUMPI PUSH1 0x1E SWAP1 POP PUSH2 0x1C20 JUMP JUMPDEST PUSH1 0x4 PUSH1 0xB DUP2 GT ISZERO PUSH2 0x1BF9 JUMPI PUSH2 0x1BF8 PUSH2 0x3DD7 JUMP JUMPDEST JUMPDEST DUP3 PUSH1 0xB DUP2 GT ISZERO PUSH2 0x1C0C JUMPI PUSH2 0x1C0B PUSH2 0x3DD7 JUMP JUMPDEST JUMPDEST EQ ISZERO PUSH2 0x1C1B JUMPI PUSH1 0xF SWAP1 POP PUSH2 0x1C20 JUMP JUMPDEST PUSH1 0x5 SWAP1 POP JUMPDEST SWAP2 SWAP1 POP JUMP JUMPDEST PUSH1 0x60 PUSH1 0x0 DUP1 PUSH1 0x0 DUP5 PUSH20 0xFFFFFFFFFFFFFFFFFFFFFFFFFFFFFFFFFFFFFFFF AND PUSH20 0xFFFFFFFFFFFFFFFFFFFFFFFFFFFFFFFFFFFFFFFF AND DUP2 MSTORE PUSH1 0x20 ADD SWAP1 DUP2 MSTORE PUSH1 0x20 ADD PUSH1 0x0 KECCAK256 SWAP1 POP PUSH1 0x0 PUSH1 0xC PUSH8 0xFFFFFFFFFFFFFFFF DUP2 GT ISZERO PUSH2 0x1C86 JUMPI PUSH2 0x1C85 PUSH2 0x3E35 JUMP JUMPDEST JUMPDEST PUSH1 0x40 MLOAD SWAP1 DUP1 DUP3 MSTORE DUP1 PUSH1 0x20 MUL PUSH1 0x20 ADD DUP3 ADD PUSH1 0x40 MSTORE DUP1 ISZERO PUSH2 0x1CB4 JUMPI DUP2 PUSH1 0x20 ADD PUSH1 0x20 DUP3 MUL DUP1 CALLDATASIZE DUP4 CALLDATACOPY DUP1 DUP3 ADD SWAP2 POP POP SWAP1 POP JUMPDEST POP SWAP1 POP PUSH1 0x0 JUMPDEST PUSH1 0xB DUP1 DUP2 GT ISZERO PUSH2 0x1CCD JUMPI PUSH2 0x1CCC PUSH2 0x3DD7 JUMP JUMPDEST JUMPDEST PUSH1 0xFF AND DUP2 PUSH1 0xFF AND GT PUSH2 0x1D78 JUMPI DUP3 PUSH1 0x8 ADD PUSH1 0x0 DUP3 PUSH1 0xFF AND PUSH1 0xFF AND DUP2 MSTORE PUSH1 0x20 ADD SWAP1 DUP2 MSTORE PUSH1 0x20 ADD PUSH1 0x0 KECCAK256 PUSH1 0x0 SWAP1 SLOAD SWAP1 PUSH2 0x100 EXP SWAP1 DIV PUSH20 0xFFFFFFFFFFFFFFFFFFFFFFFFFFFFFFFFFFFFFFFF AND DUP3 DUP3 PUSH1 0xFF AND DUP2 MLOAD DUP2 LT PUSH2 0x1D2B JUMPI PUSH2 0x1D2A PUSH2 0x3E06 JUMP JUMPDEST JUMPDEST PUSH1 0x20 MUL PUSH1 0x20 ADD ADD SWAP1 PUSH20 0xFFFFFFFFFFFFFFFFFFFFFFFFFFFFFFFFFFFFFFFF AND SWAP1 DUP2 PUSH20 0xFFFFFFFFFFFFFFFFFFFFFFFFFFFFFFFFFFFFFFFF AND DUP2 MSTORE POP POP DUP1 DUP1 PUSH2 0x1D70 SWAP1 PUSH2 0x3CE5 JUMP JUMPDEST SWAP2 POP POP PUSH2 0x1CBA JUMP JUMPDEST POP DUP1 SWAP3 POP POP POP SWAP2 SWAP1 POP JUMP JUMPDEST PUSH1 0x0 DUP1 DUP3 PUSH1 0x1 ADD SLOAD EQ ISZERO PUSH2 0x1D9A JUMPI PUSH1 0x3 SWAP1 POP PUSH2 0x1E14 JUMP JUMPDEST PUSH1 0x5A DUP3 PUSH1 0x6 ADD SLOAD EQ ISZERO PUSH2 0x1DB0 JUMPI PUSH1 0x0 SWAP1 POP PUSH2 0x1E14 JUMP JUMPDEST PUSH1 0x0 DUP3 PUSH1 0x9 ADD PUSH1 0x0 SWAP1 SLOAD SWAP1 PUSH2 0x100 EXP SWAP1 DIV PUSH1 0xFF AND PUSH1 0xFF AND EQ ISZERO PUSH2 0x1DD6 JUMPI PUSH1 0x2 SWAP1 POP PUSH2 0x1E14 JUMP JUMPDEST PUSH1 0x0 DUP3 PUSH1 0x6 ADD SLOAD GT ISZERO PUSH2 0x1DEC JUMPI PUSH1 0x1 SWAP1 POP PUSH2 0x1E14 JUMP JUMPDEST PUSH3 0x15180 DUP3 PUSH1 0x0 ADD SLOAD PUSH2 0x1DFF SWAP2 SWAP1 PUSH2 0x3A38 JUMP JUMPDEST TIMESTAMP GT ISZERO PUSH2 0x1E0F JUMPI PUSH1 0x2 SWAP1 POP PUSH2 0x1E14 JUMP JUMPDEST PUSH1 0x1 SWAP1 POP JUMPDEST SWAP2 SWAP1 POP JUMP JUMPDEST PUSH1 0x0 DUP1 PUSH1 0xB DUP2 GT ISZERO PUSH2 0x1E2E JUMPI PUSH2 0x1E2D PUSH2 0x3DD7 JUMP JUMPDEST JUMPDEST DUP4 PUSH1 0xB DUP2 GT ISZERO PUSH2 0x1E41 JUMPI PUSH2 0x1E40 PUSH2 0x3DD7 JUMP JUMPDEST JUMPDEST EQ ISZERO PUSH2 0x1E6B JUMPI DUP2 PUSH1 0x0 ADD MLOAD PUSH1 0x0 PUSH1 0x3 DUP2 LT PUSH2 0x1E5F JUMPI PUSH2 0x1E5E PUSH2 0x3E06 JUMP JUMPDEST JUMPDEST PUSH1 0x20 MUL ADD MLOAD SWAP1 POP PUSH2 0x23D5 JUMP JUMPDEST PUSH1 0x1 PUSH1 0xB DUP2 GT ISZERO PUSH2 0x1E7F JUMPI PUSH2 0x1E7E PUSH2 0x3DD7 JUMP JUMPDEST JUMPDEST DUP4 PUSH1 0xB DUP2 GT ISZERO PUSH2 0x1E92 JUMPI PUSH2 0x1E91 PUSH2 0x3DD7 JUMP JUMPDEST JUMPDEST EQ ISZERO PUSH2 0x1EBC JUMPI DUP2 PUSH1 0x0 ADD MLOAD PUSH1 0x1 PUSH1 0x3 DUP2 LT PUSH2 0x1EB0 JUMPI PUSH2 0x1EAF PUSH2 0x3E06 JUMP JUMPDEST JUMPDEST PUSH1 0x20 MUL ADD MLOAD SWAP1 POP PUSH2 0x23D5 JUMP JUMPDEST PUSH1 0x2 PUSH1 0xB DUP2 GT ISZERO PUSH2 0x1ED0 JUMPI PUSH2 0x1ECF PUSH2 0x3DD7 JUMP JUMPDEST JUMPDEST DUP4 PUSH1 0xB DUP2 GT ISZERO PUSH2 0x1EE3 JUMPI PUSH2 0x1EE2 PUSH2 0x3DD7 JUMP JUMPDEST JUMPDEST EQ ISZERO PUSH2 0x1F0D JUMPI DUP2 PUSH1 0x0 ADD MLOAD PUSH1 0x2 PUSH1 0x3 DUP2 LT PUSH2 0x1F01 JUMPI PUSH2 0x1F00 PUSH2 0x3E06 JUMP JUMPDEST JUMPDEST PUSH1 0x20 MUL ADD MLOAD SWAP1 POP PUSH2 0x23D5 JUMP JUMPDEST PUSH1 0x3 PUSH1 0xB DUP2 GT ISZERO PUSH2 0x1F21 JUMPI PUSH2 0x1F20 PUSH2 0x3DD7 JUMP JUMPDEST JUMPDEST DUP4 PUSH1 0xB DUP2 GT ISZERO PUSH2 0x1F34 JUMPI PUSH2 0x1F33 PUSH2 0x3DD7 JUMP JUMPDEST JUMPDEST EQ DUP1 PUSH2 0x1F64 JUMPI POP PUSH1 0x4 PUSH1 0xB DUP2 GT ISZERO PUSH2 0x1F4F JUMPI PUSH2 0x1F4E PUSH2 0x3DD7 JUMP JUMPDEST JUMPDEST DUP4 PUSH1 0xB DUP2 GT ISZERO PUSH2 0x1F62 JUMPI PUSH2 0x1F61 PUSH2 0x3DD7 JUMP JUMPDEST JUMPDEST EQ JUMPDEST DUP1 PUSH2 0x1F93 JUMPI POP PUSH1 0x5 PUSH1 0xB DUP2 GT ISZERO PUSH2 0x1F7E JUMPI PUSH2 0x1F7D PUSH2 0x3DD7 JUMP JUMPDEST JUMPDEST DUP4 PUSH1 0xB DUP2 GT ISZERO PUSH2 0x1F91 JUMPI PUSH2 0x1F90 PUSH2 0x3DD7 JUMP JUMPDEST JUMPDEST EQ JUMPDEST ISZERO PUSH2 0x1FF8 JUMPI DUP2 PUSH1 0x0 ADD MLOAD PUSH1 0x2 PUSH1 0x3 DUP2 LT PUSH2 0x1FB0 JUMPI PUSH2 0x1FAF PUSH2 0x3E06 JUMP JUMPDEST JUMPDEST PUSH1 0x20 MUL ADD MLOAD DUP3 PUSH1 0x0 ADD MLOAD PUSH1 0x1 PUSH1 0x3 DUP2 LT PUSH2 0x1FCD JUMPI PUSH2 0x1FCC PUSH2 0x3E06 JUMP JUMPDEST JUMPDEST PUSH1 0x20 MUL ADD MLOAD DUP4 PUSH1 0x0 ADD MLOAD PUSH1 0x0 PUSH1 0x3 DUP2 LT PUSH2 0x1FEA JUMPI PUSH2 0x1FE9 PUSH2 0x3E06 JUMP JUMPDEST JUMPDEST PUSH1 0x20 MUL ADD MLOAD OR OR SWAP1 POP PUSH2 0x23D5 JUMP JUMPDEST PUSH1 0x8 PUSH1 0xB DUP2 GT ISZERO PUSH2 0x200C JUMPI PUSH2 0x200B PUSH2 0x3DD7 JUMP JUMPDEST JUMPDEST DUP4 PUSH1 0xB DUP2 GT ISZERO PUSH2 0x201F JUMPI PUSH2 0x201E PUSH2 0x3DD7 JUMP JUMPDEST JUMPDEST EQ ISZERO PUSH2 0x206D JUMPI PUSH1 0x0 DUP3 PUSH1 0x0 ADD MLOAD PUSH1 0x1 PUSH1 0x3 DUP2 LT PUSH2 0x203F JUMPI PUSH2 0x203E PUSH2 0x3E06 JUMP JUMPDEST JUMPDEST PUSH1 0x20 MUL ADD MLOAD SWAP1 POP PUSH2 0x204F DUP2 PUSH2 0x23DB JUMP JUMPDEST SWAP1 POP PUSH2 0x205A DUP2 PUSH2 0x23DB JUMP JUMPDEST SWAP1 POP PUSH2 0x2065 DUP2 PUSH2 0x30B5 JUMP JUMPDEST SWAP2 POP POP PUSH2 0x23D5 JUMP JUMPDEST PUSH1 0x7 PUSH1 0xB DUP2 GT ISZERO PUSH2 0x2081 JUMPI PUSH2 0x2080 PUSH2 0x3DD7 JUMP JUMPDEST JUMPDEST DUP4 PUSH1 0xB DUP2 GT ISZERO PUSH2 0x2094 JUMPI PUSH2 0x2093 PUSH2 0x3DD7 JUMP JUMPDEST JUMPDEST EQ ISZERO PUSH2 0x2150 JUMPI PUSH1 0x0 PUSH2 0x20C1 DUP4 PUSH1 0x0 ADD MLOAD PUSH1 0x0 PUSH1 0x3 DUP2 LT PUSH2 0x20B7 JUMPI PUSH2 0x20B6 PUSH2 0x3E06 JUMP JUMPDEST JUMPDEST PUSH1 0x20 MUL ADD MLOAD PUSH2 0x30B5 JUMP JUMPDEST SWAP1 POP PUSH1 0x0 PUSH2 0x20EA DUP5 PUSH1 0x0 ADD MLOAD PUSH1 0x2 PUSH1 0x3 DUP2 LT PUSH2 0x20E0 JUMPI PUSH2 0x20DF PUSH2 0x3E06 JUMP JUMPDEST JUMPDEST PUSH1 0x20 MUL ADD MLOAD PUSH2 0x30B5 JUMP JUMPDEST SWAP1 POP PUSH1 0x0 PUSH2 0x2113 DUP6 PUSH1 0x0 ADD MLOAD PUSH1 0x0 PUSH1 0x3 DUP2 LT PUSH2 0x2109 JUMPI PUSH2 0x2108 PUSH2 0x3E06 JUMP JUMPDEST JUMPDEST PUSH1 0x20 MUL ADD MLOAD PUSH2 0x30CF JUMP JUMPDEST SWAP1 POP PUSH1 0x0 PUSH2 0x213C DUP7 PUSH1 0x0 ADD MLOAD PUSH1 0x2 PUSH1 0x3 DUP2 LT PUSH2 0x2132 JUMPI PUSH2 0x2131 PUSH2 0x3E06 JUMP JUMPDEST JUMPDEST PUSH1 0x20 MUL ADD MLOAD PUSH2 0x30CF JUMP JUMPDEST SWAP1 POP DUP3 DUP2 DUP4 DUP7 OR OR OR SWAP5 POP POP POP POP POP PUSH2 0x23D5 JUMP JUMPDEST PUSH1 0x9 PUSH1 0xB DUP2 GT ISZERO PUSH2 0x2164 JUMPI PUSH2 0x2163 PUSH2 0x3DD7 JUMP JUMPDEST JUMPDEST DUP4 PUSH1 0xB DUP2 GT ISZERO PUSH2 0x2177 JUMPI PUSH2 0x2176 PUSH2 0x3DD7 JUMP JUMPDEST JUMPDEST EQ ISZERO PUSH2 0x21EF JUMPI PUSH1 0x0 DUP3 PUSH1 0x0 ADD MLOAD PUSH1 0x2 PUSH1 0x3 DUP2 LT PUSH2 0x2197 JUMPI PUSH2 0x2196 PUSH2 0x3E06 JUMP JUMPDEST JUMPDEST PUSH1 0x20 MUL ADD MLOAD DUP4 PUSH1 0x0 ADD MLOAD PUSH1 0x1 PUSH1 0x3 DUP2 LT PUSH2 0x21B4 JUMPI PUSH2 0x21B3 PUSH2 0x3E06 JUMP JUMPDEST JUMPDEST PUSH1 0x20 MUL ADD MLOAD DUP5 PUSH1 0x0 ADD MLOAD PUSH1 0x0 PUSH1 0x3 DUP2 LT PUSH2 0x21D1 JUMPI PUSH2 0x21D0 PUSH2 0x3E06 JUMP JUMPDEST JUMPDEST PUSH1 0x20 MUL ADD MLOAD OR OR SWAP1 POP PUSH1 0x0 PUSH4 0x1FFFFFFF SWAP1 POP DUP1 DUP3 AND SWAP3 POP POP POP PUSH2 0x23D5 JUMP JUMPDEST PUSH1 0xA PUSH1 0xB DUP2 GT ISZERO PUSH2 0x2203 JUMPI PUSH2 0x2202 PUSH2 0x3DD7 JUMP JUMPDEST JUMPDEST DUP4 PUSH1 0xB DUP2 GT ISZERO PUSH2 0x2216 JUMPI PUSH2 0x2215 PUSH2 0x3DD7 JUMP JUMPDEST JUMPDEST EQ ISZERO PUSH2 0x2292 JUMPI PUSH1 0x0 DUP3 PUSH1 0x0 ADD MLOAD PUSH1 0x2 PUSH1 0x3 DUP2 LT PUSH2 0x2236 JUMPI PUSH2 0x2235 PUSH2 0x3E06 JUMP JUMPDEST JUMPDEST PUSH1 0x20 MUL ADD MLOAD DUP4 PUSH1 0x0 ADD MLOAD PUSH1 0x1 PUSH1 0x3 DUP2 LT PUSH2 0x2253 JUMPI PUSH2 0x2252 PUSH2 0x3E06 JUMP JUMPDEST JUMPDEST PUSH1 0x20 MUL ADD MLOAD DUP5 PUSH1 0x0 ADD MLOAD PUSH1 0x0 PUSH1 0x3 DUP2 LT PUSH2 0x2270 JUMPI PUSH2 0x226F PUSH2 0x3E06 JUMP JUMPDEST JUMPDEST PUSH1 0x20 MUL ADD MLOAD OR OR SWAP1 POP PUSH1 0x0 PUSH8 0x7FFFFFFE0000000 SWAP1 POP DUP1 DUP3 AND SWAP3 POP POP POP PUSH2 0x23D5 JUMP JUMPDEST PUSH1 0xB DUP1 DUP2 GT ISZERO PUSH2 0x22A5 JUMPI PUSH2 0x22A4 PUSH2 0x3DD7 JUMP JUMPDEST JUMPDEST DUP4 PUSH1 0xB DUP2 GT ISZERO PUSH2 0x22B8 JUMPI PUSH2 0x22B7 PUSH2 0x3DD7 JUMP JUMPDEST JUMPDEST EQ ISZERO PUSH2 0x2338 JUMPI PUSH1 0x0 DUP3 PUSH1 0x0 ADD MLOAD PUSH1 0x2 PUSH1 0x3 DUP2 LT PUSH2 0x22D8 JUMPI PUSH2 0x22D7 PUSH2 0x3E06 JUMP JUMPDEST JUMPDEST PUSH1 0x20 MUL ADD MLOAD DUP4 PUSH1 0x0 ADD MLOAD PUSH1 0x1 PUSH1 0x3 DUP2 LT PUSH2 0x22F5 JUMPI PUSH2 0x22F4 PUSH2 0x3E06 JUMP JUMPDEST JUMPDEST PUSH1 0x20 MUL ADD MLOAD DUP5 PUSH1 0x0 ADD MLOAD PUSH1 0x0 PUSH1 0x3 DUP2 LT PUSH2 0x2312 JUMPI PUSH2 0x2311 PUSH2 0x3E06 JUMP JUMPDEST JUMPDEST PUSH1 0x20 MUL ADD MLOAD OR OR SWAP1 POP PUSH1 0x0 PUSH12 0x3FFFFFFF800000000000000 SWAP1 POP DUP1 DUP3 AND SWAP3 POP POP POP PUSH2 0x23D5 JUMP JUMPDEST PUSH1 0x6 PUSH1 0xB DUP2 GT ISZERO PUSH2 0x234C JUMPI PUSH2 0x234B PUSH2 0x3DD7 JUMP JUMPDEST JUMPDEST DUP4 PUSH1 0xB DUP2 GT ISZERO PUSH2 0x235F JUMPI PUSH2 0x235E PUSH2 0x3DD7 JUMP JUMPDEST JUMPDEST EQ ISZERO PUSH2 0x23C5 JUMPI DUP2 PUSH1 0x0 ADD MLOAD PUSH1 0x2 PUSH1 0x3 DUP2 LT PUSH2 0x237D JUMPI PUSH2 0x237C PUSH2 0x3E06 JUMP JUMPDEST JUMPDEST PUSH1 0x20 MUL ADD MLOAD DUP3 PUSH1 0x0 ADD MLOAD PUSH1 0x1 PUSH1 0x3 DUP2 LT PUSH2 0x239A JUMPI PUSH2 0x2399 PUSH2 0x3E06 JUMP JUMPDEST JUMPDEST PUSH1 0x20 MUL ADD MLOAD DUP4 PUSH1 0x0 ADD MLOAD PUSH1 0x0 PUSH1 0x3 DUP2 LT PUSH2 0x23B7 JUMPI PUSH2 0x23B6 PUSH2 0x3E06 JUMP JUMPDEST JUMPDEST PUSH1 0x20 MUL ADD MLOAD OR OR SWAP1 POP PUSH2 0x23D5 JUMP JUMPDEST PUSH12 0x3FFFFFFFFFFFFFFFFFFFFFF SWAP1 POP JUMPDEST SWAP3 SWAP2 POP POP JUMP JUMPDEST PUSH1 0x0 PUSH1 0x1 DUP3 PUSH2 0x23EA SWAP2 SWAP1 PUSH2 0x3B8B JUMP JUMPDEST DUP3 AND SWAP1 POP SWAP2 SWAP1 POP JUMP JUMPDEST PUSH1 0x0 DUP1 DUP3 PUSH1 0x4 ADD DUP1 SLOAD SWAP1 POP EQ SWAP1 POP SWAP2 SWAP1 POP JUMP JUMPDEST PUSH1 0x0 DIFFICULTY TIMESTAMP DUP4 PUSH1 0x40 MLOAD PUSH1 0x20 ADD PUSH2 0x241D SWAP4 SWAP3 SWAP2 SWAP1 PUSH2 0x3722 JUMP JUMPDEST PUSH1 0x40 MLOAD PUSH1 0x20 DUP2 DUP4 SUB SUB DUP2 MSTORE SWAP1 PUSH1 0x40 MSTORE DUP1 MLOAD SWAP1 PUSH1 0x20 ADD KECCAK256 PUSH1 0x0 SHR SWAP1 POP SWAP2 SWAP1 POP JUMP JUMPDEST PUSH2 0x2445 PUSH2 0x31A5 JUMP JUMPDEST PUSH1 0x0 DUP1 PUSH1 0x40 MLOAD DUP1 PUSH2 0x120 ADD PUSH1 0x40 MSTORE DUP1 PUSH1 0x0 PUSH1 0xFF AND DUP2 MSTORE PUSH1 0x20 ADD PUSH1 0x1 PUSH1 0xFF AND DUP2 MSTORE PUSH1 0x20 ADD PUSH1 0x2 PUSH1 0xFF AND DUP2 MSTORE PUSH1 0x20 ADD PUSH1 0x3 PUSH1 0xFF AND DUP2 MSTORE PUSH1 0x20 ADD PUSH1 0x4 PUSH1 0xFF AND DUP2 MSTORE PUSH1 0x20 ADD PUSH1 0x5 PUSH1 0xFF AND DUP2 MSTORE PUSH1 0x20 ADD PUSH1 0x6 PUSH1 0xFF AND DUP2 MSTORE PUSH1 0x20 ADD PUSH1 0x7 PUSH1 0xFF AND DUP2 MSTORE PUSH1 0x20 ADD PUSH1 0x8 PUSH1 0xFF AND DUP2 MSTORE POP SWAP1 POP PUSH2 0x24B6 PUSH2 0x31A5 JUMP JUMPDEST PUSH1 0x0 JUMPDEST PUSH1 0x5 DUP2 LT ISZERO PUSH2 0x258D JUMPI PUSH2 0x24CB DUP7 PUSH2 0x2406 JUMP JUMPDEST SWAP6 POP PUSH1 0x0 DUP2 PUSH1 0x9 PUSH2 0x24DC SWAP2 SWAP1 PUSH2 0x3B8B JUMP JUMPDEST DUP8 PUSH2 0x24E7 SWAP2 SWAP1 PUSH2 0x3D19 JUMP JUMPDEST SWAP1 POP DUP4 DUP2 PUSH1 0x9 DUP2 LT PUSH2 0x24FC JUMPI PUSH2 0x24FB PUSH2 0x3E06 JUMP JUMPDEST JUMPDEST PUSH1 0x20 MUL ADD MLOAD DUP4 DUP4 PUSH1 0x5 DUP2 LT PUSH2 0x2514 JUMPI PUSH2 0x2513 PUSH2 0x3E06 JUMP JUMPDEST JUMPDEST PUSH1 0x20 MUL ADD SWAP1 PUSH1 0xFF AND SWAP1 DUP2 PUSH1 0xFF AND DUP2 MSTORE POP POP DUP4 DUP3 PUSH1 0x1 PUSH1 0x9 PUSH2 0x2535 SWAP2 SWAP1 PUSH2 0x3B8B JUMP JUMPDEST PUSH2 0x253F SWAP2 SWAP1 PUSH2 0x3B8B JUMP JUMPDEST PUSH1 0x9 DUP2 LT PUSH2 0x2550 JUMPI PUSH2 0x254F PUSH2 0x3E06 JUMP JUMPDEST JUMPDEST PUSH1 0x20 MUL ADD MLOAD DUP5 DUP3 PUSH1 0x9 DUP2 LT PUSH2 0x2568 JUMPI PUSH2 0x2567 PUSH2 0x3E06 JUMP JUMPDEST JUMPDEST PUSH1 0x20 MUL ADD SWAP1 PUSH1 0xFF AND SWAP1 DUP2 PUSH1 0xFF AND DUP2 MSTORE POP POP POP DUP1 DUP1 PUSH2 0x2585 SWAP1 PUSH2 0x3C9C JUMP JUMPDEST SWAP2 POP POP PUSH2 0x24B9 JUMP JUMPDEST POP DUP1 DUP6 SWAP4 POP SWAP4 POP POP POP SWAP2 POP SWAP2 JUMP JUMPDEST PUSH2 0x25A3 PUSH2 0x3218 JUMP JUMPDEST PUSH1 0x0 PUSH2 0x25AD PUSH2 0x3218 JUMP JUMPDEST PUSH1 0x0 DUP6 PUSH1 0xFF AND EQ ISZERO PUSH2 0x2718 JUMPI PUSH1 0x0 PUSH1 0x40 MLOAD DUP1 PUSH2 0x120 ADD PUSH1 0x40 MSTORE DUP1 PUSH1 0x1 PUSH1 0xFF AND DUP2 MSTORE PUSH1 0x20 ADD PUSH1 0x2 PUSH1 0xFF AND DUP2 MSTORE PUSH1 0x20 ADD PUSH1 0x3 PUSH1 0xFF AND DUP2 MSTORE PUSH1 0x20 ADD PUSH1 0x4 PUSH1 0xFF AND DUP2 MSTORE PUSH1 0x20 ADD PUSH1 0x5 PUSH1 0xFF AND DUP2 MSTORE PUSH1 0x20 ADD PUSH1 0x6 PUSH1 0xFF AND DUP2 MSTORE PUSH1 0x20 ADD PUSH1 0x7 PUSH1 0xFF AND DUP2 MSTORE PUSH1 0x20 ADD PUSH1 0x8 PUSH1 0xFF AND DUP2 MSTORE PUSH1 0x20 ADD PUSH1 0x9 PUSH1 0xFF AND DUP2 MSTORE POP SWAP1 POP PUSH1 0x0 JUMPDEST DUP6 PUSH1 0xFF AND DUP2 LT ISZERO PUSH2 0x2711 JUMPI PUSH2 0x2638 DUP9 PUSH2 0x2406 JUMP JUMPDEST SWAP8 POP PUSH1 0x0 DUP2 PUSH1 0x9 PUSH2 0x2649 SWAP2 SWAP1 PUSH2 0x3B8B JUMP JUMPDEST DUP10 PUSH2 0x2654 SWAP2 SWAP1 PUSH2 0x3D19 JUMP JUMPDEST SWAP1 POP DUP3 DUP2 PUSH1 0x9 DUP2 LT PUSH2 0x2669 JUMPI PUSH2 0x2668 PUSH2 0x3E06 JUMP JUMPDEST JUMPDEST PUSH1 0x20 MUL ADD MLOAD PUSH1 0xA DUP10 PUSH2 0x267B SWAP2 SWAP1 PUSH2 0x3B50 JUMP JUMPDEST PUSH2 0x2685 SWAP2 SWAP1 PUSH2 0x3A8E JUMP JUMPDEST DUP5 DUP4 PUSH1 0x3 DUP2 LT PUSH2 0x2698 JUMPI PUSH2 0x2697 PUSH2 0x3E06 JUMP JUMPDEST JUMPDEST PUSH1 0x20 MUL ADD SWAP1 PUSH1 0xFF AND SWAP1 DUP2 PUSH1 0xFF AND DUP2 MSTORE POP POP DUP3 DUP3 PUSH1 0x1 PUSH1 0x9 PUSH2 0x26B9 SWAP2 SWAP1 PUSH2 0x3B8B JUMP JUMPDEST PUSH2 0x26C3 SWAP2 SWAP1 PUSH2 0x3B8B JUMP JUMPDEST PUSH1 0x9 DUP2 LT PUSH2 0x26D4 JUMPI PUSH2 0x26D3 PUSH2 0x3E06 JUMP JUMPDEST JUMPDEST PUSH1 0x20 MUL ADD MLOAD DUP4 DUP3 PUSH1 0x9 DUP2 LT PUSH2 0x26EC JUMPI PUSH2 0x26EB PUSH2 0x3E06 JUMP JUMPDEST JUMPDEST PUSH1 0x20 MUL ADD SWAP1 PUSH1 0xFF AND SWAP1 DUP2 PUSH1 0xFF AND DUP2 MSTORE POP POP POP DUP1 DUP1 PUSH2 0x2709 SWAP1 PUSH2 0x3C9C JUMP JUMPDEST SWAP2 POP POP PUSH2 0x2624 JUMP JUMPDEST POP POP PUSH2 0x29FD JUMP JUMPDEST PUSH1 0x8 DUP6 PUSH1 0xFF AND EQ ISZERO PUSH2 0x2897 JUMPI PUSH1 0x0 PUSH1 0x40 MLOAD DUP1 PUSH2 0x160 ADD PUSH1 0x40 MSTORE DUP1 PUSH1 0x0 PUSH1 0xFF AND DUP2 MSTORE PUSH1 0x20 ADD PUSH1 0x1 PUSH1 0xFF AND DUP2 MSTORE PUSH1 0x20 ADD PUSH1 0x2 PUSH1 0xFF AND DUP2 MSTORE PUSH1 0x20 ADD PUSH1 0x3 PUSH1 0xFF AND DUP2 MSTORE PUSH1 0x20 ADD PUSH1 0x4 PUSH1 0xFF AND DUP2 MSTORE PUSH1 0x20 ADD PUSH1 0x5 PUSH1 0xFF AND DUP2 MSTORE PUSH1 0x20 ADD PUSH1 0x6 PUSH1 0xFF AND DUP2 MSTORE PUSH1 0x20 ADD PUSH1 0x7 PUSH1 0xFF AND DUP2 MSTORE PUSH1 0x20 ADD PUSH1 0x8 PUSH1 0xFF AND DUP2 MSTORE PUSH1 0x20 ADD PUSH1 0x9 PUSH1 0xFF AND DUP2 MSTORE PUSH1 0x20 ADD PUSH1 0xA PUSH1 0xFF AND DUP2 MSTORE POP SWAP1 POP PUSH1 0x0 JUMPDEST DUP6 PUSH1 0xFF AND DUP2 LT ISZERO PUSH2 0x2890 JUMPI PUSH2 0x27B7 DUP9 PUSH2 0x2406 JUMP JUMPDEST SWAP8 POP PUSH1 0x0 DUP2 PUSH1 0xB PUSH2 0x27C8 SWAP2 SWAP1 PUSH2 0x3B8B JUMP JUMPDEST DUP10 PUSH2 0x27D3 SWAP2 SWAP1 PUSH2 0x3D19 JUMP JUMPDEST SWAP1 POP DUP3 DUP2 PUSH1 0xB DUP2 LT PUSH2 0x27E8 JUMPI PUSH2 0x27E7 PUSH2 0x3E06 JUMP JUMPDEST JUMPDEST PUSH1 0x20 MUL ADD MLOAD PUSH1 0xA DUP10 PUSH2 0x27FA SWAP2 SWAP1 PUSH2 0x3B50 JUMP JUMPDEST PUSH2 0x2804 SWAP2 SWAP1 PUSH2 0x3A8E JUMP JUMPDEST DUP5 DUP4 PUSH1 0x3 DUP2 LT PUSH2 0x2817 JUMPI PUSH2 0x2816 PUSH2 0x3E06 JUMP JUMPDEST JUMPDEST PUSH1 0x20 MUL ADD SWAP1 PUSH1 0xFF AND SWAP1 DUP2 PUSH1 0xFF AND DUP2 MSTORE POP POP DUP3 DUP3 PUSH1 0x1 PUSH1 0xB PUSH2 0x2838 SWAP2 SWAP1 PUSH2 0x3B8B JUMP JUMPDEST PUSH2 0x2842 SWAP2 SWAP1 PUSH2 0x3B8B JUMP JUMPDEST PUSH1 0xB DUP2 LT PUSH2 0x2853 JUMPI PUSH2 0x2852 PUSH2 0x3E06 JUMP JUMPDEST JUMPDEST PUSH1 0x20 MUL ADD MLOAD DUP4 DUP3 PUSH1 0xB DUP2 LT PUSH2 0x286B JUMPI PUSH2 0x286A PUSH2 0x3E06 JUMP JUMPDEST JUMPDEST PUSH1 0x20 MUL ADD SWAP1 PUSH1 0xFF AND SWAP1 DUP2 PUSH1 0xFF AND DUP2 MSTORE POP POP POP DUP1 DUP1 PUSH2 0x2888 SWAP1 PUSH2 0x3C9C JUMP JUMPDEST SWAP2 POP POP PUSH2 0x27A3 JUMP JUMPDEST POP POP PUSH2 0x29FC JUMP JUMPDEST PUSH1 0x0 PUSH1 0x40 MLOAD DUP1 PUSH2 0x140 ADD PUSH1 0x40 MSTORE DUP1 PUSH1 0x0 PUSH1 0xFF AND DUP2 MSTORE PUSH1 0x20 ADD PUSH1 0x1 PUSH1 0xFF AND DUP2 MSTORE PUSH1 0x20 ADD PUSH1 0x2 PUSH1 0xFF AND DUP2 MSTORE PUSH1 0x20 ADD PUSH1 0x3 PUSH1 0xFF AND DUP2 MSTORE PUSH1 0x20 ADD PUSH1 0x4 PUSH1 0xFF AND DUP2 MSTORE PUSH1 0x20 ADD PUSH1 0x5 PUSH1 0xFF AND DUP2 MSTORE PUSH1 0x20 ADD PUSH1 0x6 PUSH1 0xFF AND DUP2 MSTORE PUSH1 0x20 ADD PUSH1 0x7 PUSH1 0xFF AND DUP2 MSTORE PUSH1 0x20 ADD PUSH1 0x8 PUSH1 0xFF AND DUP2 MSTORE PUSH1 0x20 ADD PUSH1 0x9 PUSH1 0xFF AND DUP2 MSTORE POP SWAP1 POP PUSH1 0x0 JUMPDEST DUP6 PUSH1 0xFF AND DUP2 LT ISZERO PUSH2 0x29F9 JUMPI PUSH2 0x2920 DUP9 PUSH2 0x2406 JUMP JUMPDEST SWAP8 POP PUSH1 0x0 DUP2 PUSH1 0xA PUSH2 0x2931 SWAP2 SWAP1 PUSH2 0x3B8B JUMP JUMPDEST DUP10 PUSH2 0x293C SWAP2 SWAP1 PUSH2 0x3D19 JUMP JUMPDEST SWAP1 POP DUP3 DUP2 PUSH1 0xA DUP2 LT PUSH2 0x2951 JUMPI PUSH2 0x2950 PUSH2 0x3E06 JUMP JUMPDEST JUMPDEST PUSH1 0x20 MUL ADD MLOAD PUSH1 0xA DUP10 PUSH2 0x2963 SWAP2 SWAP1 PUSH2 0x3B50 JUMP JUMPDEST PUSH2 0x296D SWAP2 SWAP1 PUSH2 0x3A8E JUMP JUMPDEST DUP5 DUP4 PUSH1 0x3 DUP2 LT PUSH2 0x2980 JUMPI PUSH2 0x297F PUSH2 0x3E06 JUMP JUMPDEST JUMPDEST PUSH1 0x20 MUL ADD SWAP1 PUSH1 0xFF AND SWAP1 DUP2 PUSH1 0xFF AND DUP2 MSTORE POP POP DUP3 DUP3 PUSH1 0x1 PUSH1 0xA PUSH2 0x29A1 SWAP2 SWAP1 PUSH2 0x3B8B JUMP JUMPDEST PUSH2 0x29AB SWAP2 SWAP1 PUSH2 0x3B8B JUMP JUMPDEST PUSH1 0xA DUP2 LT PUSH2 0x29BC JUMPI PUSH2 0x29BB PUSH2 0x3E06 JUMP JUMPDEST JUMPDEST PUSH1 0x20 MUL ADD MLOAD DUP4 DUP3 PUSH1 0xA DUP2 LT PUSH2 0x29D4 JUMPI PUSH2 0x29D3 PUSH2 0x3E06 JUMP JUMPDEST JUMPDEST PUSH1 0x20 MUL ADD SWAP1 PUSH1 0xFF AND SWAP1 DUP2 PUSH1 0xFF AND DUP2 MSTORE POP POP POP DUP1 DUP1 PUSH2 0x29F1 SWAP1 PUSH2 0x3C9C JUMP JUMPDEST SWAP2 POP POP PUSH2 0x290C JUMP JUMPDEST POP POP JUMPDEST JUMPDEST DUP1 DUP7 SWAP3 POP SWAP3 POP POP SWAP4 POP SWAP4 SWAP2 POP POP JUMP JUMPDEST PUSH2 0x2A14 PUSH2 0x3218 JUMP JUMPDEST PUSH1 0x3 DUP3 EQ ISZERO PUSH2 0x2FDE JUMPI PUSH2 0x2A25 PUSH2 0x3218 JUMP JUMPDEST DUP4 PUSH1 0x1 PUSH1 0x3 DUP2 LT PUSH2 0x2A39 JUMPI PUSH2 0x2A38 PUSH2 0x3E06 JUMP JUMPDEST JUMPDEST PUSH1 0x20 MUL ADD MLOAD PUSH1 0xFF AND DUP5 PUSH1 0x0 PUSH1 0x3 DUP2 LT PUSH2 0x2A55 JUMPI PUSH2 0x2A54 PUSH2 0x3E06 JUMP JUMPDEST JUMPDEST PUSH1 0x20 MUL ADD MLOAD PUSH1 0xFF AND GT ISZERO PUSH2 0x2D1E JUMPI DUP4 PUSH1 0x2 PUSH1 0x3 DUP2 LT PUSH2 0x2A77 JUMPI PUSH2 0x2A76 PUSH2 0x3E06 JUMP JUMPDEST JUMPDEST PUSH1 0x20 MUL ADD MLOAD PUSH1 0xFF AND DUP5 PUSH1 0x0 PUSH1 0x3 DUP2 LT PUSH2 0x2A93 JUMPI PUSH2 0x2A92 PUSH2 0x3E06 JUMP JUMPDEST JUMPDEST PUSH1 0x20 MUL ADD MLOAD PUSH1 0xFF AND GT ISZERO PUSH2 0x2C5E JUMPI DUP4 PUSH1 0x2 PUSH1 0x3 DUP2 LT PUSH2 0x2AB5 JUMPI PUSH2 0x2AB4 PUSH2 0x3E06 JUMP JUMPDEST JUMPDEST PUSH1 0x20 MUL ADD MLOAD PUSH1 0xFF AND DUP5 PUSH1 0x1 PUSH1 0x3 DUP2 LT PUSH2 0x2AD1 JUMPI PUSH2 0x2AD0 PUSH2 0x3E06 JUMP JUMPDEST JUMPDEST PUSH1 0x20 MUL ADD MLOAD PUSH1 0xFF AND GT ISZERO PUSH2 0x2B9E JUMPI DUP4 PUSH1 0x2 PUSH1 0x3 DUP2 LT PUSH2 0x2AF3 JUMPI PUSH2 0x2AF2 PUSH2 0x3E06 JUMP JUMPDEST JUMPDEST PUSH1 0x20 MUL ADD MLOAD DUP2 PUSH1 0x0 PUSH1 0x3 DUP2 LT PUSH2 0x2B0C JUMPI PUSH2 0x2B0B PUSH2 0x3E06 JUMP JUMPDEST JUMPDEST PUSH1 0x20 MUL ADD SWAP1 PUSH1 0xFF AND SWAP1 DUP2 PUSH1 0xFF AND DUP2 MSTORE POP POP DUP4 PUSH1 0x1 PUSH1 0x3 DUP2 LT PUSH2 0x2B31 JUMPI PUSH2 0x2B30 PUSH2 0x3E06 JUMP JUMPDEST JUMPDEST PUSH1 0x20 MUL ADD MLOAD DUP2 PUSH1 0x1 PUSH1 0x3 DUP2 LT PUSH2 0x2B4A JUMPI PUSH2 0x2B49 PUSH2 0x3E06 JUMP JUMPDEST JUMPDEST PUSH1 0x20 MUL ADD SWAP1 PUSH1 0xFF AND SWAP1 DUP2 PUSH1 0xFF AND DUP2 MSTORE POP POP DUP4 PUSH1 0x0 PUSH1 0x3 DUP2 LT PUSH2 0x2B6F JUMPI PUSH2 0x2B6E PUSH2 0x3E06 JUMP JUMPDEST JUMPDEST PUSH1 0x20 MUL ADD MLOAD DUP2 PUSH1 0x2 PUSH1 0x3 DUP2 LT PUSH2 0x2B88 JUMPI PUSH2 0x2B87 PUSH2 0x3E06 JUMP JUMPDEST JUMPDEST PUSH1 0x20 MUL ADD SWAP1 PUSH1 0xFF AND SWAP1 DUP2 PUSH1 0xFF AND DUP2 MSTORE POP POP PUSH2 0x2C59 JUMP JUMPDEST DUP4 PUSH1 0x1 PUSH1 0x3 DUP2 LT PUSH2 0x2BB2 JUMPI PUSH2 0x2BB1 PUSH2 0x3E06 JUMP JUMPDEST JUMPDEST PUSH1 0x20 MUL ADD MLOAD DUP2 PUSH1 0x0 PUSH1 0x3 DUP2 LT PUSH2 0x2BCB JUMPI PUSH2 0x2BCA PUSH2 0x3E06 JUMP JUMPDEST JUMPDEST PUSH1 0x20 MUL ADD SWAP1 PUSH1 0xFF AND SWAP1 DUP2 PUSH1 0xFF AND DUP2 MSTORE POP POP DUP4 PUSH1 0x2 PUSH1 0x3 DUP2 LT PUSH2 0x2BF0 JUMPI PUSH2 0x2BEF PUSH2 0x3E06 JUMP JUMPDEST JUMPDEST PUSH1 0x20 MUL ADD MLOAD DUP2 PUSH1 0x1 PUSH1 0x3 DUP2 LT PUSH2 0x2C09 JUMPI PUSH2 0x2C08 PUSH2 0x3E06 JUMP JUMPDEST JUMPDEST PUSH1 0x20 MUL ADD SWAP1 PUSH1 0xFF AND SWAP1 DUP2 PUSH1 0xFF AND DUP2 MSTORE POP POP DUP4 PUSH1 0x0 PUSH1 0x3 DUP2 LT PUSH2 0x2C2E JUMPI PUSH2 0x2C2D PUSH2 0x3E06 JUMP JUMPDEST JUMPDEST PUSH1 0x20 MUL ADD MLOAD DUP2 PUSH1 0x2 PUSH1 0x3 DUP2 LT PUSH2 0x2C47 JUMPI PUSH2 0x2C46 PUSH2 0x3E06 JUMP JUMPDEST JUMPDEST PUSH1 0x20 MUL ADD SWAP1 PUSH1 0xFF AND SWAP1 DUP2 PUSH1 0xFF AND DUP2 MSTORE POP POP JUMPDEST PUSH2 0x2D19 JUMP JUMPDEST DUP4 PUSH1 0x1 PUSH1 0x3 DUP2 LT PUSH2 0x2C72 JUMPI PUSH2 0x2C71 PUSH2 0x3E06 JUMP JUMPDEST JUMPDEST PUSH1 0x20 MUL ADD MLOAD DUP2 PUSH1 0x0 PUSH1 0x3 DUP2 LT PUSH2 0x2C8B JUMPI PUSH2 0x2C8A PUSH2 0x3E06 JUMP JUMPDEST JUMPDEST PUSH1 0x20 MUL ADD SWAP1 PUSH1 0xFF AND SWAP1 DUP2 PUSH1 0xFF AND DUP2 MSTORE POP POP DUP4 PUSH1 0x0 PUSH1 0x3 DUP2 LT PUSH2 0x2CB0 JUMPI PUSH2 0x2CAF PUSH2 0x3E06 JUMP JUMPDEST JUMPDEST PUSH1 0x20 MUL ADD MLOAD DUP2 PUSH1 0x1 PUSH1 0x3 DUP2 LT PUSH2 0x2CC9 JUMPI PUSH2 0x2CC8 PUSH2 0x3E06 JUMP JUMPDEST JUMPDEST PUSH1 0x20 MUL ADD SWAP1 PUSH1 0xFF AND SWAP1 DUP2 PUSH1 0xFF AND DUP2 MSTORE POP POP DUP4 PUSH1 0x2 PUSH1 0x3 DUP2 LT PUSH2 0x2CEE JUMPI PUSH2 0x2CED PUSH2 0x3E06 JUMP JUMPDEST JUMPDEST PUSH1 0x20 MUL ADD MLOAD DUP2 PUSH1 0x2 PUSH1 0x3 DUP2 LT PUSH2 0x2D07 JUMPI PUSH2 0x2D06 PUSH2 0x3E06 JUMP JUMPDEST JUMPDEST PUSH1 0x20 MUL ADD SWAP1 PUSH1 0xFF AND SWAP1 DUP2 PUSH1 0xFF AND DUP2 MSTORE POP POP JUMPDEST PUSH2 0x2FD5 JUMP JUMPDEST DUP4 PUSH1 0x2 PUSH1 0x3 DUP2 LT PUSH2 0x2D32 JUMPI PUSH2 0x2D31 PUSH2 0x3E06 JUMP JUMPDEST JUMPDEST PUSH1 0x20 MUL ADD MLOAD PUSH1 0xFF AND DUP5 PUSH1 0x0 PUSH1 0x3 DUP2 LT PUSH2 0x2D4E JUMPI PUSH2 0x2D4D PUSH2 0x3E06 JUMP JUMPDEST JUMPDEST PUSH1 0x20 MUL ADD MLOAD PUSH1 0xFF AND GT ISZERO PUSH2 0x2E1B JUMPI DUP4 PUSH1 0x2 PUSH1 0x3 DUP2 LT PUSH2 0x2D70 JUMPI PUSH2 0x2D6F PUSH2 0x3E06 JUMP JUMPDEST JUMPDEST PUSH1 0x20 MUL ADD MLOAD DUP2 PUSH1 0x0 PUSH1 0x3 DUP2 LT PUSH2 0x2D89 JUMPI PUSH2 0x2D88 PUSH2 0x3E06 JUMP JUMPDEST JUMPDEST PUSH1 0x20 MUL ADD SWAP1 PUSH1 0xFF AND SWAP1 DUP2 PUSH1 0xFF AND DUP2 MSTORE POP POP DUP4 PUSH1 0x0 PUSH1 0x3 DUP2 LT PUSH2 0x2DAE JUMPI PUSH2 0x2DAD PUSH2 0x3E06 JUMP JUMPDEST JUMPDEST PUSH1 0x20 MUL ADD MLOAD DUP2 PUSH1 0x1 PUSH1 0x3 DUP2 LT PUSH2 0x2DC7 JUMPI PUSH2 0x2DC6 PUSH2 0x3E06 JUMP JUMPDEST JUMPDEST PUSH1 0x20 MUL ADD SWAP1 PUSH1 0xFF AND SWAP1 DUP2 PUSH1 0xFF AND DUP2 MSTORE POP POP DUP4 PUSH1 0x1 PUSH1 0x3 DUP2 LT PUSH2 0x2DEC JUMPI PUSH2 0x2DEB PUSH2 0x3E06 JUMP JUMPDEST JUMPDEST PUSH1 0x20 MUL ADD MLOAD DUP2 PUSH1 0x2 PUSH1 0x3 DUP2 LT PUSH2 0x2E05 JUMPI PUSH2 0x2E04 PUSH2 0x3E06 JUMP JUMPDEST JUMPDEST PUSH1 0x20 MUL ADD SWAP1 PUSH1 0xFF AND SWAP1 DUP2 PUSH1 0xFF AND DUP2 MSTORE POP POP PUSH2 0x2FD4 JUMP JUMPDEST DUP4 PUSH1 0x2 PUSH1 0x3 DUP2 LT PUSH2 0x2E2F JUMPI PUSH2 0x2E2E PUSH2 0x3E06 JUMP JUMPDEST JUMPDEST PUSH1 0x20 MUL ADD MLOAD PUSH1 0xFF AND DUP5 PUSH1 0x1 PUSH1 0x3 DUP2 LT PUSH2 0x2E4B JUMPI PUSH2 0x2E4A PUSH2 0x3E06 JUMP JUMPDEST JUMPDEST PUSH1 0x20 MUL ADD MLOAD PUSH1 0xFF AND GT ISZERO PUSH2 0x2F18 JUMPI DUP4 PUSH1 0x0 PUSH1 0x3 DUP2 LT PUSH2 0x2E6D JUMPI PUSH2 0x2E6C PUSH2 0x3E06 JUMP JUMPDEST JUMPDEST PUSH1 0x20 MUL ADD MLOAD DUP2 PUSH1 0x0 PUSH1 0x3 DUP2 LT PUSH2 0x2E86 JUMPI PUSH2 0x2E85 PUSH2 0x3E06 JUMP JUMPDEST JUMPDEST PUSH1 0x20 MUL ADD SWAP1 PUSH1 0xFF AND SWAP1 DUP2 PUSH1 0xFF AND DUP2 MSTORE POP POP DUP4 PUSH1 0x2 PUSH1 0x3 DUP2 LT PUSH2 0x2EAB JUMPI PUSH2 0x2EAA PUSH2 0x3E06 JUMP JUMPDEST JUMPDEST PUSH1 0x20 MUL ADD MLOAD DUP2 PUSH1 0x1 PUSH1 0x3 DUP2 LT PUSH2 0x2EC4 JUMPI PUSH2 0x2EC3 PUSH2 0x3E06 JUMP JUMPDEST JUMPDEST PUSH1 0x20 MUL ADD SWAP1 PUSH1 0xFF AND SWAP1 DUP2 PUSH1 0xFF AND DUP2 MSTORE POP POP DUP4 PUSH1 0x1 PUSH1 0x3 DUP2 LT PUSH2 0x2EE9 JUMPI PUSH2 0x2EE8 PUSH2 0x3E06 JUMP JUMPDEST JUMPDEST PUSH1 0x20 MUL ADD MLOAD DUP2 PUSH1 0x2 PUSH1 0x3 DUP2 LT PUSH2 0x2F02 JUMPI PUSH2 0x2F01 PUSH2 0x3E06 JUMP JUMPDEST JUMPDEST PUSH1 0x20 MUL ADD SWAP1 PUSH1 0xFF AND SWAP1 DUP2 PUSH1 0xFF AND DUP2 MSTORE POP POP PUSH2 0x2FD3 JUMP JUMPDEST DUP4 PUSH1 0x0 PUSH1 0x3 DUP2 LT PUSH2 0x2F2C JUMPI PUSH2 0x2F2B PUSH2 0x3E06 JUMP JUMPDEST JUMPDEST PUSH1 0x20 MUL ADD MLOAD DUP2 PUSH1 0x0 PUSH1 0x3 DUP2 LT PUSH2 0x2F45 JUMPI PUSH2 0x2F44 PUSH2 0x3E06 JUMP JUMPDEST JUMPDEST PUSH1 0x20 MUL ADD SWAP1 PUSH1 0xFF AND SWAP1 DUP2 PUSH1 0xFF AND DUP2 MSTORE POP POP DUP4 PUSH1 0x1 PUSH1 0x3 DUP2 LT PUSH2 0x2F6A JUMPI PUSH2 0x2F69 PUSH2 0x3E06 JUMP JUMPDEST JUMPDEST PUSH1 0x20 MUL ADD MLOAD DUP2 PUSH1 0x1 PUSH1 0x3 DUP2 LT PUSH2 0x2F83 JUMPI PUSH2 0x2F82 PUSH2 0x3E06 JUMP JUMPDEST JUMPDEST PUSH1 0x20 MUL ADD SWAP1 PUSH1 0xFF AND SWAP1 DUP2 PUSH1 0xFF AND DUP2 MSTORE POP POP DUP4 PUSH1 0x2 PUSH1 0x3 DUP2 LT PUSH2 0x2FA8 JUMPI PUSH2 0x2FA7 PUSH2 0x3E06 JUMP JUMPDEST JUMPDEST PUSH1 0x20 MUL ADD MLOAD DUP2 PUSH1 0x2 PUSH1 0x3 DUP2 LT PUSH2 0x2FC1 JUMPI PUSH2 0x2FC0 PUSH2 0x3E06 JUMP JUMPDEST JUMPDEST PUSH1 0x20 MUL ADD SWAP1 PUSH1 0xFF AND SWAP1 DUP2 PUSH1 0xFF AND DUP2 MSTORE POP POP JUMPDEST JUMPDEST JUMPDEST DUP1 SWAP2 POP POP PUSH2 0x30AF JUMP JUMPDEST PUSH1 0x2 DUP3 EQ DUP1 ISZERO PUSH2 0x3023 JUMPI POP DUP3 PUSH1 0x1 PUSH1 0x3 DUP2 LT PUSH2 0x2FFD JUMPI PUSH2 0x2FFC PUSH2 0x3E06 JUMP JUMPDEST JUMPDEST PUSH1 0x20 MUL ADD MLOAD PUSH1 0xFF AND DUP4 PUSH1 0x0 PUSH1 0x3 DUP2 LT PUSH2 0x3019 JUMPI PUSH2 0x3018 PUSH2 0x3E06 JUMP JUMPDEST JUMPDEST PUSH1 0x20 MUL ADD MLOAD PUSH1 0xFF AND GT JUMPDEST ISZERO PUSH2 0x30AB JUMPI PUSH1 0x0 DUP4 PUSH1 0x1 PUSH1 0x3 DUP2 LT PUSH2 0x303E JUMPI PUSH2 0x303D PUSH2 0x3E06 JUMP JUMPDEST JUMPDEST PUSH1 0x20 MUL ADD MLOAD SWAP1 POP DUP4 PUSH1 0x0 PUSH1 0x3 DUP2 LT PUSH2 0x3059 JUMPI PUSH2 0x3058 PUSH2 0x3E06 JUMP JUMPDEST JUMPDEST PUSH1 0x20 MUL ADD MLOAD DUP5 PUSH1 0x1 PUSH1 0x3 DUP2 LT PUSH2 0x3072 JUMPI PUSH2 0x3071 PUSH2 0x3E06 JUMP JUMPDEST JUMPDEST PUSH1 0x20 MUL ADD SWAP1 PUSH1 0xFF AND SWAP1 DUP2 PUSH1 0xFF AND DUP2 MSTORE POP POP DUP1 DUP5 PUSH1 0x0 PUSH1 0x3 DUP2 LT PUSH2 0x3098 JUMPI PUSH2 0x3097 PUSH2 0x3E06 JUMP JUMPDEST JUMPDEST PUSH1 0x20 MUL ADD SWAP1 PUSH1 0xFF AND SWAP1 DUP2 PUSH1 0xFF AND DUP2 MSTORE POP POP POP JUMPDEST DUP3 SWAP1 POP JUMPDEST SWAP3 SWAP2 POP POP JUMP JUMPDEST PUSH1 0x0 PUSH1 0x1 DUP3 PUSH2 0x30C4 SWAP2 SWAP1 PUSH2 0x3B8B JUMP JUMPDEST DUP3 AND DUP3 XOR SWAP1 POP SWAP2 SWAP1 POP JUMP JUMPDEST PUSH1 0x0 PUSH1 0x1 DUP3 SWAP1 SHR DUP3 OR SWAP2 POP PUSH1 0x2 DUP3 SWAP1 SHR DUP3 OR SWAP2 POP PUSH1 0x4 DUP3 SWAP1 SHR DUP3 OR SWAP2 POP PUSH1 0x8 DUP3 SWAP1 SHR DUP3 OR SWAP2 POP PUSH1 0x10 DUP3 SWAP1 SHR DUP3 OR SWAP2 POP PUSH1 0x20 DUP3 SWAP1 SHR DUP3 OR SWAP2 POP PUSH1 0x40 DUP3 SWAP1 SHR DUP3 OR SWAP2 POP PUSH1 0x80 DUP3 SWAP1 SHR DUP3 OR SWAP2 POP PUSH1 0x1 DUP3 PUSH2 0x3126 SWAP2 SWAP1 PUSH2 0x3A38 JUMP JUMPDEST SWAP2 POP PUSH1 0x1 DUP3 SWAP1 SHR SWAP1 POP SWAP2 SWAP1 POP JUMP JUMPDEST PUSH1 0x40 MLOAD DUP1 PUSH1 0x40 ADD PUSH1 0x40 MSTORE DUP1 PUSH2 0x3147 PUSH2 0x323A JUMP JUMPDEST DUP2 MSTORE PUSH1 0x20 ADD PUSH1 0x0 ISZERO ISZERO DUP2 MSTORE POP SWAP1 JUMP JUMPDEST PUSH1 0x40 MLOAD DUP1 PUSH2 0x180 ADD PUSH1 0x40 MSTORE DUP1 PUSH1 0xC SWAP1 JUMPDEST PUSH2 0x316E PUSH2 0x325C JUMP JUMPDEST DUP2 MSTORE PUSH1 0x20 ADD SWAP1 PUSH1 0x1 SWAP1 SUB SWAP1 DUP2 PUSH2 0x3166 JUMPI SWAP1 POP POP SWAP1 JUMP JUMPDEST POP DUP1 SLOAD PUSH1 0x0 DUP3 SSTORE SWAP1 PUSH1 0x0 MSTORE PUSH1 0x20 PUSH1 0x0 KECCAK256 SWAP1 DUP2 ADD SWAP1 PUSH2 0x31A2 SWAP2 SWAP1 PUSH2 0x328C JUMP JUMPDEST POP JUMP JUMPDEST PUSH1 0x40 MLOAD DUP1 PUSH1 0xA0 ADD PUSH1 0x40 MSTORE DUP1 PUSH1 0x5 SWAP1 PUSH1 0x20 DUP3 MUL DUP1 CALLDATASIZE DUP4 CALLDATACOPY DUP1 DUP3 ADD SWAP2 POP POP SWAP1 POP POP SWAP1 JUMP JUMPDEST PUSH1 0x40 MLOAD DUP1 PUSH2 0x120 ADD PUSH1 0x40 MSTORE DUP1 PUSH1 0x9 SWAP1 PUSH1 0x20 DUP3 MUL DUP1 CALLDATASIZE DUP4 CALLDATACOPY DUP1 DUP3 ADD SWAP2 POP POP SWAP1 POP POP SWAP1 JUMP JUMPDEST PUSH1 0x40 MLOAD DUP1 PUSH2 0x120 ADD PUSH1 0x40 MSTORE DUP1 PUSH1 0x9 SWAP1 JUMPDEST PUSH2 0x3202 PUSH2 0x32A9 JUMP JUMPDEST DUP2 MSTORE PUSH1 0x20 ADD SWAP1 PUSH1 0x1 SWAP1 SUB SWAP1 DUP2 PUSH2 0x31FA JUMPI SWAP1 POP POP SWAP1 JUMP JUMPDEST PUSH1 0x40 MLOAD DUP1 PUSH1 0x60 ADD PUSH1 0x40 MSTORE DUP1 PUSH1 0x3 SWAP1 PUSH1 0x20 DUP3 MUL DUP1 CALLDATASIZE DUP4 CALLDATACOPY DUP1 DUP3 ADD SWAP2 POP POP SWAP1 POP POP SWAP1 JUMP JUMPDEST PUSH1 0x40 MLOAD DUP1 PUSH1 0x60 ADD PUSH1 0x40 MSTORE DUP1 PUSH1 0x3 SWAP1 PUSH1 0x20 DUP3 MUL DUP1 CALLDATASIZE DUP4 CALLDATACOPY DUP1 DUP3 ADD SWAP2 POP POP SWAP1 POP POP SWAP1 JUMP JUMPDEST PUSH1 0x40 MLOAD DUP1 PUSH1 0x40 ADD PUSH1 0x40 MSTORE DUP1 PUSH1 0x0 PUSH20 0xFFFFFFFFFFFFFFFFFFFFFFFFFFFFFFFFFFFFFFFF AND DUP2 MSTORE PUSH1 0x20 ADD PUSH1 0x0 DUP2 MSTORE POP SWAP1 JUMP JUMPDEST JUMPDEST DUP1 DUP3 GT ISZERO PUSH2 0x32A5 JUMPI PUSH1 0x0 DUP2 PUSH1 0x0 SWAP1 SSTORE POP PUSH1 0x1 ADD PUSH2 0x328D JUMP JUMPDEST POP SWAP1 JUMP JUMPDEST PUSH1 0x40 MLOAD DUP1 PUSH1 0x60 ADD PUSH1 0x40 MSTORE DUP1 PUSH1 0x3 SWAP1 PUSH1 0x20 DUP3 MUL DUP1 CALLDATASIZE DUP4 CALLDATACOPY DUP1 DUP3 ADD SWAP2 POP POP SWAP1 POP POP SWAP1 JUMP JUMPDEST PUSH1 0x0 DUP2 CALLDATALOAD SWAP1 POP PUSH2 0x32DA DUP2 PUSH2 0x40ED JUMP JUMPDEST SWAP3 SWAP2 POP POP JUMP JUMPDEST PUSH1 0x0 DUP2 CALLDATALOAD SWAP1 POP PUSH2 0x32EF DUP2 PUSH2 0x4104 JUMP JUMPDEST SWAP3 SWAP2 POP POP JUMP JUMPDEST PUSH1 0x0 DUP2 CALLDATALOAD SWAP1 POP PUSH2 0x3304 DUP2 PUSH2 0x411B JUMP JUMPDEST SWAP3 SWAP2 POP POP JUMP JUMPDEST PUSH1 0x0 DUP2 CALLDATALOAD SWAP1 POP PUSH2 0x3319 DUP2 PUSH2 0x412B JUMP JUMPDEST SWAP3 SWAP2 POP POP JUMP JUMPDEST PUSH1 0x0 PUSH1 0x20 DUP3 DUP5 SUB SLT ISZERO PUSH2 0x3335 JUMPI PUSH2 0x3334 PUSH2 0x3E64 JUMP JUMPDEST JUMPDEST PUSH1 0x0 PUSH2 0x3343 DUP5 DUP3 DUP6 ADD PUSH2 0x32CB JUMP JUMPDEST SWAP2 POP POP SWAP3 SWAP2 POP POP JUMP JUMPDEST PUSH1 0x0 DUP1 PUSH1 0x40 DUP4 DUP6 SUB SLT ISZERO PUSH2 0x3363 JUMPI PUSH2 0x3362 PUSH2 0x3E64 JUMP JUMPDEST JUMPDEST PUSH1 0x0 PUSH2 0x3371 DUP6 DUP3 DUP7 ADD PUSH2 0x32CB JUMP JUMPDEST SWAP3 POP POP PUSH1 0x20 PUSH2 0x3382 DUP6 DUP3 DUP7 ADD PUSH2 0x32F5 JUMP JUMPDEST SWAP2 POP POP SWAP3 POP SWAP3 SWAP1 POP JUMP JUMPDEST PUSH1 0x0 PUSH1 0x20 DUP3 DUP5 SUB SLT ISZERO PUSH2 0x33A2 JUMPI PUSH2 0x33A1 PUSH2 0x3E64 JUMP JUMPDEST JUMPDEST PUSH1 0x0 PUSH2 0x33B0 DUP5 DUP3 DUP6 ADD PUSH2 0x32F5 JUMP JUMPDEST SWAP2 POP POP SWAP3 SWAP2 POP POP JUMP JUMPDEST PUSH1 0x0 DUP1 PUSH1 0x40 DUP4 DUP6 SUB SLT ISZERO PUSH2 0x33D0 JUMPI PUSH2 0x33CF PUSH2 0x3E64 JUMP JUMPDEST JUMPDEST PUSH1 0x0 PUSH2 0x33DE DUP6 DUP3 DUP7 ADD PUSH2 0x330A JUMP JUMPDEST SWAP3 POP POP PUSH1 0x20 PUSH2 0x33EF DUP6 DUP3 DUP7 ADD PUSH2 0x32E0 JUMP JUMPDEST SWAP2 POP POP SWAP3 POP SWAP3 SWAP1 POP JUMP JUMPDEST PUSH1 0x0 PUSH2 0x3405 DUP4 DUP4 PUSH2 0x3429 JUMP JUMPDEST PUSH1 0x20 DUP4 ADD SWAP1 POP SWAP3 SWAP2 POP POP JUMP JUMPDEST PUSH1 0x0 PUSH2 0x341D DUP4 DUP4 PUSH2 0x36DE JUMP JUMPDEST PUSH1 0x20 DUP4 ADD SWAP1 POP SWAP3 SWAP2 POP POP JUMP JUMPDEST PUSH2 0x3432 DUP2 PUSH2 0x3BF3 JUMP JUMPDEST DUP3 MSTORE POP POP JUMP JUMPDEST PUSH1 0x0 PUSH2 0x3443 DUP3 PUSH2 0x39DB JUMP JUMPDEST PUSH2 0x344D DUP2 DUP6 PUSH2 0x3A0B JUMP JUMPDEST SWAP4 POP PUSH2 0x3458 DUP4 PUSH2 0x39C1 JUMP JUMPDEST DUP1 PUSH1 0x0 JUMPDEST DUP4 DUP2 LT ISZERO PUSH2 0x3489 JUMPI DUP2 MLOAD PUSH2 0x3470 DUP9 DUP3 PUSH2 0x33F9 JUMP JUMPDEST SWAP8 POP PUSH2 0x347B DUP4 PUSH2 0x39F1 JUMP JUMPDEST SWAP3 POP POP PUSH1 0x1 DUP2 ADD SWAP1 POP PUSH2 0x345C JUMP JUMPDEST POP DUP6 SWAP4 POP POP POP POP SWAP3 SWAP2 POP POP JUMP JUMPDEST PUSH2 0x349F DUP2 PUSH2 0x39E6 JUMP JUMPDEST PUSH2 0x34A9 DUP2 DUP5 PUSH2 0x3A1C JUMP JUMPDEST SWAP3 POP PUSH2 0x34B4 DUP3 PUSH2 0x39D1 JUMP JUMPDEST DUP1 PUSH1 0x0 JUMPDEST DUP4 DUP2 LT ISZERO PUSH2 0x34E5 JUMPI DUP2 MLOAD PUSH2 0x34CC DUP8 DUP3 PUSH2 0x3411 JUMP JUMPDEST SWAP7 POP PUSH2 0x34D7 DUP4 PUSH2 0x39FE JUMP JUMPDEST SWAP3 POP POP PUSH1 0x1 DUP2 ADD SWAP1 POP PUSH2 0x34B8 JUMP JUMPDEST POP POP POP POP POP POP JUMP JUMPDEST PUSH2 0x34F6 DUP2 PUSH2 0x3C05 JUMP JUMPDEST DUP3 MSTORE POP POP JUMP JUMPDEST PUSH2 0x3505 DUP2 PUSH2 0x3C05 JUMP JUMPDEST DUP3 MSTORE POP POP JUMP JUMPDEST PUSH1 0x0 PUSH2 0x3518 PUSH1 0x15 DUP4 PUSH2 0x3A27 JUMP JUMPDEST SWAP2 POP PUSH2 0x3523 DUP3 PUSH2 0x3E69 JUMP JUMPDEST PUSH1 0x20 DUP3 ADD SWAP1 POP SWAP2 SWAP1 POP JUMP JUMPDEST PUSH1 0x0 PUSH2 0x353B PUSH1 0x13 DUP4 PUSH2 0x3A27 JUMP JUMPDEST SWAP2 POP PUSH2 0x3546 DUP3 PUSH2 0x3E92 JUMP JUMPDEST PUSH1 0x20 DUP3 ADD SWAP1 POP SWAP2 SWAP1 POP JUMP JUMPDEST PUSH1 0x0 PUSH2 0x355E PUSH1 0x20 DUP4 PUSH2 0x3A27 JUMP JUMPDEST SWAP2 POP PUSH2 0x3569 DUP3 PUSH2 0x3EBB JUMP JUMPDEST PUSH1 0x20 DUP3 ADD SWAP1 POP SWAP2 SWAP1 POP JUMP JUMPDEST PUSH1 0x0 PUSH2 0x3581 PUSH1 0x18 DUP4 PUSH2 0x3A27 JUMP JUMPDEST SWAP2 POP PUSH2 0x358C DUP3 PUSH2 0x3EE4 JUMP JUMPDEST PUSH1 0x20 DUP3 ADD SWAP1 POP SWAP2 SWAP1 POP JUMP JUMPDEST PUSH1 0x0 PUSH2 0x35A4 PUSH1 0x12 DUP4 PUSH2 0x3A27 JUMP JUMPDEST SWAP2 POP PUSH2 0x35AF DUP3 PUSH2 0x3F0D JUMP JUMPDEST PUSH1 0x20 DUP3 ADD SWAP1 POP SWAP2 SWAP1 POP JUMP JUMPDEST PUSH1 0x0 PUSH2 0x35C7 PUSH1 0xE DUP4 PUSH2 0x3A27 JUMP JUMPDEST SWAP2 POP PUSH2 0x35D2 DUP3 PUSH2 0x3F36 JUMP JUMPDEST PUSH1 0x20 DUP3 ADD SWAP1 POP SWAP2 SWAP1 POP JUMP JUMPDEST PUSH1 0x0 PUSH2 0x35EA PUSH1 0x6 DUP4 PUSH2 0x3A27 JUMP JUMPDEST SWAP2 POP PUSH2 0x35F5 DUP3 PUSH2 0x3F5F JUMP JUMPDEST PUSH1 0x20 DUP3 ADD SWAP1 POP SWAP2 SWAP1 POP JUMP JUMPDEST PUSH1 0x0 PUSH2 0x360D PUSH1 0x2A DUP4 PUSH2 0x3A27 JUMP JUMPDEST SWAP2 POP PUSH2 0x3618 DUP3 PUSH2 0x3F88 JUMP JUMPDEST PUSH1 0x40 DUP3 ADD SWAP1 POP SWAP2 SWAP1 POP JUMP JUMPDEST PUSH1 0x0 PUSH2 0x3630 PUSH1 0x18 DUP4 PUSH2 0x3A27 JUMP JUMPDEST SWAP2 POP PUSH2 0x363B DUP3 PUSH2 0x3FD7 JUMP JUMPDEST PUSH1 0x20 DUP3 ADD SWAP1 POP SWAP2 SWAP1 POP JUMP JUMPDEST PUSH1 0x0 PUSH2 0x3653 PUSH1 0x21 DUP4 PUSH2 0x3A27 JUMP JUMPDEST SWAP2 POP PUSH2 0x365E DUP3 PUSH2 0x4000 JUMP JUMPDEST PUSH1 0x40 DUP3 ADD SWAP1 POP SWAP2 SWAP1 POP JUMP JUMPDEST PUSH1 0x0 PUSH2 0x3676 PUSH1 0x37 DUP4 PUSH2 0x3A27 JUMP JUMPDEST SWAP2 POP PUSH2 0x3681 DUP3 PUSH2 0x404F JUMP JUMPDEST PUSH1 0x40 DUP3 ADD SWAP1 POP SWAP2 SWAP1 POP JUMP JUMPDEST PUSH1 0x0 PUSH2 0x3699 PUSH1 0x22 DUP4 PUSH2 0x3A27 JUMP JUMPDEST SWAP2 POP PUSH2 0x36A4 DUP3 PUSH2 0x409E JUMP JUMPDEST PUSH1 0x40 DUP3 ADD SWAP1 POP SWAP2 SWAP1 POP JUMP JUMPDEST PUSH1 0x80 DUP3 ADD PUSH1 0x0 DUP3 ADD MLOAD PUSH2 0x36C5 PUSH1 0x0 DUP6 ADD DUP3 PUSH2 0x3496 JUMP JUMPDEST POP PUSH1 0x20 DUP3 ADD MLOAD PUSH2 0x36D8 PUSH1 0x60 DUP6 ADD DUP3 PUSH2 0x34ED JUMP JUMPDEST POP POP POP POP JUMP JUMPDEST PUSH2 0x36E7 DUP2 PUSH2 0x3C31 JUMP JUMPDEST DUP3 MSTORE POP POP JUMP JUMPDEST PUSH2 0x36F6 DUP2 PUSH2 0x3C31 JUMP JUMPDEST DUP3 MSTORE POP POP JUMP JUMPDEST PUSH2 0x370D PUSH2 0x3708 DUP3 PUSH2 0x3C31 JUMP JUMPDEST PUSH2 0x3D0F JUMP JUMPDEST DUP3 MSTORE POP POP JUMP JUMPDEST PUSH2 0x371C DUP2 PUSH2 0x3C3B JUMP JUMPDEST DUP3 MSTORE POP POP JUMP JUMPDEST PUSH1 0x0 PUSH2 0x372E DUP3 DUP7 PUSH2 0x36FC JUMP JUMPDEST PUSH1 0x20 DUP3 ADD SWAP2 POP PUSH2 0x373E DUP3 DUP6 PUSH2 0x36FC JUMP JUMPDEST PUSH1 0x20 DUP3 ADD SWAP2 POP PUSH2 0x374E DUP3 DUP5 PUSH2 0x36FC JUMP JUMPDEST PUSH1 0x20 DUP3 ADD SWAP2 POP DUP2 SWAP1 POP SWAP5 SWAP4 POP POP POP POP JUMP JUMPDEST PUSH1 0x0 PUSH1 0x20 DUP3 ADD SWAP1 POP DUP2 DUP2 SUB PUSH1 0x0 DUP4 ADD MSTORE PUSH2 0x3779 DUP2 DUP5 PUSH2 0x3438 JUMP JUMPDEST SWAP1 POP SWAP3 SWAP2 POP POP JUMP JUMPDEST PUSH1 0x0 PUSH1 0x20 DUP3 ADD SWAP1 POP DUP2 DUP2 SUB PUSH1 0x0 DUP4 ADD MSTORE PUSH2 0x379A DUP2 PUSH2 0x350B JUMP JUMPDEST SWAP1 POP SWAP2 SWAP1 POP JUMP JUMPDEST PUSH1 0x0 PUSH1 0x20 DUP3 ADD SWAP1 POP DUP2 DUP2 SUB PUSH1 0x0 DUP4 ADD MSTORE PUSH2 0x37BA DUP2 PUSH2 0x352E JUMP JUMPDEST SWAP1 POP SWAP2 SWAP1 POP JUMP JUMPDEST PUSH1 0x0 PUSH1 0x20 DUP3 ADD SWAP1 POP DUP2 DUP2 SUB PUSH1 0x0 DUP4 ADD MSTORE PUSH2 0x37DA DUP2 PUSH2 0x3551 JUMP JUMPDEST SWAP1 POP SWAP2 SWAP1 POP JUMP JUMPDEST PUSH1 0x0 PUSH1 0x20 DUP3 ADD SWAP1 POP DUP2 DUP2 SUB PUSH1 0x0 DUP4 ADD MSTORE PUSH2 0x37FA DUP2 PUSH2 0x3574 JUMP JUMPDEST SWAP1 POP SWAP2 SWAP1 POP JUMP JUMPDEST PUSH1 0x0 PUSH1 0x20 DUP3 ADD SWAP1 POP DUP2 DUP2 SUB PUSH1 0x0 DUP4 ADD MSTORE PUSH2 0x381A DUP2 PUSH2 0x3597 JUMP JUMPDEST SWAP1 POP SWAP2 SWAP1 POP JUMP JUMPDEST PUSH1 0x0 PUSH1 0x20 DUP3 ADD SWAP1 POP DUP2 DUP2 SUB PUSH1 0x0 DUP4 ADD MSTORE PUSH2 0x383A DUP2 PUSH2 0x35BA JUMP JUMPDEST SWAP1 POP SWAP2 SWAP1 POP JUMP JUMPDEST PUSH1 0x0 PUSH1 0x20 DUP3 ADD SWAP1 POP DUP2 DUP2 SUB PUSH1 0x0 DUP4 ADD MSTORE PUSH2 0x385A DUP2 PUSH2 0x35DD JUMP JUMPDEST SWAP1 POP SWAP2 SWAP1 POP JUMP JUMPDEST PUSH1 0x0 PUSH1 0x20 DUP3 ADD SWAP1 POP DUP2 DUP2 SUB PUSH1 0x0 DUP4 ADD MSTORE PUSH2 0x387A DUP2 PUSH2 0x3600 JUMP JUMPDEST SWAP1 POP SWAP2 SWAP1 POP JUMP JUMPDEST PUSH1 0x0 PUSH1 0x20 DUP3 ADD SWAP1 POP DUP2 DUP2 SUB PUSH1 0x0 DUP4 ADD MSTORE PUSH2 0x389A DUP2 PUSH2 0x3623 JUMP JUMPDEST SWAP1 POP SWAP2 SWAP1 POP JUMP JUMPDEST PUSH1 0x0 PUSH1 0x20 DUP3 ADD SWAP1 POP DUP2 DUP2 SUB PUSH1 0x0 DUP4 ADD MSTORE PUSH2 0x38BA DUP2 PUSH2 0x3646 JUMP JUMPDEST SWAP1 POP SWAP2 SWAP1 POP JUMP JUMPDEST PUSH1 0x0 PUSH1 0x20 DUP3 ADD SWAP1 POP DUP2 DUP2 SUB PUSH1 0x0 DUP4 ADD MSTORE PUSH2 0x38DA DUP2 PUSH2 0x3669 JUMP JUMPDEST SWAP1 POP SWAP2 SWAP1 POP JUMP JUMPDEST PUSH1 0x0 PUSH1 0x20 DUP3 ADD SWAP1 POP DUP2 DUP2 SUB PUSH1 0x0 DUP4 ADD MSTORE PUSH2 0x38FA DUP2 PUSH2 0x368C JUMP JUMPDEST SWAP1 POP SWAP2 SWAP1 POP JUMP JUMPDEST PUSH1 0x0 PUSH1 0x80 DUP3 ADD SWAP1 POP PUSH2 0x3916 PUSH1 0x0 DUP4 ADD DUP5 PUSH2 0x36AF JUMP JUMPDEST SWAP3 SWAP2 POP POP JUMP JUMPDEST PUSH1 0x0 PUSH1 0x20 DUP3 ADD SWAP1 POP PUSH2 0x3931 PUSH1 0x0 DUP4 ADD DUP5 PUSH2 0x36ED JUMP JUMPDEST SWAP3 SWAP2 POP POP JUMP JUMPDEST PUSH1 0x0 PUSH1 0xE0 DUP3 ADD SWAP1 POP PUSH2 0x394C PUSH1 0x0 DUP4 ADD DUP11 PUSH2 0x36ED JUMP JUMPDEST PUSH2 0x3959 PUSH1 0x20 DUP4 ADD DUP10 PUSH2 0x36ED JUMP JUMPDEST PUSH2 0x3966 PUSH1 0x40 DUP4 ADD DUP9 PUSH2 0x34FC JUMP JUMPDEST PUSH2 0x3973 PUSH1 0x60 DUP4 ADD DUP8 PUSH2 0x36ED JUMP JUMPDEST PUSH2 0x3980 PUSH1 0x80 DUP4 ADD DUP7 PUSH2 0x36ED JUMP JUMPDEST PUSH2 0x398D PUSH1 0xA0 DUP4 ADD DUP6 PUSH2 0x36ED JUMP JUMPDEST PUSH2 0x399A PUSH1 0xC0 DUP4 ADD DUP5 PUSH2 0x3713 JUMP JUMPDEST SWAP9 SWAP8 POP POP POP POP POP POP POP POP JUMP JUMPDEST PUSH1 0x0 PUSH1 0x20 DUP3 ADD SWAP1 POP PUSH2 0x39BB PUSH1 0x0 DUP4 ADD DUP5 PUSH2 0x3713 JUMP JUMPDEST SWAP3 SWAP2 POP POP JUMP JUMPDEST PUSH1 0x0 DUP2 SWAP1 POP PUSH1 0x20 DUP3 ADD SWAP1 POP SWAP2 SWAP1 POP JUMP JUMPDEST PUSH1 0x0 DUP2 SWAP1 POP SWAP2 SWAP1 POP JUMP JUMPDEST PUSH1 0x0 DUP2 MLOAD SWAP1 POP SWAP2 SWAP1 POP JUMP JUMPDEST PUSH1 0x0 PUSH1 0x3 SWAP1 POP SWAP2 SWAP1 POP JUMP JUMPDEST PUSH1 0x0 PUSH1 0x20 DUP3 ADD SWAP1 POP SWAP2 SWAP1 POP JUMP JUMPDEST PUSH1 0x0 PUSH1 0x20 DUP3 ADD SWAP1 POP SWAP2 SWAP1 POP JUMP JUMPDEST PUSH1 0x0 DUP3 DUP3 MSTORE PUSH1 0x20 DUP3 ADD SWAP1 POP SWAP3 SWAP2 POP POP JUMP JUMPDEST PUSH1 0x0 DUP2 SWAP1 POP SWAP3 SWAP2 POP POP JUMP JUMPDEST PUSH1 0x0 DUP3 DUP3 MSTORE PUSH1 0x20 DUP3 ADD SWAP1 POP SWAP3 SWAP2 POP POP JUMP JUMPDEST PUSH1 0x0 PUSH2 0x3A43 DUP3 PUSH2 0x3C31 JUMP JUMPDEST SWAP2 POP PUSH2 0x3A4E DUP4 PUSH2 0x3C31 JUMP JUMPDEST SWAP3 POP DUP3 PUSH32 0xFFFFFFFFFFFFFFFFFFFFFFFFFFFFFFFFFFFFFFFFFFFFFFFFFFFFFFFFFFFFFFFF SUB DUP3 GT ISZERO PUSH2 0x3A83 JUMPI PUSH2 0x3A82 PUSH2 0x3D79 JUMP JUMPDEST JUMPDEST DUP3 DUP3 ADD SWAP1 POP SWAP3 SWAP2 POP POP JUMP JUMPDEST PUSH1 0x0 PUSH2 0x3A99 DUP3 PUSH2 0x3C3B JUMP JUMPDEST SWAP2 POP PUSH2 0x3AA4 DUP4 PUSH2 0x3C3B JUMP JUMPDEST SWAP3 POP DUP3 PUSH1 0xFF SUB DUP3 GT ISZERO PUSH2 0x3ABA JUMPI PUSH2 0x3AB9 PUSH2 0x3D79 JUMP JUMPDEST JUMPDEST DUP3 DUP3 ADD SWAP1 POP SWAP3 SWAP2 POP POP JUMP JUMPDEST PUSH1 0x0 PUSH2 0x3AD0 DUP3 PUSH2 0x3C31 JUMP JUMPDEST SWAP2 POP PUSH2 0x3ADB DUP4 PUSH2 0x3C31 JUMP JUMPDEST SWAP3 POP DUP3 PUSH2 0x3AEB JUMPI PUSH2 0x3AEA PUSH2 0x3DA8 JUMP JUMPDEST JUMPDEST DUP3 DUP3 DIV SWAP1 POP SWAP3 SWAP2 POP POP JUMP JUMPDEST PUSH1 0x0 PUSH2 0x3B01 DUP3 PUSH2 0x3C31 JUMP JUMPDEST SWAP2 POP PUSH2 0x3B0C DUP4 PUSH2 0x3C31 JUMP JUMPDEST SWAP3 POP DUP2 PUSH32 0xFFFFFFFFFFFFFFFFFFFFFFFFFFFFFFFFFFFFFFFFFFFFFFFFFFFFFFFFFFFFFFFF DIV DUP4 GT DUP3 ISZERO ISZERO AND ISZERO PUSH2 0x3B45 JUMPI PUSH2 0x3B44 PUSH2 0x3D79 JUMP JUMPDEST JUMPDEST DUP3 DUP3 MUL SWAP1 POP SWAP3 SWAP2 POP POP JUMP JUMPDEST PUSH1 0x0 PUSH2 0x3B5B DUP3 PUSH2 0x3C3B JUMP JUMPDEST SWAP2 POP PUSH2 0x3B66 DUP4 PUSH2 0x3C3B JUMP JUMPDEST SWAP3 POP DUP2 PUSH1 0xFF DIV DUP4 GT DUP3 ISZERO ISZERO AND ISZERO PUSH2 0x3B80 JUMPI PUSH2 0x3B7F PUSH2 0x3D79 JUMP JUMPDEST JUMPDEST DUP3 DUP3 MUL SWAP1 POP SWAP3 SWAP2 POP POP JUMP JUMPDEST PUSH1 0x0 PUSH2 0x3B96 DUP3 PUSH2 0x3C31 JUMP JUMPDEST SWAP2 POP PUSH2 0x3BA1 DUP4 PUSH2 0x3C31 JUMP JUMPDEST SWAP3 POP DUP3 DUP3 LT ISZERO PUSH2 0x3BB4 JUMPI PUSH2 0x3BB3 PUSH2 0x3D79 JUMP JUMPDEST JUMPDEST DUP3 DUP3 SUB SWAP1 POP SWAP3 SWAP2 POP POP JUMP JUMPDEST PUSH1 0x0 PUSH2 0x3BCA DUP3 PUSH2 0x3C3B JUMP JUMPDEST SWAP2 POP PUSH2 0x3BD5 DUP4 PUSH2 0x3C3B JUMP JUMPDEST SWAP3 POP DUP3 DUP3 LT ISZERO PUSH2 0x3BE8 JUMPI PUSH2 0x3BE7 PUSH2 0x3D79 JUMP JUMPDEST JUMPDEST DUP3 DUP3 SUB SWAP1 POP SWAP3 SWAP2 POP POP JUMP JUMPDEST PUSH1 0x0 PUSH2 0x3BFE DUP3 PUSH2 0x3C11 JUMP JUMPDEST SWAP1 POP SWAP2 SWAP1 POP JUMP JUMPDEST PUSH1 0x0 DUP2 ISZERO ISZERO SWAP1 POP SWAP2 SWAP1 POP JUMP JUMPDEST PUSH1 0x0 PUSH20 0xFFFFFFFFFFFFFFFFFFFFFFFFFFFFFFFFFFFFFFFF DUP3 AND SWAP1 POP SWAP2 SWAP1 POP JUMP JUMPDEST PUSH1 0x0 DUP2 SWAP1 POP SWAP2 SWAP1 POP JUMP JUMPDEST PUSH1 0x0 PUSH1 0xFF DUP3 AND SWAP1 POP SWAP2 SWAP1 POP JUMP JUMPDEST PUSH1 0x0 PUSH2 0x3C53 DUP3 PUSH2 0x3C31 JUMP JUMPDEST SWAP2 POP PUSH1 0x0 DUP3 EQ ISZERO PUSH2 0x3C67 JUMPI PUSH2 0x3C66 PUSH2 0x3D79 JUMP JUMPDEST JUMPDEST PUSH1 0x1 DUP3 SUB SWAP1 POP SWAP2 SWAP1 POP JUMP JUMPDEST PUSH1 0x0 PUSH2 0x3C7D DUP3 PUSH2 0x3C3B JUMP JUMPDEST SWAP2 POP PUSH1 0x0 DUP3 EQ ISZERO PUSH2 0x3C91 JUMPI PUSH2 0x3C90 PUSH2 0x3D79 JUMP JUMPDEST JUMPDEST PUSH1 0x1 DUP3 SUB SWAP1 POP SWAP2 SWAP1 POP JUMP JUMPDEST PUSH1 0x0 PUSH2 0x3CA7 DUP3 PUSH2 0x3C31 JUMP JUMPDEST SWAP2 POP PUSH32 0xFFFFFFFFFFFFFFFFFFFFFFFFFFFFFFFFFFFFFFFFFFFFFFFFFFFFFFFFFFFFFFFF DUP3 EQ ISZERO PUSH2 0x3CDA JUMPI PUSH2 0x3CD9 PUSH2 0x3D79 JUMP JUMPDEST JUMPDEST PUSH1 0x1 DUP3 ADD SWAP1 POP SWAP2 SWAP1 POP JUMP JUMPDEST PUSH1 0x0 PUSH2 0x3CF0 DUP3 PUSH2 0x3C3B JUMP JUMPDEST SWAP2 POP PUSH1 0xFF DUP3 EQ ISZERO PUSH2 0x3D04 JUMPI PUSH2 0x3D03 PUSH2 0x3D79 JUMP JUMPDEST JUMPDEST PUSH1 0x1 DUP3 ADD SWAP1 POP SWAP2 SWAP1 POP JUMP JUMPDEST PUSH1 0x0 DUP2 SWAP1 POP SWAP2 SWAP1 POP JUMP JUMPDEST PUSH1 0x0 PUSH2 0x3D24 DUP3 PUSH2 0x3C31 JUMP JUMPDEST SWAP2 POP PUSH2 0x3D2F DUP4 PUSH2 0x3C31 JUMP JUMPDEST SWAP3 POP DUP3 PUSH2 0x3D3F JUMPI PUSH2 0x3D3E PUSH2 0x3DA8 JUMP JUMPDEST JUMPDEST DUP3 DUP3 MOD SWAP1 POP SWAP3 SWAP2 POP POP JUMP JUMPDEST PUSH32 0x4E487B7100000000000000000000000000000000000000000000000000000000 PUSH1 0x0 MSTORE PUSH1 0x1 PUSH1 0x4 MSTORE PUSH1 0x24 PUSH1 0x0 REVERT JUMPDEST PUSH32 0x4E487B7100000000000000000000000000000000000000000000000000000000 PUSH1 0x0 MSTORE PUSH1 0x11 PUSH1 0x4 MSTORE PUSH1 0x24 PUSH1 0x0 REVERT JUMPDEST PUSH32 0x4E487B7100000000000000000000000000000000000000000000000000000000 PUSH1 0x0 MSTORE PUSH1 0x12 PUSH1 0x4 MSTORE PUSH1 0x24 PUSH1 0x0 REVERT JUMPDEST PUSH32 0x4E487B7100000000000000000000000000000000000000000000000000000000 PUSH1 0x0 MSTORE PUSH1 0x21 PUSH1 0x4 MSTORE PUSH1 0x24 PUSH1 0x0 REVERT JUMPDEST PUSH32 0x4E487B7100000000000000000000000000000000000000000000000000000000 PUSH1 0x0 MSTORE PUSH1 0x32 PUSH1 0x4 MSTORE PUSH1 0x24 PUSH1 0x0 REVERT JUMPDEST PUSH32 0x4E487B7100000000000000000000000000000000000000000000000000000000 PUSH1 0x0 MSTORE PUSH1 0x41 PUSH1 0x4 MSTORE PUSH1 0x24 PUSH1 0x0 REVERT JUMPDEST PUSH1 0x0 DUP1 REVERT JUMPDEST PUSH32 0x5072697A6520616C726561647920636C61696D65640000000000000000000000 PUSH1 0x0 DUP3 ADD MSTORE POP JUMP JUMPDEST PUSH32 0x4E6F207469636B65742070757263686173656400000000000000000000000000 PUSH1 0x0 DUP3 ADD MSTORE POP JUMP JUMPDEST PUSH32 0x5469636B657420636F7374206D757374206265206174206C6561737420313030 PUSH1 0x0 DUP3 ADD MSTORE POP JUMP JUMPDEST PUSH32 0x5469636B657420616C7265616479207075726368617365640000000000000000 PUSH1 0x0 DUP3 ADD MSTORE POP JUMP JUMPDEST PUSH32 0x4E6F207072697A657320746F20636C61696D0000000000000000000000000000 PUSH1 0x0 DUP3 ADD MSTORE POP JUMP JUMPDEST PUSH32 0x47616D65206E6F74207265616479000000000000000000000000000000000000 PUSH1 0x0 DUP3 ADD MSTORE POP JUMP JUMPDEST PUSH32 0x426F676965210000000000000000000000000000000000000000000000000000 PUSH1 0x0 DUP3 ADD MSTORE POP JUMP JUMPDEST PUSH32 0x47616D65206E6F742079657420617661696C61626C6520746F2067656E657261 PUSH1 0x0 DUP3 ADD MSTORE PUSH32 0x7465206E756D6265727300000000000000000000000000000000000000000000 PUSH1 0x20 DUP3 ADD MSTORE POP JUMP JUMPDEST PUSH32 0x47616D65206861736E27742066696E6973686564207965740000000000000000 PUSH1 0x0 DUP3 ADD MSTORE POP JUMP JUMPDEST PUSH32 0x596F752063616E206F6E6C7920636C61696D206F6E652066756C6C20686F7573 PUSH1 0x0 DUP3 ADD MSTORE PUSH32 0x6500000000000000000000000000000000000000000000000000000000000000 PUSH1 0x20 DUP3 ADD MSTORE POP JUMP JUMPDEST PUSH32 0x506C6561736520656E64207468652070726576696F75732067616D6520626566 PUSH1 0x0 DUP3 ADD MSTORE PUSH32 0x6F726520686F7374696E6720616E6F74686572206F6E65000000000000000000 PUSH1 0x20 DUP3 ADD MSTORE POP JUMP JUMPDEST PUSH32 0x496E636F72726563742066756E64732073656E7420746F20627579207469636B PUSH1 0x0 DUP3 ADD MSTORE PUSH32 0x6574000000000000000000000000000000000000000000000000000000000000 PUSH1 0x20 DUP3 ADD MSTORE POP JUMP JUMPDEST PUSH2 0x40F6 DUP2 PUSH2 0x3BF3 JUMP JUMPDEST DUP2 EQ PUSH2 0x4101 JUMPI PUSH1 0x0 DUP1 REVERT JUMPDEST POP JUMP JUMPDEST PUSH2 0x410D DUP2 PUSH2 0x3C05 JUMP JUMPDEST DUP2 EQ PUSH2 0x4118 JUMPI PUSH1 0x0 DUP1 REVERT JUMPDEST POP JUMP JUMPDEST PUSH1 0xC DUP2 LT PUSH2 0x4128 JUMPI PUSH1 0x0 DUP1 REVERT JUMPDEST POP JUMP JUMPDEST PUSH2 0x4134 DUP2 PUSH2 0x3C31 JUMP JUMPDEST DUP2 EQ PUSH2 0x413F JUMPI PUSH1 0x0 DUP1 REVERT JUMPDEST POP JUMP INVALID LOG2 PUSH5 0x6970667358 0x22 SLT KECCAK256 PC PUSH22 0xC9BD1FA0EF204D8FDB146EB36FDB3F6DEE5564267AB3 0xAE PUSH31 0x1F6D59EB35464736F6C634300080700330000000000000000000000000000 "
		},
		"gasEstimates": {
			"creation": {
				"codeDepositCost": "3352000",
				"executionCost": "3731",
				"totalCost": "3355731"
			},
			"external": {
				"buyTicket(address)": "infinite",
				"claimPrize(address,uint8)": "infinite",
				"endGame()": "infinite",
				"games(address)": "infinite",
				"generateNext()": "infinite",
				"getPrizeAllocationPercent(uint8)": "798",
				"getPrizesStatus(address)": "infinite",
				"getTicket(address)": "infinite",
				"hostGame(uint256,bool)": "infinite"
			},
			"internal": {
				"canChangeTicketCost(struct Tambola.Game storage pointer)": "2148",
				"generateColumn(uint256,uint8,uint8)": "infinite",
				"generateColumnNumbers(uint256)": "infinite",
				"getGameStatus(struct Tambola.Game storage pointer)": "infinite",
				"maskTicketForPrizeType(enum Tambola.PrizeType,struct Tambola.Ticket memory)": "infinite",
				"onlyLeftMostBit(uint256)": "infinite",
				"onlyRightMostBit(uint256)": "infinite",
				"random(uint256)": "infinite",
				"sortColumn(uint8[3] memory,uint256)": "infinite",
				"unSetRightMostBit(uint256)": "infinite"
			}
		},
		"methodIdentifiers": {
			"buyTicket(address)": "a5f8cdbb",
			"claimPrize(address,uint8)": "25cc976d",
			"endGame()": "6cbc2ded",
			"games(address)": "79131a19",
			"generateNext()": "aad5632a",
			"getPrizeAllocationPercent(uint8)": "f9beec0d",
			"getPrizesStatus(address)": "fd1035a6",
			"getTicket(address)": "4717dea9",
			"hostGame(uint256,bool)": "57c93c0e"
		}
	},
	"abi": [
		{
			"inputs": [
				{
					"internalType": "address",
					"name": "host",
					"type": "address"
				}
			],
			"name": "buyTicket",
			"outputs": [],
			"stateMutability": "payable",
			"type": "function"
		},
		{
			"inputs": [
				{
					"internalType": "address",
					"name": "host",
					"type": "address"
				},
				{
					"internalType": "enum Tambola.PrizeType",
					"name": "prizeType",
					"type": "uint8"
				}
			],
			"name": "claimPrize",
			"outputs": [],
			"stateMutability": "nonpayable",
			"type": "function"
		},
		{
			"inputs": [],
			"name": "endGame",
			"outputs": [],
			"stateMutability": "nonpayable",
			"type": "function"
		},
		{
			"inputs": [
				{
					"internalType": "address",
					"name": "",
					"type": "address"
				}
			],
			"name": "games",
			"outputs": [
				{
					"internalType": "uint256",
					"name": "finishedAt",
					"type": "uint256"
				},
				{
					"internalType": "uint256",
					"name": "ticketCost",
					"type": "uint256"
				},
				{
					"internalType": "bool",
					"name": "bogusPenalty",
					"type": "bool"
				},
				{
					"internalType": "uint256",
					"name": "remainingNumbers",
					"type": "uint256"
				},
				{
					"internalType": "uint256",
					"name": "remainingNumbersCount",
					"type": "uint256"
				},
				{
					"internalType": "uint256",
					"name": "pot",
					"type": "uint256"
				},
				{
					"internalType": "uint8",
					"name": "remainingPrizesCount",
					"type": "uint8"
				}
			],
			"stateMutability": "view",
			"type": "function"
		},
		{
			"inputs": [],
			"name": "generateNext",
			"outputs": [
				{
					"internalType": "uint256",
					"name": "",
					"type": "uint256"
				}
			],
			"stateMutability": "nonpayable",
			"type": "function"
		},
		{
			"inputs": [
				{
					"internalType": "enum Tambola.PrizeType",
					"name": "prizeType",
					"type": "uint8"
				}
			],
			"name": "getPrizeAllocationPercent",
			"outputs": [
				{
					"internalType": "uint8",
					"name": "",
					"type": "uint8"
				}
			],
			"stateMutability": "pure",
			"type": "function"
		},
		{
			"inputs": [
				{
					"internalType": "address",
					"name": "host",
					"type": "address"
				}
			],
			"name": "getPrizesStatus",
			"outputs": [
				{
					"internalType": "address[]",
					"name": "",
					"type": "address[]"
				}
			],
			"stateMutability": "view",
			"type": "function"
		},
		{
			"inputs": [
				{
					"internalType": "address",
					"name": "host",
					"type": "address"
				}
			],
			"name": "getTicket",
			"outputs": [
				{
					"components": [
						{
							"internalType": "uint256[3]",
							"name": "rows",
							"type": "uint256[3]"
						},
						{
							"internalType": "bool",
							"name": "active",
							"type": "bool"
						}
					],
					"internalType": "struct Tambola.Ticket",
					"name": "",
					"type": "tuple"
				}
			],
			"stateMutability": "view",
			"type": "function"
		},
		{
			"inputs": [
				{
					"internalType": "uint256",
					"name": "ticketCost",
					"type": "uint256"
				},
				{
					"internalType": "bool",
					"name": "bogusPenalty",
					"type": "bool"
				}
			],
			"name": "hostGame",
			"outputs": [],
			"stateMutability": "nonpayable",
			"type": "function"
		}
	]
}