{
	"data": {
		"bytecode": {
			"linkReferences": {},
			"object": "608060405234801561001057600080fd5b50614469806100206000396000f3fe60806040526004361061009c5760003560e01c80636cbc2ded116100645780636cbc2ded1461018957806379131a19146101a0578063a5f8cdbb146101e3578063aad5632a146101ff578063f9beec0d1461022a578063fd1035a6146102675761009c565b806325cc976d146100a157806337e84d3b146100ca57806357c93c0e146101075780636334740a1461013057806366a5ef2f1461016d575b600080fd5b3480156100ad57600080fd5b506100c860048036038101906100c3919061357e565b6102a4565b005b3480156100d657600080fd5b506100f160048036038101906100ec919061353e565b610abb565b6040516100fe9190613bb9565b60405180910390f35b34801561011357600080fd5b5061012e60048036038101906101299190613658565b610bba565b005b34801561013c57600080fd5b506101576004803603810190610152919061362b565b610d31565b6040516101649190613bd4565b60405180910390f35b610187600480360381019061018291906135be565b610f6c565b005b34801561019557600080fd5b5061019e611698565b005b3480156101ac57600080fd5b506101c760048036038101906101c29190613511565b611d26565b6040516101da9796959493929190613bef565b60405180910390f35b6101fd60048036038101906101f89190613511565b611d82565b005b34801561020b57600080fd5b50610214611d90565b6040516102219190613bd4565b60405180910390f35b34801561023657600080fd5b50610251600480360381019061024c91906135fe565b611da1565b60405161025e9190613c5e565b60405180910390f35b34801561027357600080fd5b5061028e60048036038101906102899190613511565b611e19565b60405161029b91906139fc565b60405180910390f35b60008060008473ffffffffffffffffffffffffffffffffffffffff1673ffffffffffffffffffffffffffffffffffffffff168152602001908152602001600020905060006102f182611f77565b905060016003811115610307576103066140b4565b5b81600381111561031a576103196140b4565b5b148061034a575060026003811115610335576103346140b4565b5b816003811115610348576103476140b4565b5b145b610389576040517f08c379a000000000000000000000000000000000000000000000000000000000815260040161038090613ab9565b60405180910390fd5b600032905060008360030160008373ffffffffffffffffffffffffffffffffffffffff1673ffffffffffffffffffffffffffffffffffffffff1681526020019081526020016000209050600115158160030160009054906101000a900460ff1615151461042b576040517f08c379a000000000000000000000000000000000000000000000000000000000815260040161042290613a59565b60405180910390fd5b600073ffffffffffffffffffffffffffffffffffffffff1684600801600087600b81111561045c5761045b6140b4565b5b60ff1660ff16815260200190815260200160002060009054906101000a900473ffffffffffffffffffffffffffffffffffffffff1673ffffffffffffffffffffffffffffffffffffffff16146104e7576040517f08c379a00000000000000000000000000000000000000000000000000000000081526004016104de90613a39565b60405180910390fd5b6003600b8111156104fb576104fa6140b4565b5b85600b81111561050e5761050d6140b4565b5b148061053e57506004600b811115610529576105286140b4565b5b85600b81111561053c5761053b6140b4565b5b145b8061056d57506005600b811115610558576105576140b4565b5b85600b81111561056b5761056a6140b4565b5b145b156107aa578173ffffffffffffffffffffffffffffffffffffffff168460080160006003600b8111156105a3576105a26140b4565b5b60ff1660ff16815260200190815260200160002060009054906101000a900473ffffffffffffffffffffffffffffffffffffffff1673ffffffffffffffffffffffffffffffffffffffff16141561062f576040517f08c379a000000000000000000000000000000000000000000000000000000000815260040161062690613b59565b60405180910390fd5b8173ffffffffffffffffffffffffffffffffffffffff168460080160006004600b8111156106605761065f6140b4565b5b60ff1660ff16815260200190815260200160002060009054906101000a900473ffffffffffffffffffffffffffffffffffffffff1673ffffffffffffffffffffffffffffffffffffffff1614156106ec576040517f08c379a00000000000000000000000000000000000000000000000000000000081526004016106e390613b59565b60405180910390fd5b8173ffffffffffffffffffffffffffffffffffffffff168460080160006005600b81111561071d5761071c6140b4565b5b60ff1660ff16815260200190815260200160002060009054906101000a900473ffffffffffffffffffffffffffffffffffffffff1673ffffffffffffffffffffffffffffffffffffffff1614156107a9576040517f08c379a00000000000000000000000000000000000000000000000000000000081526004016107a090613b59565b60405180910390fd5b5b60008460050154905060006108a7876000808b73ffffffffffffffffffffffffffffffffffffffff1673ffffffffffffffffffffffffffffffffffffffff16815260200190815260200160002060030160008773ffffffffffffffffffffffffffffffffffffffff1673ffffffffffffffffffffffffffffffffffffffff1681526020019081526020016000206040518060400160405290816000820160038060200260405190810160405280929190826003801561087e576020028201915b81548152602001906001019080831161086a575b505050505081526020016003820160009054906101000a900460ff16151515158152505061200d565b905060006006600b8111156108bf576108be6140b4565b5b88600b8111156108d2576108d16140b4565b5b141561092557600083198316905060005b60048110156109185760008214156108fa57610918565b610903826125cf565b9150808061091090613f79565b9150506108e3565b506000811191505061092e565b60008383161490505b6000151581151514156109bb57600115158760020160009054906101000a900460ff161515141561097b5760008460030160006101000a81548160ff0219169083151502179055506109b6565b6040517f08c379a00000000000000000000000000000000000000000000000000000000081526004016109ad90613af9565b60405180910390fd5b610ab0565b848760080160008a600b8111156109d5576109d46140b4565b5b60ff1660ff16815260200190815260200160002060006101000a81548173ffffffffffffffffffffffffffffffffffffffff021916908373ffffffffffffffffffffffffffffffffffffffff16021790555086600901600081819054906101000a900460ff1680929190610a4890613f4f565b91906101000a81548160ff021916908360ff160217905550508873ffffffffffffffffffffffffffffffffffffffff167febe738acf93b41a865962e83533a60d7c1ac5191af3fb3712063791c3bcc731e89604051610aa79190613a1e565b60405180910390a25b505050505050505050565b610ac3613326565b60008060008573ffffffffffffffffffffffffffffffffffffffff1673ffffffffffffffffffffffffffffffffffffffff16815260200190815260200160002090508060030160008473ffffffffffffffffffffffffffffffffffffffff1673ffffffffffffffffffffffffffffffffffffffff16815260200190815260200160002060405180604001604052908160008201600380602002604051908101604052809291908260038015610b8d576020028201915b815481526020019060010190808311610b79575b505050505081526020016003820160009054906101000a900460ff16151515158152505091505092915050565b6064821015610bfe576040517f08c379a0000000000000000000000000000000000000000000000000000000008152600401610bf590613a79565b60405180910390fd5b600032905060008060008373ffffffffffffffffffffffffffffffffffffffff1673ffffffffffffffffffffffffffffffffffffffff16815260200190815260200160002090506000610c5082611f77565b9050600380811115610c6557610c646140b4565b5b816003811115610c7857610c776140b4565b5b1480610c895750610c88826125e7565b5b610cc8576040517f08c379a0000000000000000000000000000000000000000000000000000000008152600401610cbf90613b79565b60405180910390fd5b848260010181905550838260020160006101000a81548160ff0219169083151502179055506b03ffffffffffffffffffffff8260050181905550600c8260090160006101000a81548160ff021916908360ff160217905550605a82600601819055505050505050565b60008032905060008060008373ffffffffffffffffffffffffffffffffffffffff1673ffffffffffffffffffffffffffffffffffffffff16815260200190815260200160002090506000610d8482611f77565b905060006003811115610d9a57610d996140b4565b5b816003811115610dad57610dac6140b4565b5b1480610ddd575060016003811115610dc857610dc76140b4565b5b816003811115610ddb57610dda6140b4565b5b145b610e1c576040517f08c379a0000000000000000000000000000000000000000000000000000000008152600401610e1390613b19565b60405180910390fd5b60008260050154905060008360060154610e4d8673ffffffffffffffffffffffffffffffffffffffff1689186125fa565b610e579190613ff6565b90506000805b605a811015610f5b576000816001901b85161115610f485782821415610f39576000816001901b199050866006016000815480929190610e9c90613f25565b91905055508085168760050181905550600087600501541415610ec3574287600001819055505b8773ffffffffffffffffffffffffffffffffffffffff167f9ad6ba544f4421420f46453514fd3bc36c72e3973470c131c0aad4e4e188c824600184610f089190613cf0565b604051610f159190613bd4565b60405180910390a2600182610f2a9190613cf0565b98505050505050505050610f67565b8180610f4490613f79565b9250505b8080610f5390613f79565b915050610e5d565b50600096505050505050505b919050565b60008060008473ffffffffffffffffffffffffffffffffffffffff1673ffffffffffffffffffffffffffffffffffffffff16815260200190815260200160002090506000610fb982611f77565b905060006003811115610fcf57610fce6140b4565b5b816003811115610fe257610fe16140b4565b5b14611022576040517f08c379a000000000000000000000000000000000000000000000000000000000815260040161101990613ad9565b60405180910390fd5b81600101543414611068576040517f08c379a000000000000000000000000000000000000000000000000000000000815260040161105f90613b99565b60405180910390fd5b600032905060008360030160008373ffffffffffffffffffffffffffffffffffffffff1673ffffffffffffffffffffffffffffffffffffffff1681526020019081526020016000209050600015158160030160009054906101000a900460ff1615151461110a576040517f08c379a000000000000000000000000000000000000000000000000000000000815260040161110190613a99565b60405180910390fd5b83600401829080600181540180825580915050600190039060005260206000200160009091909190916101000a81548173ffffffffffffffffffffffffffffffffffffffff021916908373ffffffffffffffffffffffffffffffffffffffff160217905550348460070160008282546111839190613cf0565b92505081905550600061119e856004018054905087186125fa565b90506111a8613348565b6111b0613348565b6111b8613348565b6111c18461262f565b80955081945050506111d28461262f565b80955081935050506111e38461262f565b80955081925050506111f361336a565b6111fb61338d565b60005b60058110156113f7578286826005811061121b5761121a6140e3565b5b602002015160ff1660098110611234576112336140e3565b5b60200201805180919061124690613fc2565b60ff1660ff168152505082858260058110611264576112636140e3565b5b602002015160ff166009811061127d5761127c6140e3565b5b60200201805180919061128f90613fc2565b60ff1660ff1681525050828482600581106112ad576112ac6140e3565b5b602002015160ff16600981106112c6576112c56140e3565b5b6020020180518091906112d890613fc2565b60ff1660ff16815250506001828783600581106112f8576112f76140e3565b5b602002015160ff1660098110611311576113106140e3565b5b6020020151600060038110611329576113286140e3565b5b60200201901515908115158152505060018286836005811061134e5761134d6140e3565b5b602002015160ff1660098110611367576113666140e3565b5b602002015160016003811061137f5761137e6140e3565b5b6020020190151590811515815250506001828583600581106113a4576113a36140e3565b5b602002015160ff16600981106113bd576113bc6140e3565b5b60200201516002600381106113d5576113d46140e3565b5b60200201901515908115158152505080806113ef90613f79565b9150506111fe565b5060005b6009811015611443576003838260098110611419576114186140e3565b5b602002015160ff1611156114305761142f614027565b5b808061143b90613f79565b9150506113fb565b5061144c6133bb565b6114546133dd565b60005b60098160ff1610156115cb576114888982878460ff166009811061147e5761147d6140e3565b5b602002015161278d565b809a50819450505060006114b984878460ff16600981106114ac576114ab6140e3565b5b602002015160ff16612bfe565b90506000805b878460ff16600981106114d5576114d46140e3565b5b602002015160ff168260ff161080156114f1575060038160ff16105b156115b55760011515878560ff16600981106115105761150f6140e3565b5b60200201518260ff166003811061152a576115296140e3565b5b6020020151151514156115a2576001838360ff166003811061154f5761154e6140e3565b5b602002015161155e9190613e77565b60ff166001901b858260ff166003811061157b5761157a6140e3565b5b6020020181815161158c9190613cf0565b91508181525050818061159e90613fc2565b9250505b80806115ad90613fc2565b9150506114bf565b50505080806115c390613fc2565b915050611457565b5060005b60038160ff16101561162757818160ff16600381106115f1576115f06140e3565b5b60200201518a6000018260ff166003811061160f5761160e6140e3565b5b0181905550808061161f90613fc2565b9150506115cf565b5060018960030160006101000a81548160ff0219169083151502179055508d73ffffffffffffffffffffffffffffffffffffffff167f22949fb111628ecd7b4062e944109804b256656bc00fc690af62b9a6105154d360405160405180910390a25050505050505050505050505050565b600032905060008060008373ffffffffffffffffffffffffffffffffffffffff1673ffffffffffffffffffffffffffffffffffffffff168152602001908152602001600020905060006116ea82611f77565b905060026003811115611700576116ff6140b4565b5b816003811115611713576117126140b4565b5b14611753576040517f08c379a000000000000000000000000000000000000000000000000000000000815260040161174a90613b39565b60405180910390fd5b6000826007015490506117646133ff565b60005b600b8081111561177a576117796140b4565b5b60ff168160ff1611611a2e5760008160ff16600b81111561179e5761179d6140b4565b5b905060008660080160008460ff1660ff16815260200190815260200160002060009054906101000a900473ffffffffffffffffffffffffffffffffffffffff16905060008760080160008560ff1660ff16815260200190815260200160002060006101000a81548173ffffffffffffffffffffffffffffffffffffffff021916908373ffffffffffffffffffffffffffffffffffffffff160217905550600073ffffffffffffffffffffffffffffffffffffffff168173ffffffffffffffffffffffffffffffffffffffff1614611a1957600061187a83611da1565b9050600060648260ff168a600701546118939190613dae565b61189d9190613d7d565b905080876118ab9190613e43565b965060005b600c811015611a1557600073ffffffffffffffffffffffffffffffffffffffff168782600c81106118e4576118e36140e3565b5b60200201516000015173ffffffffffffffffffffffffffffffffffffffff16141561197e57838782600c811061191d5761191c6140e3565b5b60200201516000019073ffffffffffffffffffffffffffffffffffffffff16908173ffffffffffffffffffffffffffffffffffffffff1681525050818782600c811061196c5761196b6140e3565b5b60200201516020018181525050611a15565b8373ffffffffffffffffffffffffffffffffffffffff168782600c81106119a8576119a76140e3565b5b60200201516000015173ffffffffffffffffffffffffffffffffffffffff161415611a0257818782600c81106119e1576119e06140e3565b5b60200201516020018181516119f69190613cf0565b91508181525050611a15565b8080611a0d90613f79565b9150506118b0565b5050505b50508080611a2690613fc2565b915050611767565b5060005b600c811015611b2057600073ffffffffffffffffffffffffffffffffffffffff168282600c8110611a6657611a656140e3565b5b60200201516000015173ffffffffffffffffffffffffffffffffffffffff161415611a9057611b20565b8181600c8110611aa357611aa26140e3565b5b60200201516000015173ffffffffffffffffffffffffffffffffffffffff166108fc8383600c8110611ad857611ad76140e3565b5b6020020151602001519081150290604051600060405180830381858888f19350505050158015611b0c573d6000803e3d6000fd5b508080611b1890613f79565b915050611a32565b5060006064600360ff168660070154611b399190613dae565b611b439190613d7d565b90508083611b519190613e43565b92508573ffffffffffffffffffffffffffffffffffffffff166108fc829081150290604051600060405180830381858888f19350505050158015611b99573d6000803e3d6000fd5b50735c2e9bae4fe4e7710a2f1f83c521db632f66f24273ffffffffffffffffffffffffffffffffffffffff166108fc849081150290604051600060405180830381858888f19350505050158015611bf4573d6000803e3d6000fd5b5060005b8560040180549050811015611cbd576000866004018281548110611c1f57611c1e6140e3565b5b9060005260206000200160009054906101000a900473ffffffffffffffffffffffffffffffffffffffff16905060008760030160008373ffffffffffffffffffffffffffffffffffffffff1673ffffffffffffffffffffffffffffffffffffffff16815260200190815260200160002060030160006101000a81548160ff021916908315150217905550508080611cb590613f79565b915050611bf8565b50846004016000611cce919061342d565b6000856001018190555060008560050181905550600085600601819055506000856007018190555060008560090160006101000a81548160ff021916908360ff16021790555060008560000181905550505050505050565b60006020528060005260406000206000915090508060000154908060010154908060020160009054906101000a900460ff16908060050154908060060154908060070154908060090160009054906101000a900460ff16905087565b611d8d816000610f6c565b50565b6000611d9c6000610d31565b905090565b60006003600b811115611db757611db66140b4565b5b82600b811115611dca57611dc96140b4565b5b1415611dd957601e9050611e14565b6004600b811115611ded57611dec6140b4565b5b82600b811115611e0057611dff6140b4565b5b1415611e0f57600f9050611e14565b600590505b919050565b606060008060008473ffffffffffffffffffffffffffffffffffffffff1673ffffffffffffffffffffffffffffffffffffffff16815260200190815260200160002090506000600c67ffffffffffffffff811115611e7a57611e79614112565b5b604051908082528060200260200182016040528015611ea85781602001602082028036833780820191505090505b50905060005b600b80811115611ec157611ec06140b4565b5b60ff168160ff1611611f6c578260080160008260ff1660ff16815260200190815260200160002060009054906101000a900473ffffffffffffffffffffffffffffffffffffffff16828260ff1681518110611f1f57611f1e6140e3565b5b602002602001019073ffffffffffffffffffffffffffffffffffffffff16908173ffffffffffffffffffffffffffffffffffffffff16815250508080611f6490613fc2565b915050611eae565b508092505050919050565b60008082600101541415611f8e5760039050612008565b605a82600601541415611fa45760009050612008565b60008260090160009054906101000a900460ff1660ff161415611fca5760029050612008565b600082600601541115611fe05760019050612008565b620151808260000154611ff39190613cf0565b4211156120035760029050612008565b600190505b919050565b600080600b811115612022576120216140b4565b5b83600b811115612035576120346140b4565b5b141561205f578160000151600060038110612053576120526140e3565b5b602002015190506125c9565b6001600b811115612073576120726140b4565b5b83600b811115612086576120856140b4565b5b14156120b05781600001516001600381106120a4576120a36140e3565b5b602002015190506125c9565b6002600b8111156120c4576120c36140b4565b5b83600b8111156120d7576120d66140b4565b5b14156121015781600001516002600381106120f5576120f46140e3565b5b602002015190506125c9565b6003600b811115612115576121146140b4565b5b83600b811115612128576121276140b4565b5b148061215857506004600b811115612143576121426140b4565b5b83600b811115612156576121556140b4565b5b145b8061218757506005600b811115612172576121716140b4565b5b83600b811115612185576121846140b4565b5b145b156121ec5781600001516002600381106121a4576121a36140e3565b5b602002015182600001516001600381106121c1576121c06140e3565b5b602002015183600001516000600381106121de576121dd6140e3565b5b6020020151171790506125c9565b6008600b811115612200576121ff6140b4565b5b83600b811115612213576122126140b4565b5b14156122615760008260000151600160038110612233576122326140e3565b5b60200201519050612243816125cf565b905061224e816125cf565b9050612259816132a7565b9150506125c9565b6007600b811115612275576122746140b4565b5b83600b811115612288576122876140b4565b5b14156123445760006122b583600001516000600381106122ab576122aa6140e3565b5b60200201516132a7565b905060006122de84600001516002600381106122d4576122d36140e3565b5b60200201516132a7565b9050600061230785600001516000600381106122fd576122fc6140e3565b5b60200201516132c1565b905060006123308660000151600260038110612326576123256140e3565b5b60200201516132c1565b9050828183861717179450505050506125c9565b6009600b811115612358576123576140b4565b5b83600b81111561236b5761236a6140b4565b5b14156123e3576000826000015160026003811061238b5761238a6140e3565b5b602002015183600001516001600381106123a8576123a76140e3565b5b602002015184600001516000600381106123c5576123c46140e3565b5b6020020151171790506000631fffffff9050808216925050506125c9565b600a600b8111156123f7576123f66140b4565b5b83600b81111561240a576124096140b4565b5b1415612486576000826000015160026003811061242a576124296140e3565b5b60200201518360000151600160038110612447576124466140e3565b5b60200201518460000151600060038110612464576124636140e3565b5b60200201511717905060006707ffffffe00000009050808216925050506125c9565b600b80811115612499576124986140b4565b5b83600b8111156124ac576124ab6140b4565b5b141561252c57600082600001516002600381106124cc576124cb6140e3565b5b602002015183600001516001600381106124e9576124e86140e3565b5b60200201518460000151600060038110612506576125056140e3565b5b60200201511717905060006b03fffffff8000000000000009050808216925050506125c9565b6006600b8111156125405761253f6140b4565b5b83600b811115612553576125526140b4565b5b14156125b9578160000151600260038110612571576125706140e3565b5b6020020151826000015160016003811061258e5761258d6140e3565b5b602002015183600001516000600381106125ab576125aa6140e3565b5b6020020151171790506125c9565b6b03ffffffffffffffffffffff90505b92915050565b60006001826125de9190613e43565b82169050919050565b6000808260040180549050149050919050565b6000438260405160200161260f9291906139d0565b6040516020818303038152906040528051906020012060001c9050919050565b612637613348565b600080604051806101200160405280600060ff168152602001600160ff168152602001600260ff168152602001600360ff168152602001600460ff168152602001600560ff168152602001600660ff168152602001600760ff168152602001600860ff1681525090506126a8613348565b60005b600581101561277f576126bd866125fa565b955060008160096126ce9190613e43565b876126d99190613ff6565b90508381600981106126ee576126ed6140e3565b5b6020020151838360058110612706576127056140e3565b5b602002019060ff16908160ff16815250508382600160096127279190613e43565b6127319190613e43565b60098110612742576127416140e3565b5b602002015184826009811061275a576127596140e3565b5b602002019060ff16908160ff168152505050808061277790613f79565b9150506126ab565b508085935093505050915091565b6127956133bb565b600061279f6133bb565b60008560ff16141561290a576000604051806101200160405280600160ff168152602001600260ff168152602001600360ff168152602001600460ff168152602001600560ff168152602001600660ff168152602001600760ff168152602001600860ff168152602001600960ff16815250905060005b8560ff168110156129035761282a886125fa565b9750600081600961283b9190613e43565b896128469190613ff6565b905082816009811061285b5761285a6140e3565b5b6020020151600a8961286d9190613e08565b6128779190613d46565b84836003811061288a576128896140e3565b5b602002019060ff16908160ff16815250508282600160096128ab9190613e43565b6128b59190613e43565b600981106128c6576128c56140e3565b5b60200201518382600981106128de576128dd6140e3565b5b602002019060ff16908160ff16815250505080806128fb90613f79565b915050612816565b5050612bef565b60088560ff161415612a89576000604051806101600160405280600060ff168152602001600160ff168152602001600260ff168152602001600360ff168152602001600460ff168152602001600560ff168152602001600660ff168152602001600760ff168152602001600860ff168152602001600960ff168152602001600a60ff16815250905060005b8560ff16811015612a82576129a9886125fa565b9750600081600b6129ba9190613e43565b896129c59190613ff6565b90508281600b81106129da576129d96140e3565b5b6020020151600a896129ec9190613e08565b6129f69190613d46565b848360038110612a0957612a086140e3565b5b602002019060ff16908160ff168152505082826001600b612a2a9190613e43565b612a349190613e43565b600b8110612a4557612a446140e3565b5b60200201518382600b8110612a5d57612a5c6140e3565b5b602002019060ff16908160ff1681525050508080612a7a90613f79565b915050612995565b5050612bee565b6000604051806101400160405280600060ff168152602001600160ff168152602001600260ff168152602001600360ff168152602001600460ff168152602001600560ff168152602001600660ff168152602001600760ff168152602001600860ff168152602001600960ff16815250905060005b8560ff16811015612beb57612b12886125fa565b9750600081600a612b239190613e43565b89612b2e9190613ff6565b90508281600a8110612b4357612b426140e3565b5b6020020151600a89612b559190613e08565b612b5f9190613d46565b848360038110612b7257612b716140e3565b5b602002019060ff16908160ff168152505082826001600a612b939190613e43565b612b9d9190613e43565b600a8110612bae57612bad6140e3565b5b60200201518382600a8110612bc657612bc56140e3565b5b602002019060ff16908160ff1681525050508080612be390613f79565b915050612afe565b50505b5b80869250925050935093915050565b612c066133bb565b60038214156131d057612c176133bb565b83600160038110612c2b57612c2a6140e3565b5b602002015160ff1684600060038110612c4757612c466140e3565b5b602002015160ff161115612f105783600260038110612c6957612c686140e3565b5b602002015160ff1684600060038110612c8557612c846140e3565b5b602002015160ff161115612e505783600260038110612ca757612ca66140e3565b5b602002015160ff1684600160038110612cc357612cc26140e3565b5b602002015160ff161115612d905783600260038110612ce557612ce46140e3565b5b602002015181600060038110612cfe57612cfd6140e3565b5b602002019060ff16908160ff168152505083600160038110612d2357612d226140e3565b5b602002015181600160038110612d3c57612d3b6140e3565b5b602002019060ff16908160ff168152505083600060038110612d6157612d606140e3565b5b602002015181600260038110612d7a57612d796140e3565b5b602002019060ff16908160ff1681525050612e4b565b83600160038110612da457612da36140e3565b5b602002015181600060038110612dbd57612dbc6140e3565b5b602002019060ff16908160ff168152505083600260038110612de257612de16140e3565b5b602002015181600160038110612dfb57612dfa6140e3565b5b602002019060ff16908160ff168152505083600060038110612e2057612e1f6140e3565b5b602002015181600260038110612e3957612e386140e3565b5b602002019060ff16908160ff16815250505b612f0b565b83600160038110612e6457612e636140e3565b5b602002015181600060038110612e7d57612e7c6140e3565b5b602002019060ff16908160ff168152505083600060038110612ea257612ea16140e3565b5b602002015181600160038110612ebb57612eba6140e3565b5b602002019060ff16908160ff168152505083600260038110612ee057612edf6140e3565b5b602002015181600260038110612ef957612ef86140e3565b5b602002019060ff16908160ff16815250505b6131c7565b83600260038110612f2457612f236140e3565b5b602002015160ff1684600060038110612f4057612f3f6140e3565b5b602002015160ff16111561300d5783600260038110612f6257612f616140e3565b5b602002015181600060038110612f7b57612f7a6140e3565b5b602002019060ff16908160ff168152505083600060038110612fa057612f9f6140e3565b5b602002015181600160038110612fb957612fb86140e3565b5b602002019060ff16908160ff168152505083600160038110612fde57612fdd6140e3565b5b602002015181600260038110612ff757612ff66140e3565b5b602002019060ff16908160ff16815250506131c6565b83600260038110613021576130206140e3565b5b602002015160ff168460016003811061303d5761303c6140e3565b5b602002015160ff16111561310a578360006003811061305f5761305e6140e3565b5b602002015181600060038110613078576130776140e3565b5b602002019060ff16908160ff16815250508360026003811061309d5761309c6140e3565b5b6020020151816001600381106130b6576130b56140e3565b5b602002019060ff16908160ff1681525050836001600381106130db576130da6140e3565b5b6020020151816002600381106130f4576130f36140e3565b5b602002019060ff16908160ff16815250506131c5565b8360006003811061311e5761311d6140e3565b5b602002015181600060038110613137576131366140e3565b5b602002019060ff16908160ff16815250508360016003811061315c5761315b6140e3565b5b602002015181600160038110613175576131746140e3565b5b602002019060ff16908160ff16815250508360026003811061319a576131996140e3565b5b6020020151816002600381106131b3576131b26140e3565b5b602002019060ff16908160ff16815250505b5b5b809150506132a1565b6002821480156132155750826001600381106131ef576131ee6140e3565b5b602002015160ff168360006003811061320b5761320a6140e3565b5b602002015160ff16115b1561329d576000836001600381106132305761322f6140e3565b5b602002015190508360006003811061324b5761324a6140e3565b5b602002015184600160038110613264576132636140e3565b5b602002019060ff16908160ff1681525050808460006003811061328a576132896140e3565b5b602002019060ff16908160ff1681525050505b8290505b92915050565b60006001826132b69190613e43565b821682189050919050565b6000600182901c82179150600282901c82179150600482901c82179150600882901c82179150601082901c82179150602082901c82179150604082901c82179150608082901c821791506001826133189190613cf0565b9150600182901c9050919050565b60405180604001604052806133396133dd565b81526020016000151581525090565b6040518060a00160405280600590602082028036833780820191505090505090565b604051806101200160405280600990602082028036833780820191505090505090565b6040518061012001604052806009905b6133a561344e565b81526020019060019003908161339d5790505090565b6040518060600160405280600390602082028036833780820191505090505090565b6040518060600160405280600390602082028036833780820191505090505090565b604051806101800160405280600c905b613417613470565b81526020019060019003908161340f5790505090565b508054600082559060005260206000209081019061344b91906134a0565b50565b6040518060600160405280600390602082028036833780820191505090505090565b6040518060400160405280600073ffffffffffffffffffffffffffffffffffffffff168152602001600081525090565b5b808211156134b95760008160009055506001016134a1565b5090565b6000813590506134cc816143de565b92915050565b6000813590506134e1816143f5565b92915050565b6000813590506134f68161440c565b92915050565b60008135905061350b8161441c565b92915050565b60006020828403121561352757613526614141565b5b6000613535848285016134bd565b91505092915050565b6000806040838503121561355557613554614141565b5b6000613563858286016134bd565b9250506020613574858286016134bd565b9150509250929050565b6000806040838503121561359557613594614141565b5b60006135a3858286016134bd565b92505060206135b4858286016134e7565b9150509250929050565b600080604083850312156135d5576135d4614141565b5b60006135e3858286016134bd565b92505060206135f4858286016134fc565b9150509250929050565b60006020828403121561361457613613614141565b5b6000613622848285016134e7565b91505092915050565b60006020828403121561364157613640614141565b5b600061364f848285016134fc565b91505092915050565b6000806040838503121561366f5761366e614141565b5b600061367d858286016134fc565b925050602061368e858286016134d2565b9150509250929050565b60006136a483836136c8565b60208301905092915050565b60006136bc838361398c565b60208301905092915050565b6136d181613eab565b82525050565b60006136e282613c93565b6136ec8185613cc3565b93506136f783613c79565b8060005b8381101561372857815161370f8882613698565b975061371a83613ca9565b9250506001810190506136fb565b5085935050505092915050565b61373e81613c9e565b6137488184613cd4565b925061375382613c89565b8060005b8381101561378457815161376b87826136b0565b965061377683613cb6565b925050600181019050613757565b505050505050565b61379581613ebd565b82525050565b6137a481613ebd565b82525050565b6137b381613f13565b82525050565b60006137c6601583613cdf565b91506137d182614146565b602082019050919050565b60006137e9601383613cdf565b91506137f48261416f565b602082019050919050565b600061380c602083613cdf565b915061381782614198565b602082019050919050565b600061382f601883613cdf565b915061383a826141c1565b602082019050919050565b6000613852601283613cdf565b915061385d826141ea565b602082019050919050565b6000613875600e83613cdf565b915061388082614213565b602082019050919050565b6000613898600683613cdf565b91506138a38261423c565b602082019050919050565b60006138bb602a83613cdf565b91506138c682614265565b604082019050919050565b60006138de601883613cdf565b91506138e9826142b4565b602082019050919050565b6000613901602183613cdf565b915061390c826142dd565b604082019050919050565b6000613924603783613cdf565b915061392f8261432c565b604082019050919050565b6000613947602283613cdf565b91506139528261437b565b604082019050919050565b6080820160008201516139736000850182613735565b506020820151613986606085018261378c565b50505050565b61399581613efc565b82525050565b6139a481613efc565b82525050565b6139bb6139b682613efc565b613fec565b82525050565b6139ca81613f06565b82525050565b60006139dc82856139aa565b6020820191506139ec82846139aa565b6020820191508190509392505050565b60006020820190508181036000830152613a1681846136d7565b905092915050565b6000602082019050613a3360008301846137aa565b92915050565b60006020820190508181036000830152613a52816137b9565b9050919050565b60006020820190508181036000830152613a72816137dc565b9050919050565b60006020820190508181036000830152613a92816137ff565b9050919050565b60006020820190508181036000830152613ab281613822565b9050919050565b60006020820190508181036000830152613ad281613845565b9050919050565b60006020820190508181036000830152613af281613868565b9050919050565b60006020820190508181036000830152613b128161388b565b9050919050565b60006020820190508181036000830152613b32816138ae565b9050919050565b60006020820190508181036000830152613b52816138d1565b9050919050565b60006020820190508181036000830152613b72816138f4565b9050919050565b60006020820190508181036000830152613b9281613917565b9050919050565b60006020820190508181036000830152613bb28161393a565b9050919050565b6000608082019050613bce600083018461395d565b92915050565b6000602082019050613be9600083018461399b565b92915050565b600060e082019050613c04600083018a61399b565b613c11602083018961399b565b613c1e604083018861379b565b613c2b606083018761399b565b613c38608083018661399b565b613c4560a083018561399b565b613c5260c08301846139c1565b98975050505050505050565b6000602082019050613c7360008301846139c1565b92915050565b6000819050602082019050919050565b6000819050919050565b600081519050919050565b600060039050919050565b6000602082019050919050565b6000602082019050919050565b600082825260208201905092915050565b600081905092915050565b600082825260208201905092915050565b6000613cfb82613efc565b9150613d0683613efc565b9250827fffffffffffffffffffffffffffffffffffffffffffffffffffffffffffffffff03821115613d3b57613d3a614056565b5b828201905092915050565b6000613d5182613f06565b9150613d5c83613f06565b92508260ff03821115613d7257613d71614056565b5b828201905092915050565b6000613d8882613efc565b9150613d9383613efc565b925082613da357613da2614085565b5b828204905092915050565b6000613db982613efc565b9150613dc483613efc565b9250817fffffffffffffffffffffffffffffffffffffffffffffffffffffffffffffffff0483118215151615613dfd57613dfc614056565b5b828202905092915050565b6000613e1382613f06565b9150613e1e83613f06565b92508160ff0483118215151615613e3857613e37614056565b5b828202905092915050565b6000613e4e82613efc565b9150613e5983613efc565b925082821015613e6c57613e6b614056565b5b828203905092915050565b6000613e8282613f06565b9150613e8d83613f06565b925082821015613ea057613e9f614056565b5b828203905092915050565b6000613eb682613edc565b9050919050565b60008115159050919050565b6000819050613ed7826143ca565b919050565b600073ffffffffffffffffffffffffffffffffffffffff82169050919050565b6000819050919050565b600060ff82169050919050565b6000613f1e82613ec9565b9050919050565b6000613f3082613efc565b91506000821415613f4457613f43614056565b5b600182039050919050565b6000613f5a82613f06565b91506000821415613f6e57613f6d614056565b5b600182039050919050565b6000613f8482613efc565b91507fffffffffffffffffffffffffffffffffffffffffffffffffffffffffffffffff821415613fb757613fb6614056565b5b600182019050919050565b6000613fcd82613f06565b915060ff821415613fe157613fe0614056565b5b600182019050919050565b6000819050919050565b600061400182613efc565b915061400c83613efc565b92508261401c5761401b614085565b5b828206905092915050565b7f4e487b7100000000000000000000000000000000000000000000000000000000600052600160045260246000fd5b7f4e487b7100000000000000000000000000000000000000000000000000000000600052601160045260246000fd5b7f4e487b7100000000000000000000000000000000000000000000000000000000600052601260045260246000fd5b7f4e487b7100000000000000000000000000000000000000000000000000000000600052602160045260246000fd5b7f4e487b7100000000000000000000000000000000000000000000000000000000600052603260045260246000fd5b7f4e487b7100000000000000000000000000000000000000000000000000000000600052604160045260246000fd5b600080fd5b7f5072697a6520616c726561647920636c61696d65640000000000000000000000600082015250565b7f4e6f207469636b65742070757263686173656400000000000000000000000000600082015250565b7f5469636b657420636f7374206d757374206265206174206c6561737420313030600082015250565b7f5469636b657420616c7265616479207075726368617365640000000000000000600082015250565b7f4e6f207072697a657320746f20636c61696d0000000000000000000000000000600082015250565b7f47616d65206e6f74207265616479000000000000000000000000000000000000600082015250565b7f426f676965210000000000000000000000000000000000000000000000000000600082015250565b7f47616d65206e6f742079657420617661696c61626c6520746f2067656e65726160008201527f7465206e756d6265727300000000000000000000000000000000000000000000602082015250565b7f47616d65206861736e27742066696e6973686564207965740000000000000000600082015250565b7f596f752063616e206f6e6c7920636c61696d206f6e652066756c6c20686f757360008201527f6500000000000000000000000000000000000000000000000000000000000000602082015250565b7f506c6561736520656e64207468652070726576696f75732067616d652062656660008201527f6f726520686f7374696e6720616e6f74686572206f6e65000000000000000000602082015250565b7f496e636f72726563742066756e64732073656e7420746f20627579207469636b60008201527f6574000000000000000000000000000000000000000000000000000000000000602082015250565b600c81106143db576143da6140b4565b5b50565b6143e781613eab565b81146143f257600080fd5b50565b6143fe81613ebd565b811461440957600080fd5b50565b600c811061441957600080fd5b50565b61442581613efc565b811461443057600080fd5b5056fea26469706673582212205f11f58ca60c23ec9b15edec9e1f11bac8df45e20d25c7e342d1dd3ab95a388064736f6c63430008070033",
			"opcodes": "PUSH1 0x80 PUSH1 0x40 MSTORE CALLVALUE DUP1 ISZERO PUSH2 0x10 JUMPI PUSH1 0x0 DUP1 REVERT JUMPDEST POP PUSH2 0x4469 DUP1 PUSH2 0x20 PUSH1 0x0 CODECOPY PUSH1 0x0 RETURN INVALID PUSH1 0x80 PUSH1 0x40 MSTORE PUSH1 0x4 CALLDATASIZE LT PUSH2 0x9C JUMPI PUSH1 0x0 CALLDATALOAD PUSH1 0xE0 SHR DUP1 PUSH4 0x6CBC2DED GT PUSH2 0x64 JUMPI DUP1 PUSH4 0x6CBC2DED EQ PUSH2 0x189 JUMPI DUP1 PUSH4 0x79131A19 EQ PUSH2 0x1A0 JUMPI DUP1 PUSH4 0xA5F8CDBB EQ PUSH2 0x1E3 JUMPI DUP1 PUSH4 0xAAD5632A EQ PUSH2 0x1FF JUMPI DUP1 PUSH4 0xF9BEEC0D EQ PUSH2 0x22A JUMPI DUP1 PUSH4 0xFD1035A6 EQ PUSH2 0x267 JUMPI PUSH2 0x9C JUMP JUMPDEST DUP1 PUSH4 0x25CC976D EQ PUSH2 0xA1 JUMPI DUP1 PUSH4 0x37E84D3B EQ PUSH2 0xCA JUMPI DUP1 PUSH4 0x57C93C0E EQ PUSH2 0x107 JUMPI DUP1 PUSH4 0x6334740A EQ PUSH2 0x130 JUMPI DUP1 PUSH4 0x66A5EF2F EQ PUSH2 0x16D JUMPI JUMPDEST PUSH1 0x0 DUP1 REVERT JUMPDEST CALLVALUE DUP1 ISZERO PUSH2 0xAD JUMPI PUSH1 0x0 DUP1 REVERT JUMPDEST POP PUSH2 0xC8 PUSH1 0x4 DUP1 CALLDATASIZE SUB DUP2 ADD SWAP1 PUSH2 0xC3 SWAP2 SWAP1 PUSH2 0x357E JUMP JUMPDEST PUSH2 0x2A4 JUMP JUMPDEST STOP JUMPDEST CALLVALUE DUP1 ISZERO PUSH2 0xD6 JUMPI PUSH1 0x0 DUP1 REVERT JUMPDEST POP PUSH2 0xF1 PUSH1 0x4 DUP1 CALLDATASIZE SUB DUP2 ADD SWAP1 PUSH2 0xEC SWAP2 SWAP1 PUSH2 0x353E JUMP JUMPDEST PUSH2 0xABB JUMP JUMPDEST PUSH1 0x40 MLOAD PUSH2 0xFE SWAP2 SWAP1 PUSH2 0x3BB9 JUMP JUMPDEST PUSH1 0x40 MLOAD DUP1 SWAP2 SUB SWAP1 RETURN JUMPDEST CALLVALUE DUP1 ISZERO PUSH2 0x113 JUMPI PUSH1 0x0 DUP1 REVERT JUMPDEST POP PUSH2 0x12E PUSH1 0x4 DUP1 CALLDATASIZE SUB DUP2 ADD SWAP1 PUSH2 0x129 SWAP2 SWAP1 PUSH2 0x3658 JUMP JUMPDEST PUSH2 0xBBA JUMP JUMPDEST STOP JUMPDEST CALLVALUE DUP1 ISZERO PUSH2 0x13C JUMPI PUSH1 0x0 DUP1 REVERT JUMPDEST POP PUSH2 0x157 PUSH1 0x4 DUP1 CALLDATASIZE SUB DUP2 ADD SWAP1 PUSH2 0x152 SWAP2 SWAP1 PUSH2 0x362B JUMP JUMPDEST PUSH2 0xD31 JUMP JUMPDEST PUSH1 0x40 MLOAD PUSH2 0x164 SWAP2 SWAP1 PUSH2 0x3BD4 JUMP JUMPDEST PUSH1 0x40 MLOAD DUP1 SWAP2 SUB SWAP1 RETURN JUMPDEST PUSH2 0x187 PUSH1 0x4 DUP1 CALLDATASIZE SUB DUP2 ADD SWAP1 PUSH2 0x182 SWAP2 SWAP1 PUSH2 0x35BE JUMP JUMPDEST PUSH2 0xF6C JUMP JUMPDEST STOP JUMPDEST CALLVALUE DUP1 ISZERO PUSH2 0x195 JUMPI PUSH1 0x0 DUP1 REVERT JUMPDEST POP PUSH2 0x19E PUSH2 0x1698 JUMP JUMPDEST STOP JUMPDEST CALLVALUE DUP1 ISZERO PUSH2 0x1AC JUMPI PUSH1 0x0 DUP1 REVERT JUMPDEST POP PUSH2 0x1C7 PUSH1 0x4 DUP1 CALLDATASIZE SUB DUP2 ADD SWAP1 PUSH2 0x1C2 SWAP2 SWAP1 PUSH2 0x3511 JUMP JUMPDEST PUSH2 0x1D26 JUMP JUMPDEST PUSH1 0x40 MLOAD PUSH2 0x1DA SWAP8 SWAP7 SWAP6 SWAP5 SWAP4 SWAP3 SWAP2 SWAP1 PUSH2 0x3BEF JUMP JUMPDEST PUSH1 0x40 MLOAD DUP1 SWAP2 SUB SWAP1 RETURN JUMPDEST PUSH2 0x1FD PUSH1 0x4 DUP1 CALLDATASIZE SUB DUP2 ADD SWAP1 PUSH2 0x1F8 SWAP2 SWAP1 PUSH2 0x3511 JUMP JUMPDEST PUSH2 0x1D82 JUMP JUMPDEST STOP JUMPDEST CALLVALUE DUP1 ISZERO PUSH2 0x20B JUMPI PUSH1 0x0 DUP1 REVERT JUMPDEST POP PUSH2 0x214 PUSH2 0x1D90 JUMP JUMPDEST PUSH1 0x40 MLOAD PUSH2 0x221 SWAP2 SWAP1 PUSH2 0x3BD4 JUMP JUMPDEST PUSH1 0x40 MLOAD DUP1 SWAP2 SUB SWAP1 RETURN JUMPDEST CALLVALUE DUP1 ISZERO PUSH2 0x236 JUMPI PUSH1 0x0 DUP1 REVERT JUMPDEST POP PUSH2 0x251 PUSH1 0x4 DUP1 CALLDATASIZE SUB DUP2 ADD SWAP1 PUSH2 0x24C SWAP2 SWAP1 PUSH2 0x35FE JUMP JUMPDEST PUSH2 0x1DA1 JUMP JUMPDEST PUSH1 0x40 MLOAD PUSH2 0x25E SWAP2 SWAP1 PUSH2 0x3C5E JUMP JUMPDEST PUSH1 0x40 MLOAD DUP1 SWAP2 SUB SWAP1 RETURN JUMPDEST CALLVALUE DUP1 ISZERO PUSH2 0x273 JUMPI PUSH1 0x0 DUP1 REVERT JUMPDEST POP PUSH2 0x28E PUSH1 0x4 DUP1 CALLDATASIZE SUB DUP2 ADD SWAP1 PUSH2 0x289 SWAP2 SWAP1 PUSH2 0x3511 JUMP JUMPDEST PUSH2 0x1E19 JUMP JUMPDEST PUSH1 0x40 MLOAD PUSH2 0x29B SWAP2 SWAP1 PUSH2 0x39FC JUMP JUMPDEST PUSH1 0x40 MLOAD DUP1 SWAP2 SUB SWAP1 RETURN JUMPDEST PUSH1 0x0 DUP1 PUSH1 0x0 DUP5 PUSH20 0xFFFFFFFFFFFFFFFFFFFFFFFFFFFFFFFFFFFFFFFF AND PUSH20 0xFFFFFFFFFFFFFFFFFFFFFFFFFFFFFFFFFFFFFFFF AND DUP2 MSTORE PUSH1 0x20 ADD SWAP1 DUP2 MSTORE PUSH1 0x20 ADD PUSH1 0x0 KECCAK256 SWAP1 POP PUSH1 0x0 PUSH2 0x2F1 DUP3 PUSH2 0x1F77 JUMP JUMPDEST SWAP1 POP PUSH1 0x1 PUSH1 0x3 DUP2 GT ISZERO PUSH2 0x307 JUMPI PUSH2 0x306 PUSH2 0x40B4 JUMP JUMPDEST JUMPDEST DUP2 PUSH1 0x3 DUP2 GT ISZERO PUSH2 0x31A JUMPI PUSH2 0x319 PUSH2 0x40B4 JUMP JUMPDEST JUMPDEST EQ DUP1 PUSH2 0x34A JUMPI POP PUSH1 0x2 PUSH1 0x3 DUP2 GT ISZERO PUSH2 0x335 JUMPI PUSH2 0x334 PUSH2 0x40B4 JUMP JUMPDEST JUMPDEST DUP2 PUSH1 0x3 DUP2 GT ISZERO PUSH2 0x348 JUMPI PUSH2 0x347 PUSH2 0x40B4 JUMP JUMPDEST JUMPDEST EQ JUMPDEST PUSH2 0x389 JUMPI PUSH1 0x40 MLOAD PUSH32 0x8C379A000000000000000000000000000000000000000000000000000000000 DUP2 MSTORE PUSH1 0x4 ADD PUSH2 0x380 SWAP1 PUSH2 0x3AB9 JUMP JUMPDEST PUSH1 0x40 MLOAD DUP1 SWAP2 SUB SWAP1 REVERT JUMPDEST PUSH1 0x0 ORIGIN SWAP1 POP PUSH1 0x0 DUP4 PUSH1 0x3 ADD PUSH1 0x0 DUP4 PUSH20 0xFFFFFFFFFFFFFFFFFFFFFFFFFFFFFFFFFFFFFFFF AND PUSH20 0xFFFFFFFFFFFFFFFFFFFFFFFFFFFFFFFFFFFFFFFF AND DUP2 MSTORE PUSH1 0x20 ADD SWAP1 DUP2 MSTORE PUSH1 0x20 ADD PUSH1 0x0 KECCAK256 SWAP1 POP PUSH1 0x1 ISZERO ISZERO DUP2 PUSH1 0x3 ADD PUSH1 0x0 SWAP1 SLOAD SWAP1 PUSH2 0x100 EXP SWAP1 DIV PUSH1 0xFF AND ISZERO ISZERO EQ PUSH2 0x42B JUMPI PUSH1 0x40 MLOAD PUSH32 0x8C379A000000000000000000000000000000000000000000000000000000000 DUP2 MSTORE PUSH1 0x4 ADD PUSH2 0x422 SWAP1 PUSH2 0x3A59 JUMP JUMPDEST PUSH1 0x40 MLOAD DUP1 SWAP2 SUB SWAP1 REVERT JUMPDEST PUSH1 0x0 PUSH20 0xFFFFFFFFFFFFFFFFFFFFFFFFFFFFFFFFFFFFFFFF AND DUP5 PUSH1 0x8 ADD PUSH1 0x0 DUP8 PUSH1 0xB DUP2 GT ISZERO PUSH2 0x45C JUMPI PUSH2 0x45B PUSH2 0x40B4 JUMP JUMPDEST JUMPDEST PUSH1 0xFF AND PUSH1 0xFF AND DUP2 MSTORE PUSH1 0x20 ADD SWAP1 DUP2 MSTORE PUSH1 0x20 ADD PUSH1 0x0 KECCAK256 PUSH1 0x0 SWAP1 SLOAD SWAP1 PUSH2 0x100 EXP SWAP1 DIV PUSH20 0xFFFFFFFFFFFFFFFFFFFFFFFFFFFFFFFFFFFFFFFF AND PUSH20 0xFFFFFFFFFFFFFFFFFFFFFFFFFFFFFFFFFFFFFFFF AND EQ PUSH2 0x4E7 JUMPI PUSH1 0x40 MLOAD PUSH32 0x8C379A000000000000000000000000000000000000000000000000000000000 DUP2 MSTORE PUSH1 0x4 ADD PUSH2 0x4DE SWAP1 PUSH2 0x3A39 JUMP JUMPDEST PUSH1 0x40 MLOAD DUP1 SWAP2 SUB SWAP1 REVERT JUMPDEST PUSH1 0x3 PUSH1 0xB DUP2 GT ISZERO PUSH2 0x4FB JUMPI PUSH2 0x4FA PUSH2 0x40B4 JUMP JUMPDEST JUMPDEST DUP6 PUSH1 0xB DUP2 GT ISZERO PUSH2 0x50E JUMPI PUSH2 0x50D PUSH2 0x40B4 JUMP JUMPDEST JUMPDEST EQ DUP1 PUSH2 0x53E JUMPI POP PUSH1 0x4 PUSH1 0xB DUP2 GT ISZERO PUSH2 0x529 JUMPI PUSH2 0x528 PUSH2 0x40B4 JUMP JUMPDEST JUMPDEST DUP6 PUSH1 0xB DUP2 GT ISZERO PUSH2 0x53C JUMPI PUSH2 0x53B PUSH2 0x40B4 JUMP JUMPDEST JUMPDEST EQ JUMPDEST DUP1 PUSH2 0x56D JUMPI POP PUSH1 0x5 PUSH1 0xB DUP2 GT ISZERO PUSH2 0x558 JUMPI PUSH2 0x557 PUSH2 0x40B4 JUMP JUMPDEST JUMPDEST DUP6 PUSH1 0xB DUP2 GT ISZERO PUSH2 0x56B JUMPI PUSH2 0x56A PUSH2 0x40B4 JUMP JUMPDEST JUMPDEST EQ JUMPDEST ISZERO PUSH2 0x7AA JUMPI DUP2 PUSH20 0xFFFFFFFFFFFFFFFFFFFFFFFFFFFFFFFFFFFFFFFF AND DUP5 PUSH1 0x8 ADD PUSH1 0x0 PUSH1 0x3 PUSH1 0xB DUP2 GT ISZERO PUSH2 0x5A3 JUMPI PUSH2 0x5A2 PUSH2 0x40B4 JUMP JUMPDEST JUMPDEST PUSH1 0xFF AND PUSH1 0xFF AND DUP2 MSTORE PUSH1 0x20 ADD SWAP1 DUP2 MSTORE PUSH1 0x20 ADD PUSH1 0x0 KECCAK256 PUSH1 0x0 SWAP1 SLOAD SWAP1 PUSH2 0x100 EXP SWAP1 DIV PUSH20 0xFFFFFFFFFFFFFFFFFFFFFFFFFFFFFFFFFFFFFFFF AND PUSH20 0xFFFFFFFFFFFFFFFFFFFFFFFFFFFFFFFFFFFFFFFF AND EQ ISZERO PUSH2 0x62F JUMPI PUSH1 0x40 MLOAD PUSH32 0x8C379A000000000000000000000000000000000000000000000000000000000 DUP2 MSTORE PUSH1 0x4 ADD PUSH2 0x626 SWAP1 PUSH2 0x3B59 JUMP JUMPDEST PUSH1 0x40 MLOAD DUP1 SWAP2 SUB SWAP1 REVERT JUMPDEST DUP2 PUSH20 0xFFFFFFFFFFFFFFFFFFFFFFFFFFFFFFFFFFFFFFFF AND DUP5 PUSH1 0x8 ADD PUSH1 0x0 PUSH1 0x4 PUSH1 0xB DUP2 GT ISZERO PUSH2 0x660 JUMPI PUSH2 0x65F PUSH2 0x40B4 JUMP JUMPDEST JUMPDEST PUSH1 0xFF AND PUSH1 0xFF AND DUP2 MSTORE PUSH1 0x20 ADD SWAP1 DUP2 MSTORE PUSH1 0x20 ADD PUSH1 0x0 KECCAK256 PUSH1 0x0 SWAP1 SLOAD SWAP1 PUSH2 0x100 EXP SWAP1 DIV PUSH20 0xFFFFFFFFFFFFFFFFFFFFFFFFFFFFFFFFFFFFFFFF AND PUSH20 0xFFFFFFFFFFFFFFFFFFFFFFFFFFFFFFFFFFFFFFFF AND EQ ISZERO PUSH2 0x6EC JUMPI PUSH1 0x40 MLOAD PUSH32 0x8C379A000000000000000000000000000000000000000000000000000000000 DUP2 MSTORE PUSH1 0x4 ADD PUSH2 0x6E3 SWAP1 PUSH2 0x3B59 JUMP JUMPDEST PUSH1 0x40 MLOAD DUP1 SWAP2 SUB SWAP1 REVERT JUMPDEST DUP2 PUSH20 0xFFFFFFFFFFFFFFFFFFFFFFFFFFFFFFFFFFFFFFFF AND DUP5 PUSH1 0x8 ADD PUSH1 0x0 PUSH1 0x5 PUSH1 0xB DUP2 GT ISZERO PUSH2 0x71D JUMPI PUSH2 0x71C PUSH2 0x40B4 JUMP JUMPDEST JUMPDEST PUSH1 0xFF AND PUSH1 0xFF AND DUP2 MSTORE PUSH1 0x20 ADD SWAP1 DUP2 MSTORE PUSH1 0x20 ADD PUSH1 0x0 KECCAK256 PUSH1 0x0 SWAP1 SLOAD SWAP1 PUSH2 0x100 EXP SWAP1 DIV PUSH20 0xFFFFFFFFFFFFFFFFFFFFFFFFFFFFFFFFFFFFFFFF AND PUSH20 0xFFFFFFFFFFFFFFFFFFFFFFFFFFFFFFFFFFFFFFFF AND EQ ISZERO PUSH2 0x7A9 JUMPI PUSH1 0x40 MLOAD PUSH32 0x8C379A000000000000000000000000000000000000000000000000000000000 DUP2 MSTORE PUSH1 0x4 ADD PUSH2 0x7A0 SWAP1 PUSH2 0x3B59 JUMP JUMPDEST PUSH1 0x40 MLOAD DUP1 SWAP2 SUB SWAP1 REVERT JUMPDEST JUMPDEST PUSH1 0x0 DUP5 PUSH1 0x5 ADD SLOAD SWAP1 POP PUSH1 0x0 PUSH2 0x8A7 DUP8 PUSH1 0x0 DUP1 DUP12 PUSH20 0xFFFFFFFFFFFFFFFFFFFFFFFFFFFFFFFFFFFFFFFF AND PUSH20 0xFFFFFFFFFFFFFFFFFFFFFFFFFFFFFFFFFFFFFFFF AND DUP2 MSTORE PUSH1 0x20 ADD SWAP1 DUP2 MSTORE PUSH1 0x20 ADD PUSH1 0x0 KECCAK256 PUSH1 0x3 ADD PUSH1 0x0 DUP8 PUSH20 0xFFFFFFFFFFFFFFFFFFFFFFFFFFFFFFFFFFFFFFFF AND PUSH20 0xFFFFFFFFFFFFFFFFFFFFFFFFFFFFFFFFFFFFFFFF AND DUP2 MSTORE PUSH1 0x20 ADD SWAP1 DUP2 MSTORE PUSH1 0x20 ADD PUSH1 0x0 KECCAK256 PUSH1 0x40 MLOAD DUP1 PUSH1 0x40 ADD PUSH1 0x40 MSTORE SWAP1 DUP2 PUSH1 0x0 DUP3 ADD PUSH1 0x3 DUP1 PUSH1 0x20 MUL PUSH1 0x40 MLOAD SWAP1 DUP2 ADD PUSH1 0x40 MSTORE DUP1 SWAP3 SWAP2 SWAP1 DUP3 PUSH1 0x3 DUP1 ISZERO PUSH2 0x87E JUMPI PUSH1 0x20 MUL DUP3 ADD SWAP2 JUMPDEST DUP2 SLOAD DUP2 MSTORE PUSH1 0x20 ADD SWAP1 PUSH1 0x1 ADD SWAP1 DUP1 DUP4 GT PUSH2 0x86A JUMPI JUMPDEST POP POP POP POP POP DUP2 MSTORE PUSH1 0x20 ADD PUSH1 0x3 DUP3 ADD PUSH1 0x0 SWAP1 SLOAD SWAP1 PUSH2 0x100 EXP SWAP1 DIV PUSH1 0xFF AND ISZERO ISZERO ISZERO ISZERO DUP2 MSTORE POP POP PUSH2 0x200D JUMP JUMPDEST SWAP1 POP PUSH1 0x0 PUSH1 0x6 PUSH1 0xB DUP2 GT ISZERO PUSH2 0x8BF JUMPI PUSH2 0x8BE PUSH2 0x40B4 JUMP JUMPDEST JUMPDEST DUP9 PUSH1 0xB DUP2 GT ISZERO PUSH2 0x8D2 JUMPI PUSH2 0x8D1 PUSH2 0x40B4 JUMP JUMPDEST JUMPDEST EQ ISZERO PUSH2 0x925 JUMPI PUSH1 0x0 DUP4 NOT DUP4 AND SWAP1 POP PUSH1 0x0 JUMPDEST PUSH1 0x4 DUP2 LT ISZERO PUSH2 0x918 JUMPI PUSH1 0x0 DUP3 EQ ISZERO PUSH2 0x8FA JUMPI PUSH2 0x918 JUMP JUMPDEST PUSH2 0x903 DUP3 PUSH2 0x25CF JUMP JUMPDEST SWAP2 POP DUP1 DUP1 PUSH2 0x910 SWAP1 PUSH2 0x3F79 JUMP JUMPDEST SWAP2 POP POP PUSH2 0x8E3 JUMP JUMPDEST POP PUSH1 0x0 DUP2 GT SWAP2 POP POP PUSH2 0x92E JUMP JUMPDEST PUSH1 0x0 DUP4 DUP4 AND EQ SWAP1 POP JUMPDEST PUSH1 0x0 ISZERO ISZERO DUP2 ISZERO ISZERO EQ ISZERO PUSH2 0x9BB JUMPI PUSH1 0x1 ISZERO ISZERO DUP8 PUSH1 0x2 ADD PUSH1 0x0 SWAP1 SLOAD SWAP1 PUSH2 0x100 EXP SWAP1 DIV PUSH1 0xFF AND ISZERO ISZERO EQ ISZERO PUSH2 0x97B JUMPI PUSH1 0x0 DUP5 PUSH1 0x3 ADD PUSH1 0x0 PUSH2 0x100 EXP DUP2 SLOAD DUP2 PUSH1 0xFF MUL NOT AND SWAP1 DUP4 ISZERO ISZERO MUL OR SWAP1 SSTORE POP PUSH2 0x9B6 JUMP JUMPDEST PUSH1 0x40 MLOAD PUSH32 0x8C379A000000000000000000000000000000000000000000000000000000000 DUP2 MSTORE PUSH1 0x4 ADD PUSH2 0x9AD SWAP1 PUSH2 0x3AF9 JUMP JUMPDEST PUSH1 0x40 MLOAD DUP1 SWAP2 SUB SWAP1 REVERT JUMPDEST PUSH2 0xAB0 JUMP JUMPDEST DUP5 DUP8 PUSH1 0x8 ADD PUSH1 0x0 DUP11 PUSH1 0xB DUP2 GT ISZERO PUSH2 0x9D5 JUMPI PUSH2 0x9D4 PUSH2 0x40B4 JUMP JUMPDEST JUMPDEST PUSH1 0xFF AND PUSH1 0xFF AND DUP2 MSTORE PUSH1 0x20 ADD SWAP1 DUP2 MSTORE PUSH1 0x20 ADD PUSH1 0x0 KECCAK256 PUSH1 0x0 PUSH2 0x100 EXP DUP2 SLOAD DUP2 PUSH20 0xFFFFFFFFFFFFFFFFFFFFFFFFFFFFFFFFFFFFFFFF MUL NOT AND SWAP1 DUP4 PUSH20 0xFFFFFFFFFFFFFFFFFFFFFFFFFFFFFFFFFFFFFFFF AND MUL OR SWAP1 SSTORE POP DUP7 PUSH1 0x9 ADD PUSH1 0x0 DUP2 DUP2 SWAP1 SLOAD SWAP1 PUSH2 0x100 EXP SWAP1 DIV PUSH1 0xFF AND DUP1 SWAP3 SWAP2 SWAP1 PUSH2 0xA48 SWAP1 PUSH2 0x3F4F JUMP JUMPDEST SWAP2 SWAP1 PUSH2 0x100 EXP DUP2 SLOAD DUP2 PUSH1 0xFF MUL NOT AND SWAP1 DUP4 PUSH1 0xFF AND MUL OR SWAP1 SSTORE POP POP DUP9 PUSH20 0xFFFFFFFFFFFFFFFFFFFFFFFFFFFFFFFFFFFFFFFF AND PUSH32 0xEBE738ACF93B41A865962E83533A60D7C1AC5191AF3FB3712063791C3BCC731E DUP10 PUSH1 0x40 MLOAD PUSH2 0xAA7 SWAP2 SWAP1 PUSH2 0x3A1E JUMP JUMPDEST PUSH1 0x40 MLOAD DUP1 SWAP2 SUB SWAP1 LOG2 JUMPDEST POP POP POP POP POP POP POP POP POP JUMP JUMPDEST PUSH2 0xAC3 PUSH2 0x3326 JUMP JUMPDEST PUSH1 0x0 DUP1 PUSH1 0x0 DUP6 PUSH20 0xFFFFFFFFFFFFFFFFFFFFFFFFFFFFFFFFFFFFFFFF AND PUSH20 0xFFFFFFFFFFFFFFFFFFFFFFFFFFFFFFFFFFFFFFFF AND DUP2 MSTORE PUSH1 0x20 ADD SWAP1 DUP2 MSTORE PUSH1 0x20 ADD PUSH1 0x0 KECCAK256 SWAP1 POP DUP1 PUSH1 0x3 ADD PUSH1 0x0 DUP5 PUSH20 0xFFFFFFFFFFFFFFFFFFFFFFFFFFFFFFFFFFFFFFFF AND PUSH20 0xFFFFFFFFFFFFFFFFFFFFFFFFFFFFFFFFFFFFFFFF AND DUP2 MSTORE PUSH1 0x20 ADD SWAP1 DUP2 MSTORE PUSH1 0x20 ADD PUSH1 0x0 KECCAK256 PUSH1 0x40 MLOAD DUP1 PUSH1 0x40 ADD PUSH1 0x40 MSTORE SWAP1 DUP2 PUSH1 0x0 DUP3 ADD PUSH1 0x3 DUP1 PUSH1 0x20 MUL PUSH1 0x40 MLOAD SWAP1 DUP2 ADD PUSH1 0x40 MSTORE DUP1 SWAP3 SWAP2 SWAP1 DUP3 PUSH1 0x3 DUP1 ISZERO PUSH2 0xB8D JUMPI PUSH1 0x20 MUL DUP3 ADD SWAP2 JUMPDEST DUP2 SLOAD DUP2 MSTORE PUSH1 0x20 ADD SWAP1 PUSH1 0x1 ADD SWAP1 DUP1 DUP4 GT PUSH2 0xB79 JUMPI JUMPDEST POP POP POP POP POP DUP2 MSTORE PUSH1 0x20 ADD PUSH1 0x3 DUP3 ADD PUSH1 0x0 SWAP1 SLOAD SWAP1 PUSH2 0x100 EXP SWAP1 DIV PUSH1 0xFF AND ISZERO ISZERO ISZERO ISZERO DUP2 MSTORE POP POP SWAP2 POP POP SWAP3 SWAP2 POP POP JUMP JUMPDEST PUSH1 0x64 DUP3 LT ISZERO PUSH2 0xBFE JUMPI PUSH1 0x40 MLOAD PUSH32 0x8C379A000000000000000000000000000000000000000000000000000000000 DUP2 MSTORE PUSH1 0x4 ADD PUSH2 0xBF5 SWAP1 PUSH2 0x3A79 JUMP JUMPDEST PUSH1 0x40 MLOAD DUP1 SWAP2 SUB SWAP1 REVERT JUMPDEST PUSH1 0x0 ORIGIN SWAP1 POP PUSH1 0x0 DUP1 PUSH1 0x0 DUP4 PUSH20 0xFFFFFFFFFFFFFFFFFFFFFFFFFFFFFFFFFFFFFFFF AND PUSH20 0xFFFFFFFFFFFFFFFFFFFFFFFFFFFFFFFFFFFFFFFF AND DUP2 MSTORE PUSH1 0x20 ADD SWAP1 DUP2 MSTORE PUSH1 0x20 ADD PUSH1 0x0 KECCAK256 SWAP1 POP PUSH1 0x0 PUSH2 0xC50 DUP3 PUSH2 0x1F77 JUMP JUMPDEST SWAP1 POP PUSH1 0x3 DUP1 DUP2 GT ISZERO PUSH2 0xC65 JUMPI PUSH2 0xC64 PUSH2 0x40B4 JUMP JUMPDEST JUMPDEST DUP2 PUSH1 0x3 DUP2 GT ISZERO PUSH2 0xC78 JUMPI PUSH2 0xC77 PUSH2 0x40B4 JUMP JUMPDEST JUMPDEST EQ DUP1 PUSH2 0xC89 JUMPI POP PUSH2 0xC88 DUP3 PUSH2 0x25E7 JUMP JUMPDEST JUMPDEST PUSH2 0xCC8 JUMPI PUSH1 0x40 MLOAD PUSH32 0x8C379A000000000000000000000000000000000000000000000000000000000 DUP2 MSTORE PUSH1 0x4 ADD PUSH2 0xCBF SWAP1 PUSH2 0x3B79 JUMP JUMPDEST PUSH1 0x40 MLOAD DUP1 SWAP2 SUB SWAP1 REVERT JUMPDEST DUP5 DUP3 PUSH1 0x1 ADD DUP2 SWAP1 SSTORE POP DUP4 DUP3 PUSH1 0x2 ADD PUSH1 0x0 PUSH2 0x100 EXP DUP2 SLOAD DUP2 PUSH1 0xFF MUL NOT AND SWAP1 DUP4 ISZERO ISZERO MUL OR SWAP1 SSTORE POP PUSH12 0x3FFFFFFFFFFFFFFFFFFFFFF DUP3 PUSH1 0x5 ADD DUP2 SWAP1 SSTORE POP PUSH1 0xC DUP3 PUSH1 0x9 ADD PUSH1 0x0 PUSH2 0x100 EXP DUP2 SLOAD DUP2 PUSH1 0xFF MUL NOT AND SWAP1 DUP4 PUSH1 0xFF AND MUL OR SWAP1 SSTORE POP PUSH1 0x5A DUP3 PUSH1 0x6 ADD DUP2 SWAP1 SSTORE POP POP POP POP POP POP JUMP JUMPDEST PUSH1 0x0 DUP1 ORIGIN SWAP1 POP PUSH1 0x0 DUP1 PUSH1 0x0 DUP4 PUSH20 0xFFFFFFFFFFFFFFFFFFFFFFFFFFFFFFFFFFFFFFFF AND PUSH20 0xFFFFFFFFFFFFFFFFFFFFFFFFFFFFFFFFFFFFFFFF AND DUP2 MSTORE PUSH1 0x20 ADD SWAP1 DUP2 MSTORE PUSH1 0x20 ADD PUSH1 0x0 KECCAK256 SWAP1 POP PUSH1 0x0 PUSH2 0xD84 DUP3 PUSH2 0x1F77 JUMP JUMPDEST SWAP1 POP PUSH1 0x0 PUSH1 0x3 DUP2 GT ISZERO PUSH2 0xD9A JUMPI PUSH2 0xD99 PUSH2 0x40B4 JUMP JUMPDEST JUMPDEST DUP2 PUSH1 0x3 DUP2 GT ISZERO PUSH2 0xDAD JUMPI PUSH2 0xDAC PUSH2 0x40B4 JUMP JUMPDEST JUMPDEST EQ DUP1 PUSH2 0xDDD JUMPI POP PUSH1 0x1 PUSH1 0x3 DUP2 GT ISZERO PUSH2 0xDC8 JUMPI PUSH2 0xDC7 PUSH2 0x40B4 JUMP JUMPDEST JUMPDEST DUP2 PUSH1 0x3 DUP2 GT ISZERO PUSH2 0xDDB JUMPI PUSH2 0xDDA PUSH2 0x40B4 JUMP JUMPDEST JUMPDEST EQ JUMPDEST PUSH2 0xE1C JUMPI PUSH1 0x40 MLOAD PUSH32 0x8C379A000000000000000000000000000000000000000000000000000000000 DUP2 MSTORE PUSH1 0x4 ADD PUSH2 0xE13 SWAP1 PUSH2 0x3B19 JUMP JUMPDEST PUSH1 0x40 MLOAD DUP1 SWAP2 SUB SWAP1 REVERT JUMPDEST PUSH1 0x0 DUP3 PUSH1 0x5 ADD SLOAD SWAP1 POP PUSH1 0x0 DUP4 PUSH1 0x6 ADD SLOAD PUSH2 0xE4D DUP7 PUSH20 0xFFFFFFFFFFFFFFFFFFFFFFFFFFFFFFFFFFFFFFFF AND DUP10 XOR PUSH2 0x25FA JUMP JUMPDEST PUSH2 0xE57 SWAP2 SWAP1 PUSH2 0x3FF6 JUMP JUMPDEST SWAP1 POP PUSH1 0x0 DUP1 JUMPDEST PUSH1 0x5A DUP2 LT ISZERO PUSH2 0xF5B JUMPI PUSH1 0x0 DUP2 PUSH1 0x1 SWAP1 SHL DUP6 AND GT ISZERO PUSH2 0xF48 JUMPI DUP3 DUP3 EQ ISZERO PUSH2 0xF39 JUMPI PUSH1 0x0 DUP2 PUSH1 0x1 SWAP1 SHL NOT SWAP1 POP DUP7 PUSH1 0x6 ADD PUSH1 0x0 DUP2 SLOAD DUP1 SWAP3 SWAP2 SWAP1 PUSH2 0xE9C SWAP1 PUSH2 0x3F25 JUMP JUMPDEST SWAP2 SWAP1 POP SSTORE POP DUP1 DUP6 AND DUP8 PUSH1 0x5 ADD DUP2 SWAP1 SSTORE POP PUSH1 0x0 DUP8 PUSH1 0x5 ADD SLOAD EQ ISZERO PUSH2 0xEC3 JUMPI TIMESTAMP DUP8 PUSH1 0x0 ADD DUP2 SWAP1 SSTORE POP JUMPDEST DUP8 PUSH20 0xFFFFFFFFFFFFFFFFFFFFFFFFFFFFFFFFFFFFFFFF AND PUSH32 0x9AD6BA544F4421420F46453514FD3BC36C72E3973470C131C0AAD4E4E188C824 PUSH1 0x1 DUP5 PUSH2 0xF08 SWAP2 SWAP1 PUSH2 0x3CF0 JUMP JUMPDEST PUSH1 0x40 MLOAD PUSH2 0xF15 SWAP2 SWAP1 PUSH2 0x3BD4 JUMP JUMPDEST PUSH1 0x40 MLOAD DUP1 SWAP2 SUB SWAP1 LOG2 PUSH1 0x1 DUP3 PUSH2 0xF2A SWAP2 SWAP1 PUSH2 0x3CF0 JUMP JUMPDEST SWAP9 POP POP POP POP POP POP POP POP POP PUSH2 0xF67 JUMP JUMPDEST DUP2 DUP1 PUSH2 0xF44 SWAP1 PUSH2 0x3F79 JUMP JUMPDEST SWAP3 POP POP JUMPDEST DUP1 DUP1 PUSH2 0xF53 SWAP1 PUSH2 0x3F79 JUMP JUMPDEST SWAP2 POP POP PUSH2 0xE5D JUMP JUMPDEST POP PUSH1 0x0 SWAP7 POP POP POP POP POP POP POP JUMPDEST SWAP2 SWAP1 POP JUMP JUMPDEST PUSH1 0x0 DUP1 PUSH1 0x0 DUP5 PUSH20 0xFFFFFFFFFFFFFFFFFFFFFFFFFFFFFFFFFFFFFFFF AND PUSH20 0xFFFFFFFFFFFFFFFFFFFFFFFFFFFFFFFFFFFFFFFF AND DUP2 MSTORE PUSH1 0x20 ADD SWAP1 DUP2 MSTORE PUSH1 0x20 ADD PUSH1 0x0 KECCAK256 SWAP1 POP PUSH1 0x0 PUSH2 0xFB9 DUP3 PUSH2 0x1F77 JUMP JUMPDEST SWAP1 POP PUSH1 0x0 PUSH1 0x3 DUP2 GT ISZERO PUSH2 0xFCF JUMPI PUSH2 0xFCE PUSH2 0x40B4 JUMP JUMPDEST JUMPDEST DUP2 PUSH1 0x3 DUP2 GT ISZERO PUSH2 0xFE2 JUMPI PUSH2 0xFE1 PUSH2 0x40B4 JUMP JUMPDEST JUMPDEST EQ PUSH2 0x1022 JUMPI PUSH1 0x40 MLOAD PUSH32 0x8C379A000000000000000000000000000000000000000000000000000000000 DUP2 MSTORE PUSH1 0x4 ADD PUSH2 0x1019 SWAP1 PUSH2 0x3AD9 JUMP JUMPDEST PUSH1 0x40 MLOAD DUP1 SWAP2 SUB SWAP1 REVERT JUMPDEST DUP2 PUSH1 0x1 ADD SLOAD CALLVALUE EQ PUSH2 0x1068 JUMPI PUSH1 0x40 MLOAD PUSH32 0x8C379A000000000000000000000000000000000000000000000000000000000 DUP2 MSTORE PUSH1 0x4 ADD PUSH2 0x105F SWAP1 PUSH2 0x3B99 JUMP JUMPDEST PUSH1 0x40 MLOAD DUP1 SWAP2 SUB SWAP1 REVERT JUMPDEST PUSH1 0x0 ORIGIN SWAP1 POP PUSH1 0x0 DUP4 PUSH1 0x3 ADD PUSH1 0x0 DUP4 PUSH20 0xFFFFFFFFFFFFFFFFFFFFFFFFFFFFFFFFFFFFFFFF AND PUSH20 0xFFFFFFFFFFFFFFFFFFFFFFFFFFFFFFFFFFFFFFFF AND DUP2 MSTORE PUSH1 0x20 ADD SWAP1 DUP2 MSTORE PUSH1 0x20 ADD PUSH1 0x0 KECCAK256 SWAP1 POP PUSH1 0x0 ISZERO ISZERO DUP2 PUSH1 0x3 ADD PUSH1 0x0 SWAP1 SLOAD SWAP1 PUSH2 0x100 EXP SWAP1 DIV PUSH1 0xFF AND ISZERO ISZERO EQ PUSH2 0x110A JUMPI PUSH1 0x40 MLOAD PUSH32 0x8C379A000000000000000000000000000000000000000000000000000000000 DUP2 MSTORE PUSH1 0x4 ADD PUSH2 0x1101 SWAP1 PUSH2 0x3A99 JUMP JUMPDEST PUSH1 0x40 MLOAD DUP1 SWAP2 SUB SWAP1 REVERT JUMPDEST DUP4 PUSH1 0x4 ADD DUP3 SWAP1 DUP1 PUSH1 0x1 DUP2 SLOAD ADD DUP1 DUP3 SSTORE DUP1 SWAP2 POP POP PUSH1 0x1 SWAP1 SUB SWAP1 PUSH1 0x0 MSTORE PUSH1 0x20 PUSH1 0x0 KECCAK256 ADD PUSH1 0x0 SWAP1 SWAP2 SWAP1 SWAP2 SWAP1 SWAP2 PUSH2 0x100 EXP DUP2 SLOAD DUP2 PUSH20 0xFFFFFFFFFFFFFFFFFFFFFFFFFFFFFFFFFFFFFFFF MUL NOT AND SWAP1 DUP4 PUSH20 0xFFFFFFFFFFFFFFFFFFFFFFFFFFFFFFFFFFFFFFFF AND MUL OR SWAP1 SSTORE POP CALLVALUE DUP5 PUSH1 0x7 ADD PUSH1 0x0 DUP3 DUP3 SLOAD PUSH2 0x1183 SWAP2 SWAP1 PUSH2 0x3CF0 JUMP JUMPDEST SWAP3 POP POP DUP2 SWAP1 SSTORE POP PUSH1 0x0 PUSH2 0x119E DUP6 PUSH1 0x4 ADD DUP1 SLOAD SWAP1 POP DUP8 XOR PUSH2 0x25FA JUMP JUMPDEST SWAP1 POP PUSH2 0x11A8 PUSH2 0x3348 JUMP JUMPDEST PUSH2 0x11B0 PUSH2 0x3348 JUMP JUMPDEST PUSH2 0x11B8 PUSH2 0x3348 JUMP JUMPDEST PUSH2 0x11C1 DUP5 PUSH2 0x262F JUMP JUMPDEST DUP1 SWAP6 POP DUP2 SWAP5 POP POP POP PUSH2 0x11D2 DUP5 PUSH2 0x262F JUMP JUMPDEST DUP1 SWAP6 POP DUP2 SWAP4 POP POP POP PUSH2 0x11E3 DUP5 PUSH2 0x262F JUMP JUMPDEST DUP1 SWAP6 POP DUP2 SWAP3 POP POP POP PUSH2 0x11F3 PUSH2 0x336A JUMP JUMPDEST PUSH2 0x11FB PUSH2 0x338D JUMP JUMPDEST PUSH1 0x0 JUMPDEST PUSH1 0x5 DUP2 LT ISZERO PUSH2 0x13F7 JUMPI DUP3 DUP7 DUP3 PUSH1 0x5 DUP2 LT PUSH2 0x121B JUMPI PUSH2 0x121A PUSH2 0x40E3 JUMP JUMPDEST JUMPDEST PUSH1 0x20 MUL ADD MLOAD PUSH1 0xFF AND PUSH1 0x9 DUP2 LT PUSH2 0x1234 JUMPI PUSH2 0x1233 PUSH2 0x40E3 JUMP JUMPDEST JUMPDEST PUSH1 0x20 MUL ADD DUP1 MLOAD DUP1 SWAP2 SWAP1 PUSH2 0x1246 SWAP1 PUSH2 0x3FC2 JUMP JUMPDEST PUSH1 0xFF AND PUSH1 0xFF AND DUP2 MSTORE POP POP DUP3 DUP6 DUP3 PUSH1 0x5 DUP2 LT PUSH2 0x1264 JUMPI PUSH2 0x1263 PUSH2 0x40E3 JUMP JUMPDEST JUMPDEST PUSH1 0x20 MUL ADD MLOAD PUSH1 0xFF AND PUSH1 0x9 DUP2 LT PUSH2 0x127D JUMPI PUSH2 0x127C PUSH2 0x40E3 JUMP JUMPDEST JUMPDEST PUSH1 0x20 MUL ADD DUP1 MLOAD DUP1 SWAP2 SWAP1 PUSH2 0x128F SWAP1 PUSH2 0x3FC2 JUMP JUMPDEST PUSH1 0xFF AND PUSH1 0xFF AND DUP2 MSTORE POP POP DUP3 DUP5 DUP3 PUSH1 0x5 DUP2 LT PUSH2 0x12AD JUMPI PUSH2 0x12AC PUSH2 0x40E3 JUMP JUMPDEST JUMPDEST PUSH1 0x20 MUL ADD MLOAD PUSH1 0xFF AND PUSH1 0x9 DUP2 LT PUSH2 0x12C6 JUMPI PUSH2 0x12C5 PUSH2 0x40E3 JUMP JUMPDEST JUMPDEST PUSH1 0x20 MUL ADD DUP1 MLOAD DUP1 SWAP2 SWAP1 PUSH2 0x12D8 SWAP1 PUSH2 0x3FC2 JUMP JUMPDEST PUSH1 0xFF AND PUSH1 0xFF AND DUP2 MSTORE POP POP PUSH1 0x1 DUP3 DUP8 DUP4 PUSH1 0x5 DUP2 LT PUSH2 0x12F8 JUMPI PUSH2 0x12F7 PUSH2 0x40E3 JUMP JUMPDEST JUMPDEST PUSH1 0x20 MUL ADD MLOAD PUSH1 0xFF AND PUSH1 0x9 DUP2 LT PUSH2 0x1311 JUMPI PUSH2 0x1310 PUSH2 0x40E3 JUMP JUMPDEST JUMPDEST PUSH1 0x20 MUL ADD MLOAD PUSH1 0x0 PUSH1 0x3 DUP2 LT PUSH2 0x1329 JUMPI PUSH2 0x1328 PUSH2 0x40E3 JUMP JUMPDEST JUMPDEST PUSH1 0x20 MUL ADD SWAP1 ISZERO ISZERO SWAP1 DUP2 ISZERO ISZERO DUP2 MSTORE POP POP PUSH1 0x1 DUP3 DUP7 DUP4 PUSH1 0x5 DUP2 LT PUSH2 0x134E JUMPI PUSH2 0x134D PUSH2 0x40E3 JUMP JUMPDEST JUMPDEST PUSH1 0x20 MUL ADD MLOAD PUSH1 0xFF AND PUSH1 0x9 DUP2 LT PUSH2 0x1367 JUMPI PUSH2 0x1366 PUSH2 0x40E3 JUMP JUMPDEST JUMPDEST PUSH1 0x20 MUL ADD MLOAD PUSH1 0x1 PUSH1 0x3 DUP2 LT PUSH2 0x137F JUMPI PUSH2 0x137E PUSH2 0x40E3 JUMP JUMPDEST JUMPDEST PUSH1 0x20 MUL ADD SWAP1 ISZERO ISZERO SWAP1 DUP2 ISZERO ISZERO DUP2 MSTORE POP POP PUSH1 0x1 DUP3 DUP6 DUP4 PUSH1 0x5 DUP2 LT PUSH2 0x13A4 JUMPI PUSH2 0x13A3 PUSH2 0x40E3 JUMP JUMPDEST JUMPDEST PUSH1 0x20 MUL ADD MLOAD PUSH1 0xFF AND PUSH1 0x9 DUP2 LT PUSH2 0x13BD JUMPI PUSH2 0x13BC PUSH2 0x40E3 JUMP JUMPDEST JUMPDEST PUSH1 0x20 MUL ADD MLOAD PUSH1 0x2 PUSH1 0x3 DUP2 LT PUSH2 0x13D5 JUMPI PUSH2 0x13D4 PUSH2 0x40E3 JUMP JUMPDEST JUMPDEST PUSH1 0x20 MUL ADD SWAP1 ISZERO ISZERO SWAP1 DUP2 ISZERO ISZERO DUP2 MSTORE POP POP DUP1 DUP1 PUSH2 0x13EF SWAP1 PUSH2 0x3F79 JUMP JUMPDEST SWAP2 POP POP PUSH2 0x11FE JUMP JUMPDEST POP PUSH1 0x0 JUMPDEST PUSH1 0x9 DUP2 LT ISZERO PUSH2 0x1443 JUMPI PUSH1 0x3 DUP4 DUP3 PUSH1 0x9 DUP2 LT PUSH2 0x1419 JUMPI PUSH2 0x1418 PUSH2 0x40E3 JUMP JUMPDEST JUMPDEST PUSH1 0x20 MUL ADD MLOAD PUSH1 0xFF AND GT ISZERO PUSH2 0x1430 JUMPI PUSH2 0x142F PUSH2 0x4027 JUMP JUMPDEST JUMPDEST DUP1 DUP1 PUSH2 0x143B SWAP1 PUSH2 0x3F79 JUMP JUMPDEST SWAP2 POP POP PUSH2 0x13FB JUMP JUMPDEST POP PUSH2 0x144C PUSH2 0x33BB JUMP JUMPDEST PUSH2 0x1454 PUSH2 0x33DD JUMP JUMPDEST PUSH1 0x0 JUMPDEST PUSH1 0x9 DUP2 PUSH1 0xFF AND LT ISZERO PUSH2 0x15CB JUMPI PUSH2 0x1488 DUP10 DUP3 DUP8 DUP5 PUSH1 0xFF AND PUSH1 0x9 DUP2 LT PUSH2 0x147E JUMPI PUSH2 0x147D PUSH2 0x40E3 JUMP JUMPDEST JUMPDEST PUSH1 0x20 MUL ADD MLOAD PUSH2 0x278D JUMP JUMPDEST DUP1 SWAP11 POP DUP2 SWAP5 POP POP POP PUSH1 0x0 PUSH2 0x14B9 DUP5 DUP8 DUP5 PUSH1 0xFF AND PUSH1 0x9 DUP2 LT PUSH2 0x14AC JUMPI PUSH2 0x14AB PUSH2 0x40E3 JUMP JUMPDEST JUMPDEST PUSH1 0x20 MUL ADD MLOAD PUSH1 0xFF AND PUSH2 0x2BFE JUMP JUMPDEST SWAP1 POP PUSH1 0x0 DUP1 JUMPDEST DUP8 DUP5 PUSH1 0xFF AND PUSH1 0x9 DUP2 LT PUSH2 0x14D5 JUMPI PUSH2 0x14D4 PUSH2 0x40E3 JUMP JUMPDEST JUMPDEST PUSH1 0x20 MUL ADD MLOAD PUSH1 0xFF AND DUP3 PUSH1 0xFF AND LT DUP1 ISZERO PUSH2 0x14F1 JUMPI POP PUSH1 0x3 DUP2 PUSH1 0xFF AND LT JUMPDEST ISZERO PUSH2 0x15B5 JUMPI PUSH1 0x1 ISZERO ISZERO DUP8 DUP6 PUSH1 0xFF AND PUSH1 0x9 DUP2 LT PUSH2 0x1510 JUMPI PUSH2 0x150F PUSH2 0x40E3 JUMP JUMPDEST JUMPDEST PUSH1 0x20 MUL ADD MLOAD DUP3 PUSH1 0xFF AND PUSH1 0x3 DUP2 LT PUSH2 0x152A JUMPI PUSH2 0x1529 PUSH2 0x40E3 JUMP JUMPDEST JUMPDEST PUSH1 0x20 MUL ADD MLOAD ISZERO ISZERO EQ ISZERO PUSH2 0x15A2 JUMPI PUSH1 0x1 DUP4 DUP4 PUSH1 0xFF AND PUSH1 0x3 DUP2 LT PUSH2 0x154F JUMPI PUSH2 0x154E PUSH2 0x40E3 JUMP JUMPDEST JUMPDEST PUSH1 0x20 MUL ADD MLOAD PUSH2 0x155E SWAP2 SWAP1 PUSH2 0x3E77 JUMP JUMPDEST PUSH1 0xFF AND PUSH1 0x1 SWAP1 SHL DUP6 DUP3 PUSH1 0xFF AND PUSH1 0x3 DUP2 LT PUSH2 0x157B JUMPI PUSH2 0x157A PUSH2 0x40E3 JUMP JUMPDEST JUMPDEST PUSH1 0x20 MUL ADD DUP2 DUP2 MLOAD PUSH2 0x158C SWAP2 SWAP1 PUSH2 0x3CF0 JUMP JUMPDEST SWAP2 POP DUP2 DUP2 MSTORE POP POP DUP2 DUP1 PUSH2 0x159E SWAP1 PUSH2 0x3FC2 JUMP JUMPDEST SWAP3 POP POP JUMPDEST DUP1 DUP1 PUSH2 0x15AD SWAP1 PUSH2 0x3FC2 JUMP JUMPDEST SWAP2 POP POP PUSH2 0x14BF JUMP JUMPDEST POP POP POP DUP1 DUP1 PUSH2 0x15C3 SWAP1 PUSH2 0x3FC2 JUMP JUMPDEST SWAP2 POP POP PUSH2 0x1457 JUMP JUMPDEST POP PUSH1 0x0 JUMPDEST PUSH1 0x3 DUP2 PUSH1 0xFF AND LT ISZERO PUSH2 0x1627 JUMPI DUP2 DUP2 PUSH1 0xFF AND PUSH1 0x3 DUP2 LT PUSH2 0x15F1 JUMPI PUSH2 0x15F0 PUSH2 0x40E3 JUMP JUMPDEST JUMPDEST PUSH1 0x20 MUL ADD MLOAD DUP11 PUSH1 0x0 ADD DUP3 PUSH1 0xFF AND PUSH1 0x3 DUP2 LT PUSH2 0x160F JUMPI PUSH2 0x160E PUSH2 0x40E3 JUMP JUMPDEST JUMPDEST ADD DUP2 SWAP1 SSTORE POP DUP1 DUP1 PUSH2 0x161F SWAP1 PUSH2 0x3FC2 JUMP JUMPDEST SWAP2 POP POP PUSH2 0x15CF JUMP JUMPDEST POP PUSH1 0x1 DUP10 PUSH1 0x3 ADD PUSH1 0x0 PUSH2 0x100 EXP DUP2 SLOAD DUP2 PUSH1 0xFF MUL NOT AND SWAP1 DUP4 ISZERO ISZERO MUL OR SWAP1 SSTORE POP DUP14 PUSH20 0xFFFFFFFFFFFFFFFFFFFFFFFFFFFFFFFFFFFFFFFF AND PUSH32 0x22949FB111628ECD7B4062E944109804B256656BC00FC690AF62B9A6105154D3 PUSH1 0x40 MLOAD PUSH1 0x40 MLOAD DUP1 SWAP2 SUB SWAP1 LOG2 POP POP POP POP POP POP POP POP POP POP POP POP POP POP JUMP JUMPDEST PUSH1 0x0 ORIGIN SWAP1 POP PUSH1 0x0 DUP1 PUSH1 0x0 DUP4 PUSH20 0xFFFFFFFFFFFFFFFFFFFFFFFFFFFFFFFFFFFFFFFF AND PUSH20 0xFFFFFFFFFFFFFFFFFFFFFFFFFFFFFFFFFFFFFFFF AND DUP2 MSTORE PUSH1 0x20 ADD SWAP1 DUP2 MSTORE PUSH1 0x20 ADD PUSH1 0x0 KECCAK256 SWAP1 POP PUSH1 0x0 PUSH2 0x16EA DUP3 PUSH2 0x1F77 JUMP JUMPDEST SWAP1 POP PUSH1 0x2 PUSH1 0x3 DUP2 GT ISZERO PUSH2 0x1700 JUMPI PUSH2 0x16FF PUSH2 0x40B4 JUMP JUMPDEST JUMPDEST DUP2 PUSH1 0x3 DUP2 GT ISZERO PUSH2 0x1713 JUMPI PUSH2 0x1712 PUSH2 0x40B4 JUMP JUMPDEST JUMPDEST EQ PUSH2 0x1753 JUMPI PUSH1 0x40 MLOAD PUSH32 0x8C379A000000000000000000000000000000000000000000000000000000000 DUP2 MSTORE PUSH1 0x4 ADD PUSH2 0x174A SWAP1 PUSH2 0x3B39 JUMP JUMPDEST PUSH1 0x40 MLOAD DUP1 SWAP2 SUB SWAP1 REVERT JUMPDEST PUSH1 0x0 DUP3 PUSH1 0x7 ADD SLOAD SWAP1 POP PUSH2 0x1764 PUSH2 0x33FF JUMP JUMPDEST PUSH1 0x0 JUMPDEST PUSH1 0xB DUP1 DUP2 GT ISZERO PUSH2 0x177A JUMPI PUSH2 0x1779 PUSH2 0x40B4 JUMP JUMPDEST JUMPDEST PUSH1 0xFF AND DUP2 PUSH1 0xFF AND GT PUSH2 0x1A2E JUMPI PUSH1 0x0 DUP2 PUSH1 0xFF AND PUSH1 0xB DUP2 GT ISZERO PUSH2 0x179E JUMPI PUSH2 0x179D PUSH2 0x40B4 JUMP JUMPDEST JUMPDEST SWAP1 POP PUSH1 0x0 DUP7 PUSH1 0x8 ADD PUSH1 0x0 DUP5 PUSH1 0xFF AND PUSH1 0xFF AND DUP2 MSTORE PUSH1 0x20 ADD SWAP1 DUP2 MSTORE PUSH1 0x20 ADD PUSH1 0x0 KECCAK256 PUSH1 0x0 SWAP1 SLOAD SWAP1 PUSH2 0x100 EXP SWAP1 DIV PUSH20 0xFFFFFFFFFFFFFFFFFFFFFFFFFFFFFFFFFFFFFFFF AND SWAP1 POP PUSH1 0x0 DUP8 PUSH1 0x8 ADD PUSH1 0x0 DUP6 PUSH1 0xFF AND PUSH1 0xFF AND DUP2 MSTORE PUSH1 0x20 ADD SWAP1 DUP2 MSTORE PUSH1 0x20 ADD PUSH1 0x0 KECCAK256 PUSH1 0x0 PUSH2 0x100 EXP DUP2 SLOAD DUP2 PUSH20 0xFFFFFFFFFFFFFFFFFFFFFFFFFFFFFFFFFFFFFFFF MUL NOT AND SWAP1 DUP4 PUSH20 0xFFFFFFFFFFFFFFFFFFFFFFFFFFFFFFFFFFFFFFFF AND MUL OR SWAP1 SSTORE POP PUSH1 0x0 PUSH20 0xFFFFFFFFFFFFFFFFFFFFFFFFFFFFFFFFFFFFFFFF AND DUP2 PUSH20 0xFFFFFFFFFFFFFFFFFFFFFFFFFFFFFFFFFFFFFFFF AND EQ PUSH2 0x1A19 JUMPI PUSH1 0x0 PUSH2 0x187A DUP4 PUSH2 0x1DA1 JUMP JUMPDEST SWAP1 POP PUSH1 0x0 PUSH1 0x64 DUP3 PUSH1 0xFF AND DUP11 PUSH1 0x7 ADD SLOAD PUSH2 0x1893 SWAP2 SWAP1 PUSH2 0x3DAE JUMP JUMPDEST PUSH2 0x189D SWAP2 SWAP1 PUSH2 0x3D7D JUMP JUMPDEST SWAP1 POP DUP1 DUP8 PUSH2 0x18AB SWAP2 SWAP1 PUSH2 0x3E43 JUMP JUMPDEST SWAP7 POP PUSH1 0x0 JUMPDEST PUSH1 0xC DUP2 LT ISZERO PUSH2 0x1A15 JUMPI PUSH1 0x0 PUSH20 0xFFFFFFFFFFFFFFFFFFFFFFFFFFFFFFFFFFFFFFFF AND DUP8 DUP3 PUSH1 0xC DUP2 LT PUSH2 0x18E4 JUMPI PUSH2 0x18E3 PUSH2 0x40E3 JUMP JUMPDEST JUMPDEST PUSH1 0x20 MUL ADD MLOAD PUSH1 0x0 ADD MLOAD PUSH20 0xFFFFFFFFFFFFFFFFFFFFFFFFFFFFFFFFFFFFFFFF AND EQ ISZERO PUSH2 0x197E JUMPI DUP4 DUP8 DUP3 PUSH1 0xC DUP2 LT PUSH2 0x191D JUMPI PUSH2 0x191C PUSH2 0x40E3 JUMP JUMPDEST JUMPDEST PUSH1 0x20 MUL ADD MLOAD PUSH1 0x0 ADD SWAP1 PUSH20 0xFFFFFFFFFFFFFFFFFFFFFFFFFFFFFFFFFFFFFFFF AND SWAP1 DUP2 PUSH20 0xFFFFFFFFFFFFFFFFFFFFFFFFFFFFFFFFFFFFFFFF AND DUP2 MSTORE POP POP DUP2 DUP8 DUP3 PUSH1 0xC DUP2 LT PUSH2 0x196C JUMPI PUSH2 0x196B PUSH2 0x40E3 JUMP JUMPDEST JUMPDEST PUSH1 0x20 MUL ADD MLOAD PUSH1 0x20 ADD DUP2 DUP2 MSTORE POP POP PUSH2 0x1A15 JUMP JUMPDEST DUP4 PUSH20 0xFFFFFFFFFFFFFFFFFFFFFFFFFFFFFFFFFFFFFFFF AND DUP8 DUP3 PUSH1 0xC DUP2 LT PUSH2 0x19A8 JUMPI PUSH2 0x19A7 PUSH2 0x40E3 JUMP JUMPDEST JUMPDEST PUSH1 0x20 MUL ADD MLOAD PUSH1 0x0 ADD MLOAD PUSH20 0xFFFFFFFFFFFFFFFFFFFFFFFFFFFFFFFFFFFFFFFF AND EQ ISZERO PUSH2 0x1A02 JUMPI DUP2 DUP8 DUP3 PUSH1 0xC DUP2 LT PUSH2 0x19E1 JUMPI PUSH2 0x19E0 PUSH2 0x40E3 JUMP JUMPDEST JUMPDEST PUSH1 0x20 MUL ADD MLOAD PUSH1 0x20 ADD DUP2 DUP2 MLOAD PUSH2 0x19F6 SWAP2 SWAP1 PUSH2 0x3CF0 JUMP JUMPDEST SWAP2 POP DUP2 DUP2 MSTORE POP POP PUSH2 0x1A15 JUMP JUMPDEST DUP1 DUP1 PUSH2 0x1A0D SWAP1 PUSH2 0x3F79 JUMP JUMPDEST SWAP2 POP POP PUSH2 0x18B0 JUMP JUMPDEST POP POP POP JUMPDEST POP POP DUP1 DUP1 PUSH2 0x1A26 SWAP1 PUSH2 0x3FC2 JUMP JUMPDEST SWAP2 POP POP PUSH2 0x1767 JUMP JUMPDEST POP PUSH1 0x0 JUMPDEST PUSH1 0xC DUP2 LT ISZERO PUSH2 0x1B20 JUMPI PUSH1 0x0 PUSH20 0xFFFFFFFFFFFFFFFFFFFFFFFFFFFFFFFFFFFFFFFF AND DUP3 DUP3 PUSH1 0xC DUP2 LT PUSH2 0x1A66 JUMPI PUSH2 0x1A65 PUSH2 0x40E3 JUMP JUMPDEST JUMPDEST PUSH1 0x20 MUL ADD MLOAD PUSH1 0x0 ADD MLOAD PUSH20 0xFFFFFFFFFFFFFFFFFFFFFFFFFFFFFFFFFFFFFFFF AND EQ ISZERO PUSH2 0x1A90 JUMPI PUSH2 0x1B20 JUMP JUMPDEST DUP2 DUP2 PUSH1 0xC DUP2 LT PUSH2 0x1AA3 JUMPI PUSH2 0x1AA2 PUSH2 0x40E3 JUMP JUMPDEST JUMPDEST PUSH1 0x20 MUL ADD MLOAD PUSH1 0x0 ADD MLOAD PUSH20 0xFFFFFFFFFFFFFFFFFFFFFFFFFFFFFFFFFFFFFFFF AND PUSH2 0x8FC DUP4 DUP4 PUSH1 0xC DUP2 LT PUSH2 0x1AD8 JUMPI PUSH2 0x1AD7 PUSH2 0x40E3 JUMP JUMPDEST JUMPDEST PUSH1 0x20 MUL ADD MLOAD PUSH1 0x20 ADD MLOAD SWAP1 DUP2 ISZERO MUL SWAP1 PUSH1 0x40 MLOAD PUSH1 0x0 PUSH1 0x40 MLOAD DUP1 DUP4 SUB DUP2 DUP6 DUP9 DUP9 CALL SWAP4 POP POP POP POP ISZERO DUP1 ISZERO PUSH2 0x1B0C JUMPI RETURNDATASIZE PUSH1 0x0 DUP1 RETURNDATACOPY RETURNDATASIZE PUSH1 0x0 REVERT JUMPDEST POP DUP1 DUP1 PUSH2 0x1B18 SWAP1 PUSH2 0x3F79 JUMP JUMPDEST SWAP2 POP POP PUSH2 0x1A32 JUMP JUMPDEST POP PUSH1 0x0 PUSH1 0x64 PUSH1 0x3 PUSH1 0xFF AND DUP7 PUSH1 0x7 ADD SLOAD PUSH2 0x1B39 SWAP2 SWAP1 PUSH2 0x3DAE JUMP JUMPDEST PUSH2 0x1B43 SWAP2 SWAP1 PUSH2 0x3D7D JUMP JUMPDEST SWAP1 POP DUP1 DUP4 PUSH2 0x1B51 SWAP2 SWAP1 PUSH2 0x3E43 JUMP JUMPDEST SWAP3 POP DUP6 PUSH20 0xFFFFFFFFFFFFFFFFFFFFFFFFFFFFFFFFFFFFFFFF AND PUSH2 0x8FC DUP3 SWAP1 DUP2 ISZERO MUL SWAP1 PUSH1 0x40 MLOAD PUSH1 0x0 PUSH1 0x40 MLOAD DUP1 DUP4 SUB DUP2 DUP6 DUP9 DUP9 CALL SWAP4 POP POP POP POP ISZERO DUP1 ISZERO PUSH2 0x1B99 JUMPI RETURNDATASIZE PUSH1 0x0 DUP1 RETURNDATACOPY RETURNDATASIZE PUSH1 0x0 REVERT JUMPDEST POP PUSH20 0x5C2E9BAE4FE4E7710A2F1F83C521DB632F66F242 PUSH20 0xFFFFFFFFFFFFFFFFFFFFFFFFFFFFFFFFFFFFFFFF AND PUSH2 0x8FC DUP5 SWAP1 DUP2 ISZERO MUL SWAP1 PUSH1 0x40 MLOAD PUSH1 0x0 PUSH1 0x40 MLOAD DUP1 DUP4 SUB DUP2 DUP6 DUP9 DUP9 CALL SWAP4 POP POP POP POP ISZERO DUP1 ISZERO PUSH2 0x1BF4 JUMPI RETURNDATASIZE PUSH1 0x0 DUP1 RETURNDATACOPY RETURNDATASIZE PUSH1 0x0 REVERT JUMPDEST POP PUSH1 0x0 JUMPDEST DUP6 PUSH1 0x4 ADD DUP1 SLOAD SWAP1 POP DUP2 LT ISZERO PUSH2 0x1CBD JUMPI PUSH1 0x0 DUP7 PUSH1 0x4 ADD DUP3 DUP2 SLOAD DUP2 LT PUSH2 0x1C1F JUMPI PUSH2 0x1C1E PUSH2 0x40E3 JUMP JUMPDEST JUMPDEST SWAP1 PUSH1 0x0 MSTORE PUSH1 0x20 PUSH1 0x0 KECCAK256 ADD PUSH1 0x0 SWAP1 SLOAD SWAP1 PUSH2 0x100 EXP SWAP1 DIV PUSH20 0xFFFFFFFFFFFFFFFFFFFFFFFFFFFFFFFFFFFFFFFF AND SWAP1 POP PUSH1 0x0 DUP8 PUSH1 0x3 ADD PUSH1 0x0 DUP4 PUSH20 0xFFFFFFFFFFFFFFFFFFFFFFFFFFFFFFFFFFFFFFFF AND PUSH20 0xFFFFFFFFFFFFFFFFFFFFFFFFFFFFFFFFFFFFFFFF AND DUP2 MSTORE PUSH1 0x20 ADD SWAP1 DUP2 MSTORE PUSH1 0x20 ADD PUSH1 0x0 KECCAK256 PUSH1 0x3 ADD PUSH1 0x0 PUSH2 0x100 EXP DUP2 SLOAD DUP2 PUSH1 0xFF MUL NOT AND SWAP1 DUP4 ISZERO ISZERO MUL OR SWAP1 SSTORE POP POP DUP1 DUP1 PUSH2 0x1CB5 SWAP1 PUSH2 0x3F79 JUMP JUMPDEST SWAP2 POP POP PUSH2 0x1BF8 JUMP JUMPDEST POP DUP5 PUSH1 0x4 ADD PUSH1 0x0 PUSH2 0x1CCE SWAP2 SWAP1 PUSH2 0x342D JUMP JUMPDEST PUSH1 0x0 DUP6 PUSH1 0x1 ADD DUP2 SWAP1 SSTORE POP PUSH1 0x0 DUP6 PUSH1 0x5 ADD DUP2 SWAP1 SSTORE POP PUSH1 0x0 DUP6 PUSH1 0x6 ADD DUP2 SWAP1 SSTORE POP PUSH1 0x0 DUP6 PUSH1 0x7 ADD DUP2 SWAP1 SSTORE POP PUSH1 0x0 DUP6 PUSH1 0x9 ADD PUSH1 0x0 PUSH2 0x100 EXP DUP2 SLOAD DUP2 PUSH1 0xFF MUL NOT AND SWAP1 DUP4 PUSH1 0xFF AND MUL OR SWAP1 SSTORE POP PUSH1 0x0 DUP6 PUSH1 0x0 ADD DUP2 SWAP1 SSTORE POP POP POP POP POP POP POP JUMP JUMPDEST PUSH1 0x0 PUSH1 0x20 MSTORE DUP1 PUSH1 0x0 MSTORE PUSH1 0x40 PUSH1 0x0 KECCAK256 PUSH1 0x0 SWAP2 POP SWAP1 POP DUP1 PUSH1 0x0 ADD SLOAD SWAP1 DUP1 PUSH1 0x1 ADD SLOAD SWAP1 DUP1 PUSH1 0x2 ADD PUSH1 0x0 SWAP1 SLOAD SWAP1 PUSH2 0x100 EXP SWAP1 DIV PUSH1 0xFF AND SWAP1 DUP1 PUSH1 0x5 ADD SLOAD SWAP1 DUP1 PUSH1 0x6 ADD SLOAD SWAP1 DUP1 PUSH1 0x7 ADD SLOAD SWAP1 DUP1 PUSH1 0x9 ADD PUSH1 0x0 SWAP1 SLOAD SWAP1 PUSH2 0x100 EXP SWAP1 DIV PUSH1 0xFF AND SWAP1 POP DUP8 JUMP JUMPDEST PUSH2 0x1D8D DUP2 PUSH1 0x0 PUSH2 0xF6C JUMP JUMPDEST POP JUMP JUMPDEST PUSH1 0x0 PUSH2 0x1D9C PUSH1 0x0 PUSH2 0xD31 JUMP JUMPDEST SWAP1 POP SWAP1 JUMP JUMPDEST PUSH1 0x0 PUSH1 0x3 PUSH1 0xB DUP2 GT ISZERO PUSH2 0x1DB7 JUMPI PUSH2 0x1DB6 PUSH2 0x40B4 JUMP JUMPDEST JUMPDEST DUP3 PUSH1 0xB DUP2 GT ISZERO PUSH2 0x1DCA JUMPI PUSH2 0x1DC9 PUSH2 0x40B4 JUMP JUMPDEST JUMPDEST EQ ISZERO PUSH2 0x1DD9 JUMPI PUSH1 0x1E SWAP1 POP PUSH2 0x1E14 JUMP JUMPDEST PUSH1 0x4 PUSH1 0xB DUP2 GT ISZERO PUSH2 0x1DED JUMPI PUSH2 0x1DEC PUSH2 0x40B4 JUMP JUMPDEST JUMPDEST DUP3 PUSH1 0xB DUP2 GT ISZERO PUSH2 0x1E00 JUMPI PUSH2 0x1DFF PUSH2 0x40B4 JUMP JUMPDEST JUMPDEST EQ ISZERO PUSH2 0x1E0F JUMPI PUSH1 0xF SWAP1 POP PUSH2 0x1E14 JUMP JUMPDEST PUSH1 0x5 SWAP1 POP JUMPDEST SWAP2 SWAP1 POP JUMP JUMPDEST PUSH1 0x60 PUSH1 0x0 DUP1 PUSH1 0x0 DUP5 PUSH20 0xFFFFFFFFFFFFFFFFFFFFFFFFFFFFFFFFFFFFFFFF AND PUSH20 0xFFFFFFFFFFFFFFFFFFFFFFFFFFFFFFFFFFFFFFFF AND DUP2 MSTORE PUSH1 0x20 ADD SWAP1 DUP2 MSTORE PUSH1 0x20 ADD PUSH1 0x0 KECCAK256 SWAP1 POP PUSH1 0x0 PUSH1 0xC PUSH8 0xFFFFFFFFFFFFFFFF DUP2 GT ISZERO PUSH2 0x1E7A JUMPI PUSH2 0x1E79 PUSH2 0x4112 JUMP JUMPDEST JUMPDEST PUSH1 0x40 MLOAD SWAP1 DUP1 DUP3 MSTORE DUP1 PUSH1 0x20 MUL PUSH1 0x20 ADD DUP3 ADD PUSH1 0x40 MSTORE DUP1 ISZERO PUSH2 0x1EA8 JUMPI DUP2 PUSH1 0x20 ADD PUSH1 0x20 DUP3 MUL DUP1 CALLDATASIZE DUP4 CALLDATACOPY DUP1 DUP3 ADD SWAP2 POP POP SWAP1 POP JUMPDEST POP SWAP1 POP PUSH1 0x0 JUMPDEST PUSH1 0xB DUP1 DUP2 GT ISZERO PUSH2 0x1EC1 JUMPI PUSH2 0x1EC0 PUSH2 0x40B4 JUMP JUMPDEST JUMPDEST PUSH1 0xFF AND DUP2 PUSH1 0xFF AND GT PUSH2 0x1F6C JUMPI DUP3 PUSH1 0x8 ADD PUSH1 0x0 DUP3 PUSH1 0xFF AND PUSH1 0xFF AND DUP2 MSTORE PUSH1 0x20 ADD SWAP1 DUP2 MSTORE PUSH1 0x20 ADD PUSH1 0x0 KECCAK256 PUSH1 0x0 SWAP1 SLOAD SWAP1 PUSH2 0x100 EXP SWAP1 DIV PUSH20 0xFFFFFFFFFFFFFFFFFFFFFFFFFFFFFFFFFFFFFFFF AND DUP3 DUP3 PUSH1 0xFF AND DUP2 MLOAD DUP2 LT PUSH2 0x1F1F JUMPI PUSH2 0x1F1E PUSH2 0x40E3 JUMP JUMPDEST JUMPDEST PUSH1 0x20 MUL PUSH1 0x20 ADD ADD SWAP1 PUSH20 0xFFFFFFFFFFFFFFFFFFFFFFFFFFFFFFFFFFFFFFFF AND SWAP1 DUP2 PUSH20 0xFFFFFFFFFFFFFFFFFFFFFFFFFFFFFFFFFFFFFFFF AND DUP2 MSTORE POP POP DUP1 DUP1 PUSH2 0x1F64 SWAP1 PUSH2 0x3FC2 JUMP JUMPDEST SWAP2 POP POP PUSH2 0x1EAE JUMP JUMPDEST POP DUP1 SWAP3 POP POP POP SWAP2 SWAP1 POP JUMP JUMPDEST PUSH1 0x0 DUP1 DUP3 PUSH1 0x1 ADD SLOAD EQ ISZERO PUSH2 0x1F8E JUMPI PUSH1 0x3 SWAP1 POP PUSH2 0x2008 JUMP JUMPDEST PUSH1 0x5A DUP3 PUSH1 0x6 ADD SLOAD EQ ISZERO PUSH2 0x1FA4 JUMPI PUSH1 0x0 SWAP1 POP PUSH2 0x2008 JUMP JUMPDEST PUSH1 0x0 DUP3 PUSH1 0x9 ADD PUSH1 0x0 SWAP1 SLOAD SWAP1 PUSH2 0x100 EXP SWAP1 DIV PUSH1 0xFF AND PUSH1 0xFF AND EQ ISZERO PUSH2 0x1FCA JUMPI PUSH1 0x2 SWAP1 POP PUSH2 0x2008 JUMP JUMPDEST PUSH1 0x0 DUP3 PUSH1 0x6 ADD SLOAD GT ISZERO PUSH2 0x1FE0 JUMPI PUSH1 0x1 SWAP1 POP PUSH2 0x2008 JUMP JUMPDEST PUSH3 0x15180 DUP3 PUSH1 0x0 ADD SLOAD PUSH2 0x1FF3 SWAP2 SWAP1 PUSH2 0x3CF0 JUMP JUMPDEST TIMESTAMP GT ISZERO PUSH2 0x2003 JUMPI PUSH1 0x2 SWAP1 POP PUSH2 0x2008 JUMP JUMPDEST PUSH1 0x1 SWAP1 POP JUMPDEST SWAP2 SWAP1 POP JUMP JUMPDEST PUSH1 0x0 DUP1 PUSH1 0xB DUP2 GT ISZERO PUSH2 0x2022 JUMPI PUSH2 0x2021 PUSH2 0x40B4 JUMP JUMPDEST JUMPDEST DUP4 PUSH1 0xB DUP2 GT ISZERO PUSH2 0x2035 JUMPI PUSH2 0x2034 PUSH2 0x40B4 JUMP JUMPDEST JUMPDEST EQ ISZERO PUSH2 0x205F JUMPI DUP2 PUSH1 0x0 ADD MLOAD PUSH1 0x0 PUSH1 0x3 DUP2 LT PUSH2 0x2053 JUMPI PUSH2 0x2052 PUSH2 0x40E3 JUMP JUMPDEST JUMPDEST PUSH1 0x20 MUL ADD MLOAD SWAP1 POP PUSH2 0x25C9 JUMP JUMPDEST PUSH1 0x1 PUSH1 0xB DUP2 GT ISZERO PUSH2 0x2073 JUMPI PUSH2 0x2072 PUSH2 0x40B4 JUMP JUMPDEST JUMPDEST DUP4 PUSH1 0xB DUP2 GT ISZERO PUSH2 0x2086 JUMPI PUSH2 0x2085 PUSH2 0x40B4 JUMP JUMPDEST JUMPDEST EQ ISZERO PUSH2 0x20B0 JUMPI DUP2 PUSH1 0x0 ADD MLOAD PUSH1 0x1 PUSH1 0x3 DUP2 LT PUSH2 0x20A4 JUMPI PUSH2 0x20A3 PUSH2 0x40E3 JUMP JUMPDEST JUMPDEST PUSH1 0x20 MUL ADD MLOAD SWAP1 POP PUSH2 0x25C9 JUMP JUMPDEST PUSH1 0x2 PUSH1 0xB DUP2 GT ISZERO PUSH2 0x20C4 JUMPI PUSH2 0x20C3 PUSH2 0x40B4 JUMP JUMPDEST JUMPDEST DUP4 PUSH1 0xB DUP2 GT ISZERO PUSH2 0x20D7 JUMPI PUSH2 0x20D6 PUSH2 0x40B4 JUMP JUMPDEST JUMPDEST EQ ISZERO PUSH2 0x2101 JUMPI DUP2 PUSH1 0x0 ADD MLOAD PUSH1 0x2 PUSH1 0x3 DUP2 LT PUSH2 0x20F5 JUMPI PUSH2 0x20F4 PUSH2 0x40E3 JUMP JUMPDEST JUMPDEST PUSH1 0x20 MUL ADD MLOAD SWAP1 POP PUSH2 0x25C9 JUMP JUMPDEST PUSH1 0x3 PUSH1 0xB DUP2 GT ISZERO PUSH2 0x2115 JUMPI PUSH2 0x2114 PUSH2 0x40B4 JUMP JUMPDEST JUMPDEST DUP4 PUSH1 0xB DUP2 GT ISZERO PUSH2 0x2128 JUMPI PUSH2 0x2127 PUSH2 0x40B4 JUMP JUMPDEST JUMPDEST EQ DUP1 PUSH2 0x2158 JUMPI POP PUSH1 0x4 PUSH1 0xB DUP2 GT ISZERO PUSH2 0x2143 JUMPI PUSH2 0x2142 PUSH2 0x40B4 JUMP JUMPDEST JUMPDEST DUP4 PUSH1 0xB DUP2 GT ISZERO PUSH2 0x2156 JUMPI PUSH2 0x2155 PUSH2 0x40B4 JUMP JUMPDEST JUMPDEST EQ JUMPDEST DUP1 PUSH2 0x2187 JUMPI POP PUSH1 0x5 PUSH1 0xB DUP2 GT ISZERO PUSH2 0x2172 JUMPI PUSH2 0x2171 PUSH2 0x40B4 JUMP JUMPDEST JUMPDEST DUP4 PUSH1 0xB DUP2 GT ISZERO PUSH2 0x2185 JUMPI PUSH2 0x2184 PUSH2 0x40B4 JUMP JUMPDEST JUMPDEST EQ JUMPDEST ISZERO PUSH2 0x21EC JUMPI DUP2 PUSH1 0x0 ADD MLOAD PUSH1 0x2 PUSH1 0x3 DUP2 LT PUSH2 0x21A4 JUMPI PUSH2 0x21A3 PUSH2 0x40E3 JUMP JUMPDEST JUMPDEST PUSH1 0x20 MUL ADD MLOAD DUP3 PUSH1 0x0 ADD MLOAD PUSH1 0x1 PUSH1 0x3 DUP2 LT PUSH2 0x21C1 JUMPI PUSH2 0x21C0 PUSH2 0x40E3 JUMP JUMPDEST JUMPDEST PUSH1 0x20 MUL ADD MLOAD DUP4 PUSH1 0x0 ADD MLOAD PUSH1 0x0 PUSH1 0x3 DUP2 LT PUSH2 0x21DE JUMPI PUSH2 0x21DD PUSH2 0x40E3 JUMP JUMPDEST JUMPDEST PUSH1 0x20 MUL ADD MLOAD OR OR SWAP1 POP PUSH2 0x25C9 JUMP JUMPDEST PUSH1 0x8 PUSH1 0xB DUP2 GT ISZERO PUSH2 0x2200 JUMPI PUSH2 0x21FF PUSH2 0x40B4 JUMP JUMPDEST JUMPDEST DUP4 PUSH1 0xB DUP2 GT ISZERO PUSH2 0x2213 JUMPI PUSH2 0x2212 PUSH2 0x40B4 JUMP JUMPDEST JUMPDEST EQ ISZERO PUSH2 0x2261 JUMPI PUSH1 0x0 DUP3 PUSH1 0x0 ADD MLOAD PUSH1 0x1 PUSH1 0x3 DUP2 LT PUSH2 0x2233 JUMPI PUSH2 0x2232 PUSH2 0x40E3 JUMP JUMPDEST JUMPDEST PUSH1 0x20 MUL ADD MLOAD SWAP1 POP PUSH2 0x2243 DUP2 PUSH2 0x25CF JUMP JUMPDEST SWAP1 POP PUSH2 0x224E DUP2 PUSH2 0x25CF JUMP JUMPDEST SWAP1 POP PUSH2 0x2259 DUP2 PUSH2 0x32A7 JUMP JUMPDEST SWAP2 POP POP PUSH2 0x25C9 JUMP JUMPDEST PUSH1 0x7 PUSH1 0xB DUP2 GT ISZERO PUSH2 0x2275 JUMPI PUSH2 0x2274 PUSH2 0x40B4 JUMP JUMPDEST JUMPDEST DUP4 PUSH1 0xB DUP2 GT ISZERO PUSH2 0x2288 JUMPI PUSH2 0x2287 PUSH2 0x40B4 JUMP JUMPDEST JUMPDEST EQ ISZERO PUSH2 0x2344 JUMPI PUSH1 0x0 PUSH2 0x22B5 DUP4 PUSH1 0x0 ADD MLOAD PUSH1 0x0 PUSH1 0x3 DUP2 LT PUSH2 0x22AB JUMPI PUSH2 0x22AA PUSH2 0x40E3 JUMP JUMPDEST JUMPDEST PUSH1 0x20 MUL ADD MLOAD PUSH2 0x32A7 JUMP JUMPDEST SWAP1 POP PUSH1 0x0 PUSH2 0x22DE DUP5 PUSH1 0x0 ADD MLOAD PUSH1 0x2 PUSH1 0x3 DUP2 LT PUSH2 0x22D4 JUMPI PUSH2 0x22D3 PUSH2 0x40E3 JUMP JUMPDEST JUMPDEST PUSH1 0x20 MUL ADD MLOAD PUSH2 0x32A7 JUMP JUMPDEST SWAP1 POP PUSH1 0x0 PUSH2 0x2307 DUP6 PUSH1 0x0 ADD MLOAD PUSH1 0x0 PUSH1 0x3 DUP2 LT PUSH2 0x22FD JUMPI PUSH2 0x22FC PUSH2 0x40E3 JUMP JUMPDEST JUMPDEST PUSH1 0x20 MUL ADD MLOAD PUSH2 0x32C1 JUMP JUMPDEST SWAP1 POP PUSH1 0x0 PUSH2 0x2330 DUP7 PUSH1 0x0 ADD MLOAD PUSH1 0x2 PUSH1 0x3 DUP2 LT PUSH2 0x2326 JUMPI PUSH2 0x2325 PUSH2 0x40E3 JUMP JUMPDEST JUMPDEST PUSH1 0x20 MUL ADD MLOAD PUSH2 0x32C1 JUMP JUMPDEST SWAP1 POP DUP3 DUP2 DUP4 DUP7 OR OR OR SWAP5 POP POP POP POP POP PUSH2 0x25C9 JUMP JUMPDEST PUSH1 0x9 PUSH1 0xB DUP2 GT ISZERO PUSH2 0x2358 JUMPI PUSH2 0x2357 PUSH2 0x40B4 JUMP JUMPDEST JUMPDEST DUP4 PUSH1 0xB DUP2 GT ISZERO PUSH2 0x236B JUMPI PUSH2 0x236A PUSH2 0x40B4 JUMP JUMPDEST JUMPDEST EQ ISZERO PUSH2 0x23E3 JUMPI PUSH1 0x0 DUP3 PUSH1 0x0 ADD MLOAD PUSH1 0x2 PUSH1 0x3 DUP2 LT PUSH2 0x238B JUMPI PUSH2 0x238A PUSH2 0x40E3 JUMP JUMPDEST JUMPDEST PUSH1 0x20 MUL ADD MLOAD DUP4 PUSH1 0x0 ADD MLOAD PUSH1 0x1 PUSH1 0x3 DUP2 LT PUSH2 0x23A8 JUMPI PUSH2 0x23A7 PUSH2 0x40E3 JUMP JUMPDEST JUMPDEST PUSH1 0x20 MUL ADD MLOAD DUP5 PUSH1 0x0 ADD MLOAD PUSH1 0x0 PUSH1 0x3 DUP2 LT PUSH2 0x23C5 JUMPI PUSH2 0x23C4 PUSH2 0x40E3 JUMP JUMPDEST JUMPDEST PUSH1 0x20 MUL ADD MLOAD OR OR SWAP1 POP PUSH1 0x0 PUSH4 0x1FFFFFFF SWAP1 POP DUP1 DUP3 AND SWAP3 POP POP POP PUSH2 0x25C9 JUMP JUMPDEST PUSH1 0xA PUSH1 0xB DUP2 GT ISZERO PUSH2 0x23F7 JUMPI PUSH2 0x23F6 PUSH2 0x40B4 JUMP JUMPDEST JUMPDEST DUP4 PUSH1 0xB DUP2 GT ISZERO PUSH2 0x240A JUMPI PUSH2 0x2409 PUSH2 0x40B4 JUMP JUMPDEST JUMPDEST EQ ISZERO PUSH2 0x2486 JUMPI PUSH1 0x0 DUP3 PUSH1 0x0 ADD MLOAD PUSH1 0x2 PUSH1 0x3 DUP2 LT PUSH2 0x242A JUMPI PUSH2 0x2429 PUSH2 0x40E3 JUMP JUMPDEST JUMPDEST PUSH1 0x20 MUL ADD MLOAD DUP4 PUSH1 0x0 ADD MLOAD PUSH1 0x1 PUSH1 0x3 DUP2 LT PUSH2 0x2447 JUMPI PUSH2 0x2446 PUSH2 0x40E3 JUMP JUMPDEST JUMPDEST PUSH1 0x20 MUL ADD MLOAD DUP5 PUSH1 0x0 ADD MLOAD PUSH1 0x0 PUSH1 0x3 DUP2 LT PUSH2 0x2464 JUMPI PUSH2 0x2463 PUSH2 0x40E3 JUMP JUMPDEST JUMPDEST PUSH1 0x20 MUL ADD MLOAD OR OR SWAP1 POP PUSH1 0x0 PUSH8 0x7FFFFFFE0000000 SWAP1 POP DUP1 DUP3 AND SWAP3 POP POP POP PUSH2 0x25C9 JUMP JUMPDEST PUSH1 0xB DUP1 DUP2 GT ISZERO PUSH2 0x2499 JUMPI PUSH2 0x2498 PUSH2 0x40B4 JUMP JUMPDEST JUMPDEST DUP4 PUSH1 0xB DUP2 GT ISZERO PUSH2 0x24AC JUMPI PUSH2 0x24AB PUSH2 0x40B4 JUMP JUMPDEST JUMPDEST EQ ISZERO PUSH2 0x252C JUMPI PUSH1 0x0 DUP3 PUSH1 0x0 ADD MLOAD PUSH1 0x2 PUSH1 0x3 DUP2 LT PUSH2 0x24CC JUMPI PUSH2 0x24CB PUSH2 0x40E3 JUMP JUMPDEST JUMPDEST PUSH1 0x20 MUL ADD MLOAD DUP4 PUSH1 0x0 ADD MLOAD PUSH1 0x1 PUSH1 0x3 DUP2 LT PUSH2 0x24E9 JUMPI PUSH2 0x24E8 PUSH2 0x40E3 JUMP JUMPDEST JUMPDEST PUSH1 0x20 MUL ADD MLOAD DUP5 PUSH1 0x0 ADD MLOAD PUSH1 0x0 PUSH1 0x3 DUP2 LT PUSH2 0x2506 JUMPI PUSH2 0x2505 PUSH2 0x40E3 JUMP JUMPDEST JUMPDEST PUSH1 0x20 MUL ADD MLOAD OR OR SWAP1 POP PUSH1 0x0 PUSH12 0x3FFFFFFF800000000000000 SWAP1 POP DUP1 DUP3 AND SWAP3 POP POP POP PUSH2 0x25C9 JUMP JUMPDEST PUSH1 0x6 PUSH1 0xB DUP2 GT ISZERO PUSH2 0x2540 JUMPI PUSH2 0x253F PUSH2 0x40B4 JUMP JUMPDEST JUMPDEST DUP4 PUSH1 0xB DUP2 GT ISZERO PUSH2 0x2553 JUMPI PUSH2 0x2552 PUSH2 0x40B4 JUMP JUMPDEST JUMPDEST EQ ISZERO PUSH2 0x25B9 JUMPI DUP2 PUSH1 0x0 ADD MLOAD PUSH1 0x2 PUSH1 0x3 DUP2 LT PUSH2 0x2571 JUMPI PUSH2 0x2570 PUSH2 0x40E3 JUMP JUMPDEST JUMPDEST PUSH1 0x20 MUL ADD MLOAD DUP3 PUSH1 0x0 ADD MLOAD PUSH1 0x1 PUSH1 0x3 DUP2 LT PUSH2 0x258E JUMPI PUSH2 0x258D PUSH2 0x40E3 JUMP JUMPDEST JUMPDEST PUSH1 0x20 MUL ADD MLOAD DUP4 PUSH1 0x0 ADD MLOAD PUSH1 0x0 PUSH1 0x3 DUP2 LT PUSH2 0x25AB JUMPI PUSH2 0x25AA PUSH2 0x40E3 JUMP JUMPDEST JUMPDEST PUSH1 0x20 MUL ADD MLOAD OR OR SWAP1 POP PUSH2 0x25C9 JUMP JUMPDEST PUSH12 0x3FFFFFFFFFFFFFFFFFFFFFF SWAP1 POP JUMPDEST SWAP3 SWAP2 POP POP JUMP JUMPDEST PUSH1 0x0 PUSH1 0x1 DUP3 PUSH2 0x25DE SWAP2 SWAP1 PUSH2 0x3E43 JUMP JUMPDEST DUP3 AND SWAP1 POP SWAP2 SWAP1 POP JUMP JUMPDEST PUSH1 0x0 DUP1 DUP3 PUSH1 0x4 ADD DUP1 SLOAD SWAP1 POP EQ SWAP1 POP SWAP2 SWAP1 POP JUMP JUMPDEST PUSH1 0x0 NUMBER DUP3 PUSH1 0x40 MLOAD PUSH1 0x20 ADD PUSH2 0x260F SWAP3 SWAP2 SWAP1 PUSH2 0x39D0 JUMP JUMPDEST PUSH1 0x40 MLOAD PUSH1 0x20 DUP2 DUP4 SUB SUB DUP2 MSTORE SWAP1 PUSH1 0x40 MSTORE DUP1 MLOAD SWAP1 PUSH1 0x20 ADD KECCAK256 PUSH1 0x0 SHR SWAP1 POP SWAP2 SWAP1 POP JUMP JUMPDEST PUSH2 0x2637 PUSH2 0x3348 JUMP JUMPDEST PUSH1 0x0 DUP1 PUSH1 0x40 MLOAD DUP1 PUSH2 0x120 ADD PUSH1 0x40 MSTORE DUP1 PUSH1 0x0 PUSH1 0xFF AND DUP2 MSTORE PUSH1 0x20 ADD PUSH1 0x1 PUSH1 0xFF AND DUP2 MSTORE PUSH1 0x20 ADD PUSH1 0x2 PUSH1 0xFF AND DUP2 MSTORE PUSH1 0x20 ADD PUSH1 0x3 PUSH1 0xFF AND DUP2 MSTORE PUSH1 0x20 ADD PUSH1 0x4 PUSH1 0xFF AND DUP2 MSTORE PUSH1 0x20 ADD PUSH1 0x5 PUSH1 0xFF AND DUP2 MSTORE PUSH1 0x20 ADD PUSH1 0x6 PUSH1 0xFF AND DUP2 MSTORE PUSH1 0x20 ADD PUSH1 0x7 PUSH1 0xFF AND DUP2 MSTORE PUSH1 0x20 ADD PUSH1 0x8 PUSH1 0xFF AND DUP2 MSTORE POP SWAP1 POP PUSH2 0x26A8 PUSH2 0x3348 JUMP JUMPDEST PUSH1 0x0 JUMPDEST PUSH1 0x5 DUP2 LT ISZERO PUSH2 0x277F JUMPI PUSH2 0x26BD DUP7 PUSH2 0x25FA JUMP JUMPDEST SWAP6 POP PUSH1 0x0 DUP2 PUSH1 0x9 PUSH2 0x26CE SWAP2 SWAP1 PUSH2 0x3E43 JUMP JUMPDEST DUP8 PUSH2 0x26D9 SWAP2 SWAP1 PUSH2 0x3FF6 JUMP JUMPDEST SWAP1 POP DUP4 DUP2 PUSH1 0x9 DUP2 LT PUSH2 0x26EE JUMPI PUSH2 0x26ED PUSH2 0x40E3 JUMP JUMPDEST JUMPDEST PUSH1 0x20 MUL ADD MLOAD DUP4 DUP4 PUSH1 0x5 DUP2 LT PUSH2 0x2706 JUMPI PUSH2 0x2705 PUSH2 0x40E3 JUMP JUMPDEST JUMPDEST PUSH1 0x20 MUL ADD SWAP1 PUSH1 0xFF AND SWAP1 DUP2 PUSH1 0xFF AND DUP2 MSTORE POP POP DUP4 DUP3 PUSH1 0x1 PUSH1 0x9 PUSH2 0x2727 SWAP2 SWAP1 PUSH2 0x3E43 JUMP JUMPDEST PUSH2 0x2731 SWAP2 SWAP1 PUSH2 0x3E43 JUMP JUMPDEST PUSH1 0x9 DUP2 LT PUSH2 0x2742 JUMPI PUSH2 0x2741 PUSH2 0x40E3 JUMP JUMPDEST JUMPDEST PUSH1 0x20 MUL ADD MLOAD DUP5 DUP3 PUSH1 0x9 DUP2 LT PUSH2 0x275A JUMPI PUSH2 0x2759 PUSH2 0x40E3 JUMP JUMPDEST JUMPDEST PUSH1 0x20 MUL ADD SWAP1 PUSH1 0xFF AND SWAP1 DUP2 PUSH1 0xFF AND DUP2 MSTORE POP POP POP DUP1 DUP1 PUSH2 0x2777 SWAP1 PUSH2 0x3F79 JUMP JUMPDEST SWAP2 POP POP PUSH2 0x26AB JUMP JUMPDEST POP DUP1 DUP6 SWAP4 POP SWAP4 POP POP POP SWAP2 POP SWAP2 JUMP JUMPDEST PUSH2 0x2795 PUSH2 0x33BB JUMP JUMPDEST PUSH1 0x0 PUSH2 0x279F PUSH2 0x33BB JUMP JUMPDEST PUSH1 0x0 DUP6 PUSH1 0xFF AND EQ ISZERO PUSH2 0x290A JUMPI PUSH1 0x0 PUSH1 0x40 MLOAD DUP1 PUSH2 0x120 ADD PUSH1 0x40 MSTORE DUP1 PUSH1 0x1 PUSH1 0xFF AND DUP2 MSTORE PUSH1 0x20 ADD PUSH1 0x2 PUSH1 0xFF AND DUP2 MSTORE PUSH1 0x20 ADD PUSH1 0x3 PUSH1 0xFF AND DUP2 MSTORE PUSH1 0x20 ADD PUSH1 0x4 PUSH1 0xFF AND DUP2 MSTORE PUSH1 0x20 ADD PUSH1 0x5 PUSH1 0xFF AND DUP2 MSTORE PUSH1 0x20 ADD PUSH1 0x6 PUSH1 0xFF AND DUP2 MSTORE PUSH1 0x20 ADD PUSH1 0x7 PUSH1 0xFF AND DUP2 MSTORE PUSH1 0x20 ADD PUSH1 0x8 PUSH1 0xFF AND DUP2 MSTORE PUSH1 0x20 ADD PUSH1 0x9 PUSH1 0xFF AND DUP2 MSTORE POP SWAP1 POP PUSH1 0x0 JUMPDEST DUP6 PUSH1 0xFF AND DUP2 LT ISZERO PUSH2 0x2903 JUMPI PUSH2 0x282A DUP9 PUSH2 0x25FA JUMP JUMPDEST SWAP8 POP PUSH1 0x0 DUP2 PUSH1 0x9 PUSH2 0x283B SWAP2 SWAP1 PUSH2 0x3E43 JUMP JUMPDEST DUP10 PUSH2 0x2846 SWAP2 SWAP1 PUSH2 0x3FF6 JUMP JUMPDEST SWAP1 POP DUP3 DUP2 PUSH1 0x9 DUP2 LT PUSH2 0x285B JUMPI PUSH2 0x285A PUSH2 0x40E3 JUMP JUMPDEST JUMPDEST PUSH1 0x20 MUL ADD MLOAD PUSH1 0xA DUP10 PUSH2 0x286D SWAP2 SWAP1 PUSH2 0x3E08 JUMP JUMPDEST PUSH2 0x2877 SWAP2 SWAP1 PUSH2 0x3D46 JUMP JUMPDEST DUP5 DUP4 PUSH1 0x3 DUP2 LT PUSH2 0x288A JUMPI PUSH2 0x2889 PUSH2 0x40E3 JUMP JUMPDEST JUMPDEST PUSH1 0x20 MUL ADD SWAP1 PUSH1 0xFF AND SWAP1 DUP2 PUSH1 0xFF AND DUP2 MSTORE POP POP DUP3 DUP3 PUSH1 0x1 PUSH1 0x9 PUSH2 0x28AB SWAP2 SWAP1 PUSH2 0x3E43 JUMP JUMPDEST PUSH2 0x28B5 SWAP2 SWAP1 PUSH2 0x3E43 JUMP JUMPDEST PUSH1 0x9 DUP2 LT PUSH2 0x28C6 JUMPI PUSH2 0x28C5 PUSH2 0x40E3 JUMP JUMPDEST JUMPDEST PUSH1 0x20 MUL ADD MLOAD DUP4 DUP3 PUSH1 0x9 DUP2 LT PUSH2 0x28DE JUMPI PUSH2 0x28DD PUSH2 0x40E3 JUMP JUMPDEST JUMPDEST PUSH1 0x20 MUL ADD SWAP1 PUSH1 0xFF AND SWAP1 DUP2 PUSH1 0xFF AND DUP2 MSTORE POP POP POP DUP1 DUP1 PUSH2 0x28FB SWAP1 PUSH2 0x3F79 JUMP JUMPDEST SWAP2 POP POP PUSH2 0x2816 JUMP JUMPDEST POP POP PUSH2 0x2BEF JUMP JUMPDEST PUSH1 0x8 DUP6 PUSH1 0xFF AND EQ ISZERO PUSH2 0x2A89 JUMPI PUSH1 0x0 PUSH1 0x40 MLOAD DUP1 PUSH2 0x160 ADD PUSH1 0x40 MSTORE DUP1 PUSH1 0x0 PUSH1 0xFF AND DUP2 MSTORE PUSH1 0x20 ADD PUSH1 0x1 PUSH1 0xFF AND DUP2 MSTORE PUSH1 0x20 ADD PUSH1 0x2 PUSH1 0xFF AND DUP2 MSTORE PUSH1 0x20 ADD PUSH1 0x3 PUSH1 0xFF AND DUP2 MSTORE PUSH1 0x20 ADD PUSH1 0x4 PUSH1 0xFF AND DUP2 MSTORE PUSH1 0x20 ADD PUSH1 0x5 PUSH1 0xFF AND DUP2 MSTORE PUSH1 0x20 ADD PUSH1 0x6 PUSH1 0xFF AND DUP2 MSTORE PUSH1 0x20 ADD PUSH1 0x7 PUSH1 0xFF AND DUP2 MSTORE PUSH1 0x20 ADD PUSH1 0x8 PUSH1 0xFF AND DUP2 MSTORE PUSH1 0x20 ADD PUSH1 0x9 PUSH1 0xFF AND DUP2 MSTORE PUSH1 0x20 ADD PUSH1 0xA PUSH1 0xFF AND DUP2 MSTORE POP SWAP1 POP PUSH1 0x0 JUMPDEST DUP6 PUSH1 0xFF AND DUP2 LT ISZERO PUSH2 0x2A82 JUMPI PUSH2 0x29A9 DUP9 PUSH2 0x25FA JUMP JUMPDEST SWAP8 POP PUSH1 0x0 DUP2 PUSH1 0xB PUSH2 0x29BA SWAP2 SWAP1 PUSH2 0x3E43 JUMP JUMPDEST DUP10 PUSH2 0x29C5 SWAP2 SWAP1 PUSH2 0x3FF6 JUMP JUMPDEST SWAP1 POP DUP3 DUP2 PUSH1 0xB DUP2 LT PUSH2 0x29DA JUMPI PUSH2 0x29D9 PUSH2 0x40E3 JUMP JUMPDEST JUMPDEST PUSH1 0x20 MUL ADD MLOAD PUSH1 0xA DUP10 PUSH2 0x29EC SWAP2 SWAP1 PUSH2 0x3E08 JUMP JUMPDEST PUSH2 0x29F6 SWAP2 SWAP1 PUSH2 0x3D46 JUMP JUMPDEST DUP5 DUP4 PUSH1 0x3 DUP2 LT PUSH2 0x2A09 JUMPI PUSH2 0x2A08 PUSH2 0x40E3 JUMP JUMPDEST JUMPDEST PUSH1 0x20 MUL ADD SWAP1 PUSH1 0xFF AND SWAP1 DUP2 PUSH1 0xFF AND DUP2 MSTORE POP POP DUP3 DUP3 PUSH1 0x1 PUSH1 0xB PUSH2 0x2A2A SWAP2 SWAP1 PUSH2 0x3E43 JUMP JUMPDEST PUSH2 0x2A34 SWAP2 SWAP1 PUSH2 0x3E43 JUMP JUMPDEST PUSH1 0xB DUP2 LT PUSH2 0x2A45 JUMPI PUSH2 0x2A44 PUSH2 0x40E3 JUMP JUMPDEST JUMPDEST PUSH1 0x20 MUL ADD MLOAD DUP4 DUP3 PUSH1 0xB DUP2 LT PUSH2 0x2A5D JUMPI PUSH2 0x2A5C PUSH2 0x40E3 JUMP JUMPDEST JUMPDEST PUSH1 0x20 MUL ADD SWAP1 PUSH1 0xFF AND SWAP1 DUP2 PUSH1 0xFF AND DUP2 MSTORE POP POP POP DUP1 DUP1 PUSH2 0x2A7A SWAP1 PUSH2 0x3F79 JUMP JUMPDEST SWAP2 POP POP PUSH2 0x2995 JUMP JUMPDEST POP POP PUSH2 0x2BEE JUMP JUMPDEST PUSH1 0x0 PUSH1 0x40 MLOAD DUP1 PUSH2 0x140 ADD PUSH1 0x40 MSTORE DUP1 PUSH1 0x0 PUSH1 0xFF AND DUP2 MSTORE PUSH1 0x20 ADD PUSH1 0x1 PUSH1 0xFF AND DUP2 MSTORE PUSH1 0x20 ADD PUSH1 0x2 PUSH1 0xFF AND DUP2 MSTORE PUSH1 0x20 ADD PUSH1 0x3 PUSH1 0xFF AND DUP2 MSTORE PUSH1 0x20 ADD PUSH1 0x4 PUSH1 0xFF AND DUP2 MSTORE PUSH1 0x20 ADD PUSH1 0x5 PUSH1 0xFF AND DUP2 MSTORE PUSH1 0x20 ADD PUSH1 0x6 PUSH1 0xFF AND DUP2 MSTORE PUSH1 0x20 ADD PUSH1 0x7 PUSH1 0xFF AND DUP2 MSTORE PUSH1 0x20 ADD PUSH1 0x8 PUSH1 0xFF AND DUP2 MSTORE PUSH1 0x20 ADD PUSH1 0x9 PUSH1 0xFF AND DUP2 MSTORE POP SWAP1 POP PUSH1 0x0 JUMPDEST DUP6 PUSH1 0xFF AND DUP2 LT ISZERO PUSH2 0x2BEB JUMPI PUSH2 0x2B12 DUP9 PUSH2 0x25FA JUMP JUMPDEST SWAP8 POP PUSH1 0x0 DUP2 PUSH1 0xA PUSH2 0x2B23 SWAP2 SWAP1 PUSH2 0x3E43 JUMP JUMPDEST DUP10 PUSH2 0x2B2E SWAP2 SWAP1 PUSH2 0x3FF6 JUMP JUMPDEST SWAP1 POP DUP3 DUP2 PUSH1 0xA DUP2 LT PUSH2 0x2B43 JUMPI PUSH2 0x2B42 PUSH2 0x40E3 JUMP JUMPDEST JUMPDEST PUSH1 0x20 MUL ADD MLOAD PUSH1 0xA DUP10 PUSH2 0x2B55 SWAP2 SWAP1 PUSH2 0x3E08 JUMP JUMPDEST PUSH2 0x2B5F SWAP2 SWAP1 PUSH2 0x3D46 JUMP JUMPDEST DUP5 DUP4 PUSH1 0x3 DUP2 LT PUSH2 0x2B72 JUMPI PUSH2 0x2B71 PUSH2 0x40E3 JUMP JUMPDEST JUMPDEST PUSH1 0x20 MUL ADD SWAP1 PUSH1 0xFF AND SWAP1 DUP2 PUSH1 0xFF AND DUP2 MSTORE POP POP DUP3 DUP3 PUSH1 0x1 PUSH1 0xA PUSH2 0x2B93 SWAP2 SWAP1 PUSH2 0x3E43 JUMP JUMPDEST PUSH2 0x2B9D SWAP2 SWAP1 PUSH2 0x3E43 JUMP JUMPDEST PUSH1 0xA DUP2 LT PUSH2 0x2BAE JUMPI PUSH2 0x2BAD PUSH2 0x40E3 JUMP JUMPDEST JUMPDEST PUSH1 0x20 MUL ADD MLOAD DUP4 DUP3 PUSH1 0xA DUP2 LT PUSH2 0x2BC6 JUMPI PUSH2 0x2BC5 PUSH2 0x40E3 JUMP JUMPDEST JUMPDEST PUSH1 0x20 MUL ADD SWAP1 PUSH1 0xFF AND SWAP1 DUP2 PUSH1 0xFF AND DUP2 MSTORE POP POP POP DUP1 DUP1 PUSH2 0x2BE3 SWAP1 PUSH2 0x3F79 JUMP JUMPDEST SWAP2 POP POP PUSH2 0x2AFE JUMP JUMPDEST POP POP JUMPDEST JUMPDEST DUP1 DUP7 SWAP3 POP SWAP3 POP POP SWAP4 POP SWAP4 SWAP2 POP POP JUMP JUMPDEST PUSH2 0x2C06 PUSH2 0x33BB JUMP JUMPDEST PUSH1 0x3 DUP3 EQ ISZERO PUSH2 0x31D0 JUMPI PUSH2 0x2C17 PUSH2 0x33BB JUMP JUMPDEST DUP4 PUSH1 0x1 PUSH1 0x3 DUP2 LT PUSH2 0x2C2B JUMPI PUSH2 0x2C2A PUSH2 0x40E3 JUMP JUMPDEST JUMPDEST PUSH1 0x20 MUL ADD MLOAD PUSH1 0xFF AND DUP5 PUSH1 0x0 PUSH1 0x3 DUP2 LT PUSH2 0x2C47 JUMPI PUSH2 0x2C46 PUSH2 0x40E3 JUMP JUMPDEST JUMPDEST PUSH1 0x20 MUL ADD MLOAD PUSH1 0xFF AND GT ISZERO PUSH2 0x2F10 JUMPI DUP4 PUSH1 0x2 PUSH1 0x3 DUP2 LT PUSH2 0x2C69 JUMPI PUSH2 0x2C68 PUSH2 0x40E3 JUMP JUMPDEST JUMPDEST PUSH1 0x20 MUL ADD MLOAD PUSH1 0xFF AND DUP5 PUSH1 0x0 PUSH1 0x3 DUP2 LT PUSH2 0x2C85 JUMPI PUSH2 0x2C84 PUSH2 0x40E3 JUMP JUMPDEST JUMPDEST PUSH1 0x20 MUL ADD MLOAD PUSH1 0xFF AND GT ISZERO PUSH2 0x2E50 JUMPI DUP4 PUSH1 0x2 PUSH1 0x3 DUP2 LT PUSH2 0x2CA7 JUMPI PUSH2 0x2CA6 PUSH2 0x40E3 JUMP JUMPDEST JUMPDEST PUSH1 0x20 MUL ADD MLOAD PUSH1 0xFF AND DUP5 PUSH1 0x1 PUSH1 0x3 DUP2 LT PUSH2 0x2CC3 JUMPI PUSH2 0x2CC2 PUSH2 0x40E3 JUMP JUMPDEST JUMPDEST PUSH1 0x20 MUL ADD MLOAD PUSH1 0xFF AND GT ISZERO PUSH2 0x2D90 JUMPI DUP4 PUSH1 0x2 PUSH1 0x3 DUP2 LT PUSH2 0x2CE5 JUMPI PUSH2 0x2CE4 PUSH2 0x40E3 JUMP JUMPDEST JUMPDEST PUSH1 0x20 MUL ADD MLOAD DUP2 PUSH1 0x0 PUSH1 0x3 DUP2 LT PUSH2 0x2CFE JUMPI PUSH2 0x2CFD PUSH2 0x40E3 JUMP JUMPDEST JUMPDEST PUSH1 0x20 MUL ADD SWAP1 PUSH1 0xFF AND SWAP1 DUP2 PUSH1 0xFF AND DUP2 MSTORE POP POP DUP4 PUSH1 0x1 PUSH1 0x3 DUP2 LT PUSH2 0x2D23 JUMPI PUSH2 0x2D22 PUSH2 0x40E3 JUMP JUMPDEST JUMPDEST PUSH1 0x20 MUL ADD MLOAD DUP2 PUSH1 0x1 PUSH1 0x3 DUP2 LT PUSH2 0x2D3C JUMPI PUSH2 0x2D3B PUSH2 0x40E3 JUMP JUMPDEST JUMPDEST PUSH1 0x20 MUL ADD SWAP1 PUSH1 0xFF AND SWAP1 DUP2 PUSH1 0xFF AND DUP2 MSTORE POP POP DUP4 PUSH1 0x0 PUSH1 0x3 DUP2 LT PUSH2 0x2D61 JUMPI PUSH2 0x2D60 PUSH2 0x40E3 JUMP JUMPDEST JUMPDEST PUSH1 0x20 MUL ADD MLOAD DUP2 PUSH1 0x2 PUSH1 0x3 DUP2 LT PUSH2 0x2D7A JUMPI PUSH2 0x2D79 PUSH2 0x40E3 JUMP JUMPDEST JUMPDEST PUSH1 0x20 MUL ADD SWAP1 PUSH1 0xFF AND SWAP1 DUP2 PUSH1 0xFF AND DUP2 MSTORE POP POP PUSH2 0x2E4B JUMP JUMPDEST DUP4 PUSH1 0x1 PUSH1 0x3 DUP2 LT PUSH2 0x2DA4 JUMPI PUSH2 0x2DA3 PUSH2 0x40E3 JUMP JUMPDEST JUMPDEST PUSH1 0x20 MUL ADD MLOAD DUP2 PUSH1 0x0 PUSH1 0x3 DUP2 LT PUSH2 0x2DBD JUMPI PUSH2 0x2DBC PUSH2 0x40E3 JUMP JUMPDEST JUMPDEST PUSH1 0x20 MUL ADD SWAP1 PUSH1 0xFF AND SWAP1 DUP2 PUSH1 0xFF AND DUP2 MSTORE POP POP DUP4 PUSH1 0x2 PUSH1 0x3 DUP2 LT PUSH2 0x2DE2 JUMPI PUSH2 0x2DE1 PUSH2 0x40E3 JUMP JUMPDEST JUMPDEST PUSH1 0x20 MUL ADD MLOAD DUP2 PUSH1 0x1 PUSH1 0x3 DUP2 LT PUSH2 0x2DFB JUMPI PUSH2 0x2DFA PUSH2 0x40E3 JUMP JUMPDEST JUMPDEST PUSH1 0x20 MUL ADD SWAP1 PUSH1 0xFF AND SWAP1 DUP2 PUSH1 0xFF AND DUP2 MSTORE POP POP DUP4 PUSH1 0x0 PUSH1 0x3 DUP2 LT PUSH2 0x2E20 JUMPI PUSH2 0x2E1F PUSH2 0x40E3 JUMP JUMPDEST JUMPDEST PUSH1 0x20 MUL ADD MLOAD DUP2 PUSH1 0x2 PUSH1 0x3 DUP2 LT PUSH2 0x2E39 JUMPI PUSH2 0x2E38 PUSH2 0x40E3 JUMP JUMPDEST JUMPDEST PUSH1 0x20 MUL ADD SWAP1 PUSH1 0xFF AND SWAP1 DUP2 PUSH1 0xFF AND DUP2 MSTORE POP POP JUMPDEST PUSH2 0x2F0B JUMP JUMPDEST DUP4 PUSH1 0x1 PUSH1 0x3 DUP2 LT PUSH2 0x2E64 JUMPI PUSH2 0x2E63 PUSH2 0x40E3 JUMP JUMPDEST JUMPDEST PUSH1 0x20 MUL ADD MLOAD DUP2 PUSH1 0x0 PUSH1 0x3 DUP2 LT PUSH2 0x2E7D JUMPI PUSH2 0x2E7C PUSH2 0x40E3 JUMP JUMPDEST JUMPDEST PUSH1 0x20 MUL ADD SWAP1 PUSH1 0xFF AND SWAP1 DUP2 PUSH1 0xFF AND DUP2 MSTORE POP POP DUP4 PUSH1 0x0 PUSH1 0x3 DUP2 LT PUSH2 0x2EA2 JUMPI PUSH2 0x2EA1 PUSH2 0x40E3 JUMP JUMPDEST JUMPDEST PUSH1 0x20 MUL ADD MLOAD DUP2 PUSH1 0x1 PUSH1 0x3 DUP2 LT PUSH2 0x2EBB JUMPI PUSH2 0x2EBA PUSH2 0x40E3 JUMP JUMPDEST JUMPDEST PUSH1 0x20 MUL ADD SWAP1 PUSH1 0xFF AND SWAP1 DUP2 PUSH1 0xFF AND DUP2 MSTORE POP POP DUP4 PUSH1 0x2 PUSH1 0x3 DUP2 LT PUSH2 0x2EE0 JUMPI PUSH2 0x2EDF PUSH2 0x40E3 JUMP JUMPDEST JUMPDEST PUSH1 0x20 MUL ADD MLOAD DUP2 PUSH1 0x2 PUSH1 0x3 DUP2 LT PUSH2 0x2EF9 JUMPI PUSH2 0x2EF8 PUSH2 0x40E3 JUMP JUMPDEST JUMPDEST PUSH1 0x20 MUL ADD SWAP1 PUSH1 0xFF AND SWAP1 DUP2 PUSH1 0xFF AND DUP2 MSTORE POP POP JUMPDEST PUSH2 0x31C7 JUMP JUMPDEST DUP4 PUSH1 0x2 PUSH1 0x3 DUP2 LT PUSH2 0x2F24 JUMPI PUSH2 0x2F23 PUSH2 0x40E3 JUMP JUMPDEST JUMPDEST PUSH1 0x20 MUL ADD MLOAD PUSH1 0xFF AND DUP5 PUSH1 0x0 PUSH1 0x3 DUP2 LT PUSH2 0x2F40 JUMPI PUSH2 0x2F3F PUSH2 0x40E3 JUMP JUMPDEST JUMPDEST PUSH1 0x20 MUL ADD MLOAD PUSH1 0xFF AND GT ISZERO PUSH2 0x300D JUMPI DUP4 PUSH1 0x2 PUSH1 0x3 DUP2 LT PUSH2 0x2F62 JUMPI PUSH2 0x2F61 PUSH2 0x40E3 JUMP JUMPDEST JUMPDEST PUSH1 0x20 MUL ADD MLOAD DUP2 PUSH1 0x0 PUSH1 0x3 DUP2 LT PUSH2 0x2F7B JUMPI PUSH2 0x2F7A PUSH2 0x40E3 JUMP JUMPDEST JUMPDEST PUSH1 0x20 MUL ADD SWAP1 PUSH1 0xFF AND SWAP1 DUP2 PUSH1 0xFF AND DUP2 MSTORE POP POP DUP4 PUSH1 0x0 PUSH1 0x3 DUP2 LT PUSH2 0x2FA0 JUMPI PUSH2 0x2F9F PUSH2 0x40E3 JUMP JUMPDEST JUMPDEST PUSH1 0x20 MUL ADD MLOAD DUP2 PUSH1 0x1 PUSH1 0x3 DUP2 LT PUSH2 0x2FB9 JUMPI PUSH2 0x2FB8 PUSH2 0x40E3 JUMP JUMPDEST JUMPDEST PUSH1 0x20 MUL ADD SWAP1 PUSH1 0xFF AND SWAP1 DUP2 PUSH1 0xFF AND DUP2 MSTORE POP POP DUP4 PUSH1 0x1 PUSH1 0x3 DUP2 LT PUSH2 0x2FDE JUMPI PUSH2 0x2FDD PUSH2 0x40E3 JUMP JUMPDEST JUMPDEST PUSH1 0x20 MUL ADD MLOAD DUP2 PUSH1 0x2 PUSH1 0x3 DUP2 LT PUSH2 0x2FF7 JUMPI PUSH2 0x2FF6 PUSH2 0x40E3 JUMP JUMPDEST JUMPDEST PUSH1 0x20 MUL ADD SWAP1 PUSH1 0xFF AND SWAP1 DUP2 PUSH1 0xFF AND DUP2 MSTORE POP POP PUSH2 0x31C6 JUMP JUMPDEST DUP4 PUSH1 0x2 PUSH1 0x3 DUP2 LT PUSH2 0x3021 JUMPI PUSH2 0x3020 PUSH2 0x40E3 JUMP JUMPDEST JUMPDEST PUSH1 0x20 MUL ADD MLOAD PUSH1 0xFF AND DUP5 PUSH1 0x1 PUSH1 0x3 DUP2 LT PUSH2 0x303D JUMPI PUSH2 0x303C PUSH2 0x40E3 JUMP JUMPDEST JUMPDEST PUSH1 0x20 MUL ADD MLOAD PUSH1 0xFF AND GT ISZERO PUSH2 0x310A JUMPI DUP4 PUSH1 0x0 PUSH1 0x3 DUP2 LT PUSH2 0x305F JUMPI PUSH2 0x305E PUSH2 0x40E3 JUMP JUMPDEST JUMPDEST PUSH1 0x20 MUL ADD MLOAD DUP2 PUSH1 0x0 PUSH1 0x3 DUP2 LT PUSH2 0x3078 JUMPI PUSH2 0x3077 PUSH2 0x40E3 JUMP JUMPDEST JUMPDEST PUSH1 0x20 MUL ADD SWAP1 PUSH1 0xFF AND SWAP1 DUP2 PUSH1 0xFF AND DUP2 MSTORE POP POP DUP4 PUSH1 0x2 PUSH1 0x3 DUP2 LT PUSH2 0x309D JUMPI PUSH2 0x309C PUSH2 0x40E3 JUMP JUMPDEST JUMPDEST PUSH1 0x20 MUL ADD MLOAD DUP2 PUSH1 0x1 PUSH1 0x3 DUP2 LT PUSH2 0x30B6 JUMPI PUSH2 0x30B5 PUSH2 0x40E3 JUMP JUMPDEST JUMPDEST PUSH1 0x20 MUL ADD SWAP1 PUSH1 0xFF AND SWAP1 DUP2 PUSH1 0xFF AND DUP2 MSTORE POP POP DUP4 PUSH1 0x1 PUSH1 0x3 DUP2 LT PUSH2 0x30DB JUMPI PUSH2 0x30DA PUSH2 0x40E3 JUMP JUMPDEST JUMPDEST PUSH1 0x20 MUL ADD MLOAD DUP2 PUSH1 0x2 PUSH1 0x3 DUP2 LT PUSH2 0x30F4 JUMPI PUSH2 0x30F3 PUSH2 0x40E3 JUMP JUMPDEST JUMPDEST PUSH1 0x20 MUL ADD SWAP1 PUSH1 0xFF AND SWAP1 DUP2 PUSH1 0xFF AND DUP2 MSTORE POP POP PUSH2 0x31C5 JUMP JUMPDEST DUP4 PUSH1 0x0 PUSH1 0x3 DUP2 LT PUSH2 0x311E JUMPI PUSH2 0x311D PUSH2 0x40E3 JUMP JUMPDEST JUMPDEST PUSH1 0x20 MUL ADD MLOAD DUP2 PUSH1 0x0 PUSH1 0x3 DUP2 LT PUSH2 0x3137 JUMPI PUSH2 0x3136 PUSH2 0x40E3 JUMP JUMPDEST JUMPDEST PUSH1 0x20 MUL ADD SWAP1 PUSH1 0xFF AND SWAP1 DUP2 PUSH1 0xFF AND DUP2 MSTORE POP POP DUP4 PUSH1 0x1 PUSH1 0x3 DUP2 LT PUSH2 0x315C JUMPI PUSH2 0x315B PUSH2 0x40E3 JUMP JUMPDEST JUMPDEST PUSH1 0x20 MUL ADD MLOAD DUP2 PUSH1 0x1 PUSH1 0x3 DUP2 LT PUSH2 0x3175 JUMPI PUSH2 0x3174 PUSH2 0x40E3 JUMP JUMPDEST JUMPDEST PUSH1 0x20 MUL ADD SWAP1 PUSH1 0xFF AND SWAP1 DUP2 PUSH1 0xFF AND DUP2 MSTORE POP POP DUP4 PUSH1 0x2 PUSH1 0x3 DUP2 LT PUSH2 0x319A JUMPI PUSH2 0x3199 PUSH2 0x40E3 JUMP JUMPDEST JUMPDEST PUSH1 0x20 MUL ADD MLOAD DUP2 PUSH1 0x2 PUSH1 0x3 DUP2 LT PUSH2 0x31B3 JUMPI PUSH2 0x31B2 PUSH2 0x40E3 JUMP JUMPDEST JUMPDEST PUSH1 0x20 MUL ADD SWAP1 PUSH1 0xFF AND SWAP1 DUP2 PUSH1 0xFF AND DUP2 MSTORE POP POP JUMPDEST JUMPDEST JUMPDEST DUP1 SWAP2 POP POP PUSH2 0x32A1 JUMP JUMPDEST PUSH1 0x2 DUP3 EQ DUP1 ISZERO PUSH2 0x3215 JUMPI POP DUP3 PUSH1 0x1 PUSH1 0x3 DUP2 LT PUSH2 0x31EF JUMPI PUSH2 0x31EE PUSH2 0x40E3 JUMP JUMPDEST JUMPDEST PUSH1 0x20 MUL ADD MLOAD PUSH1 0xFF AND DUP4 PUSH1 0x0 PUSH1 0x3 DUP2 LT PUSH2 0x320B JUMPI PUSH2 0x320A PUSH2 0x40E3 JUMP JUMPDEST JUMPDEST PUSH1 0x20 MUL ADD MLOAD PUSH1 0xFF AND GT JUMPDEST ISZERO PUSH2 0x329D JUMPI PUSH1 0x0 DUP4 PUSH1 0x1 PUSH1 0x3 DUP2 LT PUSH2 0x3230 JUMPI PUSH2 0x322F PUSH2 0x40E3 JUMP JUMPDEST JUMPDEST PUSH1 0x20 MUL ADD MLOAD SWAP1 POP DUP4 PUSH1 0x0 PUSH1 0x3 DUP2 LT PUSH2 0x324B JUMPI PUSH2 0x324A PUSH2 0x40E3 JUMP JUMPDEST JUMPDEST PUSH1 0x20 MUL ADD MLOAD DUP5 PUSH1 0x1 PUSH1 0x3 DUP2 LT PUSH2 0x3264 JUMPI PUSH2 0x3263 PUSH2 0x40E3 JUMP JUMPDEST JUMPDEST PUSH1 0x20 MUL ADD SWAP1 PUSH1 0xFF AND SWAP1 DUP2 PUSH1 0xFF AND DUP2 MSTORE POP POP DUP1 DUP5 PUSH1 0x0 PUSH1 0x3 DUP2 LT PUSH2 0x328A JUMPI PUSH2 0x3289 PUSH2 0x40E3 JUMP JUMPDEST JUMPDEST PUSH1 0x20 MUL ADD SWAP1 PUSH1 0xFF AND SWAP1 DUP2 PUSH1 0xFF AND DUP2 MSTORE POP POP POP JUMPDEST DUP3 SWAP1 POP JUMPDEST SWAP3 SWAP2 POP POP JUMP JUMPDEST PUSH1 0x0 PUSH1 0x1 DUP3 PUSH2 0x32B6 SWAP2 SWAP1 PUSH2 0x3E43 JUMP JUMPDEST DUP3 AND DUP3 XOR SWAP1 POP SWAP2 SWAP1 POP JUMP JUMPDEST PUSH1 0x0 PUSH1 0x1 DUP3 SWAP1 SHR DUP3 OR SWAP2 POP PUSH1 0x2 DUP3 SWAP1 SHR DUP3 OR SWAP2 POP PUSH1 0x4 DUP3 SWAP1 SHR DUP3 OR SWAP2 POP PUSH1 0x8 DUP3 SWAP1 SHR DUP3 OR SWAP2 POP PUSH1 0x10 DUP3 SWAP1 SHR DUP3 OR SWAP2 POP PUSH1 0x20 DUP3 SWAP1 SHR DUP3 OR SWAP2 POP PUSH1 0x40 DUP3 SWAP1 SHR DUP3 OR SWAP2 POP PUSH1 0x80 DUP3 SWAP1 SHR DUP3 OR SWAP2 POP PUSH1 0x1 DUP3 PUSH2 0x3318 SWAP2 SWAP1 PUSH2 0x3CF0 JUMP JUMPDEST SWAP2 POP PUSH1 0x1 DUP3 SWAP1 SHR SWAP1 POP SWAP2 SWAP1 POP JUMP JUMPDEST PUSH1 0x40 MLOAD DUP1 PUSH1 0x40 ADD PUSH1 0x40 MSTORE DUP1 PUSH2 0x3339 PUSH2 0x33DD JUMP JUMPDEST DUP2 MSTORE PUSH1 0x20 ADD PUSH1 0x0 ISZERO ISZERO DUP2 MSTORE POP SWAP1 JUMP JUMPDEST PUSH1 0x40 MLOAD DUP1 PUSH1 0xA0 ADD PUSH1 0x40 MSTORE DUP1 PUSH1 0x5 SWAP1 PUSH1 0x20 DUP3 MUL DUP1 CALLDATASIZE DUP4 CALLDATACOPY DUP1 DUP3 ADD SWAP2 POP POP SWAP1 POP POP SWAP1 JUMP JUMPDEST PUSH1 0x40 MLOAD DUP1 PUSH2 0x120 ADD PUSH1 0x40 MSTORE DUP1 PUSH1 0x9 SWAP1 PUSH1 0x20 DUP3 MUL DUP1 CALLDATASIZE DUP4 CALLDATACOPY DUP1 DUP3 ADD SWAP2 POP POP SWAP1 POP POP SWAP1 JUMP JUMPDEST PUSH1 0x40 MLOAD DUP1 PUSH2 0x120 ADD PUSH1 0x40 MSTORE DUP1 PUSH1 0x9 SWAP1 JUMPDEST PUSH2 0x33A5 PUSH2 0x344E JUMP JUMPDEST DUP2 MSTORE PUSH1 0x20 ADD SWAP1 PUSH1 0x1 SWAP1 SUB SWAP1 DUP2 PUSH2 0x339D JUMPI SWAP1 POP POP SWAP1 JUMP JUMPDEST PUSH1 0x40 MLOAD DUP1 PUSH1 0x60 ADD PUSH1 0x40 MSTORE DUP1 PUSH1 0x3 SWAP1 PUSH1 0x20 DUP3 MUL DUP1 CALLDATASIZE DUP4 CALLDATACOPY DUP1 DUP3 ADD SWAP2 POP POP SWAP1 POP POP SWAP1 JUMP JUMPDEST PUSH1 0x40 MLOAD DUP1 PUSH1 0x60 ADD PUSH1 0x40 MSTORE DUP1 PUSH1 0x3 SWAP1 PUSH1 0x20 DUP3 MUL DUP1 CALLDATASIZE DUP4 CALLDATACOPY DUP1 DUP3 ADD SWAP2 POP POP SWAP1 POP POP SWAP1 JUMP JUMPDEST PUSH1 0x40 MLOAD DUP1 PUSH2 0x180 ADD PUSH1 0x40 MSTORE DUP1 PUSH1 0xC SWAP1 JUMPDEST PUSH2 0x3417 PUSH2 0x3470 JUMP JUMPDEST DUP2 MSTORE PUSH1 0x20 ADD SWAP1 PUSH1 0x1 SWAP1 SUB SWAP1 DUP2 PUSH2 0x340F JUMPI SWAP1 POP POP SWAP1 JUMP JUMPDEST POP DUP1 SLOAD PUSH1 0x0 DUP3 SSTORE SWAP1 PUSH1 0x0 MSTORE PUSH1 0x20 PUSH1 0x0 KECCAK256 SWAP1 DUP2 ADD SWAP1 PUSH2 0x344B SWAP2 SWAP1 PUSH2 0x34A0 JUMP JUMPDEST POP JUMP JUMPDEST PUSH1 0x40 MLOAD DUP1 PUSH1 0x60 ADD PUSH1 0x40 MSTORE DUP1 PUSH1 0x3 SWAP1 PUSH1 0x20 DUP3 MUL DUP1 CALLDATASIZE DUP4 CALLDATACOPY DUP1 DUP3 ADD SWAP2 POP POP SWAP1 POP POP SWAP1 JUMP JUMPDEST PUSH1 0x40 MLOAD DUP1 PUSH1 0x40 ADD PUSH1 0x40 MSTORE DUP1 PUSH1 0x0 PUSH20 0xFFFFFFFFFFFFFFFFFFFFFFFFFFFFFFFFFFFFFFFF AND DUP2 MSTORE PUSH1 0x20 ADD PUSH1 0x0 DUP2 MSTORE POP SWAP1 JUMP JUMPDEST JUMPDEST DUP1 DUP3 GT ISZERO PUSH2 0x34B9 JUMPI PUSH1 0x0 DUP2 PUSH1 0x0 SWAP1 SSTORE POP PUSH1 0x1 ADD PUSH2 0x34A1 JUMP JUMPDEST POP SWAP1 JUMP JUMPDEST PUSH1 0x0 DUP2 CALLDATALOAD SWAP1 POP PUSH2 0x34CC DUP2 PUSH2 0x43DE JUMP JUMPDEST SWAP3 SWAP2 POP POP JUMP JUMPDEST PUSH1 0x0 DUP2 CALLDATALOAD SWAP1 POP PUSH2 0x34E1 DUP2 PUSH2 0x43F5 JUMP JUMPDEST SWAP3 SWAP2 POP POP JUMP JUMPDEST PUSH1 0x0 DUP2 CALLDATALOAD SWAP1 POP PUSH2 0x34F6 DUP2 PUSH2 0x440C JUMP JUMPDEST SWAP3 SWAP2 POP POP JUMP JUMPDEST PUSH1 0x0 DUP2 CALLDATALOAD SWAP1 POP PUSH2 0x350B DUP2 PUSH2 0x441C JUMP JUMPDEST SWAP3 SWAP2 POP POP JUMP JUMPDEST PUSH1 0x0 PUSH1 0x20 DUP3 DUP5 SUB SLT ISZERO PUSH2 0x3527 JUMPI PUSH2 0x3526 PUSH2 0x4141 JUMP JUMPDEST JUMPDEST PUSH1 0x0 PUSH2 0x3535 DUP5 DUP3 DUP6 ADD PUSH2 0x34BD JUMP JUMPDEST SWAP2 POP POP SWAP3 SWAP2 POP POP JUMP JUMPDEST PUSH1 0x0 DUP1 PUSH1 0x40 DUP4 DUP6 SUB SLT ISZERO PUSH2 0x3555 JUMPI PUSH2 0x3554 PUSH2 0x4141 JUMP JUMPDEST JUMPDEST PUSH1 0x0 PUSH2 0x3563 DUP6 DUP3 DUP7 ADD PUSH2 0x34BD JUMP JUMPDEST SWAP3 POP POP PUSH1 0x20 PUSH2 0x3574 DUP6 DUP3 DUP7 ADD PUSH2 0x34BD JUMP JUMPDEST SWAP2 POP POP SWAP3 POP SWAP3 SWAP1 POP JUMP JUMPDEST PUSH1 0x0 DUP1 PUSH1 0x40 DUP4 DUP6 SUB SLT ISZERO PUSH2 0x3595 JUMPI PUSH2 0x3594 PUSH2 0x4141 JUMP JUMPDEST JUMPDEST PUSH1 0x0 PUSH2 0x35A3 DUP6 DUP3 DUP7 ADD PUSH2 0x34BD JUMP JUMPDEST SWAP3 POP POP PUSH1 0x20 PUSH2 0x35B4 DUP6 DUP3 DUP7 ADD PUSH2 0x34E7 JUMP JUMPDEST SWAP2 POP POP SWAP3 POP SWAP3 SWAP1 POP JUMP JUMPDEST PUSH1 0x0 DUP1 PUSH1 0x40 DUP4 DUP6 SUB SLT ISZERO PUSH2 0x35D5 JUMPI PUSH2 0x35D4 PUSH2 0x4141 JUMP JUMPDEST JUMPDEST PUSH1 0x0 PUSH2 0x35E3 DUP6 DUP3 DUP7 ADD PUSH2 0x34BD JUMP JUMPDEST SWAP3 POP POP PUSH1 0x20 PUSH2 0x35F4 DUP6 DUP3 DUP7 ADD PUSH2 0x34FC JUMP JUMPDEST SWAP2 POP POP SWAP3 POP SWAP3 SWAP1 POP JUMP JUMPDEST PUSH1 0x0 PUSH1 0x20 DUP3 DUP5 SUB SLT ISZERO PUSH2 0x3614 JUMPI PUSH2 0x3613 PUSH2 0x4141 JUMP JUMPDEST JUMPDEST PUSH1 0x0 PUSH2 0x3622 DUP5 DUP3 DUP6 ADD PUSH2 0x34E7 JUMP JUMPDEST SWAP2 POP POP SWAP3 SWAP2 POP POP JUMP JUMPDEST PUSH1 0x0 PUSH1 0x20 DUP3 DUP5 SUB SLT ISZERO PUSH2 0x3641 JUMPI PUSH2 0x3640 PUSH2 0x4141 JUMP JUMPDEST JUMPDEST PUSH1 0x0 PUSH2 0x364F DUP5 DUP3 DUP6 ADD PUSH2 0x34FC JUMP JUMPDEST SWAP2 POP POP SWAP3 SWAP2 POP POP JUMP JUMPDEST PUSH1 0x0 DUP1 PUSH1 0x40 DUP4 DUP6 SUB SLT ISZERO PUSH2 0x366F JUMPI PUSH2 0x366E PUSH2 0x4141 JUMP JUMPDEST JUMPDEST PUSH1 0x0 PUSH2 0x367D DUP6 DUP3 DUP7 ADD PUSH2 0x34FC JUMP JUMPDEST SWAP3 POP POP PUSH1 0x20 PUSH2 0x368E DUP6 DUP3 DUP7 ADD PUSH2 0x34D2 JUMP JUMPDEST SWAP2 POP POP SWAP3 POP SWAP3 SWAP1 POP JUMP JUMPDEST PUSH1 0x0 PUSH2 0x36A4 DUP4 DUP4 PUSH2 0x36C8 JUMP JUMPDEST PUSH1 0x20 DUP4 ADD SWAP1 POP SWAP3 SWAP2 POP POP JUMP JUMPDEST PUSH1 0x0 PUSH2 0x36BC DUP4 DUP4 PUSH2 0x398C JUMP JUMPDEST PUSH1 0x20 DUP4 ADD SWAP1 POP SWAP3 SWAP2 POP POP JUMP JUMPDEST PUSH2 0x36D1 DUP2 PUSH2 0x3EAB JUMP JUMPDEST DUP3 MSTORE POP POP JUMP JUMPDEST PUSH1 0x0 PUSH2 0x36E2 DUP3 PUSH2 0x3C93 JUMP JUMPDEST PUSH2 0x36EC DUP2 DUP6 PUSH2 0x3CC3 JUMP JUMPDEST SWAP4 POP PUSH2 0x36F7 DUP4 PUSH2 0x3C79 JUMP JUMPDEST DUP1 PUSH1 0x0 JUMPDEST DUP4 DUP2 LT ISZERO PUSH2 0x3728 JUMPI DUP2 MLOAD PUSH2 0x370F DUP9 DUP3 PUSH2 0x3698 JUMP JUMPDEST SWAP8 POP PUSH2 0x371A DUP4 PUSH2 0x3CA9 JUMP JUMPDEST SWAP3 POP POP PUSH1 0x1 DUP2 ADD SWAP1 POP PUSH2 0x36FB JUMP JUMPDEST POP DUP6 SWAP4 POP POP POP POP SWAP3 SWAP2 POP POP JUMP JUMPDEST PUSH2 0x373E DUP2 PUSH2 0x3C9E JUMP JUMPDEST PUSH2 0x3748 DUP2 DUP5 PUSH2 0x3CD4 JUMP JUMPDEST SWAP3 POP PUSH2 0x3753 DUP3 PUSH2 0x3C89 JUMP JUMPDEST DUP1 PUSH1 0x0 JUMPDEST DUP4 DUP2 LT ISZERO PUSH2 0x3784 JUMPI DUP2 MLOAD PUSH2 0x376B DUP8 DUP3 PUSH2 0x36B0 JUMP JUMPDEST SWAP7 POP PUSH2 0x3776 DUP4 PUSH2 0x3CB6 JUMP JUMPDEST SWAP3 POP POP PUSH1 0x1 DUP2 ADD SWAP1 POP PUSH2 0x3757 JUMP JUMPDEST POP POP POP POP POP POP JUMP JUMPDEST PUSH2 0x3795 DUP2 PUSH2 0x3EBD JUMP JUMPDEST DUP3 MSTORE POP POP JUMP JUMPDEST PUSH2 0x37A4 DUP2 PUSH2 0x3EBD JUMP JUMPDEST DUP3 MSTORE POP POP JUMP JUMPDEST PUSH2 0x37B3 DUP2 PUSH2 0x3F13 JUMP JUMPDEST DUP3 MSTORE POP POP JUMP JUMPDEST PUSH1 0x0 PUSH2 0x37C6 PUSH1 0x15 DUP4 PUSH2 0x3CDF JUMP JUMPDEST SWAP2 POP PUSH2 0x37D1 DUP3 PUSH2 0x4146 JUMP JUMPDEST PUSH1 0x20 DUP3 ADD SWAP1 POP SWAP2 SWAP1 POP JUMP JUMPDEST PUSH1 0x0 PUSH2 0x37E9 PUSH1 0x13 DUP4 PUSH2 0x3CDF JUMP JUMPDEST SWAP2 POP PUSH2 0x37F4 DUP3 PUSH2 0x416F JUMP JUMPDEST PUSH1 0x20 DUP3 ADD SWAP1 POP SWAP2 SWAP1 POP JUMP JUMPDEST PUSH1 0x0 PUSH2 0x380C PUSH1 0x20 DUP4 PUSH2 0x3CDF JUMP JUMPDEST SWAP2 POP PUSH2 0x3817 DUP3 PUSH2 0x4198 JUMP JUMPDEST PUSH1 0x20 DUP3 ADD SWAP1 POP SWAP2 SWAP1 POP JUMP JUMPDEST PUSH1 0x0 PUSH2 0x382F PUSH1 0x18 DUP4 PUSH2 0x3CDF JUMP JUMPDEST SWAP2 POP PUSH2 0x383A DUP3 PUSH2 0x41C1 JUMP JUMPDEST PUSH1 0x20 DUP3 ADD SWAP1 POP SWAP2 SWAP1 POP JUMP JUMPDEST PUSH1 0x0 PUSH2 0x3852 PUSH1 0x12 DUP4 PUSH2 0x3CDF JUMP JUMPDEST SWAP2 POP PUSH2 0x385D DUP3 PUSH2 0x41EA JUMP JUMPDEST PUSH1 0x20 DUP3 ADD SWAP1 POP SWAP2 SWAP1 POP JUMP JUMPDEST PUSH1 0x0 PUSH2 0x3875 PUSH1 0xE DUP4 PUSH2 0x3CDF JUMP JUMPDEST SWAP2 POP PUSH2 0x3880 DUP3 PUSH2 0x4213 JUMP JUMPDEST PUSH1 0x20 DUP3 ADD SWAP1 POP SWAP2 SWAP1 POP JUMP JUMPDEST PUSH1 0x0 PUSH2 0x3898 PUSH1 0x6 DUP4 PUSH2 0x3CDF JUMP JUMPDEST SWAP2 POP PUSH2 0x38A3 DUP3 PUSH2 0x423C JUMP JUMPDEST PUSH1 0x20 DUP3 ADD SWAP1 POP SWAP2 SWAP1 POP JUMP JUMPDEST PUSH1 0x0 PUSH2 0x38BB PUSH1 0x2A DUP4 PUSH2 0x3CDF JUMP JUMPDEST SWAP2 POP PUSH2 0x38C6 DUP3 PUSH2 0x4265 JUMP JUMPDEST PUSH1 0x40 DUP3 ADD SWAP1 POP SWAP2 SWAP1 POP JUMP JUMPDEST PUSH1 0x0 PUSH2 0x38DE PUSH1 0x18 DUP4 PUSH2 0x3CDF JUMP JUMPDEST SWAP2 POP PUSH2 0x38E9 DUP3 PUSH2 0x42B4 JUMP JUMPDEST PUSH1 0x20 DUP3 ADD SWAP1 POP SWAP2 SWAP1 POP JUMP JUMPDEST PUSH1 0x0 PUSH2 0x3901 PUSH1 0x21 DUP4 PUSH2 0x3CDF JUMP JUMPDEST SWAP2 POP PUSH2 0x390C DUP3 PUSH2 0x42DD JUMP JUMPDEST PUSH1 0x40 DUP3 ADD SWAP1 POP SWAP2 SWAP1 POP JUMP JUMPDEST PUSH1 0x0 PUSH2 0x3924 PUSH1 0x37 DUP4 PUSH2 0x3CDF JUMP JUMPDEST SWAP2 POP PUSH2 0x392F DUP3 PUSH2 0x432C JUMP JUMPDEST PUSH1 0x40 DUP3 ADD SWAP1 POP SWAP2 SWAP1 POP JUMP JUMPDEST PUSH1 0x0 PUSH2 0x3947 PUSH1 0x22 DUP4 PUSH2 0x3CDF JUMP JUMPDEST SWAP2 POP PUSH2 0x3952 DUP3 PUSH2 0x437B JUMP JUMPDEST PUSH1 0x40 DUP3 ADD SWAP1 POP SWAP2 SWAP1 POP JUMP JUMPDEST PUSH1 0x80 DUP3 ADD PUSH1 0x0 DUP3 ADD MLOAD PUSH2 0x3973 PUSH1 0x0 DUP6 ADD DUP3 PUSH2 0x3735 JUMP JUMPDEST POP PUSH1 0x20 DUP3 ADD MLOAD PUSH2 0x3986 PUSH1 0x60 DUP6 ADD DUP3 PUSH2 0x378C JUMP JUMPDEST POP POP POP POP JUMP JUMPDEST PUSH2 0x3995 DUP2 PUSH2 0x3EFC JUMP JUMPDEST DUP3 MSTORE POP POP JUMP JUMPDEST PUSH2 0x39A4 DUP2 PUSH2 0x3EFC JUMP JUMPDEST DUP3 MSTORE POP POP JUMP JUMPDEST PUSH2 0x39BB PUSH2 0x39B6 DUP3 PUSH2 0x3EFC JUMP JUMPDEST PUSH2 0x3FEC JUMP JUMPDEST DUP3 MSTORE POP POP JUMP JUMPDEST PUSH2 0x39CA DUP2 PUSH2 0x3F06 JUMP JUMPDEST DUP3 MSTORE POP POP JUMP JUMPDEST PUSH1 0x0 PUSH2 0x39DC DUP3 DUP6 PUSH2 0x39AA JUMP JUMPDEST PUSH1 0x20 DUP3 ADD SWAP2 POP PUSH2 0x39EC DUP3 DUP5 PUSH2 0x39AA JUMP JUMPDEST PUSH1 0x20 DUP3 ADD SWAP2 POP DUP2 SWAP1 POP SWAP4 SWAP3 POP POP POP JUMP JUMPDEST PUSH1 0x0 PUSH1 0x20 DUP3 ADD SWAP1 POP DUP2 DUP2 SUB PUSH1 0x0 DUP4 ADD MSTORE PUSH2 0x3A16 DUP2 DUP5 PUSH2 0x36D7 JUMP JUMPDEST SWAP1 POP SWAP3 SWAP2 POP POP JUMP JUMPDEST PUSH1 0x0 PUSH1 0x20 DUP3 ADD SWAP1 POP PUSH2 0x3A33 PUSH1 0x0 DUP4 ADD DUP5 PUSH2 0x37AA JUMP JUMPDEST SWAP3 SWAP2 POP POP JUMP JUMPDEST PUSH1 0x0 PUSH1 0x20 DUP3 ADD SWAP1 POP DUP2 DUP2 SUB PUSH1 0x0 DUP4 ADD MSTORE PUSH2 0x3A52 DUP2 PUSH2 0x37B9 JUMP JUMPDEST SWAP1 POP SWAP2 SWAP1 POP JUMP JUMPDEST PUSH1 0x0 PUSH1 0x20 DUP3 ADD SWAP1 POP DUP2 DUP2 SUB PUSH1 0x0 DUP4 ADD MSTORE PUSH2 0x3A72 DUP2 PUSH2 0x37DC JUMP JUMPDEST SWAP1 POP SWAP2 SWAP1 POP JUMP JUMPDEST PUSH1 0x0 PUSH1 0x20 DUP3 ADD SWAP1 POP DUP2 DUP2 SUB PUSH1 0x0 DUP4 ADD MSTORE PUSH2 0x3A92 DUP2 PUSH2 0x37FF JUMP JUMPDEST SWAP1 POP SWAP2 SWAP1 POP JUMP JUMPDEST PUSH1 0x0 PUSH1 0x20 DUP3 ADD SWAP1 POP DUP2 DUP2 SUB PUSH1 0x0 DUP4 ADD MSTORE PUSH2 0x3AB2 DUP2 PUSH2 0x3822 JUMP JUMPDEST SWAP1 POP SWAP2 SWAP1 POP JUMP JUMPDEST PUSH1 0x0 PUSH1 0x20 DUP3 ADD SWAP1 POP DUP2 DUP2 SUB PUSH1 0x0 DUP4 ADD MSTORE PUSH2 0x3AD2 DUP2 PUSH2 0x3845 JUMP JUMPDEST SWAP1 POP SWAP2 SWAP1 POP JUMP JUMPDEST PUSH1 0x0 PUSH1 0x20 DUP3 ADD SWAP1 POP DUP2 DUP2 SUB PUSH1 0x0 DUP4 ADD MSTORE PUSH2 0x3AF2 DUP2 PUSH2 0x3868 JUMP JUMPDEST SWAP1 POP SWAP2 SWAP1 POP JUMP JUMPDEST PUSH1 0x0 PUSH1 0x20 DUP3 ADD SWAP1 POP DUP2 DUP2 SUB PUSH1 0x0 DUP4 ADD MSTORE PUSH2 0x3B12 DUP2 PUSH2 0x388B JUMP JUMPDEST SWAP1 POP SWAP2 SWAP1 POP JUMP JUMPDEST PUSH1 0x0 PUSH1 0x20 DUP3 ADD SWAP1 POP DUP2 DUP2 SUB PUSH1 0x0 DUP4 ADD MSTORE PUSH2 0x3B32 DUP2 PUSH2 0x38AE JUMP JUMPDEST SWAP1 POP SWAP2 SWAP1 POP JUMP JUMPDEST PUSH1 0x0 PUSH1 0x20 DUP3 ADD SWAP1 POP DUP2 DUP2 SUB PUSH1 0x0 DUP4 ADD MSTORE PUSH2 0x3B52 DUP2 PUSH2 0x38D1 JUMP JUMPDEST SWAP1 POP SWAP2 SWAP1 POP JUMP JUMPDEST PUSH1 0x0 PUSH1 0x20 DUP3 ADD SWAP1 POP DUP2 DUP2 SUB PUSH1 0x0 DUP4 ADD MSTORE PUSH2 0x3B72 DUP2 PUSH2 0x38F4 JUMP JUMPDEST SWAP1 POP SWAP2 SWAP1 POP JUMP JUMPDEST PUSH1 0x0 PUSH1 0x20 DUP3 ADD SWAP1 POP DUP2 DUP2 SUB PUSH1 0x0 DUP4 ADD MSTORE PUSH2 0x3B92 DUP2 PUSH2 0x3917 JUMP JUMPDEST SWAP1 POP SWAP2 SWAP1 POP JUMP JUMPDEST PUSH1 0x0 PUSH1 0x20 DUP3 ADD SWAP1 POP DUP2 DUP2 SUB PUSH1 0x0 DUP4 ADD MSTORE PUSH2 0x3BB2 DUP2 PUSH2 0x393A JUMP JUMPDEST SWAP1 POP SWAP2 SWAP1 POP JUMP JUMPDEST PUSH1 0x0 PUSH1 0x80 DUP3 ADD SWAP1 POP PUSH2 0x3BCE PUSH1 0x0 DUP4 ADD DUP5 PUSH2 0x395D JUMP JUMPDEST SWAP3 SWAP2 POP POP JUMP JUMPDEST PUSH1 0x0 PUSH1 0x20 DUP3 ADD SWAP1 POP PUSH2 0x3BE9 PUSH1 0x0 DUP4 ADD DUP5 PUSH2 0x399B JUMP JUMPDEST SWAP3 SWAP2 POP POP JUMP JUMPDEST PUSH1 0x0 PUSH1 0xE0 DUP3 ADD SWAP1 POP PUSH2 0x3C04 PUSH1 0x0 DUP4 ADD DUP11 PUSH2 0x399B JUMP JUMPDEST PUSH2 0x3C11 PUSH1 0x20 DUP4 ADD DUP10 PUSH2 0x399B JUMP JUMPDEST PUSH2 0x3C1E PUSH1 0x40 DUP4 ADD DUP9 PUSH2 0x379B JUMP JUMPDEST PUSH2 0x3C2B PUSH1 0x60 DUP4 ADD DUP8 PUSH2 0x399B JUMP JUMPDEST PUSH2 0x3C38 PUSH1 0x80 DUP4 ADD DUP7 PUSH2 0x399B JUMP JUMPDEST PUSH2 0x3C45 PUSH1 0xA0 DUP4 ADD DUP6 PUSH2 0x399B JUMP JUMPDEST PUSH2 0x3C52 PUSH1 0xC0 DUP4 ADD DUP5 PUSH2 0x39C1 JUMP JUMPDEST SWAP9 SWAP8 POP POP POP POP POP POP POP POP JUMP JUMPDEST PUSH1 0x0 PUSH1 0x20 DUP3 ADD SWAP1 POP PUSH2 0x3C73 PUSH1 0x0 DUP4 ADD DUP5 PUSH2 0x39C1 JUMP JUMPDEST SWAP3 SWAP2 POP POP JUMP JUMPDEST PUSH1 0x0 DUP2 SWAP1 POP PUSH1 0x20 DUP3 ADD SWAP1 POP SWAP2 SWAP1 POP JUMP JUMPDEST PUSH1 0x0 DUP2 SWAP1 POP SWAP2 SWAP1 POP JUMP JUMPDEST PUSH1 0x0 DUP2 MLOAD SWAP1 POP SWAP2 SWAP1 POP JUMP JUMPDEST PUSH1 0x0 PUSH1 0x3 SWAP1 POP SWAP2 SWAP1 POP JUMP JUMPDEST PUSH1 0x0 PUSH1 0x20 DUP3 ADD SWAP1 POP SWAP2 SWAP1 POP JUMP JUMPDEST PUSH1 0x0 PUSH1 0x20 DUP3 ADD SWAP1 POP SWAP2 SWAP1 POP JUMP JUMPDEST PUSH1 0x0 DUP3 DUP3 MSTORE PUSH1 0x20 DUP3 ADD SWAP1 POP SWAP3 SWAP2 POP POP JUMP JUMPDEST PUSH1 0x0 DUP2 SWAP1 POP SWAP3 SWAP2 POP POP JUMP JUMPDEST PUSH1 0x0 DUP3 DUP3 MSTORE PUSH1 0x20 DUP3 ADD SWAP1 POP SWAP3 SWAP2 POP POP JUMP JUMPDEST PUSH1 0x0 PUSH2 0x3CFB DUP3 PUSH2 0x3EFC JUMP JUMPDEST SWAP2 POP PUSH2 0x3D06 DUP4 PUSH2 0x3EFC JUMP JUMPDEST SWAP3 POP DUP3 PUSH32 0xFFFFFFFFFFFFFFFFFFFFFFFFFFFFFFFFFFFFFFFFFFFFFFFFFFFFFFFFFFFFFFFF SUB DUP3 GT ISZERO PUSH2 0x3D3B JUMPI PUSH2 0x3D3A PUSH2 0x4056 JUMP JUMPDEST JUMPDEST DUP3 DUP3 ADD SWAP1 POP SWAP3 SWAP2 POP POP JUMP JUMPDEST PUSH1 0x0 PUSH2 0x3D51 DUP3 PUSH2 0x3F06 JUMP JUMPDEST SWAP2 POP PUSH2 0x3D5C DUP4 PUSH2 0x3F06 JUMP JUMPDEST SWAP3 POP DUP3 PUSH1 0xFF SUB DUP3 GT ISZERO PUSH2 0x3D72 JUMPI PUSH2 0x3D71 PUSH2 0x4056 JUMP JUMPDEST JUMPDEST DUP3 DUP3 ADD SWAP1 POP SWAP3 SWAP2 POP POP JUMP JUMPDEST PUSH1 0x0 PUSH2 0x3D88 DUP3 PUSH2 0x3EFC JUMP JUMPDEST SWAP2 POP PUSH2 0x3D93 DUP4 PUSH2 0x3EFC JUMP JUMPDEST SWAP3 POP DUP3 PUSH2 0x3DA3 JUMPI PUSH2 0x3DA2 PUSH2 0x4085 JUMP JUMPDEST JUMPDEST DUP3 DUP3 DIV SWAP1 POP SWAP3 SWAP2 POP POP JUMP JUMPDEST PUSH1 0x0 PUSH2 0x3DB9 DUP3 PUSH2 0x3EFC JUMP JUMPDEST SWAP2 POP PUSH2 0x3DC4 DUP4 PUSH2 0x3EFC JUMP JUMPDEST SWAP3 POP DUP2 PUSH32 0xFFFFFFFFFFFFFFFFFFFFFFFFFFFFFFFFFFFFFFFFFFFFFFFFFFFFFFFFFFFFFFFF DIV DUP4 GT DUP3 ISZERO ISZERO AND ISZERO PUSH2 0x3DFD JUMPI PUSH2 0x3DFC PUSH2 0x4056 JUMP JUMPDEST JUMPDEST DUP3 DUP3 MUL SWAP1 POP SWAP3 SWAP2 POP POP JUMP JUMPDEST PUSH1 0x0 PUSH2 0x3E13 DUP3 PUSH2 0x3F06 JUMP JUMPDEST SWAP2 POP PUSH2 0x3E1E DUP4 PUSH2 0x3F06 JUMP JUMPDEST SWAP3 POP DUP2 PUSH1 0xFF DIV DUP4 GT DUP3 ISZERO ISZERO AND ISZERO PUSH2 0x3E38 JUMPI PUSH2 0x3E37 PUSH2 0x4056 JUMP JUMPDEST JUMPDEST DUP3 DUP3 MUL SWAP1 POP SWAP3 SWAP2 POP POP JUMP JUMPDEST PUSH1 0x0 PUSH2 0x3E4E DUP3 PUSH2 0x3EFC JUMP JUMPDEST SWAP2 POP PUSH2 0x3E59 DUP4 PUSH2 0x3EFC JUMP JUMPDEST SWAP3 POP DUP3 DUP3 LT ISZERO PUSH2 0x3E6C JUMPI PUSH2 0x3E6B PUSH2 0x4056 JUMP JUMPDEST JUMPDEST DUP3 DUP3 SUB SWAP1 POP SWAP3 SWAP2 POP POP JUMP JUMPDEST PUSH1 0x0 PUSH2 0x3E82 DUP3 PUSH2 0x3F06 JUMP JUMPDEST SWAP2 POP PUSH2 0x3E8D DUP4 PUSH2 0x3F06 JUMP JUMPDEST SWAP3 POP DUP3 DUP3 LT ISZERO PUSH2 0x3EA0 JUMPI PUSH2 0x3E9F PUSH2 0x4056 JUMP JUMPDEST JUMPDEST DUP3 DUP3 SUB SWAP1 POP SWAP3 SWAP2 POP POP JUMP JUMPDEST PUSH1 0x0 PUSH2 0x3EB6 DUP3 PUSH2 0x3EDC JUMP JUMPDEST SWAP1 POP SWAP2 SWAP1 POP JUMP JUMPDEST PUSH1 0x0 DUP2 ISZERO ISZERO SWAP1 POP SWAP2 SWAP1 POP JUMP JUMPDEST PUSH1 0x0 DUP2 SWAP1 POP PUSH2 0x3ED7 DUP3 PUSH2 0x43CA JUMP JUMPDEST SWAP2 SWAP1 POP JUMP JUMPDEST PUSH1 0x0 PUSH20 0xFFFFFFFFFFFFFFFFFFFFFFFFFFFFFFFFFFFFFFFF DUP3 AND SWAP1 POP SWAP2 SWAP1 POP JUMP JUMPDEST PUSH1 0x0 DUP2 SWAP1 POP SWAP2 SWAP1 POP JUMP JUMPDEST PUSH1 0x0 PUSH1 0xFF DUP3 AND SWAP1 POP SWAP2 SWAP1 POP JUMP JUMPDEST PUSH1 0x0 PUSH2 0x3F1E DUP3 PUSH2 0x3EC9 JUMP JUMPDEST SWAP1 POP SWAP2 SWAP1 POP JUMP JUMPDEST PUSH1 0x0 PUSH2 0x3F30 DUP3 PUSH2 0x3EFC JUMP JUMPDEST SWAP2 POP PUSH1 0x0 DUP3 EQ ISZERO PUSH2 0x3F44 JUMPI PUSH2 0x3F43 PUSH2 0x4056 JUMP JUMPDEST JUMPDEST PUSH1 0x1 DUP3 SUB SWAP1 POP SWAP2 SWAP1 POP JUMP JUMPDEST PUSH1 0x0 PUSH2 0x3F5A DUP3 PUSH2 0x3F06 JUMP JUMPDEST SWAP2 POP PUSH1 0x0 DUP3 EQ ISZERO PUSH2 0x3F6E JUMPI PUSH2 0x3F6D PUSH2 0x4056 JUMP JUMPDEST JUMPDEST PUSH1 0x1 DUP3 SUB SWAP1 POP SWAP2 SWAP1 POP JUMP JUMPDEST PUSH1 0x0 PUSH2 0x3F84 DUP3 PUSH2 0x3EFC JUMP JUMPDEST SWAP2 POP PUSH32 0xFFFFFFFFFFFFFFFFFFFFFFFFFFFFFFFFFFFFFFFFFFFFFFFFFFFFFFFFFFFFFFFF DUP3 EQ ISZERO PUSH2 0x3FB7 JUMPI PUSH2 0x3FB6 PUSH2 0x4056 JUMP JUMPDEST JUMPDEST PUSH1 0x1 DUP3 ADD SWAP1 POP SWAP2 SWAP1 POP JUMP JUMPDEST PUSH1 0x0 PUSH2 0x3FCD DUP3 PUSH2 0x3F06 JUMP JUMPDEST SWAP2 POP PUSH1 0xFF DUP3 EQ ISZERO PUSH2 0x3FE1 JUMPI PUSH2 0x3FE0 PUSH2 0x4056 JUMP JUMPDEST JUMPDEST PUSH1 0x1 DUP3 ADD SWAP1 POP SWAP2 SWAP1 POP JUMP JUMPDEST PUSH1 0x0 DUP2 SWAP1 POP SWAP2 SWAP1 POP JUMP JUMPDEST PUSH1 0x0 PUSH2 0x4001 DUP3 PUSH2 0x3EFC JUMP JUMPDEST SWAP2 POP PUSH2 0x400C DUP4 PUSH2 0x3EFC JUMP JUMPDEST SWAP3 POP DUP3 PUSH2 0x401C JUMPI PUSH2 0x401B PUSH2 0x4085 JUMP JUMPDEST JUMPDEST DUP3 DUP3 MOD SWAP1 POP SWAP3 SWAP2 POP POP JUMP JUMPDEST PUSH32 0x4E487B7100000000000000000000000000000000000000000000000000000000 PUSH1 0x0 MSTORE PUSH1 0x1 PUSH1 0x4 MSTORE PUSH1 0x24 PUSH1 0x0 REVERT JUMPDEST PUSH32 0x4E487B7100000000000000000000000000000000000000000000000000000000 PUSH1 0x0 MSTORE PUSH1 0x11 PUSH1 0x4 MSTORE PUSH1 0x24 PUSH1 0x0 REVERT JUMPDEST PUSH32 0x4E487B7100000000000000000000000000000000000000000000000000000000 PUSH1 0x0 MSTORE PUSH1 0x12 PUSH1 0x4 MSTORE PUSH1 0x24 PUSH1 0x0 REVERT JUMPDEST PUSH32 0x4E487B7100000000000000000000000000000000000000000000000000000000 PUSH1 0x0 MSTORE PUSH1 0x21 PUSH1 0x4 MSTORE PUSH1 0x24 PUSH1 0x0 REVERT JUMPDEST PUSH32 0x4E487B7100000000000000000000000000000000000000000000000000000000 PUSH1 0x0 MSTORE PUSH1 0x32 PUSH1 0x4 MSTORE PUSH1 0x24 PUSH1 0x0 REVERT JUMPDEST PUSH32 0x4E487B7100000000000000000000000000000000000000000000000000000000 PUSH1 0x0 MSTORE PUSH1 0x41 PUSH1 0x4 MSTORE PUSH1 0x24 PUSH1 0x0 REVERT JUMPDEST PUSH1 0x0 DUP1 REVERT JUMPDEST PUSH32 0x5072697A6520616C726561647920636C61696D65640000000000000000000000 PUSH1 0x0 DUP3 ADD MSTORE POP JUMP JUMPDEST PUSH32 0x4E6F207469636B65742070757263686173656400000000000000000000000000 PUSH1 0x0 DUP3 ADD MSTORE POP JUMP JUMPDEST PUSH32 0x5469636B657420636F7374206D757374206265206174206C6561737420313030 PUSH1 0x0 DUP3 ADD MSTORE POP JUMP JUMPDEST PUSH32 0x5469636B657420616C7265616479207075726368617365640000000000000000 PUSH1 0x0 DUP3 ADD MSTORE POP JUMP JUMPDEST PUSH32 0x4E6F207072697A657320746F20636C61696D0000000000000000000000000000 PUSH1 0x0 DUP3 ADD MSTORE POP JUMP JUMPDEST PUSH32 0x47616D65206E6F74207265616479000000000000000000000000000000000000 PUSH1 0x0 DUP3 ADD MSTORE POP JUMP JUMPDEST PUSH32 0x426F676965210000000000000000000000000000000000000000000000000000 PUSH1 0x0 DUP3 ADD MSTORE POP JUMP JUMPDEST PUSH32 0x47616D65206E6F742079657420617661696C61626C6520746F2067656E657261 PUSH1 0x0 DUP3 ADD MSTORE PUSH32 0x7465206E756D6265727300000000000000000000000000000000000000000000 PUSH1 0x20 DUP3 ADD MSTORE POP JUMP JUMPDEST PUSH32 0x47616D65206861736E27742066696E6973686564207965740000000000000000 PUSH1 0x0 DUP3 ADD MSTORE POP JUMP JUMPDEST PUSH32 0x596F752063616E206F6E6C7920636C61696D206F6E652066756C6C20686F7573 PUSH1 0x0 DUP3 ADD MSTORE PUSH32 0x6500000000000000000000000000000000000000000000000000000000000000 PUSH1 0x20 DUP3 ADD MSTORE POP JUMP JUMPDEST PUSH32 0x506C6561736520656E64207468652070726576696F75732067616D6520626566 PUSH1 0x0 DUP3 ADD MSTORE PUSH32 0x6F726520686F7374696E6720616E6F74686572206F6E65000000000000000000 PUSH1 0x20 DUP3 ADD MSTORE POP JUMP JUMPDEST PUSH32 0x496E636F72726563742066756E64732073656E7420746F20627579207469636B PUSH1 0x0 DUP3 ADD MSTORE PUSH32 0x6574000000000000000000000000000000000000000000000000000000000000 PUSH1 0x20 DUP3 ADD MSTORE POP JUMP JUMPDEST PUSH1 0xC DUP2 LT PUSH2 0x43DB JUMPI PUSH2 0x43DA PUSH2 0x40B4 JUMP JUMPDEST JUMPDEST POP JUMP JUMPDEST PUSH2 0x43E7 DUP2 PUSH2 0x3EAB JUMP JUMPDEST DUP2 EQ PUSH2 0x43F2 JUMPI PUSH1 0x0 DUP1 REVERT JUMPDEST POP JUMP JUMPDEST PUSH2 0x43FE DUP2 PUSH2 0x3EBD JUMP JUMPDEST DUP2 EQ PUSH2 0x4409 JUMPI PUSH1 0x0 DUP1 REVERT JUMPDEST POP JUMP JUMPDEST PUSH1 0xC DUP2 LT PUSH2 0x4419 JUMPI PUSH1 0x0 DUP1 REVERT JUMPDEST POP JUMP JUMPDEST PUSH2 0x4425 DUP2 PUSH2 0x3EFC JUMP JUMPDEST DUP2 EQ PUSH2 0x4430 JUMPI PUSH1 0x0 DUP1 REVERT JUMPDEST POP JUMP INVALID LOG2 PUSH5 0x6970667358 0x22 SLT KECCAK256 0x5F GT CREATE2 DUP13 0xA6 0xC 0x23 0xEC SWAP12 ISZERO 0xED 0xEC SWAP15 0x1F GT 0xBA 0xC8 0xDF GASLIMIT 0xE2 0xD 0x25 0xC7 0xE3 TIMESTAMP 0xD1 0xDD GASPRICE 0xB9 GAS CODESIZE DUP1 PUSH5 0x736F6C6343 STOP ADDMOD SMOD STOP CALLER "
		},
		"gasEstimates": {
			"creation": {
				"codeDepositCost": "3502600",
				"executionCost": "3925",
				"totalCost": "3506525"
			},
			"external": {
				"buyTicket(address)": "infinite",
				"buyTicket(address,uint256)": "infinite",
				"claimPrize(address,uint8)": "infinite",
				"endGame()": "infinite",
				"games(address)": "infinite",
				"generateNext()": "infinite",
				"generateNext(uint256)": "infinite",
				"getPrizeAllocationPercent(uint8)": "820",
				"getPrizesStatus(address)": "infinite",
				"getTicket(address,address)": "infinite",
				"hostGame(uint256,bool)": "infinite"
			},
			"internal": {
				"canChangeTicketCost(struct Tambola.Game storage pointer)": "2148",
				"generateColumn(uint256,uint8,uint8)": "infinite",
				"generateColumnNumbers(uint256)": "infinite",
				"getGameStatus(struct Tambola.Game storage pointer)": "infinite",
				"maskTicketForPrizeType(enum Tambola.PrizeType,struct Tambola.Ticket memory)": "infinite",
				"onlyLeftMostBit(uint256)": "infinite",
				"onlyRightMostBit(uint256)": "infinite",
				"random(uint256)": "infinite",
				"sortColumn(uint8[3] memory,uint256)": "infinite",
				"unSetRightMostBit(uint256)": "infinite"
			}
		},
		"methodIdentifiers": {
			"buyTicket(address)": "a5f8cdbb",
			"buyTicket(address,uint256)": "66a5ef2f",
			"claimPrize(address,uint8)": "25cc976d",
			"endGame()": "6cbc2ded",
			"games(address)": "79131a19",
			"generateNext()": "aad5632a",
			"generateNext(uint256)": "6334740a",
			"getPrizeAllocationPercent(uint8)": "f9beec0d",
			"getPrizesStatus(address)": "fd1035a6",
			"getTicket(address,address)": "37e84d3b",
			"hostGame(uint256,bool)": "57c93c0e"
		}
	},
	"abi": [
		{
			"anonymous": false,
			"inputs": [
				{
					"indexed": true,
					"internalType": "address",
					"name": "_host",
					"type": "address"
				},
				{
					"indexed": false,
					"internalType": "uint256",
					"name": "_number",
					"type": "uint256"
				}
			],
			"name": "NumberGenerated",
			"type": "event"
		},
		{
			"anonymous": false,
			"inputs": [
				{
					"indexed": true,
					"internalType": "address",
					"name": "_host",
					"type": "address"
				},
				{
					"indexed": false,
					"internalType": "enum Tambola.PrizeType",
					"name": "_prizeType",
					"type": "uint8"
				}
			],
			"name": "PrizeClaimed",
			"type": "event"
		},
		{
			"anonymous": false,
			"inputs": [
				{
					"indexed": true,
					"internalType": "address",
					"name": "_host",
					"type": "address"
				}
			],
			"name": "TicketBought",
			"type": "event"
		},
		{
			"inputs": [
				{
					"internalType": "address",
					"name": "host",
					"type": "address"
				},
				{
					"internalType": "uint256",
					"name": "randomness",
					"type": "uint256"
				}
			],
			"name": "buyTicket",
			"outputs": [],
			"stateMutability": "payable",
			"type": "function"
		},
		{
			"inputs": [
				{
					"internalType": "address",
					"name": "host",
					"type": "address"
				}
			],
			"name": "buyTicket",
			"outputs": [],
			"stateMutability": "payable",
			"type": "function"
		},
		{
			"inputs": [
				{
					"internalType": "address",
					"name": "host",
					"type": "address"
				},
				{
					"internalType": "enum Tambola.PrizeType",
					"name": "prizeType",
					"type": "uint8"
				}
			],
			"name": "claimPrize",
			"outputs": [],
			"stateMutability": "nonpayable",
			"type": "function"
		},
		{
			"inputs": [],
			"name": "endGame",
			"outputs": [],
			"stateMutability": "nonpayable",
			"type": "function"
		},
		{
			"inputs": [
				{
					"internalType": "address",
					"name": "",
					"type": "address"
				}
			],
			"name": "games",
			"outputs": [
				{
					"internalType": "uint256",
					"name": "finishedAt",
					"type": "uint256"
				},
				{
					"internalType": "uint256",
					"name": "ticketCost",
					"type": "uint256"
				},
				{
					"internalType": "bool",
					"name": "bogusPenalty",
					"type": "bool"
				},
				{
					"internalType": "uint256",
					"name": "remainingNumbers",
					"type": "uint256"
				},
				{
					"internalType": "uint256",
					"name": "remainingNumbersCount",
					"type": "uint256"
				},
				{
					"internalType": "uint256",
					"name": "pot",
					"type": "uint256"
				},
				{
					"internalType": "uint8",
					"name": "remainingPrizesCount",
					"type": "uint8"
				}
			],
			"stateMutability": "view",
			"type": "function"
		},
		{
			"inputs": [
				{
					"internalType": "uint256",
					"name": "randomness",
					"type": "uint256"
				}
			],
			"name": "generateNext",
			"outputs": [
				{
					"internalType": "uint256",
					"name": "",
					"type": "uint256"
				}
			],
			"stateMutability": "nonpayable",
			"type": "function"
		},
		{
			"inputs": [],
			"name": "generateNext",
			"outputs": [
				{
					"internalType": "uint256",
					"name": "",
					"type": "uint256"
				}
			],
			"stateMutability": "nonpayable",
			"type": "function"
		},
		{
			"inputs": [
				{
					"internalType": "enum Tambola.PrizeType",
					"name": "prizeType",
					"type": "uint8"
				}
			],
			"name": "getPrizeAllocationPercent",
			"outputs": [
				{
					"internalType": "uint8",
					"name": "",
					"type": "uint8"
				}
			],
			"stateMutability": "pure",
			"type": "function"
		},
		{
			"inputs": [
				{
					"internalType": "address",
					"name": "host",
					"type": "address"
				}
			],
			"name": "getPrizesStatus",
			"outputs": [
				{
					"internalType": "address[]",
					"name": "",
					"type": "address[]"
				}
			],
			"stateMutability": "view",
			"type": "function"
		},
		{
			"inputs": [
				{
					"internalType": "address",
					"name": "host",
					"type": "address"
				},
				{
					"internalType": "address",
					"name": "player",
					"type": "address"
				}
			],
			"name": "getTicket",
			"outputs": [
				{
					"components": [
						{
							"internalType": "uint256[3]",
							"name": "rows",
							"type": "uint256[3]"
						},
						{
							"internalType": "bool",
							"name": "active",
							"type": "bool"
						}
					],
					"internalType": "struct Tambola.Ticket",
					"name": "",
					"type": "tuple"
				}
			],
			"stateMutability": "view",
			"type": "function"
		},
		{
			"inputs": [
				{
					"internalType": "uint256",
					"name": "ticketCost",
					"type": "uint256"
				},
				{
					"internalType": "bool",
					"name": "bogusPenalty",
					"type": "bool"
				}
			],
			"name": "hostGame",
			"outputs": [],
			"stateMutability": "nonpayable",
			"type": "function"
		}
	]
}